:020000041400E6
:10000000D07C0010FD7A0014057B0014077B0014DF
:10001000097B00140B7B00140D7B00145A5A5A5AAA
:100020000000000000000000000000001D88001417
:10003000117B001400000000B5880014C58800146E
:10004000177B0014177B00142D78001400000000AB
:10005000177B0014177B0014177B0014177B001408
:10006000C5620014177B0014177B0014177B001463
:10007000177B0014177B0014177B0014177B0014E8
:10008000177B0014177B0014177B0014177B0014D8
:10009000177B0014177B0014177B0014177B0014C8
:1000A000177B001409570014177B0014177B0014EA
:1000B000177B0014177B0014177B0014177B0014A8
:1000C000177B0014177B0014177B0014177B001498
:1000D000177B0014177B0014177B0014177B001488
:1000E000177B0014177B0014177B0014177B001478
:1000F00000000000177B0014177B0014177B00140E
:1001000000000000177B0014177B0014177B0014FD
:10011000177B0014DFF80CD008F056FC00480047AD
:1001200081010014D07C001001F00AFF00200BF0C8
:10013000ABFD00200AF092F900200AF07DF90028BA
:10014000FAD044F20804C4F20F04012020704FF4E6
:10015000FA7000F021F90020207040F2B120C1F2C5
:1001600000400021002209F047FB40F63C11C1F29B
:10017000000108604FF0FF3008F04EFDFEE700BFC1
:1001800008F0A8F808F086FD40F22910C1F20040FE
:100190000021002209F030FB08F050FD012808BFC3
:1001A00008F08EFDFEE7000040F60000C1F20000FE
:1001B000002141808180C180018141818181C18193
:1001C0000182012101707047704700BF10B50128FE
:1001D0004FF0000008BF012900D010BD40F6000418
:1001E000C1F20004E089218A884203D101202070F5
:1001F000002010BDA08943F67E11C1F2000101EB81
:10020000802118464FF4806208F09BFBA0890130E2
:10021000A081A089042804BF0020A081208A013089
:1002200020824FF4806010BD10B502283DD1029AA3
:10023000DAB31878072807D140F61400C1F200009D
:1002400001210170012010BD40F60004C1F200043C
:10025000E0882189401A80B2042809D140F63C1078
:10026000C1F200000068802109F088FA012010BD69
:10027000608842F67E11C1F2000101EB8020194630
:1002800008F05FFB608801210130608060880428ED
:1002900004BF00206080E0880130E08040F63C1020
:1002A000C1F20000006809F069FA012010BD00BF2A
:1002B00040F6000542F67E1643F67E184FF0000920
:1002C000C1F20005C1F200067F27C1F2000800BF9D
:1002D000812000214FF0FF3209F07CFAE88829895B
:1002E0008842F5D0AC88A002305C7E2818D106EB9D
:1002F000842005E0A002305C7E2806EB84200FD12C
:100300000770601C6988041F18BF04468C42F1D135
:10031000812000214FF0FF3209F05CFA0006E9D598
:10032000A888698906EB802008EB812101F0DEFDB9
:10033000A8880130A880A888042808BFA5F80490E0
:1003400028890130288168890130688168890428FA
:1003500008BFA5F80A90E8890130E88128780028CC
:10036000BCD0E889298A8842B8D0A8894FF4806334
:10037000411CA981A98908EB8022042908BFA5F89E
:100380000C90298A002001312982002185F80090F3
:100390000BF0B6FAA2E700004EF660214843401E7B
:1003A000FDD17047FF224FF001100A70704700BF67
:1003B0002DE9F04F89B0814690F900000D46B0F16B
:1003C000FF3FC0B208DC9F2806D84846294609B03E
:1003D000BDE8F04FFFF7E6BFAA460AF8010B4E460C
:1003E00016F8010B1E2800F2B182DFE810F01F00A2
:1003F0003F0051006F009B00B3005B02AF02B702E9
:10040000D502E902AF02AF02AF02AF02AF02F302C0
:100410003103450361036F03A703BF03E303ED0348
:10042000F70301040B0415041F0467043278A91CA8
:10043000A2F1F0030F2B4FF0000001F26180DFE822
:1004400013F01100E308F708F708F708F708F708B2
:10045000F708F708F708F708F708F708E908EF08BA
:10046000F30800BF372001F0E1B800BF3078012861
:1004700000F09982002840F0458499F8020044F287
:10048000080100F00100C4F20F0108708BE200BF08
:1004900031780020002908BF0121022900F03484AE
:1004A000012940F0428440F61401C1F2000101200C
:1004B000087146F20011C4F20F01002241F8802CAD
:1004C0006FF4007241F87C2C00F02FBC40F6140051
:1004D000C1F200000021017146F20010C4F20F00C9
:1004E0004FF48052C0F800214FF40072C0F804218C
:1004F0004FF48072C0F804214FF40052C0F800217C
:1005000050F8EC2C012422F0200240F8EC2C402280
:10051000C0F894218AF8001004F1011009B0BDE878
:10052000F08F00BF99F8010040F61401C1F20001FC
:100530000874B9F8020001248882B9F80400C0F2F6
:100540000504C88200208AF8000004F1011009B0F7
:10055000BDE8F08F40F6140BC1F2000B9BF80400CD
:10056000022800F0EB83012840F0D8854FF0000806
:100570008BF8008099F80230E81C0790002B09F1F5
:1005800003074FF0000001F0748404904FF0000E58
:10059000002000219846B9460691059319F8014BB1
:1005A000A10713D4BEF1000F52D00397BBF814700B
:1005B0000E2008A902F04EFFC7B3022836D19BF8DF
:1005C0000000013F0028F3D001F054B8BEF1000F45
:1005D0002AD00397BBF8147004F011000128029090
:1005E00010D10137204608A902F034FF02285FD15C
:1005F000013F01F03F809BF800000028F2D001F09D
:1006000039B800BF0E2008A902F024FF002F4FF0D8
:10061000000E4FD002284DD19BF80000013F00286A
:10062000F0D001F0D3B800BF002368E0012841F00A
:100630003584DDE9071008700898000A4870BDF895
:10064000220088709DF82300C870081D0790039F42
:10065000D7F80100A10607F10509089010D4BBF8EE
:100660001470204608A902F0F5FE7FB102280DD1D2
:100670009BF80000013F0028F3D001F0A7B800BFAD
:10068000CBF818004FF0000E0120DEE0012841F009
:100690000984200605D5DBF80C00079941F8040B06
:1006A00007914FF0000E012001210491CDE000BF21
:1006B0004FF0010E012841F08C80DDE90710029B0C
:1006C00008700898039F000A4870BDF822000A1DB0
:1006D00088709DF82300012BC8700DD1200605D528
:1006E0000799DBF80C0001F10802486000210120A5
:1006F0000123079204E000BF00230120079201219B
:10070000E206039314D45F46BBF814B0E20729D184
:10071000204608A902F09EFEBBF1000F34D002284B
:1007200032D13878ABF1010B0028F1D001F0A4B937
:10073000D7F8010007F105090290BBF816000190F7
:10074000E00730D0BBF814702046002102F082FE92
:1007500027B3022822D19BF80000013F0028F3D0E4
:1007600001F032BA002959D02046002102F072FE71
:10077000BBF1000F58D0022856D13878ABF1010BED
:100780000028F1D001F078B9012841F07681DDF838
:100790000CE02006BB4669D407996CE0DDF80CE05C
:1007A000012841F01680BBF81470204608A902F019
:1007B00051FE3FB1022805D19BF80000013F0028FF
:1007C000F3D017E0012816D1019BDDF80CE04FF0C3
:1007D000010093B10899DBF818201140029A914268
:1007E0000BD09BF80000013B00280193DBD00120D7
:1007F00001E000BF0220DDF80CE00899DBF81820CA
:100800001140029A914218BF40F01000012840F0B8
:10081000E08700200490012017E000BF0021049130
:100820004FF0010EBB4610E0012841F02681200662
:10083000BB4605D5DBF80C00079941F8040B07917E
:100840000020049001204FF0010E059B9BF8001042
:100850000029069901F10101069140F0BA87B8F12B
:1008600001084F467FF49AAE01F0FEBADBF80C00A7
:10087000079941F8040B0898059B01F8040B0898A8
:100880000A46000A01F8030CBDF82200079101F89E
:10089000020C9DF8230001F8010C002004900120B7
:1008A000D4E700BF40F61407C1F2000738790228E8
:1008B00000F05284012840F0AB8400223A70B9F86D
:1008C000021005F1040B002900F07C8599F8044022
:1008D000A00700F1B58600200DF12008CDF814B076
:1008E0000790049156F8040FBB46BF8A0139069160
:1008F00008902046414602F0ADFD4FB1022807D1D5
:100900009BF80000013F0028F3D000F0ADBE00BF0F
:100910000699012840F0A9860798002900F10100F6
:100920005F460790DED1B88A441C0E20002102F0F9
:1009300091FD022841F0BB82013C01F0B78238787A
:1009400000284FF00200F0D001F0B1BAFF2028706B
:100950004FF0011009B0BDE8F08F00BF40F6140061
:10096000C1F200000179022900F05A84012940F007
:100970006784D9F802000124089008A90020C0F279
:100980000504002502F066FD8AF8005004F101100C
:1009900009B0BDE8F08F00BFB9F80100C0EB00104E
:1009A0008000401EFDD100208AF800000120C0F226
:1009B0000500A0F5403404F1011009B0BDE8F08F46
:1009C0000020A5F80100022404F1011009B0BDE8DF
:1009D000F08F00BF99F8023099F80140D9F8032050
:1009E00046F2001013F00109C4F20F0007D0E1072E
:1009F0004FF480510CBFC0F88011C0F8001113F003
:100A0000020E08D0A6074FF482764FF4007558BF47
:100A10004FF4C276855113F0040B1EBF4FF4FC2532
:100A200005EAC425C0F8805013F08001079100F05A
:100A3000D684250600F1CA844025C0F8145150F828
:100A4000EC5C45F0200540F8EC5C00F0C8BC00BF51
:100A5000D9F80100002800F03D814AF24051C0F26F
:100A6000AE218842C0F0F08340F61401C1F20001CB
:100A70000120487100F0FFBB99F8014009F1020123
:100A8000002C08BF4FF48074204602F04BFC00207D
:100A90008AF800004FF4604000EB44303FFA80F0E9
:100AA00000F1011404F1011009B0BDE8F08F00BF9E
:100AB000307840F6140200F003010131C1F2000267
:100AC000C0F380001177507700202EE100208AF8D3
:100AD000000096F800A0BAF1000F00F0FD8009F1C7
:100AE000020402354FF001084FF0010914F8016BC0
:100AF0002A4616F03F0000F107004FEAD0073046C3
:100B00002146AAF1010A08BF082701F08FFA09EB74
:100B1000070016F080013C441CBF3D44B844BAF1C4
:100B2000000F00F10109E1D14FEA094048EA000451
:100B300004F1011009B0BDE8F08F00BF96F8008005
:100B400040F6140BC1F2000BB8F1000F8BF81E80B9
:100B500000F02C84A8F1010CBCF1030F08F0030E87
:100B600080F09C8300240023BCE300BF40F6140007
:100B7000C1F200000179022940F0AA803178827F19
:100B8000C177914280F0A4800E2001F033FC01F087
:100B9000C1FA00216970010AA870E970010C000E09
:100BA000052429716871C0F2010404F1011009B033
:100BB000BDE8F08F3046514603F06AFF044604F169
:100BC000011009B0BDE8F08F3046514603F078FFC0
:100BD000044604F1011009B0BDE8F08F30465146DB
:100BE00003F096FF044604F1011009B0BDE8F08F50
:100BF0003046514603F0A4FF044604F1011009B049
:100C0000BDE8F08F504603F0CDFF044604F101101B
:100C100009B0BDE8F08F00BF3046514604F0B8F887
:100C2000044604F1011009B0BDE8F08F00208AF8F5
:100C300000003678002E5BD009F1020405F1020BAA
:100C40004FF001094FF4807A012704E078192C4411
:100C5000471C013E2AD014F8010B46F2001210F096
:100C60003F0101F107014FEAD1054FF4C27108BFFE
:100C7000082510F0800808BF4FF48271C4F20F02FB
:100C800042F801A021465A4602F07EFB012E02BF27
:100C900046F20010C4F20F00C0F804A1B8F1000F32
:100CA000D4D00137AB44A944013ED4D149EA07442A
:100CB00004F1011009B0BDE8F08F00BF3046514685
:100CC00003F0C4FF044604F1011009B0BDE8F08F41
:100CD000FF202AE0FF20D4E24FF001084FF48030DB
:100CE00048EA000404F1011009B0BDE8F08F00BF2C
:100CF00001274FF0010949EA074404F1011009B046
:100D0000BDE8F08FFF204FE640F61401C1F200016C
:100D100002220A7146F20011C4F20F0141F87C0C64
:100D20006FF4005041F8800C02208AF800004FF068
:100D3000011404F1011009B0BDE8F08F00248BF814
:100D4000004099F801009BF81E1005F1030E88423F
:100D50008BF81F0080F0E08399F8021009F1030777
:100D6000002900F02B850020079005224FF0000C91
:100D70000020894605900291BB461BF8014B234693
:100D8000A00762F35F0323D4BCF1000F6BD003977D
:100D9000CDF818E0079898460A2802D00A2001F0FA
:100DA00029FB40F61400C1F20000878A0E2008A932
:100DB00001F004FDE7B302283AD140F61400C1F275
:100DC00000000078013F0028F0D000F0E5BD00BF32
:100DD000BCF1000F049327D040F614000799C1F22C
:100DE0000000B0F8148081EA030004F01002104300
:100DF00000920190CDF818E060D1039708F1010747
:100E0000204608A901F0DAFC022840F08380013F67
:100E100000F0C48540F61400C1F2000000780028FC
:100E2000EED000F0BBBD00BF04F010009EE000BF9C
:100E3000012841F03F8043460898DDF818800A21D8
:100E400088F8000008980791000A88F80100BDF8AA
:100E50002200039F88F802009DF8230088F8030011
:100E600008F104008646D7F8010040F61408A106F0
:100E700007F10507C1F20008089019D4CDF818E071
:100E800004930798BB46984202D0049801F0B2FA46
:100E9000B8F81470204608A901F090FC57B3022856
:100EA00028D198F80000013F0028F3D000F086BE5A
:100EB000C8F818004FF0000C1AE100BF0A2902D050
:100EC0000A2001F097FA0E2008A901F077FC0A2207
:100ED000B8F1000F4FF0000C20D002281ED140F6D0
:100EE0001400C1F200000078A8F101080028EAD03F
:100EF00000F076BE012840F0E987DDF818E0200612
:100F0000049944BFD8F80C004EF8040B5F464FF02C
:100F1000000CECE0039F079A4FF0010C01280792A8
:100F200040F069860898DDF818C001998CF8000037
:100F30000898B1FA81F1000A8CF80100BDF822008E
:100F400049098CF802009DF82310049B0CF1040061
:100F50008CF8031008D0210600F1AE804FF0010C90
:100F600086465F46A2E000BF86460098CDF818E0AE
:100F700040B3D7F80100B846039040F61400C1F220
:100F80000000B0F816B00798984202D0049801F01B
:100F900031FA40F61400C1F20000878A08F1050812
:100FA0002046002101F00AFC57B3022828D140F660
:100FB0001400C1F200000078013F0028F0D000F0DA
:100FC00007BE00BF07989846984202D0404601F0FD
:100FD00011FA40F61400C1F20000878A2046002171
:100FE00001F0ECFB002F55D0022853D140F614003D
:100FF000C1F200000078013F0028EFD000F0F6BDFC
:10100000012840F0678740F61403C1F200039F8A6D
:10101000204608A901F0D2FB57B1022808D140F6BA
:101020001400C1F200000078013F0028F0D019E060
:10103000012818D1BBF1000F4FF00100474667D0DF
:1010400040F61403C1F2000308999A691140039A0B
:1010500091420DD01878ABF1010B0028D7D00120B8
:1010600005E000BF022040F61403C1F2000347462A
:1010700008999A694FF0000C1140039A914218BFE9
:1010800040F01000DDF818E00499012840F02687B0
:1010900098462CE0012840F02587DDF818E020066E
:1010A000414619D44FF0010C5F46079140F61408F1
:1010B000C1F200081CE000BF40F61408C1F20008AD
:1010C000D8F80C005F46CCF804000CF108004FF093
:1010D000010C86460CE000BF40F61408C1F200087F
:1010E000D8F80C004FF0010C4EF8040B5F46079146
:1010F000059998F8000001310028059140F0C88654
:10110000B9F101094FF005027FF436AE00F0C4BE1C
:1011100040F61403C1F20003AAE700BF99F80200E9
:1011200009F10301002800F02B8410F00303A0F163
:10113000010C00F0E58399F8037009F10804F90641
:10114000214658BF09F10401BF0758BF2146012BB2
:1011500040F024836046D3E300223A703078B97FB0
:1011600005F1040B8842F87780F02C81B9F8020071
:101170000028069000F0268399F8048008F001000A
:1011800004900A3001F036F95FEA887000F13A8382
:101190000020CDF80CB00790069908AC56F8040F63
:1011A000BB46BF8A0139059108904046214601F0AF
:1011B00005FB3FB1022805D19BF80000013F002844
:1011C000F3D031E30599012840F02F8307980029D7
:1011D00000F101005F460790E0D1049810B10A20A9
:1011E00001F008F9BBF81400441C0E20002101F0A6
:1011F000E5FA022840F06586013C00F061869BF824
:10120000000000284FF00200EFD000F05ABE00BFEF
:101210000020A5F80100E870032000F008BE00BF20
:101220003178827FC177914280F07C81082001F083
:10123000E1F8D9F8020000F0F5FF002073E100BFEB
:101240000124FF2070E100BF44F67F21C0F25D5110
:101250000144B1FBF0F14AF6AB20CAF6AA20A1FB8B
:10126000000240F61400C1F2000000234371012087
:10127000022988BF500840F61401C1F200018860BD
:1012800000208AF800000120C0F20500A0F580349B
:1012900004F1011009B0BDE8F08F00BF08F0FC07B1
:1012A0000024002309EB0406B5780BEB04010BEBDB
:1012B000440081F820500385F2782B4481F82120E6
:1012C000438535791A4481F82250828573792A44FE
:1012D000043481F82330A7421344C285E2D109EBDC
:1012E0000400461CBEF1000F1ED070780BF11E07E3
:1012F0003919887007EB44014B81BEF1010F03449B
:1013000012D0601CB1783A1807EB4000917043810D
:10131000BEF1020F0B4407D0A01CF1783A1807EB7E
:101320004000917043810B44BCF1030F02D20027AF
:101330001CE000BF08F0FC0600270BEB070090F84C
:1013400020100BEB4702591A118790F8213004370F
:10135000C91A518790F82230BE42A1EB0301918750
:1013600090F82300A1EB0003D387E6D1BEF1000F74
:101370001CD00BF11E02D0198078BEF1010FA3EB37
:10138000000302EB4700438310D0781C11188978C2
:1013900002EB40005B1ABEF1020F438306D0B81C7B
:1013A0001118897802EB4000591A418300208AF80D
:1013B00000004FF0011000EB084404F1011009B0E7
:1013C000BDE8F08F002000F02CBD00BF50F8EC5CB1
:1013D00025F0200540F8EC5C4025C0F89451002A27
:1013E00000F05E8203F02003B3FA83F35F094CF24E
:1013F000C06341F20401C0F22D03CEF200019A4213
:1014000038BF1346B42204F0E00C5A430B68BCFA10
:101410008CF14909E6094FEA5408A508B9F1000F13
:1014200047EA01073ED1BEF1000F40F0878041F24C
:101430000404BBF1000FCEF2000440F01F81002F26
:1014400000F00A820799002900F02A824169C1F35D
:1014500040118E4200F024822168C91A914280F026
:101460001F824169C1F340118E4200F01982216848
:10147000C91A914280F014824169C1F340118E4231
:1014800000F00E822168C91A914280F009824169F8
:10149000C1F340118E4200F003822168C91A9142C3
:1014A000D4D3FDE1BEF1000F40F07E80AC4641F2A6
:1014B0000405CEF2000504E02968C91A914280F0C3
:1014C000EF810168C1F30031A142F5D1BBF1000FFA
:1014D00002D1002FF0D009E00168C1F34031ACEB3C
:1014E0000101B1FA81F149090F42E5D007990029BC
:1014F00000F0D6814169C1F340118E42DCD1CFE1C9
:10150000042A40F095803020888042F63160C2F68F
:101510003360086006208BE009F10207002000F02C
:1015200049BC00BFFF200124C0F205048AF8000076
:1015300004F1011009B0BDE8F08F00BF41F20404CE
:10154000BBF1000FCEF2000440F0E080EFB941683B
:101550002168C91A914280F0A38141682168C91AA3
:10156000914280F09D8141682168C91A914280F0C2
:10157000978141682168C91A9142E8D390E100BF80
:101580002168C91A914280F08B814168C1F34021E2
:101590008845F5D10799002900F082814169C1F39E
:1015A00040118E42ECD17BE1B44641F20406CEF20A
:1015B000000604E03168C91A914280F07181016827
:1015C000C1F30031A142F5D14168C1F34021884502
:1015D000F0D1BBF1000F03D1002FEBD009E000BF29
:1015E0000168C1F34031691AB1FA81F149090F422A
:1015F000E0D00799002900F053814169C1F34011FF
:101600008C45D7D14CE100BF49F20050C0F6BA205A
:1016100002E000BF4FF40050C5F80200042007E0CC
:1016200004200870012003E04FF4806068800220ED
:101630008AF8000000F1021009B0BDE8F08F00BF89
:10164000E00700F0B281BE8A88462046002101F002
:1016500001FF002E00F0A681022840F0A381387817
:10166000013E0028F1D0DCE00220DDF814B0079A3A
:10167000D7E300BF4FF0010EAAE000BFFFB9079902
:1016800061BB01682168C91A914280F00981016833
:101690002168C91A914280F0038101682168C91A42
:1016A000914280F0FD8001682168C91A9142E8D317
:1016B000F6E000BF2168C91A914280F0F18001680C
:1016C000C1F340318D42F5D10799002900F0E8803F
:1016D0004169C1F340118E42ECD1E1E0016821681B
:1016E000C91A914280F0DC8001682168C91A9142D0
:1016F00080F0D68001682168C91A914280F0D080BC
:1017000001682168C91A9142E8D3C9E08FBB4168DA
:10171000C1F34021884508BF01682168C91A914278
:1017200080F0BE804168C1F34021884508BF016850
:101730002168C91A914280F0B3804168C1F3402109
:10174000884508BF01682168C91A914280F0A880C5
:101750004168C1F34021884508BF01682168C91A62
:101760009142D4D39CE000BF2168C91A914280F015
:1017700097804168C1F340218845F5D10168C1F3E4
:1017800040318D42F0D10799002900F089804169EC
:10179000C1F340118E42E7D182E000BF0F4617F837
:1017A000014B4A1DE10648BF1746A107394658BFFD
:1017B0001146022B40F098800238A1E0002400205E
:1017C000F8E200BF002200202BE300BF4FF0000E24
:1017D0000220B8F1000F00F0A98118F00302A8F16F
:1017E000010C00F05D8109F1050319F8017BF90690
:1017F00048BF9946B90758BF9946012A1AD1E04611
:101800004EE100BFBC8A4046002100F0D7FF002C0B
:1018100000F0FE80022840F0FB803878013C002870
:10182000F1D002200022FCE20220DDF80CB0079A81
:10183000F7E200BF494611F8013B09F10507DC0654
:1018400048BF39469B07894658BFB946022A40F02F
:101850001981A8F1020823E1079989B92168C91AF9
:1018600091421DD22168C91A914219D22168C91A20
:10187000914215D22168C91A9142EFD310E000BFFE
:101880002168C91A91420BD22168C91A914207D224
:101890002168C91A914203D22168C91A9142EFD333
:1018A000016842680223C1F3003103EA12221144A5
:1018B0000268042303EAD2221144426808234069E3
:1018C00003EA1212114400F0200041EA80008AF875
:1018D00000000120C0F2050000F5803404F1011081
:1018E00009B0BDE8F08F00BF0A4612F8013B053190
:1018F000DF0648BF0A469B0758BF0A460338114611
:10190000BCF1030F3CD30A784C1D02F0020312F025
:1019100010024FF00502274604BF01224F1C002B86
:1019200008BF0522895C08BF274601F002027C1D22
:1019300011F010014FF00501234604BF01217B1C6B
:10194000002A08BF0521795C08BF234601F0020286
:101950005C1D11F010014FF00501274604BF012165
:101960005F1C002A04BF052127465A5C7B1DD10657
:10197000194658BF791C920758BF19460438C2D17E
:101980000020A5F80100881B0004841C04F101104C
:1019900009B0BDE8F08F00BF0A2007904FF0010C9E
:1019A000022028E10128414664D1002008AE0790BA
:1019B0000491E007204618BF0E20B7F814800139C3
:1019C0000691002908BF04462046314601F042FD39
:1019D000B8F1000F08D0022806D13878A8F1010824
:1019E0000028F1D010E000BF012840F019820898CB
:1019F0004BF8040B07980130079006990120002945
:101A0000D7D1049A0DE200BF079A022009E200BF75
:101A100001282FD1049800280698A0F101014FF069
:101A2000000040F0D3810790BC8A4646059100290A
:101A300008BF0E26304608A900F0C0FE44B10228B7
:101A400006D13878013C00284FF00200F2D0E7E1DF
:101A5000012840F0E58108984BF8040B0798013005
:101A6000079005980028A0F101014FF00100DBD19B
:101A7000D3E100BF0022D4E10220DDF80CE0BB4638
:101A8000A7E600BF494611F8012B09F10503D70667
:101A900048BF1946920758BF1946A8F1030889465E
:101AA000BCF1030F42D399F8001009F1050701F0CA
:101AB000020211F010014FF005013B4604BF012165
:101AC00009F10103002A08BF052119F8011008BF18
:101AD0003B4601F002025C1D11F010014FF00501C0
:101AE000274604BF01215F1C002A08BF0521595C5D
:101AF00008BF274601F002027C1D11F010014FF0D3
:101B00000501234604BF01217B1C002A04BF0521D7
:101B10002346795C5A1DCF06914658BF03F101094F
:101B2000890758BF9146B8F10408BCD1DDF8188088
:101B30004F46012840F09D81BEF1000F14D0B946F8
:101B4000BBF8147008AC0E20214601F083FC0FB3E3
:101B500002281FD19BF80000013F0028F3D007990D
:101B600002204F4686E100BF049858B3BBF814002A
:101B7000441C0E20002101F06DFC022840F0798108
:101B8000013C00F011819BF8000000284FF002009A
:101B9000EFD06EE101284F4640F06B81DDE9071080
:101BA00008700898000A4870BDF8220088709DF8F7
:101BB0002300C870043101205CE100BF4FF0000C2D
:101BC000022009E0012054E1DDF80CE000E600BF4E
:101BD0004FF0000C0220C346049907910BE000BFB0
:101BE0000A2007904FF0000C022004E04FF0000C98
:101BF0000220CDF81C80DDF818E0B9F1000F7AD092
:101C0000E04619F00302A9F1010C2DD00BF10503F8
:101C10001BF8017BF90648BF9B46B90758BF9B4696
:101C2000012A01D1E1461FE0594611F8013B0BF1B1
:101C30000507DC0648BF39469B078B4658BFBB46A5
:101C4000022A03D1A9F102090EE000BF594611F89A
:101C5000012B0BF10503D70648BF1946920758BF61
:101C60001946A9F103098B46BCF1030FC44642D3C0
:101C70009BF800100BF1050701F0020211F01001B2
:101C80004FF005013B4604BF01210BF10103002A7F
:101C900008BF05211BF8011008BF3B4601F00202F6
:101CA0005C1D11F010014FF00501274604BF012112
:101CB0005F1C002A08BF0521595C08BF274601F0B8
:101CC00002027C1D11F010014FF00501234604BFF4
:101CD00001217B1C002A04BF05212346795C5A1D83
:101CE000CF06934658BF03F1010B890758BF9346AF
:101CF000B9F10409BCD1059C01285F465AD1CDF841
:101D000018E00798B9460A2804D00A20674600F070
:101D100071FBBC4640F61408C1F20008B8F8147014
:101D2000A346BCF1000F13D008AC0E20214600F0F2
:101D300045FDFFB102281DD198F80000013F0028A1
:101D4000F3D0DDF818E002205C464F4632E000BFD9
:101D50007C1C4F460E20002100F030FD022826D1C9
:101D6000013C23D098F8000000284FF00200F1D089
:101D70001DE000BF01285C464F4611D10898DDF8F0
:101D80001890A9F80000BDF8220009F1040189F8B3
:101D900002009DF823008E4689F80300012009E027
:101DA000DDF818E006E000BF022062E00220DDF866
:101DB00018E05C46A870B81BAEEB0A016C7041EAF3
:101DC000004404F1011009B0BDE8F08F08AC0790A1
:101DD000059121B90A2000F00DFB4FF00E08BE8AD4
:101DE0004046214600F0EAFC46B1022806D1387888
:101DF000013E00284FF00200F2D011E001280FD17F
:101E000008984BF8040B07980130079005980028B4
:101E1000A0F101014FF00100DAD1069A01E000BF04
:101E2000079A110A6A70A970E870ABEB0A0099F87A
:101E30000410890710D499F8031099F80220890634
:101E400041EA824101F5802141EA000404F10110D8
:101E500009B0BDE8F08F00BF40F4802404F1011008
:101E600009B0BDE8F08F00BF98464F4601283FF407
:101E700063AE0799A870B81BA1EB0A0185F8018031
:101E800041EA004404F1011009B0BDE8F08F00BF41
:101E90000120BB46B1E600BF029C30E74FF0010EC7
:101EA00097E400BF4FF0000E93E400BF0220DDE98D
:101EB000042BB6E70A2107914FF0010C9BE600BF07
:101EC0000220069ADDF80CB0ABE700BF4FF0000C23
:101ED00082E600BF4FF0000C7DE600BFBB460791D5
:101EE0008BE600BF4FF0000C83E600BFF0B581B079
:101EF00002787F2A18D17F220A7047784F70CFB1BD
:101F00008D1C861C4FF0021430462946013FFEF717
:101F10004FFA044406EB1046002F15FA80F5F3D172
:101F2000204601B0F0BD00BF01B0BDE8F040FEF7B3
:101F30003FBA00BF4FF00214204601B0F0BD00BF11
:101F400040F61401C1F20001582300228B60642383
:101F500041F21440C1E905320123C4F205008A8030
:101F60000A748B838A77032140F8041C0168C9072F
:101F700009D10168C90704BF01685FEAC17102D1D4
:101F80000168C907F2D046F28400C4F2080050216B
:101F9000442201644161016141644163C0F89020C1
:101FA0005422C0F89420016046F20000C4F20F00F1
:101FB0004FF48051C0F800124FF40071C0F80412C1
:101FC0004FF480724FF40051C0F80422C0F80012A0
:101FD00020214023C0F89412C0F89432036843F4DF
:101FE00080530360436843F400734360436843F4E1
:101FF00080734360036843F400530360436823F035
:1020000080034360436923F020034361436943F045
:1020100040034361C0F88022026842F4807202608B
:102020004EF20840CEF20000017070472DE9F043F7
:1020300010F03F0C08BF4FF0400C470646F2041367
:102040004FF48077C4F20F0358BF4FF4C0774FF4BA
:1020500000760006FE5025D440F618024FF480505A
:10206000C1F2000203E000BFBCEB050C50D011F838
:10207000017BACF1010600247D03DD67C3F87C0120
:1020800055686D1EFDD11D68C3F8FC0055686D1EB6
:10209000FDD1A64204F10105E6D07F08072C2C46AD
:1020A000EAD1E1E740F618084FF4805EC1F200087B
:1020B0000BE000BFC0F1080426FA04F4BCEB000CEE
:1020C00002F8014B08BFBDE8F08311F8014BACF1F9
:1020D00001090027002600BF6003D867C3F87CE130
:1020E000D8F80400401EFDD11868C3F8FCE0D8F809
:1020F000045000F080006D1EFDD140EA5606B9453F
:1021000007F10100D6D06408072F0746E4D1D1E7D4
:10211000BDE8F083B0B546F20021C4F20F014FF4E0
:1021200000724FF4805040F6180C4A60C1F88000ED
:10213000C1F2000CDCF804305B1EFDD10860DCF855
:1021400004305B1EFDD1C1F88420C1F88000DCF8AA
:102150000420521EFDD10860DCF80420521EFDD17F
:10216000C1F88000DCF80420521EFDD10860DCF8C4
:102170000420521EFDD19CF81B2062B1C1F88000E2
:10218000DCF804305B1EFDD10860DCF804305B1E17
:10219000FDD1013AF2D100236FF01E02C1F8800098
:1021A000DCF80440641EFDD151F8FC4C0860DCF8FA
:1021B00004506D1EFDD104F0800543EA0563013231
:1021C0004FEA5303EAD34FF400704FF48052486053
:1021D000C1F88020DCF80440641EFDD151F8FC5C9D
:1021E0000A60DCF80440641EFDD1C1F88020DCF8F0
:1021F0000440641EFDD10A60DCF80440641EFDD179
:10220000C1F88400C1F88020DCF8044005F08005A6
:10221000641EFDD10A6043EA0560DCF80410491E23
:10222000FDD1B0BD10B546F20021C4F20F014FF44C
:1022300000724FF4805340F6180C4A60C1F88030A9
:10224000C1F2000CDCF80440641EFDD10B60DCF828
:102250000440641EFDD1C1F88420C1F88030DCF850
:102260000420521EFDD10B60DCF80420521EFDD16B
:10227000C1F88030DCF80420521EFDD10B60DCF880
:102280000420521EFDD19CF81B2062B1C1F88030A1
:10229000DCF80440641EFDD10B60DCF80440641ED1
:1022A000FDD1013AF2D1002241F8802CC1F88030F2
:1022B000DCF80420521EFDD10B60DCF80420521E15
:1022C000FDD1C1F88030DCF80420521EFDD10B6036
:1022D000DCF80420521EFDD1C1F88030DCF8042067
:1022E000521EFDD10B60DCF80420521EFDD16FF0B0
:1022F0001E0200BF440341F8804CC1F88030DCF876
:102300000440641EFDD10B60DCF80440641EFDD166
:1023100001324FEA5000EDD39CF81B209CF81A3094
:10232000D44314EB030E31D0400341F8800C4FF43A
:102330008050C1F88000DCF80440641EFDD10860C4
:10234000DCF80440641EFDD1BEF1010F0FD0D21A9B
:10235000023200BFC1F88000DCF804305B1EFDD102
:102360000860DCF804305B1EFDD10132F2D34FF47B
:1023700000724A60C1F88000DCF80420521EFDD1D2
:102380000860DCF80400401EFDD112E04FF400723A
:1023900040034A6041F8800C4FF48050C1F880003F
:1023A000DCF80420521EFDD10860DCF80400401E59
:1023B000FDD14FF48050C1F88000DCF80420521E9B
:1023C000FDD10860DCF80420521EFDD14FF40072EC
:1023D000C1F88420C1F88000DCF80420521EFDD131
:1023E0000860DCF80400401EFDD14FF4005041F8B5
:1023F000800C10BDF0B540F61802C1F2000257780B
:1024000046F20021C4F20F014FF400754FF48053DF
:102410004D60C1F880309FB30B60C1F880300B6015
:10242000C1F88450C1F880300B60C1F880300B6077
:102430004FF4005341F8803C92F81BE002EB4E0C45
:10244000BCF82450002D00F0BB8015F00306A5F168
:10245000010400F0A1804FF48057012E2346C1F8FB
:1024600080700F6000F09980022EC1F880700F60BC
:1024700040F00881AB1E032C80F09180A0E000BFEB
:102480005468641EFDD10B605468641EFDD1C1F810
:1024900080305468641EFDD10B605468641EFDD109
:1024A000C1F88450C1F880305468641EFDD10B60BF
:1024B0005468641EFDD1C1F880305468641EFDD19B
:1024C0000B6053685B1EFDD14FF4005341F8803C14
:1024D000D37E02EB4307BD8C75B14FF4805300BF30
:1024E000C1F880305468641EFDD10B605468641ECE
:1024F000FDD1013DF4D1D37ED7183F7F012F15D0F8
:102500007B424FF4805500BF470341F8807CC1F8FF
:1025100080505468641EFDD10D605468641EFDD166
:1025200001335F1C4FEA5000EED1D37E02EB430330
:102530009B8E002B00F06880400341F8800C4FF424
:102540008050C1F880005468641EFDD10860546852
:10255000641EFDD14FF40057012B41F8807C0DD053
:102560005B4200BFC1F880005468641EFDD1086062
:102570005468641EFDD101335F1CF3D14FF4007326
:102580004B60C1F8800053685B1EFDD10860506845
:10259000401EFDD149E000BF2B46032C10D34FF461
:1025A000805400BF043BC1F880400C60C1F88040FB
:1025B0000C60C1F880400C60C1F880400C60F1D123
:1025C0007244147F631E17D013F00305A4F1020EAA
:1025D00014D0420341F8802C4FF48053012D4FEA70
:1025E0005002C1F880300B603CD173461046BEF1FA
:1025F000030F80F05F8084E0024682E0BEF1030FAB
:1026000080F058807DE000BF4FF4007340034B60C2
:1026100041F8800C4FF48050C1F8800053685B1E75
:10262000FDD108605068401EFDD14FF48050C1F8C4
:10263000800053685B1EFDD1086053685B1EFDD1AE
:102640004FF40073C1F88430C1F8800053685B1EFA
:10265000FDD108605068401EFDD14FF4005041F894
:10266000800CF0BD520341F8802C022D4FEA9002FD
:10267000C1F880300B600FD1E31E1046BEF1030F8E
:1026800018D23EE04FF48053C1F880300B60EB1E4F
:10269000032CBFF484AF93E7520341F8802C4FF42E
:1026A0008052C1F880200A60C208231F1046BEF184
:1026B000030F26D34EF2000E4FF48054CFF6FF7E68
:1026C000024600BF500341F8800C0EEA0230C1F808
:1026D00080400C6041F8800C0EEAC220C1F88040B6
:1026E0000C6041F8800C0EEA8220043B4FEA121283
:1026F000C1F880400C6041F8800CC1F880400C604B
:10270000E0D1BCF834300BB3500341F8800C4FF4E7
:102710008050C1F8800008604FF40052581E41F804
:10272000802C33D010F00306A3F102021CD04FF42A
:102730008057012E1046C1F880700F6014D0022E11
:10274000C1F880700F6009D1D81E0DE04FF4007001
:102750004860500341F8800C1BE000BF4FF48050EC
:10276000C1F880000860181F032A0FD34FF480526D
:102770000438C1F880200A60C1F880200A60C1F8DE
:1027800080200A60C1F880200A60F1D14FF4007007
:1027900048604FF480504FF40072C1F88000086028
:1027A000C1F880000860C1F88420C1F8800008608A
:1027B0004FF4005041F8800CF0BD00BF2DE9F04F00
:1027C0009DB040F61802C1F20002567846F200238E
:1027D0004EF2000C8346C4F20F034FF400704FF426
:1027E0008057CFF6FF7C5860C3F8807056B31F60E7
:1027F000C3F88400C3F880701F60C3F880701F6046
:1028000092F81BE0BEF1000F00F0F0801EF0030014
:10281000AEF1010600F0D6804FF48055012837460E
:10282000C3F880501D6000F0CE800228C3F88050AD
:102830001D6040F09583AEF10207032E80F0C58045
:10284000D4E000BF55686D1EFDD11F6055686D1E38
:10285000FDD1C3F88400C3F880705068401EFDD1DC
:102860001F605068401EFDD1C3F880705068401E44
:10287000FDD11F605068401EFDD1D07E68B14FF47D
:10288000805700BFC3F8807055686D1EFDD11F6072
:1028900055686D1EFDD10138F4D10CEA0B304FF4B0
:1028A000805743F8800CC3F880705068401EFDD1FB
:1028B00053F8FC0C1F6055680CEACB266D1EFDD149
:1028C00043F8806CC3F8807055686D1EFDD10226F8
:1028D00053F8FC5C1F60546806EA90100CEA8B26E3
:1028E000641EFDD143F8806CC3F880705468C5F352
:1028F000C016641EFDD153F8FC5C1F6030440426F2
:10290000546806EA5516641EFDD100EB0608B8F1BE
:10291000010F40F049805FEA8B7000F1D5820968B1
:102920006FF01E004FF480574E0343F8806CC3F8DD
:1029300080705468641EFDD11F605468641EFDD110
:1029400001304FEA5101EFD3D07E977EC643F6198E
:1029500000F02E83490343F8801C4FF48051C3F8E4
:1029600080105468641EFDD119605468641EFDD146
:10297000012E0CD0C01B0230C3F880105468641EB6
:10298000FDD119605468641EFDD10130F4D34FF4B9
:1029900000705860C3F880105068401EFDD1196067
:1029A0005068401EFDD12BE34FF400705860C3F80F
:1029B00080705068401EFDD11F605068401EFDD1E0
:1029C0001EE300BF7746032E10D34FF4805000BFA4
:1029D000043FC3F880001860C3F880001860C3F893
:1029E00080001860C3F880001860F1D10CEA0B3049
:1029F00043F8800C4FF48050C3F880000CEACB25DC
:102A000053F8FC7C186043F8805CC3F8800053F8EE
:102A1000FC5C022606EA9717C5F3C01637440CEA99
:102A20008B26186043F8806CC3F8800053F8FC6C68
:102A3000042505EA561607EB0608B8F1010F1860E1
:102A400040F03E815FEA8B70CDF8708000F13C81F0
:102A50000D684FF48051680343F8800C0CEA053090
:102A6000C3F88010196043F8800C0CEAC520C3F845
:102A70008010196043F8800C0CEA8520C3F88010A0
:102A8000196043F8800C0CEA4520C3F880101960E7
:102A900043F8800C0CEA0520C3F88010196043F855
:102AA000800C0CEAC510C3F88010196043F8800C44
:102AB0000CEA8510C3F88010196043F8800C0CEA0A
:102AC0004510C3F88010196043F8800C0CEA05101B
:102AD000C3F88010196043F8800C0CEAC500C3F8F5
:102AE0008010196043F8800C0CEA8500C3F8801050
:102AF000196043F8800C0CEA4500C3F88010196097
:102B000043F8800C4EF200004EF2000CC7F6FF7046
:102B1000C0F23F0C00EA55080CF17F5000EA95091D
:102B20000CF1FE5000EAD500C3F8801019601B902C
:102B30000CF17C6000EA15101A900CF1F86000EAC4
:102B4000551019900CF1707000EA951018900CF166
:102B5000E07000EAD51017900CF5400000EA15204F
:102B600016900CF5800000EA552015900CEA95208F
:102B700014904FF4FF1000EAD5264FF47E2000EAAF
:102B8000153428466FF30C0043F8800CC3F880100E
:102B9000196043F8808CC3F88010196043F8809C5A
:102BA000C3F8801019601B9F4FF4FC2043F8807C11
:102BB000C3F8801019601A9F00EA553C43F8807CE6
:102BC000C3F880101960199F4FF4783043F8807C67
:102BD000C3F880101960189F4FF4F03A43F8807CD6
:102BE000C3F880101960179F4FF4604943F8807C48
:102BF000C3F880101960169F4FF4C04843F8807CDA
:102C0000C3F880101960159F00EA953043F8807C66
:102C1000C3F880101960149F0AEAD53A09EA1549E9
:102C200008EA554843F8807CC3F88010196043F8DF
:102C3000806CC3F88010196043F8804CC3F8801092
:102C4000196043F880CCC3F88010196043F8800CF9
:102C5000C3F88010196043F880ACC3F88010196085
:102C600043F8809CC3F88010196043F8808CC3F847
:102C700080101960907E6FEA0E07C6194FEAD5776B
:102C800000F07A817F0343F8807CC3F880101960DC
:102C9000DDF87080771E00F01582A0EB0E00811C1D
:102CA00011F00301A0F1030000F0FA814FF4805706
:102CB0000129C3F880701F6040F0DC81B71EEFE18E
:102CC0004FF40071596002E24FF48058C3F88080DD
:102CD00053F8FCCCC3F80080C3F8808053F8FC6C38
:102CE000C3F80080C3F8808053F8FC7CC3F80080F0
:102CF000C3F8808053F8FC9CC3F80080C3F8808040
:102D000053F8FC4CC3F80080C3F8808053F8FC0CE7
:102D10001B90C3F80080C3F8808053F8FC0C1A9015
:102D2000C3F80080C3F8808053F8FC0C1990C3F8F6
:102D30000080C3F8808053F8FC0C1890C3F8008022
:102D4000C3F8808053F8FC0C1790C3F80080C3F8D8
:102D5000808053F8FC0C1690C3F80080C3F8808084
:102D600053F8FC0C1590C3F80080C3F8808053F82A
:102D7000FC0C1490C3F80080C3F8808053F8FC0C5E
:102D80001390C3F80080C3F8808053F8FC0C1290B5
:102D9000C3F80080C3F8808053F8FC0C1190C3F88E
:102DA0000080C3F8808053F8FC0C1090C3F80080BA
:102DB000C3F8808053F8FC0C0F90C3F80080C3F870
:102DC000808053F8FC0C0E90C3F80080C3F880801C
:102DD00053F8FC0C0D90C3F80080C3F8808053F8C2
:102DE000FC0C0C90C3F80080C3F8808053F8FC0CF6
:102DF0000B90C3F80080C3F8808053F8FC0C0A9055
:102E0000C3F80080C3F8808053F8FC0C0990C3F825
:102E10000080C3F8808053F8FC0C0890C3F8008051
:102E2000C3F8808053F8FC0C0790C3F80080C3F807
:102E3000808053F8FC0C0690C3F80080C3F88080B3
:102E400053F8FC0C0590C3F80080C3F8808053F859
:102E5000FC0C0490C3F80080C3F8808053F8FC0C8D
:102E60000390C3F80080C3F8808053F8FC0C0290F4
:102E7000C3F80080957E6FEA0E0015EB000A00F0A3
:102E800087800194C3F8808053F8FC0CBAF10104E8
:102E90000090C3F80080DDF8708000F08981A5EB18
:102EA0000E05A81C10F00300A5F1030500F06D81CC
:102EB0004FF480540128C3F880401C6040F0E28049
:102EC000AAF1020461E100BF00276FF01E004FF479
:102ED000805600BFC3F880605468641EFDD153F86B
:102EE000FC5C1E60546805F08005641EFDD147EA55
:102EF000056701304FEA5707ECD3D07E947EC64376
:102F000016EB040E00F066804FF48055C3F8805035
:102F10005668761EFDD153F8FCCC1D605668761EAF
:102F2000FDD1BEF1010F0CD0001B0230C3F8805060
:102F30005468641EFDD11D605468641EFDD10130CB
:102F4000F4D34FF400705860C3F880505068401EAE
:102F5000FDD11D605068401EFDD100294BD14FE0CE
:102F60004FF48050C3F880001860AEF10307032EC1
:102F7000BFF42BAD3AE500BF4FF400705860780302
:102F800043F8800CC3F880101960DDF87080A1E070
:102F90004FF400705860C3F8808053F8FCECDDF803
:102FA00070804FF480500029186040F0108191E04B
:102FB0004FF400705860480343F8800C4FF4805081
:102FC000C3F880005168491EFDD118605068401E4A
:102FD000FDD115E04FF4007058604FF48050C3F8F5
:102FE00080005468641EFDD153F8FCCC1860506812
:102FF000401EFDD121B10CF0800047EA006008605E
:103000004FF48050C3F880005168491EFDD118600C
:103010005168491EFDD14FF40071C3F88410C3F804
:1030200080005168491EFDD118605068401EFDD1D6
:103030004FF400505FEA0B6143F8800C05D541F274
:103040000400CEF2000000689060107B002800F0C1
:1030500087804FF4805100BFC3F880105468641E0D
:10306000FDD1196054680138641EFDD10028F3D1E8
:1030700076E000BF0229C3F880701F600AD1F71EF6
:103080000EE000BF0228C3F880401C6076D1AAF190
:1030900003047AE04FF48051C3F880101960371FA1
:1030A00003280FD34FF48050043FC3F8800018600A
:1030B000C3F880001860C3F880001860C3F880006F
:1030C0001860F1D14FF4007058604FF48050C3F88D
:1030D000800018604FF480504FF40071C3F88000F6
:1030E0001860C3F88410C3F8800018604FF40050D3
:1030F0005FEA0B6143F8800C05D541F20400CEF283
:10310000000000689060127B52B312F00307A2F136
:10311000010111D04FF48056012F0846C3F880609A
:103120001E600AD0022FC3F880601E601CD1901E62
:10313000032915D303E000BF1046032910D34FF431
:10314000805100BF0438C3F880101960C3F88010A4
:103150001960C3F880101960C3F880101960F1D1AC
:1031600040461DB0BDE8F08FD01E4FF48052C3F82A
:1031700080201A600329F3D3E1E700BF4FF48050A9
:10318000C3F880001860AAF10404032D10D34FF493
:10319000805500BF043CC3F880501D60C3F88050C8
:1031A0001D60C3F880501D60C3F880501D60F1D1D0
:1031B0004FF4007058604FF48050C3F88000DDE990
:1031C00000E44FF48050002918603FF483AF4FF0C3
:1031D000804000EACC5006F0800540EA056007F028
:1031E0008005ED0545EA900009F0800540EA05609C
:1031F00004F080051B9FED0545EA900007F080056F
:103200001A9F40EA056007F08005199FED0545EA21
:10321000900007F08005189F40EA056007F08005E0
:10322000179FED0545EA900007F08005169F40EADC
:10323000056007F08005159FED0545EA900007F051
:103240008005149F40EA056007F08005139FED0597
:1032500045EA900007F08005129F40EA056007F0FC
:103260008005119FED0545EA900007F08005109F4D
:1032700040EA056007F080050F9FED0545EA9000E4
:1032800007F080050E9F40EA056007F080050D9F5E
:10329000ED0545EA900007F080050C9F40EA0560C7
:1032A00007F080050B9FED0545EA900007F08005CB
:1032B0000A9F40EA056007F08005099FED0545EA91
:1032C000900007F08005089F40EA056007F0800540
:1032D000079FED0545EA900007F08005069F40EA4C
:1032E000056007F08005059FED0545EA900007F0B1
:1032F0008005049F40EA056007F08005039FED0507
:1033000045EA900007F08005029F40EA056007F05B
:103310008006F60546EA90000EF0800740EA076056
:103320000860D7E670B5002808BF70BD46F20022DD
:1033300040F618040023C4F20F024FF4007C4FF44F
:10334000805EC1F20004002516E000BFEE074FF0DA
:10335000040608BF842642F806C0C2F880E066680A
:10336000761EFDD1C2F800E066680138761EFDD1F8
:103370006D08A3F1010328B1002BE7D111F8015B1F
:103380000823E3E770BD00BF2DE9F04110F03F0CCA
:1033900008BF4FF0400C000646F28410C4F20F0044
:1033A00026D440F618034FF4805EC1F2000304E017
:1033B000BCEB060C08BFBDE8F08111F8012BACF1A5
:1033C0000104002556020660C0F8FCE05E68761E27
:1033D000FDD1C0F87CE05E68761EFDD1AC4205F1FF
:1033E0000106E5D05208072D3546EBD1E0E700BFD6
:1033F00040F618034FF48058C1F200036FF07F0EBF
:1034000009E000BFC7F1080125FA01F1BCEB070C88
:1034100002F8011B1CD0ACF101040026002500BFFE
:10342000C0F8FC805F687F1EFDD10768C0F87C8013
:103430005968491EFDD10EEA970141EA5505B4428B
:1034400006F10107DED0072E3E46E9D1DAE700BFDC
:10345000BDE8F0812DE9F04740F61809C1F20009F6
:1034600099F8013046F2002A4FF6FC7C4FF6FE78C0
:10347000C4F20F0AC0F2FF1CC0F2FF084FF400753F
:103480004FF48054002B4AF87C5CCAF8804000F06E
:10349000A5804302CAF800404AF87C3C43085B021E
:1034A000CAF88040CAF800404AF87C3C00EB500360
:1034B0008608760203EB9003CAF88040CAF8004001
:1034C0004AF87C6CC60803EBD00376025B02CAF8AC
:1034D0008040CAF800404AF87C6CCAF88040CAF8BC
:1034E00000404AF87C3C0023CAF88040CAF80040FB
:1034F0004AF87C3C4FF48073CAF88040CAF8004018
:103500004AF87C5CCAF88040CAF80040CAF88430A7
:1035100099F818E0BEF1000F2ED0AEF101051EF0B3
:103520000303744611D04FF48056012B2C46CAF881
:103530008060CAF8006008D0022BCAF88060CAF820
:10354000006040F0A385AEF10204032D14D34FF4C4
:10355000805300BF043CCAF88030CAF80030CAF873
:103560008030CAF80030CAF88030CAF80030CAF893
:103570008030CAF80030EDD14FF48053CAF8803063
:103580005AF87C4CCAF80030CAF880305AF87C5C93
:10359000CAF80030CAF880305AF87C6C08EA152561
:1035A00045EA54240CEAD61644EA060CBCF1040F92
:1035B000CAF8003018BFBCF1020F40F0278499F818
:1035C000191010F0020018BF002940F04584BEF128
:1035D000000F40F0CB8400F01FBE00BFD9F80420DC
:1035E000521EFDD1CAF80040D9F80420521EFDD168
:1035F00042024AF87C2CCAF88040D9F80420521EB6
:10360000FDD1CAF80040D9F80420521EFDD142086D
:1036100052024AF87C2CCAF88040D9F80420521E85
:10362000FDD1CAF80040D9F80420521EFDD182080D
:1036300052024AF87C2CCAF88040D9F80420521E65
:10364000FDD1CAF80040D9F80420521EFDD1C208AD
:1036500052024AF87C2CCAF88040D9F80420521E45
:10366000FDD1CAF8004000EB5003D9F8042003EB69
:103670009003521EFDD103EBD00252024AF87C2C7B
:10368000CAF88040D9F80420521EFDD1CAF8004083
:10369000D9F80420521EFDD100224AF87C2CCAF829
:1036A0008040D9F80420521EFDD1CAF80040D9F854
:1036B0000420521EFDD14AF87C5CCAF88040D9F83B
:1036C0000420521EFDD1CAF80040D9F80420521E31
:1036D000FDD14FF48072CAF8842099F818307BB17C
:1036E0004FF48055CAF88050D9F80420521EFDD1FD
:1036F000CAF80050D9F80420521EFDD1013BF1D187
:103700004FF48052CAF88020D9F804305B1EFDD1F6
:103710005AF87C3CCAF80020D9F80440641EFDD158
:10372000CAF88020D9F80440641EFDD15AF87C7C88
:10373000CAF80020D9F80440641EFDD1CAF88020E0
:10374000D9F80440641EFDD15AF87C6CCAF80020F8
:10375000D9F8042008EA1727521EFDD147EA53235F
:103760000CEAD61243EA020CBCF1040F18BFBCF1FC
:10377000020F40F0178410F0020000F0938199F8D6
:103780001910002900F08E814FF48051CAF8801082
:10379000D9F80420521EFDD1CAF80010D9F804202F
:1037A000521EFDD1CAF88010D9F80420521EFDD156
:1037B000CAF80010D9F80420521EFDD1CAF88010B2
:1037C000D9F80420521EFDD1CAF80010D9F80420FF
:1037D000521EFDD1CAF88010D9F80420521EFDD126
:1037E000CAF80010D9F80420521EFDD1CAF8801082
:1037F000D9F80420521EFDD1CAF80010D9F80420CF
:10380000521EFDD1CAF88010D9F80420521EFDD1F5
:10381000CAF80010D9F80420521EFDD1CAF8801051
:10382000D9F80420521EFDD1CAF80010D9F804209E
:10383000521EFDD1CAF88010D9F80420521EFDD1C5
:10384000CAF80010D9F80420521EFDD1CAF8801021
:10385000D9F80420521EFDD1CAF80010D9F804206E
:10386000521EFDD1CAF88010D9F80420521EFDD195
:10387000CAF80010D9F80420521EFDD1CAF88010F1
:10388000D9F80420521EFDD1CAF80010D9F804203E
:10389000521EFDD1CAF88010D9F80420521EFDD165
:1038A000CAF80010D9F80420521EFDD1CAF88010C1
:1038B000D9F80420521EFDD1CAF80010D9F804200E
:1038C000521EFDD1CAF88010D9F80420521EFDD135
:1038D000CAF80010D9F80420521EFDD1CAF8801091
:1038E000D9F80420521EFDD1CAF80010D9F80420DE
:1038F000521EFDD1CAF88010D9F80420521EFDD105
:10390000CAF80010D9F80420521EFDD1CAF8801060
:10391000D9F80420521EFDD1CAF80010D9F80420AD
:10392000521EFDD1CAF88010D9F80420521EFDD1D4
:10393000CAF80010D9F80420521EFDD1CAF8801030
:10394000D9F80420521EFDD1CAF80010D9F804207D
:10395000521EFDD1CAF88010D9F80420521EFDD1A4
:10396000CAF80010D9F80420521EFDD1CAF8801000
:10397000D9F80420521EFDD1CAF80010D9F804204D
:10398000521EFDD1CAF88010D9F80420521EFDD174
:10399000CAF80010D9F80420521EFDD1CAF88010D0
:1039A000D9F80420521EFDD1CAF80010D9F804201D
:1039B000521EFDD1CAF88010D9F80420521EFDD144
:1039C000CAF80010D9F80420521EFDD1CAF88010A0
:1039D000D9F80420521EFDD1CAF80010D9F80420ED
:1039E000521EFDD1CAF88010D9F80420521EFDD114
:1039F000CAF80010D9F80420521EFDD1CAF8801070
:103A0000D9F80420521EFDD1CAF80010D9F80420BC
:103A1000521EFDD1CAF88010D9F80420521EFDD1E3
:103A2000CAF80010D9F80420521EFDD1CAF880103F
:103A3000D9F80420521EFDD1CAF80010D9F804208C
:103A4000521EFDD1CAF88010D9F80420521EFDD1B3
:103A5000CAF80010D9F80420521EFDD1CAF880100F
:103A6000D9F80420521EFDD1CAF80010D9F804205C
:103A7000521EFDD1CAF88010D9F80420521EFDD183
:103A8000CAF80010D9F80420521EFDD1CAF88010DF
:103A9000D9F80420521EFDD1CAF80010D9F804103C
:103AA000491EFDD199F8181081B14FF4805300BF21
:103AB000CAF88030D9F80420521EFDD1CAF800306F
:103AC000D9F80420521EFDD10139F1D14FF4807193
:103AD0000028CAF8041040F0B78699F819000028A9
:103AE00000F0B28600204AF87C0C4FF48050CAF8EF
:103AF0008000D9F80410491EFDD1CAF80000D9F899
:103B00000410491EFDD1CAF88000D9F80410491EDE
:103B1000FDD1CAF80000D9F80410491EFDD1CAF839
:103B20008000D9F80410491EFDD1CAF80000D9F868
:103B30000410491EFDD1CAF88000D9F80410491EAE
:103B4000FDD1CAF80000D9F80410491EFDD1CAF809
:103B50008000D9F80410491EFDD1CAF80000D9F838
:103B60000410491EFDD1CAF88000D9F80410491E7E
:103B7000FDD1CAF80000D9F80410491EFDD1CAF8D9
:103B80008000D9F80410491EFDD1CAF80000D9F808
:103B90000410491EFDD1CAF88000D9F80410491E4E
:103BA000FDD1CAF80000D9F80410491EFDD1CAF8A9
:103BB0008000D9F80410491EFDD1CAF80000D9F8D8
:103BC0000410491EFDD1CAF88000D9F80410491E1E
:103BD000FDD1CAF80000D9F80410491EFDD1CAF879
:103BE0008000D9F80410491EFDD1CAF80000D9F8A8
:103BF0000410491EFDD1CAF88000D9F80410491EEE
:103C0000FDD1CAF80000D9F80410491EFDD1CAF848
:103C10008000D9F80410491EFDD1CAF80000D9F877
:103C20000410491EFDD1CAF88000D9F80410491EBD
:103C3000FDD1CAF80000D9F80410491EFDD1CAF818
:103C40008000D9F80410491EFDD1CAF80000D9F847
:103C50000410491EFDD1CAF88000D9F80410491E8D
:103C6000FDD1CAF80000D9F80410491EFDD1CAF8E8
:103C70008000D9F80410491EFDD1CAF80000D9F817
:103C80000410491EFDD1CAF88000D9F80410491E5D
:103C9000FDD1CAF80000D9F80410491EFDD1CAF8B8
:103CA0008000D9F80410491EFDD1CAF80000D9F8E7
:103CB0000410491EFDD1CAF88000D9F80410491E2D
:103CC000FDD1CAF80000D9F80410491EFDD1CAF888
:103CD0008000D9F80410491EFDD1CAF80000D9F8B7
:103CE0000410491EFDD1CAF88000D9F80410491EFD
:103CF000FDD1CAF80000D9F80410491EFDD1CAF858
:103D00008000D9F80410491EFDD1CAF80000D9F886
:103D10000410491EFDD1CAF88000D9F80410491ECC
:103D2000FDD1CAF80000D9F80410491EFDD1CAF827
:103D30008000D9F80410491EFDD1CAF80000D9F856
:103D40000410491EFDD1CAF88000D9F80410491E9C
:103D5000FDD1CAF80000D9F80410491EFDD1CAF8F7
:103D60008000D9F80410491EFDD1CAF80000D9F826
:103D70000410491EFDD1CAF88000D9F80410491E6C
:103D8000FDD1CAF80000D9F80410491EFDD1CAF8C7
:103D90008000D9F80410491EFDD1CAF80000D9F8F6
:103DA0000410491EFDD1CAF88000D9F80410491E3C
:103DB000FDD1CAF80000D9F80410491EFDD1CAF897
:103DC0008000D9F80410491EFDD1CAF80000D9F8C6
:103DD0000410491EFDD1CAF88000D9F80410491E0C
:103DE000FDD1CAF80000D9F80410491EFDD1CAF867
:103DF0008000D9F80410491EFDD1CAF80000D9F896
:103E00000400401EFDD100F01FBD00BFBCF1010F3A
:103E100040F01481830700F14781BEF1000F00F0EC
:103E20005983AEF101051EF00303764600F03C8392
:103E30004FF48054012B2E46CAF88040CAF8004047
:103E400000F03283022BCAF88040CAF8004040F0EC
:103E50002383AEF1020627E34FF48053CAF8803083
:103E6000CAF80030CAF88030CAF80030CAF880308A
:103E7000CAF80030CAF88030CAF80030CAF880307A
:103E8000CAF80030CAF88030CAF80030CAF880306A
:103E9000CAF80030CAF88030CAF80030CAF880305A
:103EA000CAF80030CAF88030CAF80030CAF880304A
:103EB000CAF80030CAF88030CAF80030CAF880303A
:103EC000CAF80030CAF88030CAF80030CAF880302A
:103ED000CAF80030CAF88030CAF80030CAF880301A
:103EE000CAF80030CAF88030CAF80030CAF880300A
:103EF000CAF80030CAF88030CAF80030CAF88030FA
:103F0000CAF80030CAF88030CAF80030CAF88030E9
:103F1000CAF80030CAF88030CAF80030CAF88030D9
:103F2000CAF80030CAF88030CAF80030CAF88030C9
:103F3000CAF80030CAF88030CAF80030CAF88030B9
:103F4000CAF80030CAF88030CAF80030CAF88030A9
:103F5000CAF80030CAF88030CAF80030CAF8803099
:103F6000CAF80030BEF1000F00F05681AEF1010436
:103F70001EF00305734600F039814FF48056012D81
:103F80002346CAF88060CAF8006000F02F81022D35
:103F9000CAF88060CAF8006040F02081AEF10203E8
:103FA00024E100BFBCF1010F40F05A80820700F10C
:103FB000D98199F818307BB14FF48056CAF88060E7
:103FC000D9F80420521EFDD1CAF80060D9F80420A7
:103FD000521EFDD1013BF1D14FF48072CAF804208A
:103FE0000B6800216FF01F064FF480555A024AF803
:103FF0007C2CCAF88050D9F80420521EFDD1CAF892
:104000000050D9F80420521EFDD1194401364FEA60
:104010005303EBD349024AF87C1C4FF48051CAF891
:104020008010D9F80420521EFDD1CAF80010D9F82A
:1040300004104FF0010C491EFDD1E1E10EF1210009
:1040400010F0030100F008824FF480500129CAF8F3
:104050008000CAF8000040F07B810EF12000FBE1F7
:1040600099F818004FF48051213000BFCAF8801031
:10407000D9F80420521EFDD1CAF80010D9F8042046
:10408000521EFDD10138F1D1FAE100BF4FF4805248
:10409000CAF88020CAF80020AEF10304032DBFF453
:1040A00056AAFFF769BA00BF00236FF01F064FF44E
:1040B00080550024CAF880505AF87C7CCAF8005019
:1040C000CAF880507A0A03EB57235AF87C7CD2074F
:1040D00042EA54027C0ACAF80050CAF8805003EB46
:1040E0005723E7075AF87C4CCAF80050CAF88050AA
:1040F00047EA5202670A03EB54235AF87C4CFF0745
:10410000CAF80050CAF8805047EA5202670A03EB27
:1041100054235AF87C4CFF07CAF80050CAF8805064
:1041200047EA5202670A03EB54235AF87C4CFF0714
:10413000CAF80050CAF8805047EA5202670A03EBF7
:1041400054235AF87C4CFF07CAF80050CAF8805034
:1041500047EA5202670A03EB54235AF87C4CFF07E4
:1041600047EA5202670AFF0703EB5423083647EA7F
:104170005204CAF800509DD14FF48052CAF88020F2
:104180005AF87C7C4FF0080C83EA5723DB0708BF02
:104190004FF0010C0029CAF8002018BF0C60BEF1D6
:1041A000000F00F00783AEF101041EF00303714617
:1041B00000F0EA824FF48055012B2146CAF8805066
:1041C000CAF8005000F0E082022BCAF88050CAF80A
:1041D000005040F0D182AEF10201D5E24FF480529E
:1041E000CAF88020CAF80020AEF10303032C13D3D1
:1041F0004FF48057043BCAF88070CAF80070CAF8C0
:104200008070CAF80070CAF88070CAF80070CAF8E6
:104210008070CAF80070EDD14FF480720028CAF89F
:10422000042040F01183002900F00E8300204AF89A
:104230007C0C4FF48050CAF88000CAF80000CAF81D
:104240008000CAF80000CAF88000CAF80000CAF866
:104250008000CAF80000CAF88000CAF80000CAF856
:104260008000CAF80000CAF88000CAF80000CAF846
:104270008000CAF80000CAF88000CAF80000CAF836
:104280008000CAF80000CAF88000CAF80000CAF826
:104290008000CAF80000CAF88000CAF80000CAF816
:1042A0008000CAF80000CAF88000CAF80000CAF806
:1042B0008000CAF80000CAF88000CAF80000CAF8F6
:1042C0008000CAF80000CAF88000CAF80000CAF8E6
:1042D0008000CAF80000CAF88000CAF80000CAF8D6
:1042E0008000CAF80000CAF88000CAF80000CAF8C6
:1042F0008000CAF80000CAF88000CAF80000CAF8B6
:104300008000CAF80000CAF88000CAF80000CAF8A5
:104310008000CAF80000CAF88000CAF80000CAF895
:104320008000CAF80000CAF88000CAF80000CAF885
:104330008000CAF80000CAF88000CAF800004FF4F4
:1043400000715FFA8CF04AF87C1CBDE8F08700BF72
:104350000229CAF88000CAF8000040F075800EF10A
:104360001F0079E000256FF01F034FF4805C0026EA
:10437000CAF880C0D9F80420521EFDD15AF87C2C0E
:10438000CAF800C0D9F80470540A7F1EFDD105EBAD
:104390005225E207013342EA5606E9D34FF4805230
:1043A000CAF88020D9F804305B1EFDD15AF87C3C55
:1043B000CAF80020D9F80420521EFDD185EA532204
:1043C000D2074FF0080C08BF4FF0010C002918BFAE
:1043D0000E6099F8181079B14FF48053CAF8803004
:1043E000D9F80420521EFDD1CAF80030D9F80420B3
:1043F000521EFDD10139F1D14FF48071CAF8041079
:10440000000606D541F20400CEF200000068C9F8AB
:10441000080099F80C00002800F0168200214AF8E4
:104420007C1C4FF4805100BFCAF88010D9F80420DA
:10443000521EFDD1CAF80010D9F80420521EFDD139
:104440000138F1D100E200BF4FF48050CAF880007B
:10445000CAF800000EF11E004FF480510438CAF86B
:104460008010CAF80010CAF88010CAF80010CAF804
:104470008010CAF80010CAF88010CAF80010EDD1F8
:104480004FF48070CAF804004FF400715FFA8CF0AA
:104490004AF87C1CBDE8F0874FF48052CAF88020AF
:1044A000CAF80020AEF10306032D13D34FF4805356
:1044B000043ECAF88030CAF80030CAF88030CAF822
:1044C0000030CAF88030CAF80030CAF88030CAF824
:1044D0000030EDD14FF48072CAF804200C684FF020
:1044E000010C61026208A3084AF87C1C4FF4805159
:1044F00052025B02CAF88010CAF800104AF87C2CFD
:10450000CAF88010CAF800104AF87C3CE3085B0245
:10451000CAF88010CAF800104AF87C3C23095B02F4
:10452000CAF88010CAF800104AF87C3C63095B02A4
:10453000CAF88010CAF800104AF87C3CA3095B0254
:10454000CAF88010CAF800104AF87C3CE3095B0204
:10455000CAF88010CAF800104AF87C3C230A5B02B3
:10456000CAF88010CAF800104AF87C3C40F2FF13E9
:1045700024EA0303CAF88010CAF800104AF87C3C09
:10458000A30A5B02CAF88010CAF800104AF87C3C03
:10459000E30A5B02CAF88010CAF800104AF87C3CB3
:1045A000230B5B02CAF88010CAF800104AF87C3C62
:1045B000630B5B02CAF88010CAF800104AF87C3C12
:1045C000A30B5B02CAF88010CAF800104AF87C3CC2
:1045D000E30B5B0204EB5402CAF88010CAF8001027
:1045E0004AF87C3C230C02EB94025B0202EBD402FF
:1045F000CAF88010CAF800104AF87C3C630C02EB41
:1046000014125B0202EB5412CAF88010CAF80010B0
:104610004AF87C3CA30C02EB94125B0202EBD4122E
:10462000CAF88010CAF800104AF87C3CE30C02EB90
:1046300014225B0202EB5422CAF88010CAF8001060
:104640004AF87C3C230D02EB94225B0202EBD4225D
:10465000CAF88010CAF800104AF87C3C630D02EBDF
:1046600014325B0202EB5432CAF88010CAF8001010
:104670004AF87C3CA30D02EB94325B0202EBD4328D
:10468000CAF88010CAF800104AF87C3CE30D02EB2F
:1046900014425B0202EB5442CAF88010CAF80010C0
:1046A0004AF87C3C230E02EB94425B0202EBD442BC
:1046B000CAF88010CAF800104AF87C3C630E02EB7E
:1046C00014525B0202EB5452CAF88010CAF8001070
:1046D0004AF87C3CA30E02EB94525B0202EBD452EC
:1046E000CAF88010CAF800104AF87C3CE30E02EBCE
:1046F00014625B0202EB5462CAF88010CAF8001020
:104700004AF87C3C230F02EB94625B02CAF88010EB
:10471000CAF8001002EBD4624AF87C3C630F02EB4B
:1047200014725B02CAF88010CAF800104AF87C3C88
:1047300002EB5472A30F5B0202EB9472CAF8801072
:10474000CAF800104AF87C3CE30F02EBD4725B021B
:104750005202CAF88010CAF800104AF87C3CCAF825
:104760008010CAF800104AF87C2CCAF88010CAF8E9
:104770000010000624D42AE04FF48051CAF88010BB
:10478000CAF80010AEF10301032C13D34FF4805389
:104790000439CAF88030CAF80030CAF88030CAF844
:1047A0000030CAF88030CAF80030CAF88030CAF841
:1047B0000030EDD14FF48071CAF80410000606D520
:1047C00041F20400CEF200000068C9F8080099F830
:1047D0000C30CBB300204AF87C0C13F00307A3F194
:1047E000010011D04FF48056012F0146CAF88060B5
:1047F000CAF8006011D0022FCAF88060CAF80060C1
:1048000004D1991E09E000BF194606E04FF480511B
:10481000CAF88010CAF80010D91E032814D34FF428
:10482000805000BF0439CAF88000CAF80000CAF8F6
:104830008000CAF80000CAF88000CAF80000CAF870
:104840008000CAF80000EDD14FF400715FFA8CF0DF
:104850004AF87C1CBDE8F08770B540F65C01C1F2F7
:10486000000100220A70A8B14CF2F474C1F20044B5
:10487000A16844F6B900C1F20040884700281CBF77
:10488000002070BD21690220884798B1E068804708
:10489000002070BD4CF2F470C1F20040866AD0E98D
:1048A000034516200021B04719200021B047002001
:1048B000A847A047012070BDB0B540F65C0504468E
:1048C0008007C1F2000527D541F20400CEF20000B6
:1048D0000068A8612A69A868E968084400F03F01F7
:1048E000821A01F5FE539A42A860686102D903203A
:1048F00068700FE04CF2F472C1F2004240F64513CA
:104900006FF35F309269C1F20003C1F140011844B6
:10491000E960904701202871A00605D568792844F0
:10492000817941F08001817114F4607F08BFB0BDCE
:1049300068792844817941F040018171B0BD00BFA0
:104940002DE9F04149F2806440F65C06C0F298041B
:10495000C1F200064CF2F478A04238BF04467078E9
:10496000C1F20048D8F82850C00710D01620002106
:10497000A847D8F82C008047800708D5D8F824002D
:104980008047B1680844B06019200021A847012081
:1049900021460127A84728B1002420463470BDE8ED
:1049A000F08100BF70783770C10714D080070FD432
:1049B000B06840F6451300F03F016FF35F30D8F860
:1049C0001820C1F20003C1F140011844F160904782
:1049D00016200121A8472046BDE8F08170B5B8B186
:1049E00040F65C00C1F20000017801290DD14CF2C3
:1049F000F4740121C1F20044A269C16040F645107F
:104A0000C1F2000001219047E0B1002070BD00BF5D
:104A10004CF2F475C1F20045D5E90A461620002192
:104A2000A047B047800715D5686A804740F65C010B
:104A3000C1F200018A681044886019200021A04753
:104A400008E000BFA26A16200121904700281CBF81
:104A5000002070BD012070BD4CF2F473C1F2004320
:104A600040F65C029B69C1F20002D160184700BFAA
:104A700010B54CF2F474C1F20044E06A804780073C
:104A80005CBF002010BD606ABDE81040004700BF59
:104A900040F65C02C1F200025378DB070AD10078CD
:104AA00001289ABF90700022FF224FF001100A7077
:104AB000704700BFFF224FF001100A70704700BF1F
:104AC000F0B581B040F65C05C1F20005EA780778E0
:104AD000012A0C4602D10020FFF7BEFE4FF000066F
:104AE00067B1012F06D101200127FFF7B5FE08B1FC
:104AF000002105E0FF21002702E000BF0027002180
:104B0000EF706E704FF00110217001B0F0BD00BF6A
:104B1000B0B540F65C05C1F20005EA780C46012A02
:104B200008D10068FFF70CFF014618B14FF00410E0
:104B30002160B0BD002169704FF004102160B0BD4C
:104B400070B540F65C06C1F200060078727800F09D
:104B5000010502F0010085420C4605D100214FF00D
:104B60000110217070BD00BF3DB10020F071A6F8AA
:104B70000500B06030617061B061F07801280BD140
:104B80002846FFF72BFF00281ABF75700021FF2170
:104B90004FF00110217070BDFF214FF00110217006
:104BA00070BD00BF2DE9F04381B040F65C07C1F253
:104BB00000070446787997F8019080F001013844A5
:104BC00090F8068079710021B9F1010F817113D13C
:104BD000F878012814D10120002500BF3D71B96883
:104BE0003A690128A1EB020602D1FFF741FF064412
:104BF0003879E8B1F878F1E7B8683969461A17E00A
:104C0000002000BF3871B9683A693B797BB13871CF
:104C1000B9683A693B7953B13871B9683A693B79F7
:104C20002BB13871B9683A693B79002BEAD18E1AF9
:104C300048EA09002070300AA070300C310E66700E
:104C4000E0700520217101B0BDE8F0832DE9F04747
:104C500090F800A088464FF000095FEACA700E463F
:104C60000AD15FEA8A701ED45FEA4A7060D409F5FF
:104C70008030BDE8F08700BF40F65C00C1F2000064
:104C80004179427881F0010301448F79437147EA09
:104C90000200464681F8069006F8010B4FF0010924
:104CA0005FEA8A70E0D540F65C04C1F200046078E7
:104CB000012813D1E078012814D10120002500BF7C
:104CC0002571A16822690128A1EB020702D1FFF733
:104CD000CFFE07442079E8B1E078F1E7A0682169C8
:104CE000471A17E0002000BF2071A16822692379CC
:104CF0007BB12071A1682269237953B12071A16829
:104D0000226923792BB12071A16822692379002BB4
:104D1000EAD18F1A380A08F809707070380CB07030
:104D2000380EF070043609F104095FEA4A709ED526
:104D300040F65C01C1F20001002200BF0A714B691C
:104D400088690F797FB10A714B6988690F7957B10A
:104D50000A714B6988690F792FB10A714B698869AB
:104D60000F79002FEAD1190A7170190CB170190E60
:104D7000F170010A30717171010C000E09F1040922
:104D80003370B171F07109F58030BDE8F08700BF74
:104D90002DE9F04381B040F65C06C1F20006804682
:104DA00070790C4680F00102304471788379727119
:104DB00043EA010900220129827113D1F078012808
:104DC00024D10120002700BF3771B1683269012862
:104DD000A1EB020502D1FFF74BFE0544307920B16B
:104DE000F078F1E7B0683169451AB0785FFA89F177
:104DF000012828D1B8F80070B7F57F7F28BF4FF49D
:104E00007F77BD4298BF2F461EE000BF002000BF45
:104E10003071B168326933797BB13071B168326910
:104E2000337953B13071B168326933792BB1307154
:104E3000B16832693379002BEAD18D1AB0785FFA04
:104E400089F10128D6D000272170390A012867701E
:104E5000A17075D1D6F81080002F55D040F64511BD
:104E6000A7F1010E17F00305C1F200010ED0434671
:104E70006FF35F33581CCB5C012DE3700ED104F14E
:104E8000040C7546BEF1030F23D23DE004F1030C80
:104E900040463D46BEF1030F1BD235E06FF35F3055
:104EA000431C085C022D207108D104F1050CBD1EC5
:104EB0001846BEF1030F0CD226E000BF6FF35F333C
:104EC000CA5C581C04F1060C6271FD1EBEF1030F92
:104ED0001AD3ACF1040300BF02466FF35F328A5C61
:104EE000441C03F8042F6FF35F340A5D841C5A706E
:104EF0006FF35F340A5DC41C9A706FF35F340A5D10
:104F0000601C043DDA70E7D108EB0700306170786F
:104F1000032815D1B06831690022411AB2EB513F24
:104F20000ED1F17801290BD10121717040F64511A4
:104F30006FF35F30C1F2000108440121FFF78CFDDF
:104F4000F81C40F4003001B0BDE8F083FEE700BF7C
:104F5000FEE700002DE9F04F81B08946096C044658
:104F60000968C1F3046003F025F90203010D10463E
:104F7000224600234FF0000B03F0B2FCD9F860206A
:104F800092F83020062A40F0C18099ED190A4CF6BB
:104F9000341EBDEEC00A009410EE101A4FF0FF3818
:104FA000C1F2004E00244FF0000C4FF0000A04E064
:104FB0001034B4F5907F00F085813EF80420B0FBFA
:104FC000F2F3B3FBF1F6BBEB164F21D1032E0EEB40
:104FD000040303D2022E1BD103260DE006FB02F5CB
:104FE000B5FBF1F73D1A38BFC51B454503D293F811
:104FF00002C0B246A84601367243B2FBF1F52A1A46
:1050000038BF421B424503D293F802C0B2469046D5
:105010000EEB04039A88B0FBF2F5B5FBF1F6BBEB9F
:10502000164F1FD1032E03D2022E1BD103260DE0F3
:1050300006FB02F5B5FBF1F73D1A38BFC51B454528
:1050400003D293F806C0B246A84601367243B2FBBB
:10505000F1F52A1A38BF421B424503D293F806C025
:10506000B24690461A89B0FBF2F5B5FBF1F6BBEB00
:10507000164F1FD1032E03D2022E1BD103260DE0A3
:1050800006FB02F5B5FBF1F73D1A38BFC51B4545D8
:1050900003D293F80AC0B246A84601367243B2FB67
:1050A000F1F52A1A38BF421B424503D293F80AC0D1
:1050B000B24690469A89B0FBF2F5B5FBF1F6BBEB30
:1050C000164F7FF475AF032E04D2022E7FF470AF1B
:1050D00003260DE006FB02F5B5FBF1F73D1A38BFDC
:1050E000C51B454503D293F80EC0B246A84601360B
:1050F0007243B2FBF1F52A1A38BF421B4245BFF496
:1051000057AF93F80EC0B246904651E74FF6FF7284
:1051100020EA0202824209D1020C42EA014A00233B
:1051200010214FF0000C4FF00008CDE04FF6FF7B50
:10513000C0F20F0BABF54D21884240F2F7804CF6E0
:10514000341E00264FF0FF38C1F2004E4FF0000C25
:1051500000214FF0000A009405E000BF1036B6F5BC
:10516000907F00F0AF803EF80620B0FBF2F55D4581
:1051700024D82C091201302D0EEB060302D21F2D6C
:105180000DD81BE002FB04F52F1A38BF02FB1407F1
:10519000474504D293F802C01021B846A246671CC6
:1051A00002FB07F4241A38BF02FB1704444505D25A
:1051B00093F802C01021BA46A04600BF0EEB0603CA
:1051C0009A88B0FBF2F55D4524D82C09302D4FEAC2
:1051D000021203D2202D0ED21CE000BF02FB04F508
:1051E0002F1A38BF02FB1407474504D293F806C0B4
:1051F0001021B846A246671C02FB07F4241A38BFE8
:1052000002FB1704444505D293F806C01021BA46A4
:10521000A04600BF1A89B0FBF2F55D4524D82C09E1
:10522000302D4FEA021203D2202D0ED21CE000BF17
:1052300002FB04F52F1A38BF02FB1407474504D2BE
:1052400093F80AC01021B846A246671C02FB07F477
:10525000241A38BF02FB1704444505D293F80AC04C
:105260001021BA46A04600BF9A89B0FBF2F55D4511
:105270003FF674AF2C09302D4FEA021204D2202DD4
:10528000FFF46CAF0DE000BF02FB04F52F1A38BF2E
:1052900002FB1407474504D293F80EC01021B8460C
:1052A000A246671C02FB07F4241A38BF02FB17044E
:1052B0004445BFF453AF93F80EC01021BA46A04640
:1052C0004CE700BF0023009C642208FB02F2B2FB03
:1052D000F0F0032804D94FF0FF3001B0BDE8F08FA3
:1052E000D9F80400C26842F08002C2601FFA8AF254
:1052F000120A4260D9F804005FFA8AF20260D9E922
:105300000102C76827F08007C7605FFA8CF78762E1
:1053100022B989B243EA01111039C162D9F860009B
:10532000C462002001B0BDE8F08F00BFD9F80810BA
:105330000029D0D14CF6CC41884205D9B0F5403F88
:105340005ED90F2197E000BF00944FF0FF3C4FF46F
:10535000504B4FF44A4E4FF0000A00270EF5C06242
:10536000ABEB0008824238BFA0EB0B08E0453ABF28
:105370004FF0010A1746E0460EF580620021B1EBBE
:10538000923F35D0ABF50075291A824238BF411BD8
:1053900041454546ABF58064A2F500733CBF174616
:1053A0000D46261A834238BF061BAE422B46ABF58C
:1053B000C064A2F5806B3CBF0EF500773346A4EBCA
:1053C000000C834538BFA0EB040C414538BF4FF0BB
:1053D000010AAE4238BF4FF0010A9C453ABF4FF078
:1053E000010A77469C46AEF5006EA2F5C06BB5E7A4
:1053F000BAB20E23110B03EA12234FF0000C62E73E
:10540000B0F5343F02D90E2135E000BFB0F5283F9A
:1054100002D90D212FE000BFB0F5183F02D90C21B1
:1054200029E000BFB0F50C3F02D90B2123E000BFFB
:10543000B0F5003F02D90A211DE000BFB0F5E83FFA
:1054400002D9092117E000BFB0F5D03F02D90821E9
:1054500011E000BFB0F5B83F02D907210BE000BF53
:10546000B0F5983F02D9062105E000BF0421B0F550
:10547000803F88BF0521B0FBF1F2130500F0A88042
:105480004CF6341EA34601EB410700264FF0FF38CF
:10549000C1F2004E4FF0000C00244FF0000A04E06F
:1054A0002436B6F5907F00F08F803EF8063007FB7B
:1054B00003F2121A38BF07FB1302424507D20EEB64
:1054C000060393F802C04FF0030A0C4690460EEB19
:1054D00006039D8807FB05F2121A38BF07FB150269
:1054E000424505D293F806C04FF0030A0C46904699
:1054F0001D8907FB05F2121A38BF07FB150242454A
:1055000005D293F80AC04FF0030A0C4690469D89D5
:1055100007FB05F2121A38BF07FB1502424505D2F8
:1055200093F80EC04FF0030A0C4690461D8A07FB05
:1055300005F2121A38BF07FB1502424505D293F84F
:1055400012C04FF0030A0C4690469D8A07FB05F2F5
:10555000121A38BF07FB1502424505D293F816C050
:105560004FF0030A0C4690461D8B07FB05F2121AFA
:1055700038BF07FB1502424505D293F81AC04FF019
:10558000030A0C4690469D8B07FB05F2121A38BFA2
:1055900007FB1502424505D293F81EC04FF0030ADF
:1055A0000C4690461D8C07FB05F2121A38BF07FB0C
:1055B00015024245BFF474AF93F822C04FF0030ABE
:1055C0000C4690466CE700BFA2B221465C4606E05E
:1055D0004FEA123A4FF0000C0A464FF000080CF068
:1055E0000F03CCF303171FFA8AF63B4472435A4366
:1055F000120392FBF7F73A0502D0002364E600BFDE
:105600004FF6F07217425DD048F68902C8F688025C
:10561000A7FB0223DB081A0558D042F293437A080D
:10562000C9F24923A2FB03239B081A0550D04EF66A
:105630004F42C4F6C462A7FB02239B081A0549D057
:105640004AF6AB22CAF6AA22A7FB0232D3081E05ED
:1056500042D048F6A333CBF62E23A7FB0336F3083C
:105660001E053BD04CF6CD43CCF6CC43A7FB03360E
:10567000F3081D0534D048F63963C3F6E303A7FBEE
:1056800003356B081D052DD047F6F8731F422BD04C
:1056900044F62513C2F29243A7FB03357B1B05EBAF
:1056A00053039B081D0523D093081A0522D0B30885
:1056B0001A0521D043F6FC7217429ED1BB08042183
:1056C0001BE000BF3B09102117E000BF0F2114E0D1
:1056D0000E2112E00D2110E00C210EE00B210CE058
:1056E0000A210AE0092108E0FB08082105E000BFC3
:1056F000072102E0062100E005214FEA133A0023CA
:105700004FF0000CE0E500BFF0B542F20007C4F234
:105710000807B868C10740F0558100F00E0C42F64A
:105720004811BCF1020FC1F2000140F085800A6A05
:105730006FF00F0001F124030C6994425ED08D6973
:1057400091F8304091F8276015442A4604F0FE0491
:10575000022E08BF1A46022C18BF2A4612783A6059
:105760000A6A0E69013296420A6247D08D6991F841
:10577000306091F8274015442A4606F0FE06022CB8
:1057800008BF1A46022E18BF2A4612783A600A6AE3
:105790000E69013296420A6230D08D6991F830600C
:1057A00091F8274015442A4606F0FE06022C08BF51
:1057B0001A46022E18BF2A4612783A600A6A0E6903
:1057C000013296420A6219D08D6991F8306091F8E1
:1057D000274015442A4606F0FE06022C08BF1A464A
:1057E000022E18BF2A46127804303A600A6A02F183
:1057F00001020A62A0D1086990421DD1786820F0A8
:105800000200786091F8300000F0FE0002284FF0AE
:10581000000081F8260021D191F8270001280BD142
:1058200091F83100012222EA1010BCF1040F18BFD8
:10583000BCF10C0F07D018E00020BCF1040F18BF1A
:10584000BCF10C0F11D17A69D2076ED0D7F814E0F1
:105850005FEA8E7212D400231DE000BF0120BCF16C
:10586000040F18BFBCF10C0FEDD0BCF1060F40F0D7
:105870009D807B699A0769D4002274E001224A71F5
:1058800091F8262091F830403023002A08BF2023C9
:10589000032C18BF20235FEA4E7242BF01220A7216
:1058A00003F500735FEACE6208D45FEA0E7242BF6E
:1058B0000122CA7143F4807304E000BF01228A719F
:1058C00043F0800391F8306091F8272006F0FE0441
:1058D000D7F800E0022C40EA030008BF012A03D0F9
:1058E0004A69CB6902F803E0CA69CB6801329A427F
:1058F000CA6119D17A68002322F001027A6091F816
:1059000030200B7102F0FE02022A43D191F82720C9
:1059100081F82730032A43D0022A45D0012A08BF44
:1059200040F0010042E000BF7A6991F8302002F0B7
:10593000FE02BCF10C0F39D1022A37D0CA68CB69FC
:10594000934218BF40F0400034E000BF012291F8BC
:1059500026704A7191F830603022002F08BF202253
:10596000032E18BF20225F0742BF01270F7202F5E6
:105970000072DF0608D41B0742BF0123CB7142F43B
:105980008072104316E000BF012342F080028B7149
:1059900010430FE040F00200BCF10C0FCCD005E04A
:1059A00040F0040002E000BF40F00200BCF1000F34
:1059B00008BFBA69002808BFF0BD096811B1BDE889
:1059C000F0400847F0BD00BF40F20420C0F20E20B6
:1059D000704700BF0120704742F64811C1F2000134
:1059E00091F83120D2070AD10022C1E9000201203A
:1059F00081F8262081F824200A7281F831000020E5
:105A0000704700BF10B501200E210022002401F0D4
:105A1000C3FF42F64811C1F20001002081F8314075
:105A200010BD00BF022800F09380012804BF6FF072
:105A30000300704700281CBF6FF0040070474EF24F
:105A4000802CCEF2000C6FF0FF014FF000734CF889
:105A5000013043F25412BFF34F8FC4F20502BFF37B
:105A60006F8F11684FF4005363EA010142F8501C34
:105A700040F21001C1F200010B689B09106880041C
:105A800011D47BB1106880040DD4012B0AD01068AA
:105A9000800408D4022B05D01068800403D4043B92
:105AA000581CEBD100BF41F21052C4F20502D2F8EB
:105AB000F00E20F00100C2F8F00E08688309D2F859
:105AC000F00EC00714D093B1D2F8F00EC0070FD07B
:105AD000012B0CD0D2F8F00EC00709D0022B06D053
:105AE000D2F8F00EC00703D0043B581CE7D100BF2A
:105AF000106820F001001060086881091068C00774
:105B000011D079B11068C0070DD001290AD01068F2
:105B1000C00708D0022905D01068C00703D0043997
:105B2000481CEBD100BF4FF0007042F64811CCF892
:105B30000000C1F2000191F83120002002F0FD02C6
:105B400081F826004860087281F83120704700BF54
:105B500042F64811C1F2000191F83100C20704BFBA
:105B60004FF0FF307047800744BF00207047A022ED
:105B700040F6000341F21050C4F20502C0F60013D3
:105B8000C4F205001360026840F2100C42F00302F8
:105B90000260C1F2000CDCF800309B090268D207F9
:105BA00012D1002B54D00268D2070DD1012B4FD057
:105BB0000268D20708D1022B4AD00268D20703D16B
:105BC000043B5A1CEAD143E0D0F8F02E42F0030225
:105BD000C0F8F02EDCF800209309D0F8F02ED207A0
:105BE00014D1ABB3D0F8F02ED2070FD1012B2FD0A8
:105BF000D0F8F02ED20709D1022B29D0D0F8F02E00
:105C0000D20703D1043B5A1CE7D121E043F25410E0
:105C1000C4F2050002684FF4005363EA020240F840
:105C2000502CDCF80020920903689B0414D47AB14C
:105C300003689B0410D4012A0AD003689B040BD488
:105C4000022A05D003689B0406D4043A531CEBD106
:105C50004FF0FF3000BF704742F24C02C4F208021E
:105C60001069012320F001001061106840F002006B
:105C70001060002042F8480C42F8443C4FF4407257
:105C80000A8681F82600486008724EF28021CEF222
:105C900000014FF000724FF680630A60CFF6FF7389
:105CA000CA50704760E200BF80B5024600286FF01E
:105CB000040018BF002901D180BD00BF42F6481082
:105CC000C1F2000090F831305B075CBF4FF0FF304D
:105CD00080BD0379012B04BF6FF0010080BD01235B
:105CE00003710023426142F20402C160C0F8053032
:105CF000C361C4F20802136843F00103136090F813
:105D0000302002F0FE02022A0DD190F8272052B96D
:105D1000022280F82720243000F026FA00281CBF39
:105D20004FF0FF3080BD002080BD00BFB0B50546FC
:105D300000286FF0040018BF002901D1B0BD00BFDA
:105D40001446002A08BFB0BD42F64810C1F2000058
:105D500090F8312052072FD590F8302002F0FE0243
:105D6000022A29D102790323012A80F8273004BFAF
:105D70006FF00100B0BD012202710022416142F2C8
:105D80000401C460C0F80520C261C4F208010A68B9
:105D900042F001020A6090F8301001F0FE01022981
:105DA0000ED190F8271059B9022180F8271024301D
:105DB000214600F0D9F918B14FF0FF30B0BD00BF57
:105DC00028462146BDE8B040CEE100BF42F648106B
:105DD000C1F20000006A704742F64810C1F20000AC
:105DE000C06970472DE9F04742F64814C1F200043B
:105DF00094F83130024698074FF0FF3058BFBDE8A5
:105E0000F08750FA82F7192F42D86FF006004FF052
:105E1000010A0026DFE807F0170E0E140E0E3C3CB8
:105E20003C3C3C3C3C3C3C401010101046587A88AE
:105E300098A600BFBDE8F0874FF0FF30BDE8F087BF
:105E40004FF0040A0126207994F82630184367D1D0
:105E5000C2F30220E123C340DB0704BF6FF0080058
:105E6000BDE8F08792A353F8207012F4405000F080
:105E7000D180B0F5005F00F0CB80B0F5805F1CBF33
:105E80006FF00900BDE8F08747F01807C2E000BFD7
:105E90006FF00300BDE8F087002084F82410BDE80F
:105EA000F08700BF00296DD043F0080084F831006E
:105EB00042F20400C4F20800816D41F001018165E5
:105EC0000020BDE8F08700BF00296BD094F83000B7
:105ED00040F00200062806D001200E21C12201F068
:105EE0005BFD94F8313043F0100084F8310042F249
:105EF0000400C4F20800816C21F002018164016891
:105F000041F0040101600020BDE8F08742F2040086
:105F10000029C4F2080067D094F8261000296DD03B
:105F20006FF00100BDE8F08742F20400C4F20800FF
:105F3000016821F00201016005214160002084F820
:105F40002600BDE8F08700BF42F20400C4F208005A
:105F5000016821F0010101600321416000202071EE
:105F6000BDE8F08742F20400C4F20800016821F0A5
:105F700003010160072141600020207184F82600A0
:105F8000BDE8F08703F0F70084F8310042F2040026
:105F9000C4F20800816D21F0010181650020BDE897
:105FA000F08700BF03F0EF0084F8310042F20400F4
:105FB000C4F20800816C41F002018164016821F0A3
:105FC0000401016094F8300040F00200062804BF8C
:105FD0000020BDE8F08701200E21802201F0DCFCCA
:105FE0000020BDE8F08700BF8168002221F0400159
:105FF0008160002084F82620BDE8F08781680122B6
:1060000041F040018160002084F82620BDE8F0873F
:1060100047F0080712F4404004D0B0F5804F3FD15C
:1060200047F0040742F20408C4F20808D8F80C90BC
:1060300012F4403F1CBF6FF00B00BDE8F0874CF638
:106040007402C1F2004208461146FEF783FF013098
:106050002AD094F83100C122C00684F830A058BF7D
:10606000802201200E21002E18BF802201F094FC16
:10607000D8F80C0040EA090020F0C000C8F80C0075
:10608000D8F8080000F0C0003843C8F8080094F8B9
:10609000310040F0040084F831000020BDE8F087B2
:1060A0006FF00A00BDE8F0876FF00700BDE8F087E9
:1060B00003000000000000000000000000000000DD
:1060C00000000000000000000100000002000000CD
:1060D00080B542F2140042F64811C4F20800C1F241
:1060E000000100680A794B79C0F3801C887902F0BE
:1060F000010291F807E04CEA420203F0010342EA90
:10610000C30200F00100097A42EA00100EF0010219
:1061100001F0010140EA421040EA811080F00100E4
:1061200080BD00BF42F64811C1F2000191F8312054
:106130000021042838BF6FF00301500758BF4FF00B
:10614000FF310846704700BF42F64810C1F2000018
:1061500090F83100400704D542F21800C4F208005C
:1061600000680020704700BF70B5054600286FF03A
:10617000040000F097800C46002900F0938042F65E
:106180004816C1F2000696F8310040075CBF4FF098
:10619000FF3070BD96F8260000281CBF6FF001008C
:1061A00070BD96F83000012100F0FE00022886F84C
:1061B00026102FD196F8270060BB317901200129E4
:1061C00086F8270022D030710020C6F8050006F1BD
:1061D0002501F06142F20400F4607161C4F208002C
:1061E000016841F00101016096F8300000F0FE0006
:1061F00002280FD196F8270060B9022086F8270000
:1062000006F124002146FFF7AFFF18B14FF0FF3031
:1062100070BD00BF42F204000021C4F20800B56165
:1062200034613162026992060CD496F828100F2965
:106230000AD90021A1421BD0016841F0020101608E
:1062400000202FE086F82810002100BFB2694B1C07
:106250003362515C40F8041C96F8281034694A1CDB
:10626000D1B20F29316A86F82820E3D8A142EDD1B6
:1062700096F83000002100F0FE00022886F8261073
:1062800012D196F8270001281CBF002070BD96F897
:106290003100012100F0100081EA101000284FF0B9
:1062A000000006D170BD00BF012000284FF00000A3
:1062B000F8D03168002908BF70BD01208847002050
:1062C00070BD000000F00CB842F67C10C1F2000076
:1062D0000078704742F67C10C1F2000000787047E9
:1062E000F0B581B046F24015C4F200056F6E6868E3
:1062F000A968EC6F01EA000638036E60EC670BD406
:10630000F8021AD4700629D4F00537D470073ED4A9
:10631000F00700F0418258E0686E40F400206866A3
:1063200040F67800C1F20000C168426841F0010106
:10633000C16001209047F802E4D5686E40F48010F7
:10634000686640F67800C1F20000C168426821F03A
:106350000701C160022090477006D5D500F062FAAF
:1063600040F67800C1F20000C2680123416863F37F
:106370004202C26004208847F005C7D540F6780085
:10638000C1F200004168102088477007C0D540F670
:106390007807686CC1F20007F96800F04060B0F15E
:1063A000006F21F0060007D140F004007968F86022
:1063B0000820884703E000BF40F00200F8607968D9
:1063C00020208847F00700F0E781E86EF8B145F239
:1063D000000140F67800C1F20001C1F2000000BFE8
:1063E0002A6842F400522A60D1E90A23C0E9042352
:1063F0002A682B681342F3D0296821F400512960E0
:106400000121E9660170826800200121904714F49F
:106410007C1F00F0CB80E0031ED545F20000C1F2E6
:106420000000B0F87C10D0E91D3211448B42816726
:106430000CD140F67802C1F200020021926880F887
:106440007F1080200421904706E000BF90F87F0075
:1064500010B1802000F044FBA0031FD545F20000DE
:10646000C1F20000B0F8FC10D0E93D3211448B427B
:10647000C0F8F8100CD140F67802C1F200020021F9
:10648000926880F8FF1081200421904706E000BF49
:1064900090F8FF0010B1812000F022FB60031FD5AF
:1064A00045F20000C1F20000B0F87C11D0E95D3285
:1064B00011448B42C0F878110CD140F67802C1F239
:1064C00000020021926880F87F1182200421904709
:1064D00006E000BF90F87F0110B1822000F000FBC1
:1064E00020031FD545F20000C1F20000B0F8FC11F6
:1064F000D0E97D3211448B42C0F8F8110CD140F63E
:106500007802C1F200020021926880F8FF11832016
:106510000421904706E000BF90F8FF0110B18320EE
:1065200000F0DEFAE0021FD545F20000C1F20000E3
:10653000B0F87C12D0E99D3211448B42C0F8781239
:106540000CD140F67802C1F200020021926880F876
:106550007F1284200421904706E000BF90F87F025C
:1065600010B1842000F0BCFAA0021FD545F2000053
:10657000C1F20000B0F8FC12D0E9BD3211448B42E8
:10658000C0F8F8120CD140F67802C1F200020021E6
:10659000926880F8FF1285200421904706E000BF32
:1065A00090F8FF0210B1852000F09AFAA50600F0DD
:1065B000F380E0072BD045F20000C1F20000C28951
:1065C000838F41886FF3DF329A1A93B26FF3DF2122
:1065D000B3FBF1F7866B07FB1133416B16FA82F2BE
:1065E00082634BB9914207D090F83F0078B1002008
:1065F00000F076FA0BE000BF40F67802C1F200022C
:106600000021926880F83F10002002219047A007E7
:1066100031D545F20000C1F20000B0F88E20B0F88C
:10662000BC30B0F882106FF3DF329A1A93B26FF376
:10663000DF21B3FBF1F7D0F8B86007FB1133D0F8D6
:10664000B41016FA82F2C0F8B8204BB9914207D0C4
:1066500090F8BF0078B1012000F042FA0BE000BFD3
:1066600040F67802C1F200020021926880F8BF1063
:10667000012002219047600731D545F20000C1F2A8
:106680000000B0F80E21B0F83C31B0F802116FF301
:10669000DF329A1A93B26FF3DF21B3FBF1F7D0F830
:1066A000386107FB1133D0F8341116FA82F2C0F8C2
:1066B00038214BB9914207D090F83F0178B10220C0
:1066C00000F00EFA0BE000BF40F67802C1F20002C3
:1066D0000021926880F83F11022002219047200794
:1066E00031D545F20000C1F20000B0F88E21B0F8BB
:1066F000BC31B0F882116FF3DF329A1A93B26FF3A4
:10670000DF21B3FBF1F7D0F8B86107FB1133D0F804
:10671000B41116FA82F2C0F8B8214BB9914207D0F1
:1067200090F8BF0178B1032000F0DAF90BE000BF68
:1067300040F67802C1F200020021926880F8BF1191
:10674000032002219047E00624D545F20000C1F263
:106750000000B0F80E22B0F83C32B0F802126FF32D
:10676000DF329A1A93B26FF3DF21B3FBF1F7D0F85F
:10677000386207FB1133D0F8341216FA82F2C0F8EF
:1067800038225BB9914209D090F83F0210B1042041
:1067900000F0A6F9002D0ED401B0F0BD40F678024D
:1067A000C1F200020021926880F83F120420022109
:1067B0009047002DF0D545F20002C1F20002B2F878
:1067C0008E12B2F8BC32B2F882026FF3DF31591A7E
:1067D0008BB26FF3DF20B3FBF0F7D2F8B86207FBA0
:1067E0001033D2F8B40216FA81F1C2F8B8125BB9CC
:1067F000884209D092F8BF020028CDD0052001B010
:10680000BDE8F0406CE100BF40F67800C1F2000046
:10681000002783680520022182F8BF7201B0BDE81D
:10682000F04018472DE9F04145F2000440F67807A2
:10683000C1F2000446F2B415C1F20007002620465A
:106840004FF44071C4F20005C7E904663E7002F0DF
:1068500091F845F20030C1F200004FF4C07102F02F
:1068600089F8286920F080102861686920F080107C
:106870006861A86920F08010A861E86920F08010A4
:10688000E861286A20F0801028624FF0FF3045F858
:106890003C0C45F8386C45F8700C55F8080C40F283
:1068A000100645F8080CA868C1F20006A860306818
:1068B000800955F8041C89B178B155F8041C69B1F8
:1068C00001280AD055F8041C41B1022805D055F81A
:1068D000041C19B10438411CEBD100BF4FF0FF304C
:1068E000286030688009296871B160B1296859B1A0
:1068F000012808D0296839B1022804D0296819B1C3
:106900000438411CEFD100BF55F8740C20F47F000F
:1069100045F8740CF86842F67D17C1F20007397823
:1069200094F83F2000F00600B2FA82F252090428DF
:1069300002EA510066D168B32046402102F01AF8FD
:106940000020C2F2080000F5621020600120002142
:10695000C4E902012860306880092968C90711D09C
:1069600078B12968C9070DD001280AD02968C9075C
:1069700008D0022805D02968C90703D00438411C73
:10698000EBD100BFE86820F0ED00E860E86840F077
:10699000C000E8603878800740F1978094F87F0065
:1069A000002840F0928004F14000402101F0E2FF15
:1069B0004FF00150206401200021C4E912014FF47E
:1069C00080302860306880092968C90311D578B102
:1069D0002968C9030DD501280AD02968C90308D53B
:1069E000022805D02968C90303D50438411CEBD11E
:1069F00000BFE86820F46D00E860E86840F44000FB
:106A0000E86062E040F20008C2F2080850B3204695
:106A1000402101F0AFFF08F5004020600120002177
:106A2000C4E902012860306880092968C90711D0CB
:106A300078B12968C9070DD001280AD02968C9078B
:106A400008D0022805D02968C90703D00438411CA2
:106A5000EBD100BFE86820F0ED00E860E86840F0A6
:106A6000C000E860387880072FD594F87F0060BBBD
:106A700004F14000402101F07DFF01200021C4E924
:106A800012014FF48030C4F84080286030688009DB
:106A90002968C90311D578B12968C9030DD5012822
:106AA0000AD02968C90308D5022805D02968C90376
:106AB00003D50438411CEBD100BFE86820F46D0019
:106AC000E860E86840F44000E86045F85C4C55F840
:106AD0000C0C40F0080045F80C0CBDE8F08100BF3C
:106AE0002DE9F04100F00F025300C40943EAD0132E
:106AF00042EA0410012245F2000402FA00F045F2D5
:106B00000032C1F20004C1F2000204EB831602EB72
:106B10004312B36BD6E90C4546F2B81104EB030EF1
:106B2000A5EB030C40F21003C1F200031B68C4F292
:106B300000019C09BCF5804F28BF4FF4804C0B68C6
:106B4000034213D07CB10B6803420FD0012C0AD052
:106B50000B6803420AD0022C05D00B68034205D013
:106B6000043C631CEBD100BFBDE8F0810023C2E907
:106B70000033C2E90233C2E90433C2E90633546880
:106B80000123136044EA0C4348F2800423430EF5CA
:106B90008054C2E9013E02F10C030EF500550EF5DA
:106BA0004057B0C3F3680EF5804823F0FF03C2F8E6
:106BB0001880C6E90223A6F83CC051F8082C1043FF
:106BC00041F8080CBDE8F08140F20320C0F20C202F
:106BD000704700BF0720704710B542F67D14C1F220
:106BE00000042278D2070FD140F67802C1F20002E9
:106BF000C2E9010142F67C10C1F2000002210170DD
:106C0000FFF762FB01202070002010BD80B5FFF768
:106C100061FB42F67C10C1F200000021017042F6D7
:106C20007D11C1F20001087800F0FE0200200A7018
:106C300080BD00BFB0B5022800F09280012800F0AE
:106C4000CD8000281CBF6FF00400B0BD4EF20010D4
:106C5000CEF200004FF48071C0F88010BFF34F8F68
:106C6000BFF36F8FC0F8801142F67D10C1F20000B3
:106C70000178002401F0FD01017040F67800C1F2B6
:106C800000000470C168602521F00F01C16045F269
:106C90000000C1F200004FF44071C4F2050501F09C
:106CA00069FE45F20030C1F200004FF4C07101F0FE
:106CB00061FE2868C00740F0FA8043F20401C4F284
:106CC00004010A6841F22C4042F02002C4F205009F
:106CD0000A60D0F8D41321F00101C0F8D41340F2B7
:106CE0001001C1F200010A689209D0F8D833DB071D
:106CF00014D092B1D0F8D833DB070FD0012A0CD0D2
:106D0000D0F8D833DB0709D0022A06D0D0F8D83320
:106D1000DB0703D0043A531CE7D100BF50F8042C22
:106D200022F0010240F8042C096889090268D207A0
:106D300011D079B10268D2070DD001290AD00268BA
:106D4000D20708D0022905D00268D20703D004393F
:106D50004A1CEBD100BF012028600020B0BD00BF5D
:106D600042F67D14C1F200042078C00704BF4FF042
:106D7000FF30B0BD2078800744BF0020B0BD602147
:106D800040F6000241F22C40C4F20501C0F200724C
:106D9000C4F205000A6050F8041C41F0010140F8FB
:106DA000041C40F21001C1F200010A689209036854
:106DB000DB0717D1002A53D00368DB0712D1012A61
:106DC0004ED00368DB070DD1022A49D00368DB07E8
:106DD00008D1043A531CEAD142E000BF6FF003002F
:106DE000B0BD00BFD0F8D42342F00102C0F8D423D4
:106DF0000A689209D0F8D833DB0715D182B3D0F8EE
:106E0000D833DB0710D1012A2AD0D0F8D833DB07DA
:106E10000AD1022A24D0D0F8D833DB0704D1043AAF
:106E2000531CE7D11CE000BF46F24015C4F2000538
:106E300002202860086880092968890714D078B181
:106E40002968890710D001280AD0296889070BD042
:106E5000022805D02968890706D00438411CEBD1E7
:106E60004FF0FF3000BFB0BD0A20A86643F2040017
:106E7000C4F20400016821F020010160FFF7D2FC98
:106E8000686C4FF4807120F0807068640920C1F64E
:106E90000000686640F24510A860207840F00200CB
:106EA00020704EF20010CEF2000001600024204657
:106EB000B0BD00BF42F67D10C1F20000007880072F
:106EC0005CBF4FF0FF30704746F24010C4F2000044
:106ED000016841F0010101600020704742F67D1019
:106EE000C1F20000007880075CBF4FF0FF307047B0
:106EF00046F24010C4F20000016821F00101016077
:106F00000020704742F67D10C1F200000078800733
:106F10005CBF0020704746F2841040F67801C4F24E
:106F20000000C1F200010068C96800F0810221F090
:106F30000800012A08BF0830704700BF42F67D10E4
:106F4000C1F20000007880075CBF4FF0FF3070474F
:106F500046F28410C4F20000016821F400010160CF
:106F6000016841F0400101600020704742F67D1148
:106F7000C1F20001097889075CBF4FF0FF3070470C
:106F800046F254114006C4F200010860086840F05F
:106F9000807008600020704742F67D11C1F2000148
:106FA0000978890712D540F67801C1F200010A7804
:106FB00062B100220A70D1E90423436002600878BC
:106FC000002818BF4FF0FF30704700BF4FF0FF3070
:106FD000704700BF2DE9F04F81B000F00F04052C81
:106FE00007D8054642F67D10C1F200000078800700
:106FF00004D44FF0FF3001B0BDE8F08F8846600048
:1070000045F2000140EAD510C1F2000101EB801702
:1070100097F83F0020B16FF0010001B0BDE8F08F9C
:10702000E80946F2B41A4FEA0019384640211646DC
:10703000C4F2000AC2F3C12B01F09CFC40F67800B8
:10704000C1F20000C06887F83E80B8F1010F08BFA8
:107050000BF1010B00F006004FEA8B710228084685
:1070600008BF4FF08040BBF1010F98BF08460021D8
:10707000C0F2FF7101EA06414FF00052002D04BF3B
:1070800048F20002C2F200021144084438600120B4
:107090000021C7E90201102101EAD50121448840FD
:1070A00040F21001CAF80000C1F200010968890924
:1070B000DAF80020024214D091B1DAF8002002423E
:1070C0000FD001290CD0DAF80020024209D00229A1
:1070D00006D0DAF80020024203D004394A1CE7D176
:1070E00000BF0AF10C0141EA8401ED200A6800FAB0
:1070F00009F022EA00000860C02068F383000A68F3
:1071000000FA09F010430860002001B0BDE8F08FDC
:107110002DE9F04100F00F02052A07D8014642F69A
:107120007D10C1F200000078800703D44FF0FF30DB
:10713000BDE8F081500040EAD11C45F20000C1F2E8
:10714000000000EB8C1090F83F30002B1CBF6FF05C
:107150000100BDE8F08146F2C014C909C4F2000480
:107160000901ED2354F822708B4027EA030344F809
:107170002230402354F8227003FA01F145F200381E
:107180003943C1F2000844F82210402108EB4C15A5
:107190004FEA4C1601F0EEFB002048F80600C5E966
:1071A0000100C5E90300C5E90500E861BDE8F0811B
:1071B00070B500F00F02052A06D842F67D13C1F221
:1071C00000031B789B0703D44FF0FF3070BD00BF56
:1071D000530045F2000543EAD013C1F2000505EB68
:1071E000831393F83F50002D1CBF6FF0010070BD5A
:1071F000C50946F2B41E4FEA051C0124C4F2000E74
:1072000004FA0CF541B10EF10C0040EA820001686D
:1072100029430160002070BD0EF10C0141EA82019A
:107220000E6826EA05050D600025DD60102303EADF
:10723000D000104404FA00F040F21002CEF8000032
:10724000C1F2000212689209DEF80030034214D045
:1072500092B1DEF8003003420FD0012A0CD0DEF8E4
:107260000030034209D0022A06D0DEF80030034283
:1072700003D0043A531CE7D100BF40200A6800FA4B
:107280000CF010430860002070BD00BF10B500F086
:107290000F03052B06D842F67D14C1F200042478B2
:1072A000A40703D44FF0FF3010BD00BF5B0045F2D0
:1072B000000443EAD013C1F2000404EB831C6346CC
:1072C00013F83F4F002C1CBF6FF0010010BD0124CC
:1072D0001C7000240CF1300316C3ACF83C40FFF7DF
:1072E000FFFB204610BD00BF00F00F01052984BF41
:1072F00000207047402202EA500040EAC11045F2E7
:107300000001C1F200010844806B7047B0B500F085
:107310000F01052906D842F67D12C1F2000212784B
:10732000920703D44FF0FF30B0BD00BF4A001025D4
:10733000C40942EAD01C05EAD00046F2B4134FEA71
:10734000041E41EA041201240844C4F2000304FAB2
:1073500000F040F210051860C1F200052D6804FA33
:1073600002F2AC091D68054211D07CB11D680542CE
:107370000DD0012C0AD01D68054208D0022C05D082
:107380001D68054203D0043C651CEBD100BF9A6028
:1073900003F10C0242EA810140200A6800FA0EF073
:1073A0001043086045F20000C1F2000000EB8C11B0
:1073B000C86820F0FF00C860002081F83F00B0BD21
:1073C00042F67D10C1F20000007880075CBF00200B
:1073D000704746F24C10C4F200000068C0F3CA00C7
:1073E0007047000040F64010C1F200000168013112
:1073F0000129016084BF0020704741F24440C4F27B
:10740000050050F8041C41F0010140F8041C40F252
:107410001001C1F20001096889090268D20715D17B
:1074200079B10268D20711D101290AD00268D207C6
:107430000CD1022905D00268D20707D104394A1CB1
:10744000EBD14FF0FF3000BF704700BF43F2001098
:10745000C4F20500016D4FF4002262EA01010160EF
:1074600042F2080140F69C02C4F200010020C1F281
:107470000002C1F80801C2E90000C2E90200C1F837
:107480002801C2E90500C2E90700C1F84801C2E9C4
:107490000A00C2E90C00C1F86801C2E90F00C2E9A4
:1074A0001100C1F88801C2E91400C2E91600C1F850
:1074B000A801C2E91900C2E91B00C1F8C801C2E96C
:1074C0001E00C2E92000C1F8E801C2E92300C2E9B8
:1074D0002500FF220A608A604EF20011CEF2000100
:1074E0000422C1F880210A60704700BF40F64010B6
:1074F000C1F200000168002904BF4FF0FF3070475F
:10750000013901601CBF0020704741F24040C4F2C5
:107510000500016821F0010101604EF28010CEF2F9
:10752000000004210160BFF34F8FBFF36F8FC0F8DD
:1075300000110020704700BF02460F284FF0FF30B7
:1075400098BF032900D9704743F21C1CC4F2040CF5
:10755000DCF8003052000320904023EA0000914004
:107560000843CCF800000020704700BF2DE9F04F21
:10757000072884BF4FF0FF30BDE8F08FDDF82CA066
:10758000DDE9099E012740F6980C07FA00F4C1F2E4
:10759000000C5CE8005F25425AD125434CE80056B8
:1075A000C6B15CE8005F254252D125434CE8005645
:1075B00086B15CE8005F25424AD125434CE800567D
:1075C00046B15CE8005F254242D125434CE80056B5
:1075D000002EDED142F2300540F69C08C4F20005D0
:1075E00000EB800BC1F2000808EB8B0705EB4010A5
:1075F0000026C7F810A0C0F8E060C0F8DC6045F8CD
:10760000284C45F8204CC0F8D86001262E6040F286
:107610001006C1F20006366800F1D00AB6092868E3
:10762000C0071BD17EB12868C00717D1012E0AD030
:107630002868C00712D1022E05D02868C0070DD1D6
:10764000043E701CEBD14FF0FF3000BFBDE8F08F5F
:107650004FF0FF30BFF32F8FBDE8F08F40F6FF7083
:107660008342C9F38145BB6028BF034629EA000075
:1076700003FA05F55FEA491640EA0300CAF800106C
:10768000CAF8042048BF2944C9F341555FEA0916E6
:1076900003FA05F548BF2A4448F82B107A60FB60CE
:1076A000CAF80C005FEACE70CAF810E01ED1E143C0
:1076B0005CE8000F08404CE80002BAB15CE8000F3B
:1076C00008404CE800028AB15CE8000F08404CE832
:1076D00000025AB15CE8000F08404CE80002002AA2
:1076E0004FF0000008BFBDE8F08FE1E70020BDE8E3
:1076F000F08F00BF072884BF4FF0FF307047012193
:1077000040F6980C8140C1F2000C5CE8003F0B424F
:107710002AD10B434CE80032DAB15CE8003F0B425F
:1077200022D143EA01024CE8002393B15CE8003F18
:107730000B4219D143EA01024CE800234BB15CE84B
:10774000003F0B4210D143EA01024CE80023002B1A
:10775000DBD142F210114001C4F200010A5842F09C
:1077600001020A50002070474FF0FF30BFF32F8F07
:10777000704700BF072884BF4FF0FF3070470121DA
:10778000814040F698026FEA010CC1F2000200BF8E
:1077900052E8003F03EA0C0342E80031A9B152E885
:1077A000001F01EA0C0142E8001373B152E8001F08
:1077B00001EA0C0142E800133BB152E8001F01EA64
:1077C0000C0142E80013002BE2D142F210114001FB
:1077D000C4F200010A5822F001020A50002070474A
:1077E000072884BF0020704740F69801C1F20001CD
:1077F000096821FA00F000F001007047072884BFF3
:107800000020704740F69C0200EB8001C1F20002AC
:1078100002EB810142F20C124001C4F20002C9687D
:1078200010586FF31F30081A704700BF2DE9F04F52
:1078300081B042F2000840F6980740F69C0AC4F274
:1078400000084FF0010BC1F20007C1F2000A40F638
:10785000FF7900240EE000BFD06820EA0900084349
:10786000D060106940F00100106100BF0134082CA5
:1078700000F08E80D8F800000BFA04F10842F5D031
:10788000D8F8040008EB4412084202F580722DD0AB
:1078900004EB84030AEB830CC8F80810604650F828
:1078A0000C5F50F8046CAE424ED1C94357E8000F4C
:1078B000084047E8000292B157E8000F084047E847
:1078C000000262B157E8000F084047E8000232B1F9
:1078D00057E8000F084047E80002002AE6D1DCF82C
:1078E00010100029C2D001202CE000BFD8F80C00F5
:1078F0000842BBD000201061D060C84357E8002F79
:10790000024047E8002393B157E8002F024047E8C0
:10791000002363B157E8002F024047E8002333B14A
:1079200057E8002F024047E80023002BE6D104EB84
:107930008400C8F810100AEB8000016900293FF4A8
:1079400095AF0220884791E7711B494528BF4946FA
:107950004E190660D06840010AD55AF8230010601D
:10796000D668C6F3814601FA06F630444AF8230089
:10797000D06800017FF570AFDCF804005060D36878
:10798000C3F3415301FA03F31844CCF8040063E74E
:1079900001B0BDE8F08F000003460F284FF0FF3024
:1079A00098BF1F2900D97047D80100EB810046F22B
:1079B0000001C4F2080142500020704703288FBF25
:1079C0004FF0FF3046F60042C4F2080242F82010A1
:1079D00098BF0020704700BF46F680420146C4F2BF
:1079E000080200201160704750B140F60C418842F7
:1079F00006D040F6080188421CBF4FF0FF307047A8
:107A000046F68441C4F2080108600020704700BFB8
:107A1000012884BF4FF0FF30704707294FF0FF3334
:107A200098BF012A02D91846704700BF46F688431E
:107A30004FF0010CC4F208030CFA01F132B153F813
:107A40002020114343F820100020704753F82020D5
:107A500022EA010143F8201000231846704700BFB6
:107A6000012884BF4FF0FF30704746F69041C4F2C2
:107A700008010A68002822F001024FF0000018BF38
:107A800001320A60704700BF10B541EA0003072BBE
:107A90004FF0FF3398BF1F2A02D9184610BD00BF10
:107AA00046F600630328C4F2080311D8C4004FF05F
:107AB000FF0CD3F800E00CFA04F02EEA0000186086
:107AC00042EA41101968A04008431860002010BD28
:107AD0000438C0B2C0004FF0FF0CD3F804E00CFA39
:107AE00000F42EEA04045C6042EA41115A6801FA8B
:107AF00000F0104358600023184610BD0648804728
:107B000006480047FEE7FEE7FEE7FEE7FEE7FEE782
:107B1000FEE7FEE7FEE7FEE7F5820014150100141C
:107B2000B0B543F22012C4F204021368402043F4BB
:107B300070431360536840F6000143F47043536090
:107B400045F20C2340F6000CC4F200031F24C4F2DB
:107B50000500C0F60011C0F2001C1C600023C0F834
:107B60002CC040F8283C01F14073C0F808C0036302
:107B7000436840F2000EC0F20E6E43F00103436012
:107B8000C0F804E00368DB0701BF03685FEAC37362
:107B900003685FEAC37302D10368DB07F2D00EF516
:107BA0000863C162436000BF0368DB0701BF03686D
:107BB0005FEAC37303685FEAC37302D10368DB073C
:107BC000F2D0C1621368092464F30F331360536861
:107BD00064F30F33536050F8202C4FF4804342F08D
:107BE000010240F8202C47F6EC7200BFC3F34D04AD
:107BF00083EA5305234665F38E339AB15D0884EA20
:107C0000530464F38E356C0884EA530363F38E34B3
:107C1000630883EA55039B0343EA54036FF3DF339E
:107C2000043AE3E70EF500221A4340F81C2C42F216
:107C30000002C0F2300240F8182C50F8182C42F024
:107C4000620240F8182C40F61C02C0F2006240F8B4
:107C5000202C50F8242CD2070CD150F8242CD20719
:107C600004BF50F8242C5FEAC27203D150F8242CD0
:107C7000D207EED001F10802826040F60402C0F2A1
:107C800000328431C260C0F810C0C0F814C08161F5
:107C9000B0BD00BF2DE9F04F81B041F23440C4F2D5
:107CA0000500072140F8041C0168C90701BF0168ED
:107CB0005FEAC17101685FEAC17102D10168C90759
:107CC000F2D040F2100AC1F2000ADAF800104BF2CA
:107CD000004246F60044C0F2C44247F27773C4F251
:107CE0000804914238BF0023C4F8003146F28003F3
:107CF000C4F20803F222F321F1271A605A609A6055
:107D0000D960196159619961D961196259629962A1
:107D1000D962196359639963C3F88020C3F884203A
:107D2000C3F88820C3F89820C3F89C10C3F8A010AB
:107D3000C3F8A410C3F8A810C3F8AC10C3F8B0106F
:107D4000C3F8B410C3F80022C3F80422C3F8082211
:107D5000C3F80C22C3F81022C3F81422C3F8182267
:107D6000C3F81C22C3F88472C3F88872C3F88C125B
:107D7000C3F89012C3F89412C3F89872C3F89C72B7
:107D8000C3F8A072C3F8A412C3F8A812C3F8AC12C7
:107D9000C3F8B012C3F89014C3F8002646F2846307
:107DA00045F22005C4F20803C4F200051A605A60C7
:107DB0009A60DA601A615A619A61DA611A625A62EB
:107DC0009A62DA621A635A639A63DA63D967C3F80C
:107DD0008010C3F88410C3F88810C3F88C10C3F85F
:107DE0009010C3F89410C3F89810C3F89C10C3F80F
:107DF000A010C3F8A410C3F8A810C3F8AC10C3F8BF
:107E0000B010C3F8B410C3F8B8100121002345F82E
:107E1000201C45F8183CDAF8001040F60162C0F268
:107E2000277291424FF0010734D34FF0805211680E
:107E30000426009146F60301CFF24341116043F25C
:107E4000803140F2DB73C1F20006C6F2030146F254
:107E50000A02CDF2FC0396E8000BF768C6F64B0267
:107E600044F2707C86E80E1000F1440143F22C10BD
:107E70000123C4F20400C1F200032722BFF36F8F75
:107E8000984700984FF080510023086086E8000B67
:107E9000F7600227F02020606060A060E0608A2028
:107EA000C5F8E0010220C5F8E831C5F8F001DAF8BC
:107EB00000004CF60024B0FBF7F05A21C3F69A34C8
:107EC000A0FB01012246002300F00AFD0130C5F8A5
:107ED000EC01D5F8E0014FF0010940F40020C5F8AD
:107EE000E0014FF48A40C5F8E00040F20330C5F8E5
:107EF000E400C5F80890DAF8000043F68931B0FBD9
:107F0000F7F0C5F2E651A0FB0101080E2861DAF88E
:107F100000002A21B0FBF7F02246A0FB010100235C
:107F200000F0DEFC6861DAF800004FF03F08B0FBBB
:107F3000F7F02246A0FB0801002300F0D1FCA86165
:107F4000DAF800004626B0FBF7F02246A0FB060157
:107F5000002300F0C5FCE861DAF800002246B0FB1F
:107F6000F7F00023A0FB060100F0BAFC2862DAF863
:107F700000004FF01E0BB0FBF7F02246A0FB0B01F8
:107F8000002300F0ADFC6862DAF800002246B0FB86
:107F9000F7F00023A0FB080100F0A2FCA862DAF8C9
:107FA00000002246B0FBF7F00023A0FB080100F020
:107FB00097FCE862DAF800002246B0FBF7F00023F5
:107FC000A0FB080100F08CFC2863DAF800000E2109
:107FD000B0FBF7F02246A0FB0101002300F080FC7B
:107FE0006863DAF800002246B0FBF7F00023A0FB3C
:107FF0000B0100F075FCA86340F2831040F20311FE
:10800000286029602860DAF800004CF66B21B0FB8C
:10801000F7F0C6F65F31A0FB010109EB5160686023
:10802000DAF8000044F6D351B0FBF7F0C1F2620178
:10803000A0FB010109EB114068608320286042F237
:108040000000C2F60300006802202860D5F8E000B6
:1080500040F40020C5F8E00001B0BDE8F08F00BF9B
:108060001421C4F205010A68000622F4000200F29D
:10807000FF100A6008600A684FF60060C0F27F00D7
:1080800042F400020A6000BF0B680A681B0227D591
:108090000B6802406FF35F231A4304BF0020704750
:1080A0000B680A681B021BD50B6802406FF35F2345
:1080B0001A4313D00B680A681B0211D50B680240E3
:1080C0006FF35F231A4309D00B680A681B0207D5B8
:1080D0000B6802406FF35F231A43D5D1002070472D
:1080E000C2F34D2045F6BB314843704710285DD898
:1080F000DFE800F00C0A0A0A0A5C1822282E5C5CF1
:10810000383E444A500000BF704700BF43F20400AD
:10811000C4F20400006800F00A00023818BF4FF0F3
:10812000FF3070471820C4F205000068C0074FF008
:10813000FF3008BF062070471820C4F20500816890
:108140002CE000BF1820C4F20500816926E000BFC2
:108150001820C4F20500816AC90714BFC16A002152
:108160001CE000BF1820C4F20500016B16E000BF40
:108170001820C4F20500416B10E000BF1820C4F2C3
:108180000500816B0AE000BF1820C4F20500C16B36
:1081900004E000BF1820C4F20500016CC8074FF0CE
:1081A000FF3008BFC1F30460704700BF4FF0FF30DD
:1081B000704700BF70B54423C4F205034FF0010CB3
:1081C000A3F124024FF0010E012110280DD9002047
:1081D00070BD00BFA3F114042468E0074FF0FF3026
:1081E00008BFC4F304601028F1D81446DFE800F09B
:1081F0006A566060560E560C0A100E0E1E24282C6D
:10820000340000BFE6E700BFE6E700BFDFE700BFDE
:108210001868C0F30134C0F30125013486070CFA55
:1082200005F521D410F0C00F22D11FE01C4654F8F0
:10823000040FC0F381000CE01C4654F8080F06E060
:108240001C4654F80C0F02E01C4654F8100FC0F303
:10825000830001304143BFE71C4654F8140F8008E7
:108260005CFA80F04143B7E7060601D56C43640031
:108270005CFAA0F040EA0424C0B200FB0EFE53F802
:10828000040CC4F30724C00704FB01F104D100204F
:1082900010287FF6AAAF9AE71C469DE741F600300A
:1082A000C0F2B70000FB0EF0B0FBF1F070BD00BFF4
:1082B0004FF28000C0F2FA2000FB0EF0B0FBF1F0AC
:1082C00070BD00BF4FF4004000FB0EF0B0FBF1F0BA
:1082D00070BD00BF80B56C20C4F205000068C0F31B
:1082E0000460FFF767FF40F21001C1F2000108606F
:1082F00080BD00BF80B54EF68850CEF20000016808
:108300004FF0807241F47001016043F20411C4F235
:1083100005010A604EF21001CEF200010A6822F057
:1083200003020A6040F20001C1F200416FF3130141
:1083300040F8801CFFF7F4FB6C20C4F205000068D5
:10834000C0F30460FFF736FF40F21001C1F20001F4
:10835000086080BD80B58AB002460020052A0990D9
:10836000CDE90700CDE90500CDE9030002900FD06B
:108370009ABB71B94AF261604CF64032C1F20040DA
:10838000C1F20042002101F037FA0AB080BD00BFFF
:1083900011B100200AB080BD4CF6B820C1F20040F7
:1083A00046F27062019001EB0110C1F2000202EB93
:1083B000800003904420049046F6B840C1F20000CB
:1083C00005904FF400700690202007904BF6C920CE
:1083D000C1F2004001AA01F00FFA0AB080BD00BF4F
:1083E00000280CBF4FF0FF3001F018BA704700BFF3
:1083F000B0B540F69005C1F200052968044689B978
:1084000000F034FC44F6D3518002C1F26201A0FBBB
:1084100001014FF600408909CFF6FF70B0FBF1F083
:10842000C5E90010601C02280CD3B1F5806F09D09B
:108430006868A04231BF6FF0010401FB04F000F254
:10844000FF30840A2046BDE8B04000F0E5BB00BF25
:10845000024600284FF0000018BF704780B584B076
:10846000CDE9000046F6B860C1F2000000EB421012
:108470000290202003904BF6FD20C1F200406B4695
:10848000012101F001FA04B0BDE88040704700BF4F
:10849000002804BF4FF0FF30704770B540F69006DB
:1084A000C1F20006044630680D4688B900F0DEFBD4
:1084B00044F6D3518002C1F26201A0FB0101880998
:1084C0004FF60041CFF6FF71B1FBF0F1C6E90001B4
:1084D000691C02290BD3B0F5806F08D07168A942DE
:1084E00031BF6FF00105684300F2FF30850A204676
:1084F0002946BDE8704001F0D9B900BF10B548B1B8
:10850000044601F0AFF948B12046BDE8104001F043
:10851000DFB900BF4FF0FF3010BD00BF002010BD1D
:1085200000280CBF4FF0FF3001F08AB9704700BF40
:1085300000280CBF002001F021B97047B0B540F60B
:108540009005C1F200052968044689B900F08EFB48
:1085500044F6D3518002C1F26201A0FB01014FF643
:1085600000408909CFF6FF70B0FBF1F0C5E90010BB
:10857000601C02280CD3B1F5806F09D06868A04256
:1085800031BF6FF0010401FB04F000F2FF30840AF8
:108590004FF6FF700021224601F01CF9B0F1FF3FB9
:1085A000C8BFB0BD6FF00101401A18BF0120C0075D
:1085B000B0BD00BF80B584B003460020022B0390FD
:1085C000CDE90100009009D0012B0BD06BBB31B974
:1085D00046F24450C1F2000010E000BFC1B10020DB
:1085E00004B080BD4FF00000F9B9032A1DD846F24F
:1085F0004450C1F2000000EB021020300290102025
:1086000003906A460120012101F07AF804B080BD90
:1086100046F24450C1F20000103002901020039046
:108620006A460120012101F06BF804B080BD00BF53
:10863000002804BF4FF0FF30704770B540F6900639
:10864000C1F20006044630680D4688B900F00EFB02
:1086500044F6D3518002C1F26201A0FB01018809F6
:108660004FF60041CFF6FF71B1FBF0F1C6E9000112
:10867000691C02290BD3B0F5806F08D07168A9423C
:1086800031BF6FF00105684300F2FF30850A2046D4
:108690002946BDE8704000F0F7BF00BF00280CBFBE
:1086A0004FF0FF3001F03EB8704700BF00280CBF0C
:1086B0004FF0FF3001F012B8704700BF01460020B4
:1086C00003F0D2BF0A460146002003F0D5BF00BF29
:1086D0000020704700207047704700BF002070479F
:1086E000002070470020704700207047002070472E
:1086F000002070470020704700207047704700BF7F
:10870000704700BF4FF0FF30704700BF0020704738
:108710004FF0FF30704700BF00207047704700BF28
:1087200000207047704700BF704700BF704700BF10
:10873000704700BFFFF7FCBF704700BF704700BF26
:10874000704700BF704700BF704700BF704700BF51
:1087500000207047704700BF00207047002070471E
:1087600040F2FC01C1F2000109688A6932B1097F57
:10877000814203D1002003F011B900BF00207047EF
:1087800040F2FC01C1F2000109688A6932B1097F37
:10879000814203D1002003F04BBA00BF0020704794
:1087A00040F2FC01C1F2000109688A69002A08BF91
:1087B0007047097F814203D1002003F02DB900BF2B
:1087C000704700BF71B140F2FC01C1F200010968BD
:1087D0008A69002A08BF7047097F814202D10020C0
:1087E00003F050B9704700BF40F2FC02C1F2000232
:1087F0001268936973B1137F834218BF7047907FEB
:1088000040F08000884202D0D07F884202D1002010
:1088100002F054BF704700BF704700001EF0040F05
:108820000CBFEFF30880EFF30980816911F8021C97
:1088300091BB01B590E80F10E047BDE800508CE80F
:108840000300244B93E80600914208BF704741B9EA
:108850001EF0100F10D12049086820F001000860B8
:108860000AE02CE9F00F1EF0100F08BF2CED108A63
:10887000C1F838C081F822E01A6092F82210906B9B
:1088800061F0FF0E1EF0100F08BFB0EC108AB0E8C8
:10889000F00F80F309887047104A13689942FAD89C
:1088A00001B552F821C00FC8E047BDE80050CCF830
:1088B0000000704701B500F013FCBDE80140EFF384
:1088C000098CBEE701B500F05FFEBDE80140EFF3A3
:1088D000098CB6E72800001034EF00E054CA0014F9
:1088E0002DE9F05F0546002092469B4688460646E5
:1088F000814640241BE0284641464746224600F078
:1089000053F853465A46C01A914110D3114618469F
:10891000224600F03AF82D1A67EB01084F4622462E
:108920000120002100F031F817EB00094E41201E14
:10893000A4F10104DFDC484631462A464346BDE83F
:10894000F09F40EA01039B0703D009E008C9121F0A
:1089500008C0042AFAD203E011F8013B00F8013BF9
:10896000521EF9D27047D2B201E000F8012B491E25
:10897000FBD270470022F6E710B513460A460446BC
:108980001946FFF7F0FF204610BD202A04DB203AED
:1089900000FA02F1002070479140C2F1200320FA52
:1089A00003F3194390407047202A04DB203A21FA50
:1089B00002F00021704721FA02F3D040C2F12002F8
:1089C0009140084319467047064C074D06E0E068A1
:1089D00040F0010394E8070098471034AC42F6D306
:1089E000F7F79CFB1CCD00143CCD001410B500F132
:1089F000280151E8002F12B9BFF32F8F04E0531E56
:108A000041E8003404B1F4E772B12C300121006870
:108A100050B1821CD2E84F3FC2E8441F04B1F9E7CD
:108A20001A0602D00830F2E7002010BD70B50246E9
:108A300052F8305F4DB1CC7800235DB12E46ED7811
:108A4000A5420DD275683346F7E70023C1E901332B
:108A5000C1620DE00024C1E9014300F12C0403E0F0
:108A6000C1E9016306F108042160002B18BF1A1D3B
:108A70001160283050E8001F4A1C40E8002303B171
:108A8000F8E770BDD1E90123002A0EBFC3629360ED
:108A90008B68191D002B08BF00F130010A60704778
:108AA0001A480068704700BF19480178012905D1AC
:108AB00005494FF080620A60002101701348016887
:108AC00041F001010160704704ED00E04FF0FF301C
:108AD0007047000040B10B490968B1FBF0F0411E3E
:108AE0000020B0EB116F02D04FF0FF307047064A04
:108AF000FF231370054A0623136051600449087070
:108B0000906070471000001023ED00E010E000E0DE
:108B100044090010B0B500F10C01C289D1E85F3FF3
:108B20009A4202D8BFF32F8F04E05C1CC1E8554F76
:108B300005B1F3E7C28999B20020914238BF012004
:108B4000B0BD10B5930712D400F12803D0071ED191
:108B500053E8000F084203D1BFF32F8F002005E038
:108B600020EA010243E8002404B1F1E710BD806A65
:108B700000EA01038B42014618BF002112F00102F6
:108B800008BF014653EA020018BF084610BD53E86B
:108B9000000F00EA01028A4203D0BFF32F8F0020AA
:108BA00005E020EA010243E8002404B1EFE710BD2C
:108BB000B0B52D4A0023443215462C683CB12569D6
:108BC000A94209D3491B04F10C052346F5E700240B
:108BD000C0E90234016106E0C0E902340161A0602D
:108BE0002569691A2161002B18BF03F10C0210607E
:108BF000B0BD00BFC16829B1826803698A600A6993
:108C00001A440A618068184A00F10C03002808BF62
:108C100002F1440319607047EFF3058129B9EFF3BE
:108C2000108111B9EFF3118111B16FF00500704798
:108C3000DFF804C000DF7047F5980014EFF30580FB
:108C400048B9EFF3108030B9EFF3118018B9EFF3A2
:108C50001480C00702D10448007A7047DFF804C0CE
:108C600000DF70470999001414000010EFF305802D
:108C700028B9EFF3108010B9EFF3118010B1034859
:108C800040687047DFF808C000DF704754C7001421
:108C90001599001480B500F0A9F8EFF3058028B904
:108CA000EFF3108010B9EFF3118010B16FF00500F1
:108CB00080BDDFF808C000DF80BD00BF219900142F
:108CC000EFF3058028B9EFF3108010B9EFF31180AE
:108CD00010B16FF005007047DFF804C000DF704787
:108CE000699A0014F8B514460E460546EFF3058060
:108CF00028B9EFF3108010B9EFF31180F0B16FF0E5
:108D000003000DB303BBFEB12978FA291CD1284614
:108D1000FFF76CFE78B16A6A074600F10C01304635
:108D2000FFF70FFE0CB1F87820703846FD6000F0B8
:108D30001BFA0020F8BD6FF00200F8BD2846DFF8EE
:108D40000CC03146224600DFF8BD00BFED9A00148A
:108D5000EFF305832BB9EFF3108313B9EFF311830E
:108D60000BB100207047DFF808C000DF704700BF7C
:108D7000C99B00142DE9F04190460D460646EFF3DD
:108D8000058028B9EFF3108010B9EFF3118018B304
:108D90006FF00307EEB1E3B9DDB13078FA2818D1EE
:108DA00006F10C0000F09CF888B1726A04460C30A1
:108DB0002946FFF7C6FD0027F920C4E9015684F8CB
:108DC0000380A7702070204600F0CEF901E06FF01C
:108DD00002073846BDE8F0813046DFF80CC029466E
:108DE000424600DFBDE8F081F99C00147047F0B501
:108DF000002390B389B3032A2FD8034653F8084FB2
:108E00000F3121F007012546E61A5C6824F00307BC
:108E1000F61B8E4205D22C682B46002CF3D1002382
:108E20001BE0D0E900650D444560304450F8046C07
:108E3000AE4202D2083845605C6854B1186824F02C
:108E40000304E05041EA0200E118486019600B4653
:108E500002E041EA0200586008331846F0BDB0B5A0
:108E60000022E8B1E1B100F10804A1F108020023F9
:108E7000944206D0254624682B46002CF8D10022C7
:108E80000EE051F8045C446825F00305641B44605F
:108E900013B11068186002E0002041F8040C0122B0
:108EA0001046B0BD08B1420702D0002210467047FC
:108EB00000221829FAD311F00703F7D110B50A18C8
:108EC000A2F108038360002342F8083C8268102462
:108ED00054600122C0E90014C360BDE81040E5E71A
:108EE00010B5002817D0014600F1140252E8000F17
:108EF00010B9BFF32F8F04E0036842E8003404B1D7
:108F0000F4E740B1043151E8002F531C41E800342C
:108F100004B1F8E710BD002010BDB0B500281ED088
:108F2000C2688A421BD802698A4218D900F1140229
:108F300013680B60BFF35F8F52E8003F0C689C42E0
:108F4000F6D142E8001505B1F2E7043050E8001F01
:108F50004A1E40E8002303B1F8E70020B0BD6FF0DF
:108F60000300B0BDB0B504460020ACB1A1B19AB1C8
:108F700093B10020C4E9001004F1080002FB0135A0
:108F80002CC0481E636120B19918196001380B4646
:108F9000F9E7002018600120B0BDF8B504468078DC
:108FA00068B3E56821462846FFF76CFD002005F10F
:108FB0000C06207030462146FFF7AFFFA868E8B1E5
:108FC0003046FFF78DFFC8B10446284600F006FA88
:108FD000002100220646002700F0BCFA304600F0CF
:108FE0005DFA81686A6A064604F10C00FFF7A9FC85
:108FF000F920A7702070F068E07025E0F8BDA56842
:10900000A86808B3407883281ED1284600F0E6F906
:10901000002100220646002700F09CFA304600F0AE
:109020003DFA064680686A6A04F10C01FFF789FC84
:10903000F06808B1E1780170277005F10C00214655
:10904000BDE8F840FFF769BF28462146BDE8F84073
:10905000FFF7ECBC2DE9F041044600274FF0010872
:10906000D4B12546E87864690007F9D52F76A86859
:109070000028F5D0284600F0B1F90021002206466C
:1090800000F068FAC5E90367F06A686100B105613C
:1090900085F81880F562E3E7BDE8F081B0B5C278E5
:1090A000920715D5C068C36A90F821209C688C424D
:1090B00008BF8C682CB194F9204055B2AC42C8BFAF
:1090C000E2B25B69002BF1D190F82010914200D1FF
:1090D000B0BD80F82020BDE8B04000F0AEB900007F
:1090E00070B5ED4C04F1560504F15A06B4F854007D
:1090F000D5E85F1F11B9BFF32F8F04E04A1EC5E802
:10910000532F03B1F4E7090429D0D6E85F1F4A1CA6
:10911000904200D80022C6E8532F03B1F5E788B289
:10912000E16D51F82000D0B10178F1390829DDD87E
:10913000DFE801F006050905050C0F051200D5E76B
:10914000216E8847D2E7616E8847CFE7A16E8847D6
:10915000CCE7E16E8847C9E7216F8847C6E7002062
:10916000BDE8704000F0E6B870B50146EA4800F18D
:109170005603B0F85420D3E85F4FA24202D8BFF3A1
:109180002F8F04E0651CC3E8565F06B1F3E7A3B276
:10919000934214D200F15803D3E85F4F651CAA42F2
:1091A00000D80025C3E8565F06B1F5E7C36DA2B24B
:1091B00043F82210417A39B10121817270BD022039
:1091C000BDE87040FBF7C4BE02484FF0805101601B
:1091D00070BD00BF04ED00E010B58168B1B100F1D1
:1091E0000C01D1E85F2F12B9BFF32F8F04E0531E9B
:1091F000C1E8543F04B1F4E7110407D000F0EEF8E1
:1092000000210022BDE8104000F0A4B910BD00000C
:1092100010B501214170CE4990F920301C310A4629
:10922000896841B191F920409C42F8DCC0E9021202
:1092300090600C3104E00021C0E9021202F1080143
:10924000086010BDB0B54A1C0DD0EA4A00242C328B
:1092500015462B68DBB1DD69A9421AD3491B03F11E
:1092600010051C46F5E7F149002330310C461A463B
:10927000236803F11004002BF9D14FF0FF33C361D1
:109280000023C0E904329AB102F1100110E0002578
:1092900000E00125002CC0E90434C16118BF04F1CD
:1092A000100210602DB1DA69511AD96103F114016D
:1092B0000860B0BDC2690169531C0AD021B143697D
:1092C0004B61CB691A44CA6142693AB9ED48C1623F
:1092D000704709B142694A6142691AB1002343618A
:1092E00011617047E7480163704700BF70B5E54DF5
:1092F000EC6A1CB1E0690138E06100D070BD042661
:1093000060781338B6EB301F05D1204600F08FF897
:109310002146FFF7C3FE204600F07FF8204600F00C
:10932000B3F8246924B1E0690028E9D00020606125
:10933000EC6270BDB0B50546D2484469017A65B1AA
:10934000022905D194F9200095F92010814211DC01
:109350002846BDE8B04000F097B8022912D1456A0E
:1093600085B194F9200095F9201081420ADD284644
:1093700000F053F82046FFF74BFF2846BDE8B04009
:1093800000F0C4B8B0BD00BF10B504460020208076
:10939000A07881070DD5C00605D4BA48216B406F6F
:1093A000FFF75DFD05E0B748216BD0F88400FFF7BB
:1093B000B4FDA078C00708BF10BDB249D1F888003D
:1093C00020B12146BDE81040FFF7A7BDD1F88000CD
:1093D0002146BDE81040FFF742BD00BF014680684E
:1093E00082688A6002B1D1600021C160704710B507
:1093F00091F920300246806840B190F920409C42AB
:10940000F8DAC1E9020291600C3004E00020C1E901
:10941000020202F10800016010BDC16831B182682A
:109420008A60826802B1D1600021C1607047017812
:10943000F12918BF7047C068F9E7B0B50446054682
:1094400025B12878F12802D1ED68F9E7B0BD2046B2
:10945000FFF7E3FF28462146BDE8B040FFF7C7BF4E
:1094600010B50446407833280DD194F82320616A62
:109470002046FFF766FB30B1014620460022BDE8DA
:10948000104000F067B810BD0146012048707D48CB
:109490001C30FFF7ACBF00BF1400001090F8221082
:1094A000C9064FF0200158BF6021806B0844704707
:1094B0007448416939B1086B8A6B824204D90068EB
:1094C000034A904200D170470120FBF741BD00BF25
:1094D000A52E5AE270B5544C0A48A26D666E002162
:1094E00000F0AAFD674DA8624EB1E26D064800216A
:1094F00000F0A2FDA864002818BF012070BD012063
:1095000070BD00BF4D4F0014F99500145D4988618E
:1095100002214170FFF7CCBF1400001010B5FC4CC5
:109520000246237A0020022B11D1636A7BB1606965
:109530004270FFF787FE606A8168616211B104F1D1
:109540001C02CA600021C160FFF7E0FF012010BDCE
:1095500014000010B0B5044690F822001546C0066D
:109560004FF0200058BF6020A26B81502046FFF7CB
:10957000A1FE20461DB1BDE8B040FFF7DBBEBDE84F
:10958000B040FFF781BF0000B0B5FFF789FAE04DAA
:10959000E968286D0131E96000B18047FFF7A6FE58
:1095A0000020FFF7C7FE296C11B3AA69A86B90428F
:1095B0001CBFC5E90E21B0BDE96B11B10139E963EA
:1095C00016D1297A022913D16C6A8CB190F8200047
:1095D00094F8201081420BD12046FFF71EFFA86BA4
:1095E000FFF752FF2046FFF791FF286CC5E90E40B8
:1095F000B0BD00BF1400001082B0C8480821D0E9F7
:109600001820FFF7A5FBC24D09496C46C5E91301B7
:10961000214600224FF0FF33FFF764FB10B9DDE96C
:1096200000108847E86CF3E754C7001414000010DA
:109630003596001470B5B64D6C6C14B320690126D4
:1096400001382061ECB12069D8B9E06808B1A1689F
:1096500081606864E86C04F1180100220023FFF7C0
:1096600089FB18B103202146FBF772FCE078012842
:1096700004D161692046FFF79BFA00E066706C6CCC
:10968000E0E770BD14000010EFF305822AB9EFF394
:10969000108212B9EFF31182CAB16FF00302A0B1C8
:1096A00099B90178F62910D10C30D0E85F1F11B9B3
:1096B000BFF32F8F04E04A1EC0E8532F03B1F4E735
:1096C0000022080408BF6FF0020210467047DFF85E
:1096D00008C000DF704700BFB59D0014EFF305819F
:1096E00029B9EFF3108111B9EFF3118111B16FF0C6
:1096F00005007047DFF804C000DF70470D9E0014BE
:10970000EFF305832BB9EFF3108313B9EFF3118354
:109710000BB100207047DFF808C000DF704700BFC2
:10972000699E001410B50446EFF3058028B9EFF3E5
:10973000108010B9EFF3118090B15CB12078F62859
:1097400008D12046FFF7E6F938B12046FFF70CFDB7
:10975000002010BD6FF0030010BD6FF0020010BDBF
:109760002046DFF808C000DF10BD00BFE59E0014F2
:10977000DFF804C000DFFEE71D9F0014B0B5EFF373
:1097800005822AB9EFF3108212B9EFF31182DAB130
:109790006FF00304B0B1002914D40278F12A11D17A
:1097A0004278042A02D16FF002040BE000F1280293
:1097B00052E8003F43EA010442E8004505B1F7E7FB
:1097C000FFF7D2FC2046B0BDDFF804C000DFB0BD1B
:1097D000859F0014EFF305832BB9EFF3108313B9C2
:1097E000EFF3118313B16FF005007047DFF804C089
:1097F00000DF7047ED9F0014EFF305832BB9EFF303
:10980000108313B9EFF311830BB100207047DFF819
:1098100008C000DF704700BF39A00014EFF30581D6
:1098200029B9EFF3108111B9EFF3118111B16FF084
:1098300005007047DFF804C000DF704709A200147C
:10984000EFF3058129B9EFF3108111B9EFF311811D
:1098500011B16FF005007047DFF804C000DF7047FA
:10986000C5A20014EFF3058129B9EFF3108111B9F6
:10987000EFF3118109B100207047DFF808C000DF65
:10988000704700BF11A3001410B5EFF305842CB985
:10989000EFF3108414B9EFF311840CB1002010BD64
:1098A000DFF804C000DF10BD29A30014EFF3058228
:1098B0002AB9EFF3108212B9EFF3118212B16FF0EF
:1098C00005007047DFF804C000DF70479DA3001457
:1098D000EFF3058129B9EFF3108111B9EFF311818D
:1098E00011B16FF005007047DFF804C000DF70476A
:1098F000E9A3001430B180B501461320FFF70EFE36
:10990000BDE8804000207047F948007A704700BFEA
:109910001400001073484068704700BF54C700141B
:109920002DE9F843F24F387A30B1012800F09680E3
:109930004FF0FF30BDE8F88307F108009C21FFF7E6
:1099400019F8DFF8B488B8F81000D8E90B41A7F887
:109950005400D8E90202FA6538642046FFF7A2FAFB
:1099600008B1C7F88040D8E90541DFF8F890D8E998
:1099700007562046C847D7F88010002818BF214650
:10998000796728463146C847D7F88010002818BFA5
:109990002946B967D8E909412046C847D7F8801059
:1099A000002818BF2146D8F83440F9673CB1216837
:1099B000D4E902232046FFF7D5FAC7F88440D8F847
:1099C00038403CB12168D4E902232046FFF7CAFAA7
:1099D000C7F88840D8F83C403CB12168D4E902235C
:1099E0002046FFF7BFFAC7F88C40D8F840403CB19A
:1099F0002168D4E902232046FFF7B4FAC7F8904063
:109A0000D8F844403CB12168D4E902232046FFF74E
:109A1000A9FAC7F89440D8F848403CB12168D4E985
:109A200002232046FFF79EFAC7F89840D8F84C402A
:109A30003CB12168D4E902232046FFF793FAC7F826
:109A40009C40D8F850403CB12168D4E9022320461C
:109A5000FFF788FAC7F8A040012038720020BDE85F
:109A6000F88300BFA58E0014B0B5E74C207A01281A
:109A70001CD1FFF72FFDC8B11948FF218175817DE9
:109A8000026881F0FF01B1FA81F1C1F12001C2F356
:109A900002228A4228BF511CFE2202FA01F1114D16
:109AA000C17468681049FFF715F810B14FF0FF3026
:109AB000B0BDFFF70BF82061FEF7F6FF04F11C00C4
:109AC000FFF78CFCFFF722FD2878C0070CBF0320AE
:109AD000022080F31488022020720020B0BD00BF55
:109AE0000CED00E054C70014C58800142DE9F843BC
:109AF00000284CD00F466FF00305002949D00446DA
:109B00000078FA2845D1204699469046FEF76EFF28
:109B1000002841D0064620463146FEF7B3FF626A70
:109B200006F10C013846FEF70CFFB8F1000F1CBF20
:109B3000F07888F8000004F10C070025384631461B
:109B40003570FFF7EAF9A06818B33846FFF7C8F98F
:109B50000025F0B106462046FFF740FC0021012217
:109B60000746FFF7F7FC3846FFF798FC8168626A02
:109B7000074606F10C00FEF7E4FEF920B5703070E0
:109B8000F8683146F0702046FEF750FF01E06FF0B4
:109B900003052846BDE8F883B9F1000F10D08320F3
:109BA0004946FFF7BBFC40B1F54841692046FFF745
:109BB0001EFCEFF30980C0E902786FF00105E8E7C9
:109BC0006FF00205E5E700BF2DE9F84F002770B1FF
:109BD0000D4661B105F10F0121F003060446B0FA0C
:109BE00080F0B6FA86F10844202803D200273846D0
:109BF000BDE8F88F06FB04F872B1D2F808A013682C
:109C0000D2E90490BAF1000F11D05FEA8A71EDD168
:109C1000D1683429EAD30DE000234FF00009D84978
:109C20000093D1F8A00078B1FFF75AF912E0D1689B
:109C30000029DBD1B9F1000F2FD000274045D6D342
:109C400019F003002BD0D2E7D1F880003421012293
:109C5000FFF7CDF882464FF0010BB9F1000F10D19C
:109C6000BAF1000F0DD0F34F4146F86F0022FFF715
:109C7000BEF8814638B148464146FEF77BFE57465E
:109C80001AE057461AE0BBF1000F14D0D7F8A00035
:109C900060B15146FFF741F90DE00028A6D1BAF1B5
:109CA000000FBCD000934FF0000BD6E7D7F8800030
:109CB0005146FFF7D4F800270BF1020B002F3FF4B9
:109CC00096AF0020C7E90950C7E90B00009932465A
:109CD000C7E90110FA2087F802B0387007F10C00CC
:109CE00021464B46FFF73EF9D248024901677EE71D
:109CF000140000109B8F00142DE9F84338B30E4672
:109D00006FF00307002951D005460078FA284DD19D
:109D1000A86899469046E8B1407883281AD1284629
:109D2000FFF75CFB0021012204460027FFF712FC2D
:109D30002046FFF7B3FB044680686A6A3146FEF7A7
:109D400000FEE06890B380F8008000272EE06FF0FE
:109D500003072BE005F10C00FFF7C2F880B16A6A37
:109D600004460C303146FEF7ECFD0027F92084F85C
:109D70000380A770207028462146FEF757FE15E0A5
:109D8000B9F1000F10D093204946FFF7C7FB40B14F
:109D9000A84841692846FFF72AFBEFF30980C0E98C
:109DA00002686FF0010701E06FF002073846BDE876
:109DB000F88300BFB0B508B304460078F6281DD17B
:109DC00004F10C00D0E85F2F12B9BFF32F8F04E02D
:109DD000531EC0E8553F05B1F4E710041CBF002036
:109DE000B0BD71B16320FFF799FB20B19148416983
:109DF0002046FFF7FCFA6FF00100B0BD6FF00300E2
:109E0000B0BD6FF00200B0BD1400001010B500B37B
:109E100004460078F6281CD1A06868B12046FFF7F8
:109E2000DDFA6FF002010022FFF794FBA068002822
:109E3000F4D10020FFF77EFA00202070A178C90736
:109E400010D0EC49D1F8980030B12146FFF765F801
:109E500007E06FF0030010BDD1F880002146FEF747
:109E6000FEFF002010BD00BF70B5054601384FF65B
:109E7000FE730C460021984298BFAC4201D90846B7
:109E800070BD4AB19068166870B181070FD1D26871
:109E90000021102AF3D314E00026D649D1F8980007
:109EA00038B1FFF71DF80AE0D0680028F5D000218E
:109EB000E5E7D1F8800010210122FEF798FF60B19C
:109EC00001210022C5818481C0E901628170F621EF
:109ED0000170FB49024A8A6600E000200146CEE795
:109EE000D991001410B560B10178F62909D18168C3
:109EF00059B1FFF773FA002101220024FFF72AFB72
:109F000001E06FF00304204610BDFEF703FE0024BD
:109F1000002808BF6FF00204F5E7000070B5FB4DA4
:109F2000287A02282AD1686A40B36C69E06AFFF790
:109F300091F8A06918B100210022FFF70BFBEFF3A5
:109F40000980A063686A8168696211B105F11C0229
:109F5000CA600026C660FFF7D9FA6E61E078C007D4
:109F600004D12046BDE87040FFF70EBA0420E66039
:109F70006070686BA06000B1C4606C6370BD00BFAE
:109F800014000010B0B56FF0030460B300292AD4A8
:109F900005460078F12826D16878042802D16FF0B0
:109FA000020420E005F1280050E8002F42EA0104F5
:109FB00040E8004303B1F7E76878332813D195F8F8
:109FC0002320696A2846FEF7BCFD60B1014695F87A
:109FD00023000C4680075CBF686A21EA000428461B
:109FE0000122FFF7B7FA2046B0BD0000F8B50546DC
:109FF000FC48476957B1002D0BD40E46144638462D
:10A0000029463246FEF79DFD30B1F8BD4FF0FF30D6
:10A01000F8BD6FF00300F8BD4CB13320214687F83E
:10A0200023607D62FFF77AFA6FF00100F8BD6FF0F0
:10A030000200F8BD140000102DE9FE4F18B3804651
:10A040006AB102F1100A96689AE88006D2E90053D4
:10A05000BEB1B00717D1D068442814D317E001244B
:10A060004FF0180A002300274FF000090025DD4AB1
:10A070000293D2F88800CDE90015C0B1FEF730FF99
:10A080001BE0D06818B100242046BDE8FE8F37B130
:10A090000024B9F1000FF7D017F00700F4D1BAF19E
:10A0A000000F24D0AAF101003728ECD821E0D2F823
:10A0B000800044210122FEF79AFE06464FF0010B74
:10A0C00087B97EB184B1C7494B4AD1F88400D2F830
:10A0D0005490C8B1FEF704FF0746002818BF0BF1E3
:10A0E000100B17E0344635E0BE48406F0DE04FF0EE
:10A0F000180AB9F1000F1BD00024B9F1480FC3D3DF
:10A1000019F0070015D0BFE7486F49460022FEF757
:10A110006EFE07460FB134461AE05FEACB7016D0E8
:10A12000B049D1F8880068B13146FEF7F6FE0EE07E
:10A130000124002E3FF49BAFCDE9001502934FF0B0
:10A14000000BBDE7D1F880003146FEF788FE002401
:10A150004BF0020B002C3FF497AF01981821606080
:10A160000298E07040F2F11084F802B0208004F10F
:10A170000800FEF7FFFB07EB090100204039FD2234
:10A18000C4F82300C4F82700C4F82B0084F82F007B
:10A1900084F8222084F821A084F820A0C4E90C7956
:10A1A000C4E90E181549009D39601349097849071B
:10A1B0000AD56FF0100101EB99013A1D4FF0CC3335
:10A1C00011B108C20139FBE7A16B00220D2A03D0AF
:10A1D00041F822000132F9E7094A4FF08070C1E9E5
:10A1E0000D28C8630D627F48064901662046FFF7C7
:10A1F000A1F849E71400001054C70014A52E5AE234
:10A20000719700146194001470B5C0B104460078D1
:10A21000F12814D1607800F00F00012812D0032833
:10A2200014D002281CBF6FF0020070BD6D496FF0A2
:10A2300002000A7A022A01D1496A69B970BD6FF039
:10A24000030070BD2046FFF7E8F805E02046FFF761
:10A25000E4F82046FFF72EF8E06AFEF7FBFEA0695F
:10A2600018B100210022FFF775F96078022810D19B
:10A270005C4DEFF30980A063686A8168696211B17F
:10A2800005F11C02CA600026C660FFF73FF96E6147
:10A2900002E00020FFF74EF8E078C00703D1204627
:10A2A000FFF772F809E00020E060042060704D487C
:10A2B000416BA16001B1CC604463002070BD00BF60
:10A2C0001400001010B5B0B104460078F22812D185
:10A2D0006078022802D12046FEF78CFC0020208006
:10A2E000A178C90710D03F49D1F88C0030B1214680
:10A2F000FEF713FE07E06FF0030010BDD1F88000F9
:10A300002146FEF7ACFD002010BD00BF1400001078
:10A3100040B10178F22905D140780238B0FA80F0D6
:10A320004009704700207047F8B50E46002198B3E9
:10A33000012E31D8144605464BB198681F6870B19C
:10A3400081070FD1DA680021202A15D224E00027E6
:10A350002449D1F88C0038B1FEF7C2FD0AE0D86874
:10A360000028F5D0002117E0D1F88000202101223B
:10A37000FEF73DFD70B101210022C67081704FF4DF
:10A38000F9710180C0E90172C0E90322C0E9052525
:10A39000C46100E0002001460846F8BDB0B570B1C8
:10A3A0000C4605466FF00300B9B12978F22914D1A3
:10A3B0006878022806D12846FEF71CFC08E06FF0FA
:10A3C0000300B0BD0748006D40B102206C616870A9
:10A3D00028462146FEF7ECFB0020B0BD6FF00200DE
:10A3E000B0BD00BF1400001080B570B10178F22933
:10A3F0000BD1417802291CBF6FF0020080BD012102
:10A400004170FEF7F7FB002080BD6FF0030080BDB8
:10A4100007490978884209D2064951F8200028B135
:10A42000C16819B1006808B1002070472120704749
:10A43000ACCC0014B0CC001470B505460024FFF776
:10A44000E7FF30B9044850F82500C068007900B132
:10A450000124204670BD0000B0CC001410B50446A5
:10A46000FFF7D6FF002804D12046BDE8104000F0D9
:10A4700089B910BD70B504462D4E0D46C80704D0ED
:10A4800056F8241009B101208847A80707D556F8C7
:10A49000241009B100208847204602F0D1F868074F
:10A4A00021D5204602F0CCF8224850F82400066856
:10A4B000F078B38800F00302B178204600F0CCF9C0
:10A4C00048B9F078B38800F00302B07840F080011A
:10A4D000204600F0C1F92046FEF762F9164850F810
:10A4E000240000B1804728070BD51449012051F8FA
:10A4F0002410C96881F89500114850F8240000B173
:10A500008047E80604D50F4850F8240000B1804782
:10A51000A80604D50C4850F8240000B18047290A49
:10A52000480704D02046BDE8704000F06DBC70BD07
:10A5300018C90014E800001008C90014B0CC0014B9
:10A5400000C9001410C900140CC9001410B5044649
:10A550000C480078844201D3002010BD0A4850F80E
:10A560002400C0680028F8D00849D0F8AC0051F8A1
:10A57000241088470028F0D12046BDE81040FEF79F
:10A58000AFB80000ACCC0014B0CC0014F0C800147C
:10A5900010B504460C480078844201D3002010BD59
:10A5A0000A4850F82400C0680028F8D00849D0F8BC
:10A5B000AC0051F8241088470028F0D12046BDE8AF
:10A5C0001040FEF78BB80000ACCC0014B0CC0014E7
:10A5D000F4C8001410B504460A48007884420FD22B
:10A5E000094850F82400C068002809D00749A03065
:10A5F00051F8241088472046BDE81040FEF76CB89B
:10A6000010BD0000ACCC0014B0CC0014F8C800148D
:10A6100010B504460F480078844201D3002010BDD5
:10A620000D4850F82400C0680028F8D00021C0F878
:10A63000A810C0F8AC10094900F1AC0251F8243060
:10A64000111FA03098470028E9D12046BDE81040EE
:10A65000FEF740B8ACCC0014B0CC0014FCC8001419
:10A660002DE9F047C6B220480078864239D21F480B
:10A6700000244FF0FF3750F82600D0F800901C4817
:10A6800050F82600C10708D0810701D401246427AF
:10A69000400702D444F0020464274FF00008E007AA
:10A6A00001D0012119E03846FDF748FF01460001BD
:10A6B00013D5D9F81C00804700F001054545F2D0BC
:10A6C000A846E00704D01DB101213046FFF7D2FEB5
:10A6D000A007E8D5002DE6D102213046FFF7CAFEDB
:10A6E000E1E7BDE8F0870000ACCC0014B0CC00146A
:10A6F0004470001070B5174951F82010C9B1CC68EA
:10A70000BCB1D4F89C200025AAB1497D491E0A425B
:10A7100002D1012184F89610D4E92623802100F08B
:10A720005DF9002804D1F4E926121144C4E90015AA
:10A7300070BD212070BD94F8961049B100231A46CF
:10A74000802100F04BF90028F4D184F8965070BDB8
:10A75000222070BDB0CC0014094910B551F820106A
:10A76000CC680021D4E9262300F038F9002805D16F
:10A77000F4E92601084420600020606010BD00005C
:10A78000B0CC00142DE9F04105460324154E08E035
:10A7900056F825006421FDF74BFF28B10A20FDF78C
:10A7A00027FE641EE4B2F3D2BCB1DFF83C8002277E
:10A7B00058F82500006840698047040005D00A2049
:10A7C000FDF716FE7F1EFFB2F2D256F82500FDF708
:10A7D00065FF24B12220BDE8F0812320FBE70020A3
:10A7E000F9E700005C700010B0CC00142DE9F047D0
:10A7F000894605460324164E09E000BF56F8250099
:10A800006421FDF715FF28B10A20FDF7F1FD641E54
:10A81000E4B2F3D2C4B1DFF83C80022758F8250037
:10A820000068416A48468847040005D00A20FDF7C1
:10A83000DFFD7F1EFFB2F1D256F82500FDF72EFF97
:10A8400024B12220BDE8F0872320FBE70020F9E7B0
:10A850005C700010B0CC00142DE9FF5F894601F058
:10A860000F020546102101EAD9002C499B461044ED
:10A870000B786B4302EB4302D4B2102802D3097861
:10A880002144CCB2264F142202EB800057F8251049
:10A89000C968085820B14946284600F011F9A0BB04
:10A8A000DFF88080022600BF58F824006421FDF7FD
:10A8B000BFFE28B10A20FDF79BFD761EF6B2F3D24B
:10A8C0004EB303264FEA070A5A465AF82500029962
:10A8D0000068C36A484698470746801D06280CD280
:10A8E000DFE800F00B0B0B030303761E16F0FF06E8
:10A8F00003D00A20FDF77CFDE6E758F82400FDF7B9
:10A90000CDFE17F1020F06D01FB1222004B0BDE822
:10A91000F09F0020FAE72320F8E70000B4CC0014F1
:10A92000B0CC00144C7000102DE9F05F93468946BE
:10A9300001F00F020546102101EAD9002449104414
:10A940000B786B4302EB4302D4B2102802D3097890
:10A950002144CCB2DFF87CA0142202EB80005AF82C
:10A960002510C968085820B14946284600F0A8F8C3
:10A9700038BBDFF864800226642158F82400FDF714
:10A9800057FE28B10A20FDF733FD761EF6B2F3D24A
:10A99000E6B102275AF8250059460068426B48463E
:10A9A0009047060005D00A20FDF722FD7F1EFFB26A
:10A9B000F0D258F82400FDF771FE16F1020F05D011
:10A9C00016B12220BDE8F09F0020FBE72320F9E725
:10A9D000B4CC0014B0CC00144C7000102DE9FF5F13
:10A9E000884601F00F03334A0446102101EAD800DB
:10A9F00018440127157807FA00F1654303EB450376
:10AA0000DDB2102802D312782A44D5B22A4B53F86B
:10AA10002420D268D6680E424AD1142101EB800965
:10AA20009A4652F8090038B15FEA087040D14146B1
:10AA3000204600F045F8A8BBDFF880B0022600BF32
:10AA40005BF825006421FDF7F3FD28B10A20FDF72E
:10AA5000CFFC761EF6B2F3D256B35AF82410CA6869
:10AA600042F809705FF002075AF82400DDE902128B
:10AA70000068836B4046984706000BD00A20FDF71C
:10AA8000B7FC7F1EFFB2EFD25AF824000021C26843
:10AA900042F809105BF82500FDF700FE16F1020FE1
:10AAA00006D01EB1222004B0BDE8F09F0020FAE7D6
:10AAB0002320F8E7B4CC0014B0CC00144C70001084
:10AAC0002DE9F05F8A4601F00F020446102101EAE9
:10AAD000DA00254910440B78634302EB4302D5B2F8
:10AAE000102802D309782944CDB2DFF8808058F8C5
:10AAF0002410CA68142101EB800B52F80B000028C7
:10AB000020D0DFF86C900226642159F82500FDF76B
:10AB10008FFD28B10A20FDF76BFC761EF6B2F3D24A
:10AB20007EB1022758F824000068016C504688471F
:10AB3000060009D00A20FDF75BFC7F1EFFB2F1D2B0
:10AB400008E02320BDE8F09F58F824000021C268E7
:10AB500042F80B1059F82500FDF7A0FD0EB1222098
:10AB6000F0E70020EEE70000B4CC0014B0CC0014F5
:10AB70004C7000102DE9F04180460E46102001F087
:10AB80000F0200EAD600111815481029047808FBB6
:10AB900004F302EB4302D4B202D300782044C4B2DF
:10ABA000104F0225642157F82400FDF741FD28B11C
:10ABB0000A20FDF71DFC6D1EEDB2F3D275B10A49F6
:10ABC00051F828000068C16B30468847054657F8A1
:10ABD0002400FDF763FD2846BDE8F0810020FBE777
:10ABE000B4CC00144C700010B0CC00142DE9F04728
:10ABF000894601F00F020546102101EAD9002549D6
:10AC000010440B786B4302EB4302D4B2102802D3FA
:10AC100009782144CCB2DFF880A0142202EB800036
:10AC20005AF82510C968085820B149462846FFF748
:10AC300047FF38BBDFF86480022600BF58F82400C5
:10AC40006421FDF7F5FC28B10A20FDF7D1FB761E43
:10AC5000F6B2F3D2DEB102275AF825000068016B84
:10AC600048468847060005D00A20FDF7C1FB7F1E35
:10AC7000FFB2F1D258F82400FDF710FD16F1020FD3
:10AC800005D016B12220BDE8F0870020FBE7232085
:10AC9000F9E70000B4CC0014B0CC00144C700010E4
:10ACA000024951F82000006840680047B0CC001409
:10ACB000024951F82000006800680047B0CC001439
:10ACC0002DE9F04791468A4605460324164E08E0D2
:10ACD00056F825006421FDF7ABFC28B10A20FDF7EA
:10ACE00087FB641EE4B2F3D2CCB1DFF840800227C8
:10ACF000494658F82500006882685046904704008D
:10AD000005D00A20FDF774FB7F1EFFB2F0D256F883
:10AD10002500FDF7C3FC24B12220BDE8F0872320E5
:10AD2000FBE70020F9E700005C700010B0CC0014D5
:10AD30002DE9F047894605460324164E09E000BF79
:10AD400056F825006421FDF773FC28B10A20FDF7B1
:10AD50004FFB641EE4B2F3D2C4B1DFF83C8002279B
:10AD600058F825000068016948468847040005D066
:10AD70000A20FDF73DFB7F1EFFB2F1D256F82500F9
:10AD8000FDF78CFC24B12220BDE8F0872320FBE7EF
:10AD90000020F9E75C700010B0CC00142DE9F047FA
:10ADA000894605460324164E09E000BF56F82500E3
:10ADB0006421FDF73DFC28B10A20FDF719FB641E54
:10ADC000E4B2F3D2C4B1DFF83C80022758F8250082
:10ADD0000068816A48468847040005D00A20FDF7CC
:10ADE00007FB7F1EFFB2F1D256F82500FDF756FC97
:10ADF00024B12220BDE8F0872320FBE70020F9E7FB
:10AE00005C700010B0CC00142DE9F0470546DC481A
:10AE100088460078854278D2DFF8689359F8257023
:10AE2000002F72D0FC68002C6FD05FEA48704FF0A2
:10AE3000000632D594F8A000000621D5D4F89C0075
:10AE400010B994F8960020B12846FFF753FC20B3C0
:10AE50000AE094F8970000B384F897602846FFF75B
:10AE600075FB48B1012807D0012200212846FFF7D1
:10AE70005BFDC4F89C6010E0284601F02EFC0CE05D
:10AE8000284601F022FC40B96078010605D500F0A3
:10AE90007F0161702846FFF7A9FC5FEA887045D5FD
:10AEA00094F8A00001063ED4D4F89C1021B12846A5
:10AEB000FFF752FC50B32EE094F8971059B184F884
:10AEC00097602846FFF764FB08B1012823D1284684
:10AED00001F0F6FB2AE0C0F34111E1B101291AD1DA
:10AEE00010F01F0017D0012802D0022813D10EE065
:10AEF000284600F049F948B92846FDF7F5FB28B97E
:10AF00002846FDF7F9FB08B905E04AE00EE02846BF
:10AF1000FDF7EEFBF7E7012280212846FFF704FD4D
:10AF2000C4F89C6002E0284601F0DCFB5FEAC870D0
:10AF300037D02846C84659F82010C968A031FFF715
:10AF40002DFF00282DD12846FFF762FB0121B8B361
:10AF5000012863D1D4F8A80018B9D4F8AC20002A8D
:10AF60005CD1B4F8A620F2B1C4F89800D4F8AC00D3
:10AF7000C4F89C0084F8971094F8A0301B0603D402
:10AF80002846FFF7E9FB0AE0904205D27A7D521E7F
:10AF9000104201D184F896102846FFF7ABFB002839
:10AFA0003CD1BDE8F08794F8A0000006284603D401
:10AFB000BDE8F04701F084BBBDE8F04701F08DBB70
:10AFC000B868C4F89800B4F8A6007A8B904202D909
:10AFD000C4F89C2001E0C4F89C0094F8A000C0F3E1
:10AFE000411222B1012A7DD0022A17D19BE094F8A8
:10AFF000A1000C2812D2DFE800F00612AF14AF1A3D
:10B0000034AF3A505471284601F03AF82CE0284603
:10B01000FFF7E0FA2846FFF76DFBE0B39CE0002164
:10B0200000E00121284601F085F898B994E058F82D
:10B030002500C06880B3B0F8A41069BBB0F8A610B2
:10B0400051BB90F8A010C90626D190F8A21041F08B
:10B05000800141702846FFF7BDFA284601F030FB19
:10B0600068E0284600F0E8FE0028D0D174E058F8E7
:10B070002500C06880B1B0F8A2206AB9B0F8A42059
:10B0800052B9B0F8A620012A66D190F8A020D206C5
:10B0900062D1021D1EE04AE040E0284601F0D0F8EF
:10B0A000C3E758F82520CAB3D068B8B3B0F8A230C7
:10B0B000A3BBB0F8A630012B4ED190F8A03003F01E
:10B0C0001F03012B48D1B0F8A430578ABB4243D2AA
:10B0D00052681A44C0E9262199E703E0284601F0A6
:10B0E000E3F9A2E710F01F0036D0012802D00228B1
:10B0F00032D114E0284600F009F958B92846FDF786
:10B100000FFB38B92846FDF7EDFA18B92846FDF7C8
:10B11000F1FA18B12846FFF75DFA0BE01CE028466B
:10B12000FDF7E4FAF5E7284600F050FF9CE72846D3
:10B1300001F0D3FA94F8A00000063FF532AFB4F85E
:10B14000A60000283FF42DAF2846FFF705FB002896
:10B15000F8D00122802109E094F8A0000006B4F89C
:10B16000A60009D40028F4D0012200212846FFF7C8
:10B17000DBFBC4F89C6014E70028EAD1F4E7000088
:10B18000ACCC0014B0CC00142DE9F04105461848B1
:10B190000078854226D2174850F82500C6680EB3BD
:10B1A0000024DFF85480154F19E000BF58F8240040
:10B1B00098B1017FA94210D1B6F8A410407F814216
:10B1C0000BD196F8A100092807D1204600F03EFADD
:10B1D00018B1284601F074FA38B1641CE4B238782A
:10B1E0008442E3D30020BDE8F0810120FBE70000AA
:10B1F000ACCC0014B0CC0014FC00001018CD00142E
:10B200002DE9F0473B4B1B78984271D23A4B53F8EB
:10B2100020C0BCF1000F6BD0DCF80C40002C67D0D4
:10B22000B4F8A230DFF8D4901B0A354F354D212BEE
:10B2300002D0222B5CD131E000263346BA460FE023
:10B240005AF8237057B197F81C80804506D1B4F89E
:10B25000A4807F7FB84506D0761CF6B25B1CDBB2BB
:10B260002F78BB42ECD32D78AE4241D09CF81160D0
:10B27000254D94F8954066B164B155F820004069B9
:10B280000860044659F82300C0882044086009205B
:10B2900029E064BB55F820000069F1E70026334639
:10B2A00013E000BF57F823C0BCF1000F0BD09CF88F
:10B2B0001C80804507D1B4F8A4809CF81DC0E045EF
:10B2C00007D0761CF6B25B1CDBB295F800C0634574
:10B2D000E8D3287886420BD059F8234024680C60C4
:10B2E00059F82300808810600120BDE8F087FFE74F
:10B2F0000020FAE7ACCC0014B0CC001414CD00143C
:10B30000FC00001018CD0014E80000102DE9F05FDB
:10B31000504980460978884270D24F4951F82870C8
:10B32000002F6BD0FC68002C68D000264FF0030A79
:10B330004FF0010BDFF8249185E0494850F8265082
:10B34000002D7ED0297F41457BD1B4F8A410687FC1
:10B35000814276D194F8A1000C2872D2DFE800F087
:10B3600071063E517171717171234763304600F06F
:10B37000D9F890B3B4F8A200BBEB102F06D1698EB8
:10B38000D4F89C00884263D8E86808E0BAEB102F34
:10B3900028D1E98ED4F89C00884259D86869401CAD
:10B3A000C4F898001EE0B4F8A2000221B1EB102FFF
:10B3B00006D1A98ED4F89C00884249D8286908E0B3
:10B3C000BAEB102F3AD1E98ED4F89C0088423FD8CE
:10B3D0006869401CC4F8980030E032E0304600F064
:10B3E00065F811E04046FFF785F9C0B129E0B4F8EF
:10B3F000A60018B9304600F0C9F81AE028E0E8B114
:10B400001FE0304600F06EF8D8B1B868C4F8980074
:10B41000D4F89C000128E5D9C4F89CB0E2E7404686
:10B4200001F05BF9EBE7B4F8A60088B9304600F00C
:10B43000EDF830B1404601F043F9E0E70120BDE806
:10B44000F09F761CF6B299F800008642FFF475AFC3
:10B450000020F4E7ACCC0014B0CC001418CD0014DC
:10B46000FC0000100D490978884212D20C4951F8AD
:10B47000200070B1816961B10A49007F0978884272
:10B4800009D2094951F8200028B1C06818B100203C
:10B4900070472820704721207047000018CD001405
:10B4A000FC000010ACCC0014B0CC001410B5044665
:10B4B000FFF7D8FF08B1002010BD0848084A50F82F
:10B4C0002400017F806852F82110CA68896892F8C8
:10B4D000A220805C0870012010BD0000FC0000105C
:10B4E000B0CC001410B50446FFF7BCFF88B90A4879
:10B4F00050F8240068B1804700280ADB0749084A51
:10B5000051F82410097F52F8211089680870012031
:10B5100010BD002010BD00001CC90014FC0000106C
:10B52000B0CC001470B5164D0446164955F82400E9
:10B53000007F51F82000C6682046FFF793FFE0B96E
:10B54000B6F8A210080A012804D0022815D0032852
:10B5500013D103E055F82420D36802E055F82420E5
:10B560005369094A5B1C52F8244034B1CAB2002125
:10B57000A047002801DB012070BD002070BD000045
:10B58000FC000010B0CC001420C9001470B50446B3
:10B59000FFF768FF08B1002070BD194A194952F839
:10B5A0002430187F51F82000C068B0F8A21011F0C4
:10B5B000FF0F05D00A0A9B68C9B2491E5A540EE013
:10B5C000002106E0B0F8A2509B682D0A5D54491C8A
:10B5D000C9B252F8243093F830508D42F2D890F826
:10B5E000A20010F0FF0F084850F8240004D00421F6
:10B5F000FCF74EFF012070BDFCF780FFFAE700006A
:10B60000FC000010B0CC0014C878001010B504463F
:10B61000FFF728FF88B90A4850F8241069B1094893
:10B62000094A50F82400007F52F82000C06890F8C2
:10B63000A200884708B1012010BD002010BD000005
:10B6400028C90014FC000010B0CC0014F8B5184F45
:10B650000446184957F824000025007F51F82000BF
:10B66000C6682046FFF7FEFEF8B9B6F8A210080A31
:10B6700001281AD0022802D0032816D103E057F877
:10B680002420136902E057F8242053690A4A5B1CFE
:10B6900052F824404CB1B6F8A6200092CAB200215C
:10B6A000A047050001D00120F8BD2846F8BD0000E4
:10B6B000FC000010B0CC00142CC9001470B50C466E
:10B6C0000546FFF7CFFE00280DD1074850F82500AA
:10B6D000C17FA14207D18269838E007FD268BDE815
:10B6E0007040FFF77BB970BDFC0000102DE9F047FA
:10B6F0000746FFF7B7FE002879D1594850F8275080
:10B70000AC69E08AA18ADFF85C914FF000088842BA
:10B710001DD3207FD8B9C4F80880A4F8168059F842
:10B72000276036B1E868431C027801210846B0471B
:10B73000A082A08A58B1E868A06095F8301001296D
:10B7400002D8401CA06002E0A08A401CA082A08A0F
:10B750004FF0010A10BB207F00BB607810B184F865
:10B76000018047E06368CBB195F83020012A16D8F4
:10B77000E96881F80080A4F8168059F8276036B18E
:10B78000EB680022022101205B1CB047A082A08A46
:10B7900010B1E868401CA060C4F804802AE0607F13
:10B7A000411CCEB2B24200D200260AFA06F10B4288
:10B7B0001ED0E968701C0870A4F8168059F827C0DC
:10B7C000BCF1000F06D0C2B2EB68022101205B1C65
:10B7D000E047A082A08A20B1E868A060A08A401C4F
:10B7E000A08261680AFA06F08143616002E02BE002
:10B7F000B042D7D1A08A08B9207F50B3287F1A4918
:10B8000051F82010CF68A18AE28A891A8EB2A97FE6
:10B81000334641F08001A268FFF7E0F8A0683044A9
:10B82000A060E08A304480B2E082698E884209D20A
:10B8300097F8950005EB4000808CB6FBF0F100FB1B
:10B84000116018B184F81C80BDE8F08784F81CA052
:10B85000FAE7064850F82700BDE8F047FCF71EBF9E
:10B86000FC00001020C90014B0CC0014C0780010F7
:10B870002DE9F8430646FFF7F5FD002839D11E48AB
:10B88000002750F82640A56994F81C80288B10B931
:10B890002069E8602F83E17F4046FFF76BF9E96894
:10B8A00082B21144E960298B084480B2134928838D
:10B8B00094F8312051F82660012A04D876B100901E
:10B8C0000022236905E04EB1401E00902069431C10
:10B8D000027801210220B04700280AD02269EA60DC
:10B8E0002F83A38EE17F01B04046BDE8F043FFF710
:10B8F00075B8BDE8F8830000FC0000102CC90014E6
:10B900002DE9F0471F46924688468146FFF7AAFD7B
:10B9100006003AD11E4951F829401E49207FA569E9
:10B9200051F82000618EC068B94201D202262CE095
:10B93000007940B1184951F829000021FCF778FE40
:10B9400018B1232621E025261FE001206870E16858
:10B950003A4681F80080E0685146401CFCF7F1FF50
:10B96000E0680021A860E982AF8294F83020012AC3
:10B9700002D8401CA86002E0A88A401CA882226865
:10B98000484622F81810FFF7B1FE3046BDE8F087B0
:10B99000FC000010B0CC0014C078001070B5044654
:10B9A000FFF760FD05002CD1174850F8240000B1C6
:10B9B0008047164E56F8240030B921460520FCF782
:10B9C000C9FC46F8240020B1114E56F8240010B1ED
:10B9D00007E0102515E02046FCF73AFD46F8240064
:10B9E00020B10C4E56F8240010B10AE0112508E0F1
:10B9F000002221460220FCF7DDFD46F8240000B9B4
:10BA00001225284670BD000024C90014C478001017
:10BA1000C8780010C07800102DE9F0410546FFF706
:10BA200021FD002826D1144850F825401348A66966
:10BA300050F8250008B1FCF761FDA07F20B140F06F
:10BA40008001207FFFF73CF8E17F11B1207FFFF7F5
:10BA500037F80B4F57F8250030B10021FCF7E8FD0F
:10BA600057F82500FCF71AFE20213046FCF782FF2C
:10BA70002069F060BDE8F081FC000010C87800107B
:10BA8000C078001070B50446FFF7ECFC002815D113
:10BA900000210B4A7D2303E080684354491CC9B24E
:10BAA00052F8240090F830508D42F5D80548042112
:10BAB00050F82400BDE87040FCF7EABC70BD0000FF
:10BAC000FC000010C878001070B5C4B22046FFF723
:10BAD000C9FC002811D1451E2846FCF72FFD0101A5
:10BAE000FAD4060AB00702D52046FFF7C1FE700758
:10BAF000F2D52046FFF7FAFDEEE770BD2DE9F047DD
:10BB0000C4B22046FFF7AEFC00287AD1444845492C
:10BB100050F82420107F936951F82000C068017903
:10BB200000296ED05988091D89B2598090F8950076
:10BB300038B1508C38B13C4D05EB400030F8020C68
:10BB400002E0108C00B901204FF0000CE246814267
:10BB500003D1A3F802A04FF0010C0021012545E01C
:10BB600017680026B94637F811704FF6FC7847453C
:10BB700002D23F1D29F81170576837F811704FB184
:10BB8000D2F80080C14638F81180B84502D329F8B0
:10BB900011A0012697687F5CB0EB870F02D90FB127
:10BBA000012700E0002717EA0C0F01D1BE4304D0A3
:10BBB0005E6805FA01F73E435E6096685768765CFA
:10BBC00037F81170B600B7420ED056B1176837F883
:10BBD0001170B74205D35F6805FA01F847EA080714
:10BBE0005F60576827F81160491CC9B292F830604D
:10BBF0008E42B5D8586808B15A7822B18D40A84312
:10BC00005860BDE8F0870948002150F82400FCF78F
:10BC10000FFD0028F5D12046BDE8F047FFF766BDCF
:10BC2000FC000010B0CC001432C70014C078001023
:10BC30002DE9F0410446FFF715FC05001BD10F4E1E
:10BC4000002756F8240030B1FCF730FD08B112256A
:10BC500011E046F824700A4E56F8240030B1FCF783
:10BC6000BFFB08B1102506E046F82470054850F8DF
:10BC7000240000B180472846BDE8F081C07800105C
:10BC8000C478001030C900142DE9F05F0446FEF7B7
:10BC9000BFFB050078D15C4850F82400C7683878AD
:10BCA00010B10020BDE8F09F2046FFF701F857498A
:10BCB00001EB840108602046FEF7F2FF544941F889
:10BCC0002400B0213846FCF755FEDFF84CA1DFF820
:10BCD0004491DFF848B19AF8000059F8241004FBA9
:10BCE00000F639B9002221461046FCF763FC49F8FA
:10BCF000240078B3002510E005EB460000F0FF08B3
:10BD00005BF8280038B92A4621460120FCF752FC8E
:10BD10004BF82800F0B16D1CEDB29AF80000B5EBBD
:10BD2000400FE9D33E4850F82400426A3AB1364801
:10BD300050F82400C18A11B11046FCF71BFE3948A7
:10BD400050F8240000B180472046FCF709FD0500AB
:10BD500023D102E0FFE712251FE0334D55F8240000
:10BD600030B921460020FCF7F5FA45F8240060B10F
:10BD70002E4850F824202E4850F824102046FEF774
:10BD80009FFF050009D102E03BE010250EE00221F3
:10BD90002046FEF7CDFF050012D0234F57F82400B0
:10BDA00020B1FCF71DFB002047F824002046FCF7DB
:10BDB000E7FC204850F8240000B18047002712E03B
:10BDC000012038701DE000BF07EB460000F0FF08BF
:10BDD0005BF8281029B10846FCF768FC00204BF8F6
:10BDE00028007F1CFFB29AF80000B7EB400FEBD39E
:10BDF00059F824004E4620B1FCF758FC002046F8C4
:10BE0000240028464EE70000B0CC001460700010FB
:10BE1000447000105C700010B4CC00144C70001022
:10BE2000E800001004C9001448700010A8CC0014E9
:10BE3000A4CC001414C900142DE9F0415F4909781D
:10BE4000884273D25E4951F82060002E6ED0F568AA
:10BE5000002D6BD0B5F8A610002967D095F8A0107A
:10BE6000584C11F01F0102D001295FD186E0B5F8CE
:10BE7000A2205549130A082B58D2DFE803F090049A
:10BE80001D5890900E3F12F0FF0F4FD151F8200037
:10BE90004068C5F8980012206EE0727C002A7ED0BF
:10BEA00095F8952051F8200022B1C068C5F8980097
:10BEB0000A2061E08068F9E7737C002B95F89530E3
:10BEC00007D03BB151F82000406920600020D2B279
:10BED0000BE05BBB51F820000069F6E721680B78A6
:10BEE00013B14B8819442160401C8242F6D120686E
:10BEF0000178D9B1C5F8980040883DE0737CABB1BA
:10BF000095F8953051F8200023B1C06920600020D9
:10BF1000D2B208E08069F9E721680B7813B14B8849
:10BF200019442160401C8242F6D1E0E737E0D2B2EA
:10BF3000032A05D151F820305B6A0BB11F782FB965
:10BF4000EE2A05D151F820309B6A0BB123600DE039
:10BF500051F82000006A2060002005E0236819786D
:10BF600009B119442160401C8242F7D12068017850
:10BF7000A9B1C5F898000078606009E0114A121D67
:10BF8000111FFFF73DF900280AD02068C5F8980076
:10BF9000B5F8A6006168884204D3084603E0002093
:10BFA000BDE8F0816060C5F89C00717D491E0142CA
:10BFB00002D1012085F896000120F1E7ACCC0014F5
:10BFC000B0CC001400000010E800001070B5284943
:10BFD0000978884220D2274951F82060E6B1F468F8
:10BFE000D4B194F8A110327E914215D1B4F8A210C8
:10BFF000090A11D1B4F8A61071B194F8A0101E4D21
:10C0000011F01F0102D0012906D10EE0B4F8A410EE
:10C01000042903D005290CD0002070BD174951F820
:10C020002000C06A80B1A8600AE0B4F8A410052915
:10C030000AD111490831FCF74BFB0028EDD0A86864
:10C04000C4F898000068E860B4F8A600E96888427F
:10C0500001D3084600E0E860C4F89C00717D491EE9
:10C06000014202D1012084F89600012070BD000039
:10C07000ACCC0014B0CC001400000010E80000109C
:10C08000F0B52A49097888424ED2294951F8202032
:10C09000F2B3D068002846D0926800F19801BAB394
:10C0A000B0F8A230A3BBB0F8A630022B3CD190F878
:10C0B000A0304FF0020613F01F0305D00024012B1F
:10C0C00009D0022B30D110E0B0F8A42002BB801CB4
:10C0D000C1E9000626E00379D3B190F8A43090F8C6
:10C0E0009400834220D2147019E090F8A4301027F5
:10C0F00003F08F0505F00F0307EAD5071F4401235E
:10C10000BB4007790FB92D070ED185681D4200E0AD
:10C110000AE009D0C068184000D0012010705470A7
:10C12000C1E900260120F0BD0020F0BDACCC001418
:10C13000B0CC00142DE9F04107463D480078874215
:10C1400065D23C4850F82700C468002C5FD0B4F892
:10C15000A600E8BB94F8A00010F01F0004D001284E
:10C1600055D0022853D117E0B4F8A20001284ED1CF
:10C1700041B1314850F8270000B18047608840F055
:10C18000020007E02D4850F8270000B18047608882
:10C1900020F00200608048E094F8A400102200F033
:10C1A0008F0606F00F0002EAD6021044012522791C
:10C1B00085406AB1A2682A4229D0B4F8A220A2BB65
:10C1C000320724D0C1B104EB8000406930B100E0F7
:10C1D0001DE031463846FEF773FCC0B901223146F6
:10C1E0003846FEF7A1FB90B9E06831462843E0608D
:10C1F0003846FCF711FB18E0D4E903010840284257
:10C2000013D1002231463846FEF78EFB10B10020D4
:10C21000BDE8F081E0683146A843E0603846FCF7AD
:10C220007DFA31463846FCF7DFFA0120F0E70000DE
:10C23000ACCC0014B0CC0014ECC80014E8C8001456
:10C240002DE9FC5F94498046097888427ED2934963
:10C2500051F82870002F79D0FC68002CFBD0B4F87E
:10C26000A400002872D1B4F8A6000028FAD10090EA
:10C2700094F8A00010F01F0FF4D194F8A2004FF032
:10C28000000A10F0FF0F4FF0010B4FF4803977D008
:10C29000797C8348002994F8951004D029B150F88E
:10C2A000280045699DE00029DCD150F82800056987
:10C2B00097E06878022804D0042868D0052863D164
:10C2C00068E0697994F8A20081425ED129797A8A7E
:10C2D00091423BD82071287984F89400002003E033
:10C2E0007A6802F800A0401C798A8142F8D80126B9
:10C2F000A1680BFA06F0014213D004EB86004069F6
:10C3000028B131464046FEF7DBFB00281ED13146FE
:10C310004046FEF76BFC002818D131464046FCF73A
:10C320007BFAA16809FA06F0014218D004EB8600F6
:10C33000406D30B146F080014046FEF7C1FB002859
:10C3400004D146F080014046019100E075E0FEF71F
:10C350004DFC002871D140460199FCF75DFA761C2E
:10C36000F6B2102EC4D34FF00110C4E9020AC4F88B
:10C3700010A0E8794006608803D540F0010002E093
:10C3800034E020F00100608029E0688828E0E87847
:10C39000009024E0009810BBA878102200F08F01D4
:10C3A00001F00F0002EAD10210440BFA00F604EB90
:10C3B0008000406918B14046FEF782FBE8BBA068E8
:10C3C0003043A060E878AB8800F00302A9784046CB
:10C3D000FEF742FA88BBA9784046FCF705FA2878B0
:10C3E0000544287800287FF464AF41E0564684F87D
:10C3F00004A001254FEA0B07A16807FA05F00142E6
:10C4000011D004EB8500406920B129464046FEF773
:10C4100057FB90B929464046FEF7E8FB68B9294624
:10C420004046FCF7F9F9A16809FA05F0014216D077
:10C4300004EB8500406D38B100E02BE045F0800151
:10C440004046FEF73DFB28BB45F080018A4640464A
:10C45000FEF7CCFBF0B951464046FCF7DDF96D1C08
:10C46000EDB2102DC8D34FF00110C4E902062661C9
:10C47000207994F8A21088420CD121794046FCF72B
:10C48000A1F9084850F8281009B1207988470120FF
:10C49000BDE8FC9F0020FBE7ACCC0014B0CC00143E
:10C4A000E8000010E4C800142DE9FE4F074661487B
:10C4B000007887427ED2604850F82760002E79D0FD
:10C4C000F468002C76D0B4F8A600002872D1834618
:10C4D000CDF808B094F8A000D84600F01F00DA4666
:10C4E000D946012866D12079002871D0717C534843
:10C4F000002994F8951004D029B150F82700456917
:10C500008CE0002956D150F82700056986E068784C
:10C51000022804D0042808D005287DD11FE06879BE
:10C520002179884278D0688877E0B4F8A400718ACD
:10C5300088426AD295F8028095F803A04FF0000B6C
:10C54000404569D1B4F8A210514565D170684FF0EB
:10C55000010910F80810029100F808A05CE0B4F896
:10C56000A410414558D1A878102200F08F0000F0A7
:10C570000F01009002EAD00008440121814001919E
:10C58000B4F8A220524524D1A168019A04EB80009E
:10C590001143A160E168019A9143E160406920B1D3
:10C5A00038460099FEF78CFA20B9E878AB8800F09D
:10C5B000030200E029E0A9783846FEF74DF920BBD8
:10C5C00038460099FCF710F901994BEA010B23E07A
:10C5D0001CE0029A92451FD1019A1BEA020F1BD15F
:10C5E000A16804EB80009143A160E168019A914346
:10C5F000E160406920B138460099FEF761FA20B940
:10C6000038460099FEF7F2FA10B10020BDE8FE8F1F
:10C6100038460099FCF700F9287805442878002866
:10C620007FF475AFB9F1000F01D084F8058048465A
:10C63000ECE70000ACCC0014B0CC0014E800001013
:10C6400070B5084D0446AF2155F82400C068401C61
:10C65000FCF790F955F82400017CC068C1F3801103
:10C66000418070BDB0CC0014024A52F82000FBF7A4
:10C670005FBF000048700010F0B40E4D01F00F03D2
:10C68000102455F8205004EAD1011944ED6814260D
:10C6900006EB810100246C50190341EA0221064A8D
:10C6A000127800FB0230054A52F820000068F0BC06
:10C6B000FBF73EBFB0CC0014B4CC0014EC0000106B
:10C6C00000231A468021FEF789B910B58021FEF7B4
:10C6D00051FA002800D0222010BD00231A46194626
:10C6E000FEF77CB910B504460021FEF743FA08B105
:10C6F000222010BD064850F82400C068406D002874
:10C70000F7D02046BDE810408021FEF7D9B90000DF
:10C71000B0CC001402E008C8121F08C1002AFAD1E8
:10C7200070477047002001E001C1121F002AFBD1B1
:10C730007047010001000100010002000400080030
:10C7400010002000400080000001000200040008EA
:10C750000010000003000000E803000005000000D6
:10C7600080540010100000000000000000000000D5
:10C7700000000000000000000000000000000000B9
:10C78000C054001000100000000000000000000075
:10C790000000000000000000000000000000000099
:10C7A00000000000000000000004000058CA00144F
:10C7B00094CA00147CCA001404000000A465001090
:10C7C000B4660010B86E0010D86E001000000000B3
:10C7D00000000000000000000000000044650010A0
:10C7E000A46500100000000000000000C0640010FC
:10C7F000F4640010C9590014D5590014D959001413
:10C80000055A0014255A0014A55C0014A95C0014F4
:10C810002D5D0014CD5D0014D95D0014E55D00149C
:10C82000D16000142561001449610014C96B001423
:10C83000D56B0014D96B00140D6C0014356C00140A
:10C84000B56E0014DD6E0014056F00143D6F00140A
:10C850006D6F0014996F0014D56F001411710014DE
:10C86000B17100148D720014E97200140D7300147C
:10C87000C17300140100000000200840002008409F
:10C8800000000000DCC800140000000000000000F0
:10C890000000000000000000000000000000000098
:10C8A0000000000010150540141505400024054047
:10C8B00004240540A000054000200000043105408C
:10C8C0005431054019000000000000000000000085
:10C8D000000000004829001000000000010E0000C8
:10C8E00001000000458700144D870014498700149B
:10C8F0005D87001459870014558700145187001470
:10C9000039870014258700143587001441870014E7
:10C910003D870014298700142D8700141187001407
:10C92000CD010014A9010014198700142902001474
:10C93000C9010014001000001111F1002411E100E0
:10C940003B11D1005511C1007411B1009911A10022
:10C95000C7119100001281002212F20049127100E9
:10C960007612D200AA126100E812B200331351000D
:10C970006D13E3008E139200B113D3000014410035
:10C980004414F4005D14B30092147200CC14A3009C
:10C99000EC14D40055153100B615E500D115B400DE
:10C9A000001683002716D50066165200AA16C50089
:10C9B000DB1673001C1794004517B5006217D600EC
:10C9C0007717F700001821008818F8009D18D70085
:10C9D000BA18B600E3189500241974005519C70059
:10C9E00099195300D819D800001A85002E1AB700DB
:10C9F000491AE900AA1A3200131BD900331BA700F9
:10CA00006D1B7500A21BB800BB1BFB00001C430084
:10CA10004E1CDA00711C9700921CEB00CC1C5400D9
:10CA2000171DB900551D6500891DDB00B61D760078
:10CA3000DD1DFD00001E8700381E9800661EA9003F
:10CA40008B1EBA00AA1ECB00C41EDC00DB1EED004C
:10CA5000EE1EFE00000000000000000000000000CC
:10CA6000A465001044000000B86600100002000039
:10CA700001000000000000000000000000000000B5
:10CA800000000000C064001034000000F4640010D6
:10CA9000500000000000000000000000E8650010E9
:10CAA00044000000B86800100002000028000000E8
:10CAB0000000000000000000555342445F48494414
:10CAC000305F5468726561640055534244305F437F
:10CAD0006F72655F5468726561640000525458203B
:10CAE00056352E352E320000090229000101008042
:10CAF000FA090400000203000004092111010001E9
:10CB000022230007058103400001070501034000BF
:10CB1000010000000902290001010080FA09040057
:10CB20000002030000040921110100012223000773
:10CB300005810340000107050103400001000000DA
:10CB4000C9CA0014000000002C6600104400000058
:10CB5000B86A001000020000200000000000000081
:10CB6000000000002CC80014D86E0010A06F001048
:10CB7000DC6E001080010100024010000100800006
:10CB8000120100020000004051C201F00001010248
:10CB9000030100000A06000200000040010000003E
:10CBA0000A06000200000040010000000705000026
:10CBB000400000000907290001010080FA09040073
:10CBC00000020300000409211101000122230007D3
:10CBD000058103400001070501034000010000003A
:10CBE0000907290001010080FA090400000203007E
:10CBF00000040921110100012223000705810340DF
:10CC000000010705010340000100000004030904BE
:10CC100028034B00450049004C0020002D00200057
:10CC200054006F006F006C00730020004200790018
:10CC30002000410052004D0028034C0050004300EA
:10CC40002D004C0069006E006B0032002000430094
:10CC50004D005300490053002D0044004100500096
:10CC60001A03300030003000310041003000300045
:10CC70003000300030003000300028034C005000FD
:10CC800043002D004C0069006E006B003200200054
:10CC900043004D005300490053002D004400410063
:10CCA00050000000BD860014C5860014010000007D
:10CCB00064CB001402000000667000106870001061
:10CCC0006A7000106C7000108074001064700010A6
:10CCD000A0780010000001010100020040004000A7
:10CCE00001000200400040000101000400040100B6
:10CCF0000600FF0901A101150026FF007508960036
:10CD000004090181029600040901910295010901BB
:10CD1000B102C000F40000100100000000D00014B7
:10CD2000000000100008000014C7001400D8001410
:10CD300000080010D074000024C70014F0D0950340
:10CD400000000000000000000000000000000000E3
:10CD500000000000000000000000000000000000D3
:10CD600000000000000000000000000000000000C3
:10CD700000000000000000000000000000000000B3
:10D010000095BA0ADCCA0014D2B3FB02000000007B
:10D020000000000000000000000000000000000000
:10D0300000000000000000000000000000000000F0
:10D0400000000000000000000000000000000000E0
:10D0500000000000000000000000000000000000D0
:10D0600000000000000000000000000000000000C0
:10D0700000000000000000000000000000000000B0
:10D0800000000000000000000000000000000000A0
:10D090000000000000000000000000000000000090
:10D0A0000000000000000000000000000000000080
:10D0B0000000000000000000ACCB001480CB001486
:10D0C00094CB0014A0CB0014E8CA001414CB0014B5
:10D0D000B4CB0014E0CB00140CCC00142070001072
:10D0E0000000000000000000B800001048700010B0
:10D0F000C4780010F0CC001423001200B8CC001447
:10D10000000000000000000000000000000000001F
:10D11000000000000000000000000000000000000F
:10D1200000000000000000000000000000000000FF
:10D1300000000000000000000000000000000000EF
:0400000514000115CD
:00000001FF
