:020000041400E6
:10000000A0A10010659300146D9300146F93001469
:100010007193001473930014759300145A5A5A5A2A
:100020000000000000000000000000002DA60014E9
:100030007993001400000000C5A60014D5A6001492
:100040007F9300147F93001495900014000000002B
:100050007F9300147F9300147F9300147F93001408
:100060002D7B00147F9300147F9300147F93001462
:100070007F9300147F9300147F9300147F930014E8
:100080007F9300147F9300147F9300147F930014D8
:100090007F9300147F9300147F9300147F930014C8
:1000A000A5650014856A00147F9300147F930014E3
:1000B0007F9300147F9300147F9300147F930014A8
:1000C0007F9300147F9300147F9300147F93001498
:1000D0007F9300147F9300147F9300147F93001488
:1000E0007F9300147F9300147F9300147F93001478
:1000F000000000007F9300147F9300147F9300148E
:10010000000000007F9300147F9300147F9300147D
:100110007F930014DFF80CD00AF05EFB0048004724
:10012000A1010014A0A1001002F0A8F900200EF017
:10013000D7FD00200DF09AFB00200DF085FB002874
:10014000FAD044F20804C4F20F04012020704FF4E6
:10015000FA7000F081FB0020207040F24D304FF625
:100160002C02C1F20040C1F2004200210BF0A0FAC3
:1001700040F60004C1F20004206045F22D504FF615
:100180000812C1F20040C1F2004200210BF090FAC7
:1001900060604FF0FF300AF065FC00BFFEE700BF73
:1001A00009F0CCFC0AF09CFC40F22910C1F200409E
:1001B000002100220BF07CFA0AF066FC012808BF3F
:1001C0000AF0A4FCFEE7000040F60800C1F20000BF
:1001D0000021012241808180C18001810270418122
:1001E0008181C18101824270704700BF704700BFAA
:1001F000704700BF012818BF704780B540F6080C53
:10020000C1F2000C4FF0000E42F60622C1F20002CD
:10021000002001214FF400738CF800E0BDE880401D
:100220000EF026BD704700BF00207047704700BF2A
:10023000002070470020704770B540F6080504465E
:100240008007C1F200053AD5002001210EF024FDFF
:1002500042F60626C1F20006F8B168884002305C1A
:10026000072807D140F64800C1F2000001210170C3
:1002700013E000BF68880121013068806888082881
:1002800004BF00206880E8880130E88040F6000064
:10029000C1F2000000680BF0CDF9E8882989401A06
:1002A00080B2082802D10120287008E06888012166
:1002B00006EB402200204FF400730EF0D9FC6007DB
:1002C00058BF70BDE889298A884203D1012068702F
:1002D00070BD00BFA889A98943F6062205EB41013C
:1002E000C1F200024B8A02EB40220020812100244F
:1002F0000EF0E0FCA8890130A881A889082808BF71
:10030000AC81288A0130288270BD00BF400748BFF9
:1003100005F0DEB8704700BF704700BF704700BFF0
:10032000704700BF704700BF704700BF704700BFF5
:10033000704700BF704700BF704700BF704700BFE5
:10034000704700BF704700BF704700BF40F6080508
:1003500042F6062643F606284FF00009C1F20005D2
:10036000C1F200067F27C1F2000800BF81200021F2
:100370004FF0FF320BF08AF9E88829898842F5D0DE
:10038000AC886002305C7E281AD106EB442005E080
:100390006002305C7E2806EB442011D10770601C9F
:1003A0006988B0F1080418BF04468C42F0D181205E
:1003B00000214FF0FF320BF069F90006E8D500BFCD
:1003C000A888698906EB402008EB412102F02CF84F
:1003D000698905EB41014882A8880130A880A88876
:1003E000082808BFA5F804902889013028812878BA
:1003F00080B1E8882989401A80B208280AD085F897
:1004000000906888012106EB402200204FF4007321
:100410000EF02EFC6889013068816889082808BFC1
:10042000A5F80A90E8890130E88168780028A3D00F
:10043000E889298A88429FD0A889411CA981A98975
:1004400008EB4022082908BFA5F80C90298A013141
:10045000298285F8019005EB40014B8A002081211B
:100460000EF028FC88E700BF0B46024600208221E0
:100470000EF020BC002082210EF0ECBBB0B50128AC
:100480001ED000284ED140F62C04C1F20004606852
:10049000012121700BF01EF9002804BF00206060CC
:1004A0004FF65000C1F20040826AD0E9034519209E
:1004B000002190470020A847A0470020B0BD00BF02
:1004C0004FF65001C1F2004140F2C5608A68C1F2A6
:1004D00000400C6990470220A04740F235704FF66B
:1004E0001C22C1F20040C1F20042002100240BF0A6
:1004F000DFF840F62C05C1F20005A968686021B953
:1005000000200AF0ABFB0146A86008464FF0FF311F
:100510000AF092FB05F1140000F042F8A8682C7074
:100520000AF0AEFB0020B0BDB0B540F62C04C1F21D
:10053000000460680BF0CEF8002804BF0020606063
:100540004FF65000C1F20040826AD0E903541920EE
:10055000002190470020A0472846BDE8B040004752
:1005600010B54FF65001C1F2004140F2C5608A68F3
:10057000C1F200400C6990470220A04740F235705C
:100580004FF61C22C1F20040C1F2004200210BF0E4
:100590008FF840F62C01C1F20001486010BD00BF89
:1005A000F0B581B04FF65006C1F20046B76A044676
:1005B000182000210025B84719200021B847152030
:1005C0000021B84716200021B84794F904000228FA
:1005D00019D894F90510022918D8A279053AD3B28E
:1005E000032B13D81AA353F820001CA353F821108F
:1005F00052B21DA353F82220084321681043B84784
:100600004FF0000530B1284601B0F0BD0025284666
:1006100001B0F0BD2068D4F8031040F62C02C1F2FE
:100620000002C2F81710506115200121D560156134
:100630000125B84716200121B847B26948F2207059
:10064000C1F200004FF400719047284601B0F0BDA0
:1006500000000000008000000040000000000000DA
:10066000002000000010000001050000010600004D
:10067000010700000100000010B540F62C00C1F297
:1006800000000078E0B94FF65004C1F20044E06A7F
:100690008047C00718BF10BD48F62011C1F2000105
:1006A00000204FF400720BF045FF012808DB0146E3
:1006B000626948F62010C1F20000BDE81040104702
:1006C00010BD00BFB0B540F62C05C1F20005297879
:1006D000002918BFB0BD0446C00715D048F6201148
:1006E000C1F2000100204FF400720BF023FF01283B
:1006F0000ADB01464FF65000C1F20040426948F65D
:100700002010C1F200009047A00701D4B0BD00BF87
:10071000E8684FF4007100F500724FF65000C1F226
:100720000040836948F22070C1F20000EA60BDE831
:10073000B04018474FF65000C1F20040446AC56A05
:1007400040F62C0648F22078C1F20006C1F20008FB
:1007500003E000BF0A200AF085F9A8478007F9D511
:10076000F768A04731693844421AB2F5F07F07DBD9
:10077000F0684FF4F072A0F5F070306102E000BF55
:10078000012AE7DB306931696FF35F20C0F5007043
:100790006FF35F218242C8BF0246414400200BF044
:1007A00049FF0128D6DB316908443061D2E700BF38
:1007B00010B540F62C00C1F200000078002818BFE8
:1007C00010BD4FF65000C1F20040846A182000218D
:1007D000A047192000212246BDE81040104700BF65
:1007E000B0B540F62C05C1F20005A968044621B950
:1007F00000200AF033FA0146A86008464FF0FF31A6
:100800000AF01AFA287801280CD1D4F803002168DC
:10081000C5F8170069610124A8680AF031FA20467A
:10082000B0BD00BF2046FFF7BBFE0446A8680AF033
:1008300027FA2046B0BD00BF014640F62C00C1F2A9
:100840000000D0F8172043690120C1F803200B6095
:10085000704700BF012070474EF660214843401E9C
:10086000FDD17047FF224FF001100A70704700BFA2
:100870002DE9F04F89B0814690F900000D46B0F1A6
:10088000FF3FC0B208DC9F2806D84846294609B079
:10089000BDE8F04FFFF7E6BFAA460AF8010B4E4647
:1008A00016F8010B232800F2BF82DFE810F02500C4
:1008B000450057007500A100B9006902BD02C502DC
:1008C000E302F702BD02BD02BD02BD02BD0201038B
:1008D0003F0353036F037D03B503CD03F103FB0314
:1008E00005040F04190423042D04770481048B04E8
:1008F00095049F04A90400BF3278A91CA2F1F0035B
:100900000F2B4FF0000001F29D80DFE813F01F096C
:1009100023093709370937093709370937093709EB
:10092000370937091100110029092F09330900BFC0
:100930004FF4806001F016B93078012800F0A182F0
:10094000002840F0818499F8020044F2080100F088
:100950000100C4F20F01087093E200BF317800205B
:10096000002908BF0121022900F07084012940F00C
:100970007E8440F64801C1F200010120087146F270
:100980000011C4F20F01002241F8802C6FF40072B4
:1009900041F87C2C00F06BBC40F64800C1F200002E
:1009A0000021017146F20010C4F20F004FF4805292
:1009B000C0F800214FF40072C0F804214FF4807297
:1009C000C0F804214FF40052C0F8002150F8EC2C7C
:1009D000012422F0200240F8EC2C4022C0F894219F
:1009E0008AF8001004F1011009B0BDE8F08F00BFD3
:1009F00099F8010040F64801C1F200010874B9F805
:100A0000020001248882B9F80400C0F20504C882FB
:100A100000208AF8000004F1011009B0BDE8F08F51
:100A200040F6480BC1F2000B9BF80400022800F0CE
:100A30002784012840F014864FF000088BF80080CE
:100A400099F80230E81C0790002B09F103074FF0DA
:100A5000000001F0AC8404904FF0000E0020002153
:100A60009846B9460691059319F8014BA10713D48E
:100A7000BEF1000F52D00397BBF814700E2008A9E6
:100A800002F086FFC7B3022836D19BF80000013F71
:100A90000028F3D001F094B8BEF1000F2AD00397DC
:100AA000BBF8147004F011000128029010D1013736
:100AB000204608A902F06CFF02285FD1013F01F037
:100AC0007F809BF800000028F2D001F079B800BFC9
:100AD0000E2008A902F05CFF002F4FF0000E4FD04F
:100AE00002284DD19BF80000013F0028F0D001F012
:100AF00013B900BF002368E0012841F06D84DDE9EF
:100B0000071008700898000A4870BDF82200887025
:100B10009DF82300C870081D0790039FD7F80100B7
:100B2000A10607F10509089010D4BBF814702046FF
:100B300008A902F02DFF7FB102280DD19BF800001B
:100B4000013F0028F3D001F0E7B800BFCBF8180050
:100B50004FF0000E0120ECE0012841F04184200616
:100B600005D5DBF80C00079941F8040B07914FF00D
:100B7000000E012001210491DBE000BF4FF0010EC7
:100B8000012841F0CC80DDE90710029B087008982D
:100B9000039F000A4870BDF822000A1D88709DF866
:100BA0002300012BC8700DD1200605D50799DBF86D
:100BB0000C0001F108024860002101200123079286
:100BC00004E000BF0023012007920121E206039305
:100BD00014D45F46BBF814B0E2072BD1204608A915
:100BE00002F0D6FEBBF1000F38D0022836D138789B
:100BF000ABF1010B0028F1D001F0E4B9D7F8010006
:100C000007F105090290BBF816000190E00750D0EB
:100C1000BBF814702046002102F0BAFE002F43D02A
:100C2000022841D19BF80000013F0028F2D001F0DA
:100C30006FBA00BF002977D02046002102F0A8FE3D
:100C4000BBF1000F00F08680022840F083803878E6
:100C5000ABF1010B0028EFD001F0B4B9012841F04D
:100C6000B281DDF80CE02006BB4605D5DBF80C00B0
:100C7000079941F8040B0791DDE90710059B0A4627
:100C800002F8040B08981146000A02F8030CBDF89C
:100C90002200079202F8020C9DF8230002F8010CD2
:100CA00000200490012045E0DDF80CE0012841F02F
:100CB0003680BBF81470204608A902F069FE3FB1E7
:100CC000022805D19BF80000013F0028F3D017E06F
:100CD000012816D1019BDDF80CE04FF0010093B123
:100CE0000899DBF818201140029A91420BD09BF82A
:100CF0000000013B00280193DBD0012001E000BF90
:100D00000220DDF80CE00899DBF818201140029A67
:100D1000914218BF40F01000012841F000800020EF
:100D20000490012005E000BF002104914FF0010E66
:100D3000BB46059B9BF800100029069901F10101B3
:100D4000069140F0EC87B8F101084F467FF48CAE75
:100D500001F028BB012841F03681200604D4002090
:100D600004900120E2E700BFF8680799BB4641F80C
:100D7000040B00200791049001204FF0010ED8E7EA
:100D800040F64807C1F200073879022800F086844F
:100D9000012840F0DF8400223A70B9F8021005F112
:100DA000040B002900F0B08599F80440A00700F179
:100DB000ED8600200DF12008CDF814B007900491C5
:100DC00056F8040FBB46BF8A0139069108902046A9
:100DD000414602F0DDFD4FB1022807D19BF800002B
:100DE000013F0028F3D000F0E5BE00BF06990128BE
:100DF00040F0E1860798002900F101005F46079066
:100E0000DED1B88A441C0E20002102F0C1FD022868
:100E100041F0EB82013C01F0E782387800284FF086
:100E20000200F0D001F0E1BAFF2028704FF001106D
:100E300009B0BDE8F08F00BF40F64800C1F20000E5
:100E40000179022900F08E84012940F09B84D9F8B1
:100E500002000124089008A90020C0F20504002522
:100E600002F096FD8AF8005004F1011009B0BDE8C7
:100E7000F08F00BFB9F80100C0EB00108000401EE9
:100E8000FDD100208AF800000120C0F20500A0F585
:100E9000403404F1011009B0BDE8F08F0020A5F83E
:100EA0000100022404F1011009B0BDE8F08F00BF79
:100EB00099F8023099F80140D9F8032046F2001061
:100EC00013F00109C4F20F0007D0E1074FF480517D
:100ED0000CBFC0F88011C0F8001113F0020E08D04A
:100EE000A6074FF482764FF4007558BF4FF4C276D0
:100EF000855113F0040B1EBF4FF4FC2505EAC425F1
:100F0000C0F8805013F08001079100F00A85250693
:100F100000F1FE844025C0F8145150F8EC5C45F017
:100F2000200540F8EC5C00F0FCBC00BFD9F80100E3
:100F3000002800F071814AF24051C0F2AE2188428F
:100F4000C0F0248440F64801C1F20001012048713C
:100F500000F033BC99F8014009F10201002C08BFF0
:100F60004FF48074204602F07BFC00208AF80000D9
:100F70004FF4604000EB44303FFA80F000F1011480
:100F800004F1011009B0BDE8F08F00BF307840F6E1
:100F9000480200F003010131C1F20002C0F38000F9
:100FA00011775077002062E100208AF8000096F85F
:100FB00000A0BAF1000F00F0318109F102040235FE
:100FC0004FF001084FF0010914F8016B2A4616F0A2
:100FD0003F0000F107004FEAD00730462146AAF152
:100FE000010A08BF082701F0BFFA09EB070016F055
:100FF00080013C441CBF3D44B844BAF1000F00F1ED
:101000000109E1D14FEA094048EA000404F1011066
:1010100009B0BDE8F08F00BF96F8008040F6480B9D
:10102000C1F2000BB8F1000F8BF81E8000F0608455
:10103000A8F1010CBCF1030F08F0030E80F0D0837F
:1010400000240023F0E300BF40F64800C1F2000096
:101050000179022940F0DE803178827FC1779142A8
:1010600080F0D8800E2001F063FC01F0F1FA00213D
:101070006970010AA870E970010C000E052429713D
:101080006871C0F2010404F1011009B0BDE8F08FED
:101090003046514603F0ACFF044604F1011009B09C
:1010A000BDE8F08F3046514603F0BAFF044604F124
:1010B000011009B0BDE8F08F3046514603F0D8FF6B
:1010C000044604F1011009B0BDE8F08F30465146E6
:1010D00003F0E6FF044604F1011009B0BDE8F08F0B
:1010E000504604F021F8044604F1011009B0BDE8AF
:1010F000F08F00BF3046514604F00CF9044604F16D
:10110000011009B0BDE8F08F00208AF800003678A1
:10111000002E00F08F8009F1020405F1020B4FF060
:1011200001094FF4807A012705E000BF78192C44AB
:10113000471C013E2AD014F8010B46F2001210F0B1
:101140003F0101F107014FEAD1054FF4C27108BF19
:10115000082510F0800808BF4FF48271C4F20F0216
:1011600042F801A021465A4602F0ACFB012E02BF14
:1011700046F20010C4F20F00C0F804A1B8F1000F4D
:10118000D4D00137AB44A944013ED4D149EA074445
:1011900004F1011009B0BDE8F08F00BF30465146A0
:1011A00004F016F8044604F1011009B0BDE8F08F10
:1011B0003046514604F02EFA044604F1011009B0FD
:1011C000BDE8F08F3046514604F038FB044604F188
:1011D000011009B0BDE8F08F3046514604F0AAFC7A
:1011E000044604F1011009B0BDE8F08F30465146C5
:1011F00004F072FB044604F1011009B0BDE8F08F61
:10120000504604F037FC044604F1011009B0BDE873
:10121000F08F00BFFF202AE0FF20D4E24FF001084A
:101220004FF4803048EA000404F1011009B0BDE831
:10123000F08F00BF01274FF0010949EA074404F18C
:10124000011009B0BDE8F08FFF201BE640F6480111
:10125000C1F2000102220A7146F20011C4F20F012C
:1012600041F87C0C6FF4005041F8800C02208AF8A1
:1012700000004FF0011404F1011009B0BDE8F08F37
:1012800000248BF8004099F801009BF81E1005F12E
:10129000030E88428BF81F0080F0E08399F802105B
:1012A00009F10307002900F02F850020079005228F
:1012B0004FF0000C0020894605900291BB461BF8B8
:1012C000014B2346A00762F35F0323D4BCF1000F58
:1012D0006BD00397CDF818E0079898460A2802D0FB
:1012E0000A2001F025FB40F64800C1F20000878A81
:1012F0000E2008A901F000FDE7B302283AD140F61C
:101300004800C1F200000078013F0028F0D000F052
:10131000E9BD00BFBCF1000F049327D040F64800A0
:101320000799C1F20000B0F8148081EA030004F0CC
:101330001002104300920190CDF818E060D103979D
:1013400008F10107204608A901F0D6FC022840F068
:101350008380013F00F0C88540F64800C1F20000DC
:1013600000780028EED000F0BFBD00BF04F01000F0
:101370009EE000BF012841F03B8043460898DDF81D
:1013800018800A2188F8000008980791000A88F858
:101390000100BDF82200039F88F802009DF8230099
:1013A00088F8030008F104008646D7F8010040F6EB
:1013B0004808A10607F10507C1F20008089019D4F2
:1013C000CDF818E004930798BB46984202D00498E1
:1013D00001F0AEFAB8F81470204608A901F08CFCB0
:1013E00057B3022828D198F80000013F0028F3D015
:1013F00000F088BEC8F818004FF0000C1AE100BFDA
:101400000A2902D00A2001F093FA0E2008A901F05F
:1014100073FC0A22B8F1000F4FF0000C20D0022814
:101420001ED140F64800C1F200000078A8F1010882
:101430000028EAD000F078BE012840F0E587DDF80A
:1014400018E02006049944BFD8F80C004EF8040BAD
:101450005F464FF0000CECE0039F079A4FF0010C41
:101460000128079240F06B860898DDF818C00199B2
:101470008CF800000898B1FA81F1000A8CF801009C
:10148000BDF8220049098CF802009DF82310049B46
:101490000CF104008CF8031008D0210600F1AE8096
:1014A0004FF0010C86465F46A2E000BF86460098DA
:1014B000CDF818E040B3D7F80100B846039040F6E5
:1014C0004800C1F20000B0F816B00798984202D068
:1014D000049801F02DFA40F64800C1F20000878A16
:1014E00008F105082046002101F006FC57B3022848
:1014F00028D140F64800C1F200000078013F0028E2
:10150000F0D000F009BE00BF07989846984202D07C
:10151000404601F00DFA40F64800C1F20000878A0B
:101520002046002101F0E8FB002F55D0022853D1BE
:1015300040F64800C1F200000078013F0028EFD0DB
:1015400000F0F8BD012840F0638740F64803C1F27F
:1015500000039F8A204608A901F0CEFB57B102285C
:1015600008D140F64800C1F200000078013F002891
:10157000F0D019E0012818D1BBF1000F4FF00100A5
:10158000474667D040F64803C1F2000308999A69BC
:101590001140039A91420DD01878ABF1010B00284D
:1015A000D7D0012005E000BF022040F64803C1F279
:1015B0000003474608999A694FF0000C1140039ABE
:1015C000914218BF40F01000DDF818E0049901289E
:1015D00040F0228798462CE0012840F02187DDF872
:1015E00018E02006414619D44FF0010C5F460791E0
:1015F00040F64808C1F200081CE000BF40F6480869
:10160000C1F20008D8F80C005F46CCF804000CF1D9
:1016100008004FF0010C86460CE000BF40F6480879
:10162000C1F20008D8F80C004FF0010C4EF8040B82
:101630005F460791059998F800000131002805914F
:1016400040F0C486B9F101094FF005027FF436AECF
:1016500000F0C0BE40F64803C1F20003AAE700BF95
:1016600099F8020009F10301002800F02F8410F01E
:101670000303A0F1010C00F0E98399F8037009F16C
:101680000804F906214658BF09F10401BF0758BFF5
:101690002146012B40F028836046D7E300223A70B0
:1016A0003078B97F05F1040B8842F87780F02C81FF
:1016B000B9F802000028069000F02A8399F8048007
:1016C00008F0010004900A3001F032F95FEA8870F6
:1016D00000F13E830020CDF80CB00790069908ACCD
:1016E00056F8040FBB46BF8A013905910890404661
:1016F000214601F001FB3FB1022805D19BF8000013
:10170000013F0028F3D035E30599012840F03383E9
:101710000798002900F101005F460790E0D1049886
:1017200010B10A2001F004F9BBF81400441C0E208B
:10173000002101F0E1FA022840F06186013C00F04E
:101740005D869BF8000000284FF00200EFD000F00B
:1017500056BE00BF0020A5F80100E870032000F08D
:1017600004BE00BF3178827FC177914280F07C81D6
:10177000082001F0DDF8D9F8020000F0F1FF0020A8
:1017800073E100BF0124FF2070E100BF44F67F2118
:10179000C0F25D510144B1FBF0F14AF6AB20CAF64C
:1017A000AA20A1FB000240F64800C1F2000000237D
:1017B00043710120022988BF500840F64801C1F258
:1017C0000001886000208AF800000120C0F20500B6
:1017D000A0F5803404F1011009B0BDE8F08F00BF1E
:1017E00008F0FC070024002309EB0406B5780BEB96
:1017F00004010BEB440081F820500385F2782B4460
:1018000081F82120438535791A4481F82250828558
:1018100073792A44043481F82330A7421344C285E3
:10182000E2D109EB0400461CBEF1000F1ED0707817
:101830000BF11E073919887007EB44014B81BEF18B
:10184000010F034412D0601CB1783A1807EB400036
:1018500091704381BEF1020F0B4407D0A01CF178B8
:101860003A1807EB4000917043810B44BCF1030F21
:1018700002D200271CE000BF08F0FC0600270BEB9B
:10188000070090F820100BEB4702591A118790F8C7
:1018900021300437C91A518790F82230BE42A1EB9B
:1018A0000301918790F82300A1EB0003D387E6D1D1
:1018B000BEF1000F1CD00BF11E02D0198078BEF1D2
:1018C000010FA3EB000302EB4700438310D0781C09
:1018D0001118897802EB40005B1ABEF1020F4383B6
:1018E00006D0B81C1118897802EB4000591A4183C0
:1018F00000208AF800004FF0011000EB084404F1CA
:10190000011009B0BDE8F08F002000F028BD00BF35
:1019100050F8EC5C25F0200540F8EC5C4025C0F860
:101920009451002A00F0628203F02003B3FA83F39B
:101930005F094CF2C06341F20401C0F22D03CEF204
:1019400000019A4238BF1346B42204F0E00C5A4317
:101950000B68BCFA8CF14909E6094FEA5408A5085E
:10196000B9F1000F47EA01073ED1BEF1000F40F088
:10197000878041F20404BBF1000FCEF2000440F076
:101980002381002F00F00E820799002900F02E829B
:101990004169C1F340118E4200F028822168C91AC2
:1019A000914280F023824169C1F340118E4200F0E0
:1019B0001D822168C91A914280F018824169C1F3E1
:1019C00040118E4200F012822168C91A914280F0C3
:1019D0000D824169C1F340118E4200F007822168F7
:1019E000C91A9142D4D301E2BEF1000F40F07E80CB
:1019F000AC4641F20405CEF2000504E02968C91A9C
:101A0000914280F0F3810168C1F30031A142F5D128
:101A1000BBF1000F02D1002FF0D009E00168C1F343
:101A20004031ACEB0101B1FA81F149090F42E5D037
:101A30000799002900F0DA814169C1F340118E4213
:101A4000DCD1D3E1042A40F099803020888042F62E
:101A50003260C2F63160086006208FE009F10207AB
:101A6000002000F028BC00BFFF200124C0F20504C4
:101A70008AF8000004F1011009B0BDE8F08F00BF42
:101A800041F20404BBF1000FCEF2000440F0E48008
:101A9000EFB941682168C91A914280F0A781416875
:101AA0002168C91A914280F0A18141682168C91A50
:101AB000914280F09B8141682168C91A9142E8D324
:101AC00094E100BF2168C91A914280F08F8141687A
:101AD000C1F340218845F5D10799002900F086819E
:101AE0004169C1F340118E42ECD17FE1B44641F22D
:101AF0000406CEF2000604E03168C91A914280F073
:101B000075810168C1F30031A142F5D14168C1F38B
:101B100040218845F0D1BBF1000F03D1002FEBD05D
:101B200009E000BF0168C1F34031691AB1FA81F1DF
:101B300049090F42E0D00799002900F05781416917
:101B4000C1F340118C45D7D150E100BF40F2F710EE
:101B500012E000BF49F20050C0F6BA2002E000BF18
:101B60004FF40050C5F80200042007E00820087078
:101B7000012003E04FF40070688002208AF8000022
:101B800000F1021009B0BDE8F08F00BFE00700F0DF
:101B9000B281BE8A88462046002101F0F9FE002E5F
:101BA00000F0A681022840F0A3813878013E002889
:101BB000F1D0DCE00220DDF814B0079ACFE300BFDB
:101BC0004FF0010EAAE000BFFFB9079961BB0168A1
:101BD0002168C91A914280F0098101682168C91AF7
:101BE000914280F0038101682168C91A914280F016
:101BF000FD8001682168C91A9142E8D3F6E000BF70
:101C00002168C91A914280F0F1800168C1F3403126
:101C10008D42F5D10799002900F0E8804169C1F3B0
:101C200040118E42ECD1E1E001682168C91A91426D
:101C300080F0DC8001682168C91A914280F0D6806A
:101C400001682168C91A914280F0D080016821683A
:101C5000C91A9142E8D3C9E08FBB4168C1F3402162
:101C6000884508BF01682168C91A914280F0BE808A
:101C70004168C1F34021884508BF01682168C91A3D
:101C8000914280F0B3804168C1F34021884508BF8C
:101C900001682168C91A914280F0A8804168C1F3A7
:101CA0004021884508BF01682168C91A9142D4D3F0
:101CB0009CE000BF2168C91A914280F0978041687A
:101CC000C1F340218845F5D10168C1F340318D420F
:101CD000F0D10799002900F089804169C1F34011D2
:101CE0008E42E7D182E000BF0F4617F8014B4A1D34
:101CF000E10648BF1746A107394658BF1146022BD7
:101D000040F098800238A1E000240020D3E200BF18
:101D10000022002023E300BF4FF0000E0220B8F1A4
:101D2000000F00F0A98118F00302A8F1010C00F0E7
:101D30005D8109F1050319F8017BF90648BF994651
:101D4000B90758BF9946012A1AD1E0464EE100BFB3
:101D5000BC8A4046002100F0CFFF002C00F0FE803E
:101D6000022840F0FB803878013C0028F1D00220A6
:101D70000022F4E20220DDF80CB0079AEFE200BF87
:101D8000494611F8013B09F10507DC0648BF394611
:101D90009B07894658BFB946022A40F01981A8F12D
:101DA000020823E1079989B92168C91A91421DD215
:101DB0002168C91A914219D22168C91A914215D2D3
:101DC0002168C91A9142EFD310E000BF2168C91AF7
:101DD00091420BD22168C91A914207D22168C91ACF
:101DE000914203D22168C91A9142EFD30168426837
:101DF0000223C1F3003103EA1222114402680423D2
:101E000003EAD222114442680823406903EA12120D
:101E1000114400F0200041EA80008AF8000001200F
:101E2000C0F2050000F5803404F1011009B0BDE8EE
:101E3000F08F00BF0A4612F8013B0531DF0648BFAC
:101E40000A469B0758BF0A4603381146BCF1030FE8
:101E50003CD30A784C1D02F0020312F010024FF03E
:101E60000502274604BF01224F1C002B08BF052294
:101E7000895C08BF274601F002027C1D11F01001A9
:101E80004FF00501234604BF01217B1C002A08BF37
:101E90000521795C08BF234601F002025C1D11F0A8
:101EA00010014FF00501274604BF01215F1C002AE5
:101EB00004BF052127465A5C7B1DD106194658BF31
:101EC000791C920758BF19460438C2D10020A5F8E2
:101ED0000100881B0004841C04F1011009B0BDE856
:101EE000F08F00BF0A2007904FF0010C022026E17E
:101EF0000128414664D1002008AE07900491E00714
:101F0000204618BF0E20B7F8148001390691002929
:101F100008BF04462046314601F03AFDB8F1000FF3
:101F200008D0022806D13878A8F101080028F1D09D
:101F300010E000BF012840F0118208984BF8040B14
:101F4000079801300790069901200029D7D1049AFB
:101F500005E200BF079A022001E200BF01282FD14D
:101F6000049800280698A0F101014FF0000040F00D
:101F7000CB810790BC8A46460591002908BF0E26F2
:101F8000304608A900F0B8FE44B1022806D13878DE
:101F9000013C00284FF00200F2D0DFE1012840F0C0
:101FA000DD8108984BF8040B0798013007900598DD
:101FB0000028A0F101014FF00100DBD1CBE100BF0F
:101FC0000022CCE10220DDF80CE0BB46A7E600BF12
:101FD000494611F8012B09F10503D70648BF1946F8
:101FE000920758BF1946A8F103088946BCF1030FB0
:101FF00042D399F8001009F1050701F0020211F02F
:1020000010014FF005013B4604BF012109F1010316
:10201000002A08BF052119F8011008BF3B4601F04E
:1020200002025C1D11F010014FF00501274604BFAC
:1020300001215F1C002A08BF0521595C08BF274603
:1020400001F002027C1D11F010014FF00501234642
:1020500004BF01217B1C002A04BF05212346795CB3
:102060005A1DCF06914658BF03F10109890758BF91
:102070009146B8F10408BCD1DDF818804F4601281C
:1020800040F09581BEF1000F12D0B946BBF8147034
:1020900008AC0E20214601F07BFCFFB102281DD1C7
:1020A0009BF80000013F0028F3D002204F467EE15C
:1020B000049858B3BBF81400441C0E20002101F012
:1020C00067FC022840F07381013C00F01B819BF803
:1020D000000000284FF00200EFD068E101284F46D1
:1020E00040F06581DDE9071008700898000A487023
:1020F000BDF8220088709DF82300C87004310120CB
:10210000079154E14FF0000C022009E001204EE15C
:10211000DDF80CE002E600BF4FF0000C0220C346E1
:10212000049907910BE000BF0A2007904FF0000CC4
:10213000022004E04FF0000C0220CDF81C80DDF8F6
:1021400018E0B9F1000F7AD0E04619F00302A9F1C6
:10215000010C2DD00BF105031BF8017BF90648BFDC
:102160009B46B90758BF9B46012A01D1E1461FE0B3
:10217000594611F8013B0BF10507DC0648BF39460B
:102180009B078B4658BFBB46022A03D1A9F102091F
:102190000EE000BF594611F8012B0BF10503D706DD
:1021A00048BF1946920758BF1946A9F103098B4643
:1021B000BCF1030FC44642D39BF800100BF1050796
:1021C00001F0020211F010014FF005013B4604BF7F
:1021D00001210BF10103002A08BF05211BF80110A2
:1021E00008BF3B4601F002025C1D11F010014FF0E8
:1021F0000501274604BF01215F1C002A08BF0521F5
:10220000595C08BF274601F002027C1D11F0100145
:102210004FF00501234604BF01217B1C002A04BFA7
:1022200005212346795C5A1DCF06934658BF03F11A
:10223000010B890758BF9346B9F10409BCD1059C2D
:1022400001285F4637D1CDF818E00798B9460A282B
:1022500004D00A20674600F06BFBBC4640F64808F5
:10226000C1F20008B8F81470A346BCF1000F0FD0FB
:1022700008AC0E20214600F03FFD4FB3022827D1C5
:1022800098F80000013F0028F3D002200FE000BFC3
:102290007C1C0E20002100F02FFD022807D1013CFC
:1022A000F3D098F8000000284FF00200F1D0DDF8DC
:1022B00018E05C464F46A870B81BAEEB0A016C7084
:1022C00041EA004404F1011009B0BDE8F08F00BFFD
:1022D00001285C464F4611D10898DDF81890A9F8FE
:1022E0000000BDF8220009F1040189F802009DF800
:1022F00023008E4689F803000120DCE7DDF818E0B2
:10230000D9E700BF022052E008AC0790059121B93F
:102310000A2000F00DFB4FF00E08BE8A4046214611
:1023200000F0EAFC46B1022806D13878013E0028C8
:102330004FF00200F2D011E001280FD108984BF8BD
:10234000040B07980130079005980028A0F10101BF
:102350004FF00100DAD1069A01E000BF079A110A96
:102360006A70A970E870ABEB0A0099F8041089074D
:1023700010D499F8031099F80220890641EA8241A5
:1023800001F5802141EA000404F1011009B0BDE823
:10239000F08F00BF40F4802404F1011009B0BDE8C3
:1023A000F08F00BF98464F4601283FF46BAE079967
:1023B000A870B81BA1EB0A0185F8018041EA00442E
:1023C00004F1011009B0BDE8F08F00BF0120BB4649
:1023D000B7E600BF029C36E74FF0010E9FE400BF56
:1023E0004FF0000E9BE400BF0220DDE9042BB6E7AE
:1023F0000A2107914FF0010CA1E600BF0220069AC6
:10240000DDF80CB0ABE700BF4FF0000C88E600BF72
:102410004FF0000C83E600BFBB46079191E600BF7A
:102420004FF0000C89E600BFF0B581B002787F2A3A
:1024300018D17F220A7047784F70CFB18D1C861C4F
:102440004FF0021430462946013FFEF711FA0444CA
:1024500006EB1046002F15FA80F5F3D1204601B0A7
:10246000F0BD00BF01B0BDE8F040FEF701BA00BF0B
:102470004FF00214204601B0F0BD00BF40F6480105
:10248000C1F20001582300228B60642341F2144002
:10249000C1E905320123C4F205008A800A748B83E6
:1024A0008A77032140F8041C0168C90709D1016833
:1024B000C90704BF01685FEAC17102D10168C90799
:1024C000F2D046F28400C4F2080050214422016494
:1024D0004161016141644163C0F890205422C0F819
:1024E0009420016046F20000C4F20F004FF48051C6
:1024F000C0F800124FF40071C0F804124FF480725B
:102500004FF40051C0F80422C0F8001220214023EB
:10251000C0F89412C0F89432036843F48053036007
:10252000436843F400734360436843F4807343603B
:10253000036843F400530360436823F0800343605F
:10254000436923F020034361436943F0400343613F
:10255000C0F88022026842F4807202604EF20840A5
:10256000CEF20000017070472DE9F04310F03F0CEF
:1025700008BF4FF0400C470646F204134FF4807733
:10258000C4F20F0358BF4FF4C0774FF40076000633
:10259000FE5025D440F64C024FF48050C1F20002A8
:1025A00003E000BFBCEB050C50D011F8017BACF18F
:1025B000010600247D03DD67C3F87C0155686D1EAC
:1025C000FDD11D68C3F8FC0055686D1EFDD1A64203
:1025D00004F10105E6D07F08072C2C46EAD1E1E79B
:1025E00040F64C084FF4805EC1F200080BE000BFDB
:1025F000C0F1080426FA04F4BCEB000C02F8014B0D
:1026000008BFBDE8F08311F8014BACF101090027C8
:10261000002600BF6003D867C3F87CE1D8F8040047
:10262000401EFDD11868C3F8FCE0D8F8045000F053
:1026300080006D1EFDD140EA5606B94507F1010044
:10264000D6D06408072F0746E4D1D1E7BDE8F08370
:10265000B0B546F20021C4F20F014FF400724FF4FE
:10266000805040F64C0C4A60C1F88000C1F2000C6A
:10267000DCF804305B1EFDD10860DCF804305B1E22
:10268000FDD1C1F88420C1F88000DCF80420521E7E
:10269000FDD10860DCF80420521EFDD1C1F8800095
:1026A000DCF80420521EFDD10860DCF80420521E24
:1026B000FDD19CF81B2062B1C1F88000DCF8043029
:1026C0005B1EFDD10860DCF804305B1EFDD1013AD1
:1026D000F2D100236FF01E02C1F88000DCF8044044
:1026E000641EFDD151F8FC4C0860DCF804506D1EEE
:1026F000FDD104F0800543EA056301324FEA53033C
:10270000EAD34FF400704FF480524860C1F8802043
:10271000DCF80440641EFDD151F8FC5C0A60DCF872
:102720000440641EFDD1C1F88020DCF80440641E22
:10273000FDD10A60DCF80440641EFDD1C1F88400BC
:10274000C1F88020DCF8044005F08005641EFDD14E
:102750000A6043EA0560DCF80410491EFDD1B0BDF3
:1027600010B546F20021C4F20F014FF400724FF48D
:10277000805340F64C0C4A60C1F88030C1F2000C26
:10278000DCF80440641EFDD10B60DCF80440641EDC
:10279000FDD1C1F88420C1F88030DCF80420521E3D
:1027A000FDD10B60DCF80420521EFDD1C1F8803051
:1027B000DCF80420521EFDD10B60DCF80420521E10
:1027C000FDD19CF81B2062B1C1F88030DCF80440D8
:1027D000641EFDD10B60DCF80440641EFDD1013A9B
:1027E000F2D1002241F8802CC1F88030DCF80420BE
:1027F000521EFDD10B60DCF80420521EFDD1C1F841
:102800008030DCF80420521EFDD10B60DCF804207F
:10281000521EFDD1C1F88030DCF80420521EFDD1DB
:102820000B60DCF80420521EFDD16FF01E0200BFC9
:10283000440341F8804CC1F88030DCF80440641E49
:10284000FDD10B60DCF80440641EFDD101324FEA7B
:102850005000EDD39CF81B209CF81A30D44314EBA5
:10286000030E31D0400341F8800C4FF48050C1F882
:102870008000DCF80440641EFDD10860DCF80440F0
:10288000641EFDD1BEF1010F0FD0D21A023200BF7B
:10289000C1F88000DCF804305B1EFDD10860DCF874
:1028A00004305B1EFDD10132F2D34FF400724A6056
:1028B000C1F88000DCF80420521EFDD10860DCF86D
:1028C0000400401EFDD112E04FF4007240034A6044
:1028D00041F8800C4FF48050C1F88000DCF80420EF
:1028E000521EFDD10860DCF80400401EFDD14FF4FB
:1028F0008050C1F88000DCF80420521EFDD1086031
:10290000DCF80420521EFDD14FF40072C1F884207F
:10291000C1F88000DCF80420521EFDD10860DCF80C
:102920000400401EFDD14FF4005041F8800C10BD52
:10293000F0B540F64C02C1F20002577846F2002191
:10294000C4F20F014FF400754FF480534D60C1F88D
:1029500080309FB30B60C1F880300B60C1F88450A9
:10296000C1F880300B60C1F880300B604FF4005329
:1029700041F8803C92F81BE002EB4E0CBCF824506E
:10298000002D00F0BB8015F00306A5F1010400F056
:10299000A1804FF48057012E2346C1F880700F604C
:1029A00000F09980022EC1F880700F6040F008811D
:1029B000AB1E032C80F09180A0E000BF5468641E21
:1029C000FDD10B605468641EFDD1C1F8803054689D
:1029D000641EFDD10B605468641EFDD1C1F88450A3
:1029E000C1F880305468641EFDD10B605468641EC9
:1029F000FDD1C1F880305468641EFDD10B6053686E
:102A00005B1EFDD14FF4005341F8803CD37E02EBB6
:102A10004307BD8C75B14FF4805300BFC1F88030BF
:102A20005468641EFDD10B605468641EFDD1013DE5
:102A3000F4D1D37ED7183F7F012F15D07B424FF4BE
:102A4000805500BF470341F8807CC1F8805054682E
:102A5000641EFDD10D605468641EFDD101335F1CFE
:102A60004FEA5000EED1D37E02EB43039B8E002B46
:102A700000F06880400341F8800C4FF48050C1F8AA
:102A800080005468641EFDD108605468641EFDD146
:102A90004FF40057012B41F8807C0DD05B4200BF02
:102AA000C1F880005468641EFDD108605468641E3B
:102AB000FDD101335F1CF3D14FF400734B60C1F8BB
:102AC000800053685B1EFDD108605068401EFDD138
:102AD00049E000BF2B46032C10D34FF4805400BFB5
:102AE000043BC1F880400C60C1F880400C60C1F824
:102AF00080400C60C1F880400C60F1D17244147FBA
:102B0000631E17D013F00305A4F1020E14D0420384
:102B100041F8802C4FF48053012D4FEA5002C1F848
:102B200080300B603CD173461046BEF1030F80F03D
:102B30005F8084E0024682E0BEF1030F80F058809F
:102B40007DE000BF4FF4007340034B6041F8800C00
:102B50004FF48050C1F8800053685B1EFDD10860BF
:102B60005068401EFDD14FF48050C1F8800053687A
:102B70005B1EFDD1086053685B1EFDD14FF40073EE
:102B8000C1F88430C1F8800053685B1EFDD1086035
:102B90005068401EFDD14FF4005041F8800CF0BD4C
:102BA000520341F8802C022D4FEA9002C1F8803088
:102BB0000B600FD1E31E1046BEF1030F18D23EE0AA
:102BC0004FF48053C1F880300B60EB1E032CBFF430
:102BD00084AF93E7520341F8802C4FF48052C1F840
:102BE00080200A60C208231F1046BEF1030F26D3BF
:102BF0004EF2000E4FF48054CFF6FF7E024600BF27
:102C0000500341F8800C0EEA0230C1F880400C609D
:102C100041F8800C0EEAC220C1F880400C6041F8F7
:102C2000800C0EEA8220043B4FEA1212C1F8804069
:102C30000C6041F8800CC1F880400C60E0D1BCF819
:102C400034300BB3500341F8800C4FF48050C1F87E
:102C5000800008604FF40052581E41F8802C33D099
:102C600010F00306A3F102021CD04FF48057012E8E
:102C70001046C1F880700F6014D0022EC1F8807029
:102C80000F6009D1D81E0DE04FF40070486050036A
:102C900041F8800C1BE000BF4FF48050C1F8800069
:102CA0000860181F032A0FD34FF480520438C1F86C
:102CB00080200A60C1F880200A60C1F880200A6084
:102CC000C1F880200A60F1D14FF4007048604FF4E1
:102CD00080504FF40072C1F880000860C1F8800095
:102CE0000860C1F88420C1F8800008604FF40050EB
:102CF00041F8800CF0BD00BF2DE9F04F9DB040F6CB
:102D00004C02C1F20002567846F200234EF2000C4B
:102D10008346C4F20F034FF400704FF48057CFF690
:102D2000FF7C5860C3F8807056B31F60C3F88400FE
:102D3000C3F880701F60C3F880701F6092F81BE0BA
:102D4000BEF1000F00F0F0801EF00300AEF10106AE
:102D500000F0D6804FF4805501283746C3F88050E4
:102D60001D6000F0CE800228C3F880501D6040F046
:102D70009583AEF10207032E80F0C580D4E000BF3A
:102D800055686D1EFDD11F6055686D1EFDD1C3F8DD
:102D90008400C3F880705068401EFDD11F605068E9
:102DA000401EFDD1C3F880705068401EFDD11F60E9
:102DB0005068401EFDD1D07E68B14FF4805700BFEF
:102DC000C3F8807055686D1EFDD11F6055686D1E7B
:102DD000FDD10138F4D10CEA0B304FF4805743F8A1
:102DE000800CC3F880705068401EFDD153F8FC0C75
:102DF0001F6055680CEACB266D1EFDD143F8806C30
:102E0000C3F8807055686D1EFDD1022653F8FC5C36
:102E10001F60546806EA90100CEA8B26641EFDD1F0
:102E200043F8806CC3F880705468C5F3C016641E04
:102E3000FDD153F8FC5C1F6030440426546806EA58
:102E40005516641EFDD100EB0608B8F1010F40F0E5
:102E500049805FEA8B7000F1D58209686FF01E002F
:102E60004FF480574E0343F8806CC3F88070546869
:102E7000641EFDD11F605468641EFDD101304FEA0D
:102E80005101EFD3D07E977EC643F61900F02E8312
:102E9000490343F8801C4FF48051C3F880105468F4
:102EA000641EFDD119605468641EFDD1012E0CD042
:102EB000C01B0230C3F880105468641EFDD1196035
:102EC0005468641EFDD10130F4D34FF40070586093
:102ED000C3F880105068401EFDD119605068401E34
:102EE000FDD12BE34FF400705860C3F88070506838
:102EF000401EFDD11F605068401EFDD11EE300BF83
:102F00007746032E10D34FF4805000BF043FC3F820
:102F100080001860C3F880001860C3F88000186053
:102F2000C3F880001860F1D10CEA0B3043F8800C34
:102F30004FF48050C3F880000CEACB2553F8FC7C9A
:102F4000186043F8805CC3F8800053F8FC5C0226EC
:102F500006EA9717C5F3C01637440CEA8B261860AB
:102F600043F8806CC3F8800053F8FC6C042505EA34
:102F7000561607EB0608B8F1010F186040F03E81C5
:102F80005FEA8B70CDF8708000F13C810D684FF4E2
:102F90008051680343F8800C0CEA0530C3F88010B8
:102FA000196043F8800C0CEAC520C3F88010196042
:102FB00043F8800C0CEA8520C3F88010196043F8B0
:102FC000800C0CEA4520C3F88010196043F8800C8F
:102FD0000CEA0520C3F88010196043F8800C0CEA55
:102FE000C510C3F88010196043F8800C0CEA8510F6
:102FF000C3F88010196043F8800C0CEA4510C3F840
:103000008010196043F8800C0CEA0510C3F880109A
:10301000196043F8800C0CEAC500C3F880101960F1
:1030200043F8800C0CEA8500C3F88010196043F85F
:10303000800C0CEA4500C3F88010196043F8800C3E
:103040004EF200004EF2000CC7F6FF70C0F23F0CCB
:1030500000EA55080CF17F5000EA95090CF1FE508A
:1030600000EAD500C3F8801019601B900CF17C6059
:1030700000EA15101A900CF1F86000EA551019904A
:103080000CF1707000EA951018900CF1E07000EAF5
:10309000D51017900CF5400000EA152016900CF59D
:1030A000800000EA552015900CEA952014904FF40A
:1030B000FF1000EAD5264FF47E2000EA153428469A
:1030C0006FF30C0043F8800CC3F88010196043F8CC
:1030D000808CC3F88010196043F8809CC3F880107E
:1030E00019601B9F4FF4FC2043F8807CC3F88010CC
:1030F00019601A9F00EA553C43F8807CC3F88010A1
:103100001960199F4FF4783043F8807CC3F8801021
:103110001960189F4FF4F03A43F8807CC3F8801090
:103120001960179F4FF4604943F8807CC3F8801002
:103130001960169F4FF4C04843F8807CC3F8801094
:103140001960159F00EA953043F8807CC3F8801021
:103150001960149F0AEAD53A09EA154908EA554860
:1031600043F8807CC3F88010196043F8806CC3F882
:103170008010196043F8804CC3F88010196043F840
:1031800080CCC3F88010196043F8800CC3F880101D
:10319000196043F880ACC3F88010196043F8809C34
:1031A000C3F88010196043F8808CC3F88010196050
:1031B000907E6FEA0E07C6194FEAD57700F07A8144
:1031C0007F0343F8807CC3F880101960DDF87080BD
:1031D000771E00F01582A0EB0E00811C11F0030198
:1031E000A0F1030000F0FA814FF480570129C3F8E1
:1031F00080701F6040F0DC81B71EEFE14FF400717A
:10320000596002E24FF48058C3F8808053F8FCCC38
:10321000C3F80080C3F8808053F8FC6CC3F80080CA
:10322000C3F8808053F8FC7CC3F80080C3F880802A
:1032300053F8FC9CC3F80080C3F8808053F8FC4C22
:10324000C3F80080C3F8808053F8FC0C1B90C3F8CF
:103250000080C3F8808053F8FC0C1A90C3F80080FB
:10326000C3F8808053F8FC0C1990C3F80080C3F8B1
:10327000808053F8FC0C1890C3F80080C3F880805D
:1032800053F8FC0C1790C3F80080C3F8808053F803
:10329000FC0C1690C3F80080C3F8808053F8FC0C37
:1032A0001590C3F80080C3F8808053F8FC0C14908C
:1032B000C3F80080C3F8808053F8FC0C1390C3F867
:1032C0000080C3F8808053F8FC0C1290C3F8008093
:1032D000C3F8808053F8FC0C1190C3F80080C3F849
:1032E000808053F8FC0C1090C3F80080C3F88080F5
:1032F00053F8FC0C0F90C3F80080C3F8808053F89B
:10330000FC0C0E90C3F80080C3F8808053F8FC0CCE
:103310000D90C3F80080C3F8808053F8FC0C0C902B
:10332000C3F80080C3F8808053F8FC0C0B90C3F8FE
:103330000080C3F8808053F8FC0C0A90C3F800802A
:10334000C3F8808053F8FC0C0990C3F80080C3F8E0
:10335000808053F8FC0C0890C3F80080C3F880808C
:1033600053F8FC0C0790C3F80080C3F8808053F832
:10337000FC0C0690C3F80080C3F8808053F8FC0C66
:103380000590C3F80080C3F8808053F8FC0C0490CB
:10339000C3F80080C3F8808053F8FC0C0390C3F896
:1033A0000080C3F8808053F8FC0C0290C3F80080C2
:1033B000957E6FEA0E0015EB000A00F087800194FD
:1033C000C3F8808053F8FC0CBAF101040090C3F8F4
:1033D0000080DDF8708000F08981A5EB0E05A81C47
:1033E00010F00300A5F1030500F06D814FF4805447
:1033F0000128C3F880401C6040F0E280AAF102047A
:1034000061E100BF00276FF01E004FF4805600BF3F
:10341000C3F880605468641EFDD153F8FC5C1E60E4
:10342000546805F08005641EFDD147EA0567013048
:103430004FEA5707ECD3D07E947EC64316EB040EBA
:1034400000F066804FF48055C3F880505668761EB1
:10345000FDD153F8FCCC1D605668761EFDD1BEF13F
:10346000010F0CD0001B0230C3F880505468641E5A
:10347000FDD11D605468641EFDD10130F4D34FF4BA
:1034800000705860C3F880505068401EFDD11D6028
:103490005068401EFDD100294BD14FE04FF48050C1
:1034A000C3F880001860AEF10307032EBFF42BAD04
:1034B0003AE500BF4FF400705860780343F8800C81
:1034C000C3F880101960DDF87080A1E04FF400703F
:1034D0005860C3F8808053F8FCECDDF870804FF43E
:1034E00080500029186040F0108191E04FF4007086
:1034F0005860480343F8800C4FF48050C3F88000B4
:103500005168491EFDD118605068401EFDD115E07C
:103510004FF4007058604FF48050C3F88000546836
:10352000641EFDD153F8FCCC18605068401EFDD1DC
:1035300021B10CF0800047EA006008604FF4805031
:10354000C3F880005168491EFDD118605168491EBA
:10355000FDD14FF40071C3F88410C3F880005168A6
:10356000491EFDD118605068401EFDD14FF4005037
:103570005FEA0B6143F8800C05D541F20400CEF2FE
:10358000000000689060107B002800F087804FF4F6
:10359000805100BFC3F880105468641EFDD11960CB
:1035A00054680138641EFDD10028F3D176E000BFD5
:1035B0000229C3F880701F600AD1F71E0EE000BF19
:1035C0000228C3F880401C6076D1AAF103047AE097
:1035D0004FF48051C3F880101960371F03280FD3B0
:1035E0004FF48050043FC3F880001860C3F8800097
:1035F0001860C3F880001860C3F880001860F1D12B
:103600004FF4007058604FF48050C3F88000186089
:103610004FF480504FF40071C3F880001860C3F875
:103620008410C3F8800018604FF400505FEA0B610B
:1036300043F8800C05D541F20400CEF2000000688A
:103640009060127B52B312F00307A2F1010111D076
:103650004FF48056012F0846C3F880601E600AD0E0
:10366000022FC3F880601E601CD1901E032915D361
:1036700003E000BF1046032910D34FF4805100BF70
:103680000438C3F880101960C3F880101960C3F8BB
:1036900080101960C3F880101960F1D140461DB048
:1036A000BDE8F08FD01E4FF48052C3F880201A601E
:1036B0000329F3D3E1E700BF4FF48050C3F8800043
:1036C0001860AAF10404032D10D34FF4805500BFF5
:1036D000043CC3F880501D60C3F880501D60C3F8DF
:1036E00080501D60C3F880501D60F1D14FF4007010
:1036F00058604FF48050C3F88000DDE900E44FF4D7
:103700008050002918603FF483AF4FF0804000EAFA
:10371000CC5006F0800540EA056007F08005ED0515
:1037200045EA900009F0800540EA056004F0800554
:103730001B9FED0545EA900007F080051A9F40EABF
:10374000056007F08005199FED0545EA900007F038
:103750008005189F40EA056007F08005179FED057A
:1037600045EA900007F08005169F40EA056007F0E3
:103770008005159FED0545EA900007F08005149F30
:1037800040EA056007F08005139FED0545EA9000CB
:1037900007F08005129F40EA056007F08005119F41
:1037A000ED0545EA900007F08005109F40EA0560AE
:1037B00007F080050F9FED0545EA900007F08005B2
:1037C0000E9F40EA056007F080050D9FED0545EA74
:1037D000900007F080050C9F40EA056007F0800527
:1037E0000B9FED0545EA900007F080050A9F40EA2F
:1037F000056007F08005099FED0545EA900007F098
:103800008005089F40EA056007F08005079FED05E9
:1038100045EA900007F08005069F40EA056007F042
:103820008005059FED0545EA900007F08005049F9F
:1038300040EA056007F08005039FED0545EA90002A
:1038400007F08005029F40EA056007F08006F60554
:1038500046EA90000EF0800740EA07600860D7E66D
:1038600070B5002808BF70BD46F2002240F64C0437
:103870000023C4F20F024FF4007C4FF4805EC1F2CB
:103880000004002516E000BFEE074FF0040608BF55
:10389000842642F806C0C2F880E06668761EFDD134
:1038A000C2F800E066680138761EFDD16D08A3F10C
:1038B000010328B1002BE7D111F8015B0823E3E7EE
:1038C00070BD00BF2DE9F04110F03F0C08BF4FF074
:1038D000400C000646F28410C4F20F0026D440F6D5
:1038E0004C034FF4805EC1F2000304E0BCEB060C15
:1038F00008BFBDE8F08111F8012BACF101040025EF
:1039000056020660C0F8FCE05E68761EFDD1C0F885
:103910007CE05E68761EFDD1AC4205F10106E5D083
:103920005208072D3546EBD1E0E700BF40F64C03C7
:103930004FF48058C1F200036FF07F0E09E000BF22
:10394000C7F1080125FA01F1BCEB070C02F8011BD5
:103950001CD0ACF101040026002500BFC0F8FC809B
:103960005F687F1EFDD10768C0F87C805968491EDA
:10397000FDD10EEA970141EA5505B44206F101076F
:10398000DED0072E3E46E9D1DAE700BFBDE8F08180
:103990002DE9F04740F64C09C1F2000999F80130D1
:1039A00046F2002A4FF6FC7C4FF6FE78C4F20F0A6E
:1039B000C0F2FF1CC0F2FF084FF400754FF48054B2
:1039C000002B4AF87C5CCAF8804000F0A5804302D6
:1039D000CAF800404AF87C3C43085B02CAF88040C1
:1039E000CAF800404AF87C3C00EB50038608760297
:1039F00003EB9003CAF88040CAF800404AF87C6C98
:103A0000C60803EBD00376025B02CAF88040CAF80E
:103A100000404AF87C6CCAF88040CAF800404AF876
:103A20007C3C0023CAF88040CAF800404AF87C3C3D
:103A30004FF48073CAF88040CAF800404AF87C5CB2
:103A4000CAF88040CAF80040CAF8843099F818E0F3
:103A5000BEF1000F2ED0AEF101051EF00303744637
:103A600011D04FF48056012B2C46CAF88060CAF85A
:103A7000006008D0022BCAF88060CAF8006040F0ED
:103A8000A385AEF10204032D14D34FF4805300BF7D
:103A9000043CCAF88030CAF80030CAF88030CAF84E
:103AA0000030CAF88030CAF80030CAF88030CAF84E
:103AB0000030EDD14FF48053CAF880305AF87C4C76
:103AC000CAF80030CAF880305AF87C5CCAF8003076
:103AD000CAF880305AF87C6C08EA152545EA542467
:103AE0000CEAD61644EA060CBCF1040FCAF8003002
:103AF00018BFBCF1020F40F0278499F8191010F09C
:103B0000020018BF002940F04584BEF1000F40F0CC
:103B1000CB8400F01FBE00BFD9F80420521EFDD197
:103B2000CAF80040D9F80420521EFDD142024AF8DA
:103B30007C2CCAF88040D9F80420521EFDD1CAF866
:103B40000040D9F80420521EFDD1420852024AF822
:103B50007C2CCAF88040D9F80420521EFDD1CAF846
:103B60000040D9F80420521EFDD1820852024AF8C2
:103B70007C2CCAF88040D9F80420521EFDD1CAF826
:103B80000040D9F80420521EFDD1C20852024AF862
:103B90007C2CCAF88040D9F80420521EFDD1CAF806
:103BA000004000EB5003D9F8042003EB9003521EB1
:103BB000FDD103EBD00252024AF87C2CCAF88040B7
:103BC000D9F80420521EFDD1CAF80040D9F80420CB
:103BD000521EFDD100224AF87C2CCAF88040D9F848
:103BE0000420521EFDD1CAF80040D9F80420521E0C
:103BF000FDD14AF87C5CCAF88040D9F80420521EF6
:103C0000FDD1CAF80040D9F80420521EFDD14FF46E
:103C10008072CAF8842099F818307BB14FF480552F
:103C2000CAF88050D9F80420521EFDD1CAF80050BD
:103C3000D9F80420521EFDD1013BF1D14FF480523E
:103C4000CAF88020D9F804305B1EFDD15AF87C3CBC
:103C5000CAF80020D9F80440641EFDD1CAF88020BB
:103C6000D9F80440641EFDD15AF87C7CCAF80020C3
:103C7000D9F80440641EFDD1CAF88020D9F8044068
:103C8000641EFDD15AF87C6CCAF80020D9F80420D3
:103C900008EA1727521EFDD147EA53230CEAD61231
:103CA00043EA020CBCF1040F18BFBCF1020F40F054
:103CB000178410F0020000F0938199F81910002980
:103CC00000F08E814FF48051CAF88010D9F804209A
:103CD000521EFDD1CAF80010D9F80420521EFDD1A1
:103CE000CAF88010D9F80420521EFDD1CAF800107D
:103CF000D9F80420521EFDD1CAF88010D9F804204A
:103D0000521EFDD1CAF80010D9F80420521EFDD170
:103D1000CAF88010D9F80420521EFDD1CAF800104C
:103D2000D9F80420521EFDD1CAF88010D9F8042019
:103D3000521EFDD1CAF80010D9F80420521EFDD140
:103D4000CAF88010D9F80420521EFDD1CAF800101C
:103D5000D9F80420521EFDD1CAF88010D9F80420E9
:103D6000521EFDD1CAF80010D9F80420521EFDD110
:103D7000CAF88010D9F80420521EFDD1CAF80010EC
:103D8000D9F80420521EFDD1CAF88010D9F80420B9
:103D9000521EFDD1CAF80010D9F80420521EFDD1E0
:103DA000CAF88010D9F80420521EFDD1CAF80010BC
:103DB000D9F80420521EFDD1CAF88010D9F8042089
:103DC000521EFDD1CAF80010D9F80420521EFDD1B0
:103DD000CAF88010D9F80420521EFDD1CAF800108C
:103DE000D9F80420521EFDD1CAF88010D9F8042059
:103DF000521EFDD1CAF80010D9F80420521EFDD180
:103E0000CAF88010D9F80420521EFDD1CAF800105B
:103E1000D9F80420521EFDD1CAF88010D9F8042028
:103E2000521EFDD1CAF80010D9F80420521EFDD14F
:103E3000CAF88010D9F80420521EFDD1CAF800102B
:103E4000D9F80420521EFDD1CAF88010D9F80420F8
:103E5000521EFDD1CAF80010D9F80420521EFDD11F
:103E6000CAF88010D9F80420521EFDD1CAF80010FB
:103E7000D9F80420521EFDD1CAF88010D9F80420C8
:103E8000521EFDD1CAF80010D9F80420521EFDD1EF
:103E9000CAF88010D9F80420521EFDD1CAF80010CB
:103EA000D9F80420521EFDD1CAF88010D9F8042098
:103EB000521EFDD1CAF80010D9F80420521EFDD1BF
:103EC000CAF88010D9F80420521EFDD1CAF800109B
:103ED000D9F80420521EFDD1CAF88010D9F8042068
:103EE000521EFDD1CAF80010D9F80420521EFDD18F
:103EF000CAF88010D9F80420521EFDD1CAF800106B
:103F0000D9F80420521EFDD1CAF88010D9F8042037
:103F1000521EFDD1CAF80010D9F80420521EFDD15E
:103F2000CAF88010D9F80420521EFDD1CAF800103A
:103F3000D9F80420521EFDD1CAF88010D9F8042007
:103F4000521EFDD1CAF80010D9F80420521EFDD12E
:103F5000CAF88010D9F80420521EFDD1CAF800100A
:103F6000D9F80420521EFDD1CAF88010D9F80420D7
:103F7000521EFDD1CAF80010D9F80420521EFDD1FE
:103F8000CAF88010D9F80420521EFDD1CAF80010DA
:103F9000D9F80420521EFDD1CAF88010D9F80420A7
:103FA000521EFDD1CAF80010D9F80420521EFDD1CE
:103FB000CAF88010D9F80420521EFDD1CAF80010AA
:103FC000D9F80420521EFDD1CAF88010D9F8042077
:103FD000521EFDD1CAF80010D9F80410491EFDD1B7
:103FE00099F8181081B14FF4805300BFCAF880309F
:103FF000D9F80420521EFDD1CAF80030D9F80420A7
:10400000521EFDD10139F1D14FF480710028CAF858
:10401000041040F0B78699F81900002800F0B28625
:1040200000204AF87C0C4FF48050CAF88000D9F880
:104030000410491EFDD1CAF80000D9F80410491E29
:10404000FDD1CAF88000D9F80410491EFDD1CAF884
:104050000000D9F80410491EFDD1CAF88000D9F833
:104060000410491EFDD1CAF80000D9F80410491EF9
:10407000FDD1CAF88000D9F80410491EFDD1CAF854
:104080000000D9F80410491EFDD1CAF88000D9F803
:104090000410491EFDD1CAF80000D9F80410491EC9
:1040A000FDD1CAF88000D9F80410491EFDD1CAF824
:1040B0000000D9F80410491EFDD1CAF88000D9F8D3
:1040C0000410491EFDD1CAF80000D9F80410491E99
:1040D000FDD1CAF88000D9F80410491EFDD1CAF8F4
:1040E0000000D9F80410491EFDD1CAF88000D9F8A3
:1040F0000410491EFDD1CAF80000D9F80410491E69
:10410000FDD1CAF88000D9F80410491EFDD1CAF8C3
:104110000000D9F80410491EFDD1CAF88000D9F872
:104120000410491EFDD1CAF80000D9F80410491E38
:10413000FDD1CAF88000D9F80410491EFDD1CAF893
:104140000000D9F80410491EFDD1CAF88000D9F842
:104150000410491EFDD1CAF80000D9F80410491E08
:10416000FDD1CAF88000D9F80410491EFDD1CAF863
:104170000000D9F80410491EFDD1CAF88000D9F812
:104180000410491EFDD1CAF80000D9F80410491ED8
:10419000FDD1CAF88000D9F80410491EFDD1CAF833
:1041A0000000D9F80410491EFDD1CAF88000D9F8E2
:1041B0000410491EFDD1CAF80000D9F80410491EA8
:1041C000FDD1CAF88000D9F80410491EFDD1CAF803
:1041D0000000D9F80410491EFDD1CAF88000D9F8B2
:1041E0000410491EFDD1CAF80000D9F80410491E78
:1041F000FDD1CAF88000D9F80410491EFDD1CAF8D3
:104200000000D9F80410491EFDD1CAF88000D9F881
:104210000410491EFDD1CAF80000D9F80410491E47
:10422000FDD1CAF88000D9F80410491EFDD1CAF8A2
:104230000000D9F80410491EFDD1CAF88000D9F851
:104240000410491EFDD1CAF80000D9F80410491E17
:10425000FDD1CAF88000D9F80410491EFDD1CAF872
:104260000000D9F80410491EFDD1CAF88000D9F821
:104270000410491EFDD1CAF80000D9F80410491EE7
:10428000FDD1CAF88000D9F80410491EFDD1CAF842
:104290000000D9F80410491EFDD1CAF88000D9F8F1
:1042A0000410491EFDD1CAF80000D9F80410491EB7
:1042B000FDD1CAF88000D9F80410491EFDD1CAF812
:1042C0000000D9F80410491EFDD1CAF88000D9F8C1
:1042D0000410491EFDD1CAF80000D9F80410491E87
:1042E000FDD1CAF88000D9F80410491EFDD1CAF8E2
:1042F0000000D9F80410491EFDD1CAF88000D9F891
:104300000410491EFDD1CAF80000D9F80410491E56
:10431000FDD1CAF88000D9F80410491EFDD1CAF8B1
:104320000000D9F80410491EFDD1CAF88000D9F860
:104330000410491EFDD1CAF80000D9F80400401E3F
:10434000FDD100F01FBD00BFBCF1010F40F0148192
:10435000830700F14781BEF1000F00F05983AEF1F1
:1043600001051EF00303764600F03C834FF48054B1
:10437000012B2E46CAF88040CAF8004000F0328374
:10438000022BCAF88040CAF8004040F02383AEF107
:10439000020627E34FF48053CAF88030CAF8003091
:1043A000CAF88030CAF80030CAF88030CAF8003045
:1043B000CAF88030CAF80030CAF88030CAF8003035
:1043C000CAF88030CAF80030CAF88030CAF8003025
:1043D000CAF88030CAF80030CAF88030CAF8003015
:1043E000CAF88030CAF80030CAF88030CAF8003005
:1043F000CAF88030CAF80030CAF88030CAF80030F5
:10440000CAF88030CAF80030CAF88030CAF80030E4
:10441000CAF88030CAF80030CAF88030CAF80030D4
:10442000CAF88030CAF80030CAF88030CAF80030C4
:10443000CAF88030CAF80030CAF88030CAF80030B4
:10444000CAF88030CAF80030CAF88030CAF80030A4
:10445000CAF88030CAF80030CAF88030CAF8003094
:10446000CAF88030CAF80030CAF88030CAF8003084
:10447000CAF88030CAF80030CAF88030CAF8003074
:10448000CAF88030CAF80030CAF88030CAF8003064
:10449000CAF88030CAF80030CAF88030CAF8003054
:1044A000BEF1000F00F05681AEF101041EF00305CD
:1044B000734600F039814FF48056012D2346CAF827
:1044C0008060CAF8006000F02F81022DCAF8806079
:1044D000CAF8006040F02081AEF1020324E100BF81
:1044E000BCF1010F40F05A80820700F1D98199F8A0
:1044F00018307BB14FF48056CAF88060D9F8042098
:10450000521EFDD1CAF80060D9F80420521EFDD118
:10451000013BF1D14FF48072CAF804200B680021EE
:104520006FF01F064FF480555A024AF87C2CCAF8E7
:104530008050D9F80420521EFDD1CAF80050D9F895
:104540000420521EFDD1194401364FEA5303EBD328
:1045500049024AF87C1C4FF48051CAF88010D9F8FF
:104560000420521EFDD1CAF80010D9F804104FF0F3
:10457000010C491EFDD1E1E10EF1210010F0030113
:1045800000F008824FF480500129CAF88000CAF870
:10459000000040F07B810EF12000FBE199F818004B
:1045A0004FF48051213000BFCAF88010D9F80420A0
:1045B000521EFDD1CAF80010D9F80420521EFDD1B8
:1045C0000138F1D1FAE100BF4FF48052CAF88020DF
:1045D000CAF80020AEF10304032DBFF456AAFFF77A
:1045E00069BA00BF00236FF01F064FF48055002406
:1045F000CAF880505AF87C7CCAF80050CAF880503B
:104600007A0A03EB57235AF87C7CD20742EA540219
:104610007C0ACAF80050CAF8805003EB5723E7071A
:104620005AF87C4CCAF80050CAF8805047EA520247
:10463000670A03EB54235AF87C4CFF07CAF8005072
:10464000CAF8805047EA5202670A03EB54235AF82B
:104650007C4CFF07CAF80050CAF8805047EA520263
:10466000670A03EB54235AF87C4CFF07CAF8005042
:10467000CAF8805047EA5202670A03EB54235AF8FB
:104680007C4CFF07CAF80050CAF8805047EA520233
:10469000670A03EB54235AF87C4CFF0747EA52029F
:1046A000670AFF0703EB5423083647EA5204CAF8A7
:1046B00000509DD14FF48052CAF880205AF87C7C7B
:1046C0004FF0080C83EA5723DB0708BF4FF0010CBB
:1046D0000029CAF8002018BF0C60BEF1000F00F0DE
:1046E0000783AEF101041EF00303714600F0EA8275
:1046F0004FF48055012B2146CAF88050CAF800506B
:1047000000F0E082022BCAF88050CAF8005040F056
:10471000D182AEF10201D5E24FF48052CAF8802076
:10472000CAF80020AEF10303032C13D34FF48057D3
:10473000043BCAF88070CAF80070CAF88070CAF8E2
:104740000070CAF88070CAF80070CAF88070CAF8A1
:104750000070EDD14FF480720028CAF8042040F0B8
:104760001183002900F00E8300204AF87C0C4FF4DE
:104770008050CAF88000CAF80000CAF88000CAF861
:104780000000CAF88000CAF80000CAF88000CAF821
:104790000000CAF88000CAF80000CAF88000CAF811
:1047A0000000CAF88000CAF80000CAF88000CAF801
:1047B0000000CAF88000CAF80000CAF88000CAF8F1
:1047C0000000CAF88000CAF80000CAF88000CAF8E1
:1047D0000000CAF88000CAF80000CAF88000CAF8D1
:1047E0000000CAF88000CAF80000CAF88000CAF8C1
:1047F0000000CAF88000CAF80000CAF88000CAF8B1
:104800000000CAF88000CAF80000CAF88000CAF8A0
:104810000000CAF88000CAF80000CAF88000CAF890
:104820000000CAF88000CAF80000CAF88000CAF880
:104830000000CAF88000CAF80000CAF88000CAF870
:104840000000CAF88000CAF80000CAF88000CAF860
:104850000000CAF88000CAF80000CAF88000CAF850
:104860000000CAF88000CAF80000CAF88000CAF840
:104870000000CAF88000CAF800004FF400715FFA27
:104880008CF04AF87C1CBDE8F08700BF0229CAF80A
:104890008000CAF8000040F075800EF11F0079E03A
:1048A00000256FF01F034FF4805C0026CAF880C01B
:1048B000D9F80420521EFDD15AF87C2CCAF800C049
:1048C000D9F80470540A7F1EFDD105EB5225E2078A
:1048D000013342EA5606E9D34FF48052CAF88020E9
:1048E000D9F804305B1EFDD15AF87C3CCAF8002090
:1048F000D9F80420521EFDD185EA5322D2074FF089
:10490000080C08BF4FF0010C002918BF0E6099F881
:10491000181079B14FF48053CAF88030D9F80420C8
:10492000521EFDD1CAF80030D9F80420521EFDD124
:104930000139F1D14FF48071CAF80410000606D590
:1049400041F20400CEF200000068C9F8080099F8AE
:104950000C00002800F0168200214AF87C1C4FF45D
:10496000805100BFCAF88010D9F80420521EFDD132
:10497000CAF80010D9F80420521EFDD10138F1D137
:1049800000E200BF4FF48050CAF88000CAF800006F
:104990000EF11E004FF480510438CAF88010CAF896
:1049A0000010CAF88010CAF80010CAF88010CAF8BF
:1049B0000010CAF88010CAF80010EDD14FF48070D2
:1049C000CAF804004FF400715FFA8CF04AF87C1CBE
:1049D000BDE8F0874FF48052CAF88020CAF8002062
:1049E000AEF10306032D13D34FF48053043ECAF8EF
:1049F0008030CAF80030CAF88030CAF80030CAF8EF
:104A00008030CAF80030CAF88030CAF80030EDD1E2
:104A10004FF48072CAF804200C684FF0010C610258
:104A20006208A3084AF87C1C4FF4805152025B02D2
:104A3000CAF88010CAF800104AF87C2CCAF8801016
:104A4000CAF800104AF87C3CE3085B02CAF8801000
:104A5000CAF800104AF87C3C23095B02CAF88010AF
:104A6000CAF800104AF87C3C63095B02CAF880105F
:104A7000CAF800104AF87C3CA3095B02CAF880100F
:104A8000CAF800104AF87C3CE3095B02CAF88010BF
:104A9000CAF800104AF87C3C230A5B02CAF880106E
:104AA000CAF800104AF87C3C40F2FF1324EA0303E2
:104AB000CAF88010CAF800104AF87C3CA30A5B02CE
:104AC000CAF88010CAF800104AF87C3CE30A5B027E
:104AD000CAF88010CAF800104AF87C3C230B5B022D
:104AE000CAF88010CAF800104AF87C3C630B5B02DD
:104AF000CAF88010CAF800104AF87C3CA30B5B028D
:104B0000CAF88010CAF800104AF87C3CE30B5B023C
:104B100004EB5402CAF88010CAF800104AF87C3C32
:104B2000230C02EB94025B0202EBD402CAF8801061
:104B3000CAF800104AF87C3C630C02EB14125B02CA
:104B400002EB5412CAF88010CAF800104AF87C3CF4
:104B5000A30C02EB94125B0202EBD412CAF8801091
:104B6000CAF800104AF87C3CE30C02EB14225B020A
:104B700002EB5422CAF88010CAF800104AF87C3CB4
:104B8000230D02EB94225B0202EBD422CAF88010C0
:104B9000CAF800104AF87C3C630D02EB14325B0249
:104BA00002EB5432CAF88010CAF800104AF87C3C74
:104BB000A30D02EB94325B0202EBD432CAF88010F0
:104BC000CAF800104AF87C3CE30D02EB14425B0289
:104BD00002EB5442CAF88010CAF800104AF87C3C34
:104BE000230E02EB94425B0202EBD442CAF880101F
:104BF000CAF800104AF87C3C630E02EB14525B02C8
:104C000002EB5452CAF88010CAF800104AF87C3CF3
:104C1000A30E02EB94525B0202EBD452CAF880104E
:104C2000CAF800104AF87C3CE30E02EB14625B0207
:104C300002EB5462CAF88010CAF800104AF87C3CB3
:104C4000230F02EB94625B02CAF88010CAF80010CE
:104C500002EBD4624AF87C3C630F02EB14725B02F5
:104C6000CAF88010CAF800104AF87C3C02EB547273
:104C7000A30F5B0202EB9472CAF88010CAF800100E
:104C80004AF87C3CE30F02EBD4725B025202CAF892
:104C90008010CAF800104AF87C3CCAF88010CAF8A4
:104CA00000104AF87C2CCAF88010CAF800100006E0
:104CB00024D42AE04FF48051CAF88010CAF80010BA
:104CC000AEF10301032C13D34FF480530439CAF817
:104CD0008030CAF80030CAF88030CAF80030CAF80C
:104CE0008030CAF80030CAF88030CAF80030EDD100
:104CF0004FF48071CAF80410000606D541F2040092
:104D0000CEF200000068C9F8080099F80C30CBB367
:104D100000204AF87C0C13F00307A3F1010011D026
:104D20004FF48056012F0146CAF88060CAF800602F
:104D300011D0022FCAF88060CAF8006004D1991E11
:104D400009E000BF194606E04FF48051CAF8801010
:104D5000CAF80010D91E032814D34FF4805000BFA6
:104D60000439CAF88000CAF80000CAF88000CAF8FE
:104D70000000CAF88000CAF80000CAF88000CAF82B
:104D80000000EDD14FF400715FFA8CF04AF87C1C02
:104D9000BDE8F08770B540F69001C1F20001002235
:104DA0000A70A8B14FF68804C1F20044A16844F625
:104DB000F550C1F20040884700281CBF002070BD9C
:104DC00021690220884798B1E0688047002070BDC3
:104DD0004FF68800C1F20040866AD0E903451620EC
:104DE0000021B04719200021B0470020A847A04764
:104DF000012070BDF0B581B040F6900504468007F3
:104E0000C1F2000539D541F20400CEF2000000687D
:104E100028626E69E8682969084400F03F01871B31
:104E200001F5FE529742E860E86103D903206870FB
:104E300010E000BF4FF68802C1F2004240F699131D
:104E40006FF35F309269C1F20003C1F14001184471
:104E50002961904701202871A87802280DD16FF3AD
:104E60005F26C6F50070874207D340F60400C1F202
:104E700000000068012106F0DDFBA00605D5A87939
:104E80002844C17941F08001C17114F4607F05D0DC
:104E9000A8792844C17941F04001C17101B0F0BD49
:104EA0002DE9F04149F2806440F69006C0F2980482
:104EB000C1F200064FF68808A04238BF0446707859
:104EC000C1F20048D8F82850C00710D016200021A1
:104ED000A847D8F82C008047800708D5D8F82400C8
:104EE0008047F1680844F06019200021A84701209C
:104EF00021460127A84728B1002420463470BDE888
:104F0000F08100BF70783770C10714D080070FD4CC
:104F1000F06840F6991300F03F016FF35F30D8F866
:104F20001820C1F20003C1F14001184431619047DB
:104F300016200121A8472046BDE8F08170B5B8B120
:104F400040F69000C1F20000017801290DD14FF622
:104F500088040121C1F20044A269016140F6991060
:104F6000C1F2000001219047E0B1002070BD00BFF8
:104F70004FF68805C1F20045D5E90A461620002102
:104F8000A047B047800715D5686A804740F6900172
:104F9000C1F20001CA681044C86019200021A0476E
:104FA00008E000BFA26A16200121904700281CBF1C
:104FB000002070BD012070BD4FF68803C1F2004390
:104FC00040F690029B69C1F200021161184700BFD0
:104FD00010B54FF68804C1F20044E06A80478007AC
:104FE0005CBF002010BD606ABDE81040004700BFF4
:104FF00040F69002C1F200025378DB070AD1007834
:1050000002289ABF90700022FF224FF001100A7010
:10501000704700BFFF224FF001100A70704700BFB9
:10502000F0B581B040F69005C1F20005EA78077846
:10503000012A0C4602D10020FFF7ACFE4FF000061B
:1050400067B1012F06D101200127FFF7A3FE08B1A8
:10505000002105E0FF21002702E000BF002700211A
:10506000EF706E704FF00110217001B0F0BD00BF05
:10507000B0B540F69005C1F20005EA780C46012A69
:1050800008D10068FFF70CFF014618B14FF004107B
:105090002160B0BD002169704FF004102160B0BDE7
:1050A00070B540F69006C1F200060078727800F004
:1050B000010502F0010085420C4605D100214FF0A8
:1050C0000110217070BD00BF7DB1B078022805D1FC
:1050D000707918B1FBF7CEF90020707100203072A2
:1050E000F080F0607061F0613062F078012815D1D5
:1050F0002846FFF723FF88B1B07875700228DDD10C
:1051000040F60400C1F200000068012106F092FAA6
:1051100000214FF00110217070BD00BFFF214FF042
:105120000110217070BD00BF2DE9F04381B040F641
:105130009007C1F200070446B87997F8019080F013
:105140000101384490F80780B9710021B9F1010FCD
:10515000C17113D1F878012814D10120002500BFB6
:105160003D71F9687A690128A1EB020602D1FFF7C7
:105170002FFF06443879E8B1F878F1E7F8687969E3
:10518000461A17E0002000BF3871F9687A693B7948
:105190007BB13871F9687A693B7953B13871F96834
:1051A0007A693B792BB13871F9687A693B79002BC0
:1051B000EAD18E1A48EA09002070300AA070300C3B
:1051C000310E6670E0700520217101B0BDE8F083FA
:1051D0002DE9F04790F800A088464FF000095FEAFB
:1051E000CA700E460AD15FEA8A701ED45FEA4A701E
:1051F00060D409F58030BDE8F08700BF40F690002C
:10520000C1F200008179427881F001030144CF7935
:10521000837147EA0200464681F8079006F8010BC1
:105220004FF001095FEA8A70E0D540F69004C1F2C0
:1052300000046078012813D1E078012814D10120FE
:10524000002500BF2571E16862690128A1EB020712
:1052500002D1FFF7BDFE07442079E8B1E078F1E71D
:10526000E0686169471A17E0002000BF2071E1681B
:10527000626923797BB12071E1686269237953B156
:105280002071E168626923792BB12071E16862695C
:105290002379002BEAD18F1A380A08F80970707048
:1052A000380CB070380EF070043609F104095FEA6A
:1052B0004A709ED540F69001C1F20001002200BF65
:1052C0000A71CB69086A0F797FB10A71CB69086AE4
:1052D0000F7957B10A71CB69086A0F792FB10A713A
:1052E000CB69086A0F79002FEAD1190A7170190C7D
:1052F000B170190EF170010A30717171010C000E5C
:1053000009F104093370B171F07109F58030BDE81D
:10531000F08700BF2DE9F04381B040F69006C1F25E
:1053200000068046B0790C4680F001023044717866
:10533000C379B27143EA010900220129C27113D174
:10534000F078012824D10120002700BF3771F168CF
:1053500072690128A1EB020502D1FFF739FE05446D
:10536000307920B1F078F1E7F0687169451AB078CA
:105370005FFA89F1012828D1B8F80070B7F5FE7FEF
:1053800028BF4FF4FE77BD4298BF2F461EE000BFF6
:10539000002000BF3071F168726933797BB13071E0
:1053A000F1687269337953B13071F1687269337998
:1053B0002BB13071F16872693379002BEAD18D1A03
:1053C000B0785FFA89F10128D6D000272170390A18
:1053D00001286770A17075D1D6F81480002F55D0C0
:1053E00040F69911A7F1010E17F00305C1F2000173
:1053F0000ED043466FF35F33581CCB5C012DE37036
:105400000ED104F1040C7546BEF1030F23D23DE02A
:1054100004F1030C40463D46BEF1030F1BD235E0BC
:105420006FF35F30431C085C022D207108D104F13A
:10543000050CBD1E1846BEF1030F0CD226E000BFBE
:105440006FF35F33CA5C581C04F1060C6271FD1ED9
:10545000BEF1030F1AD3ACF1040300BF02466FF391
:105460005F328A5C441C03F8042F6FF35F340A5DDB
:10547000841C5A706FF35F340A5DC41C9A706FF31A
:105480005F340A5D601C043DDA70E7D108EB070069
:1054900070617078032815D1F06871690022411A93
:1054A000B2EB513F0ED1F17801290BD1012171707E
:1054B00040F699116FF35F30C1F2000108440121F9
:1054C000FFF77AFDF81C40F4003001B0BDE8F0832E
:1054D00080B540F69000C1F2000081694269114434
:1054E0000022416142714178032914D1C1684369A6
:1054F000CB1AB2EB533F0ED1C278012A0BD1012255
:10550000427040F699106FF35F31C1F20000084419
:105510000121FFF751FD40F60400C1F200000068D0
:105520000121BDE8804006F085B800BF40F6900537
:1055300040F6991A4FF0FF344FF001080027C1F2EE
:105540000005C1F2000A15E0696908466FF35F3093
:10555000C0F50052964288BF164619F1020218BFE4
:10556000BBF1000F48D150443146AE6185F805804B
:10557000FAF77AFF01200021224606F087F86978C1
:105580006A7911F0010B4FF0320408BF4FF0FF347D
:10559000002AEFD18146012928D1E87801280FD1CE
:1055A000012000BF2F71E9686A690128A1EB02069A
:1055B00002D1FFF70DFD06442879D0B1E878F1E774
:1055C0002F71E86869692A7992B12F71E868696971
:1055D0002A796AB12F71E86869692A7942B12F7115
:1055E000E86869692A79002AEAD101E0E86869690E
:1055F000461A002EA8D1BDE76FF35F2131B1C1F586
:1056000000718E420E46B5D3ADE700BF16F4785652
:10561000A9D1AFE72DE9F04700780C46022817D052
:10562000012841D0002840F0028140F22C06C1F24E
:105630000006307802284BD0012800F08180002835
:105640000CBF0025FF254FF001102570BDE8F08745
:1056500040F22C05C1F200052878022800F0A18054
:10566000012877D0002840F0E28040F6B4004FF6E1
:105670005006C1F200000021C1F200460170017124
:105680004180417041718171016141618160C160FE
:10569000B268816145F62550C1F20040904700286C
:1056A00040F0C58076E000BF40F22C05C1F2000555
:1056B000287802287CD0012873D0002840F0B780D9
:1056C00001200126FAF7DAFE002840F0B08067E0FA
:1056D00040F6B40AC1F2000A9AF803004FF65008E7
:1056E0000128C1F200480BD1D8F82850162000211B
:1056F0004FF00009A84719200021A8478AF8039015
:105700009AF8040001280DD1D8F82850182000215B
:105710004FF00009A84715200021A8478AF80290F9
:105720008AF80490D8E90371002500208AF8005017
:105730008847B84735704FF001102570BDE8F087F5
:1057400000200025FAF79AFE35704FF00110257001
:10575000BDE8F08700200027FAF790FE40F6B4007D
:105760004FF65006C1F20000C1F200462F700770DC
:10577000077147804770477187710761476187608C
:10578000C760B168876145F62550C1F2004088477F
:1057900000284CD13169022002268847002846D1D2
:1057A0002E7000254FF001102570BDE8F08700BF76
:1057B00040F6B409C1F2000999F8030001280ED19E
:1057C0004FF65000C1F20040876A162000214FF0CA
:1057D0000008B84719200021B84789F8038099F8D4
:1057E0000400012810D14FF65000C1F20040876A32
:1057F000182000214FF00008B84715200021B847B5
:1058000089F8028089F804804FF65000C1F2004008
:10581000D0E903610027002089F800708847B0476D
:1058200001202F700126FAF729FE0028B8D0FF25A5
:105830004FF001102570BDE8F08700BFB0B540F211
:105840002C02C1F2000212780C46022A20D1017803
:10585000D0F801504FF65000C1F20040826A41F08A
:10586000010029469047B8B140F6B40300F10B029D
:10587000C1F200030021032A197017D80020DFE8C5
:1058800002F003191D1F00BF0421284618E000BFC5
:105890000020072114E000BF40F6B400C1F2000070
:1058A00001210170002128460AE000BF00200721E5
:1058B00006E000BF0221284602E000BF0121284681
:1058C0002170010AA170010C6070E170010E4FF0AF
:1058D00005102171B0BD00BF2DE9F04381B040F249
:1058E0002C02C1F2000212788946022A06D10578FC
:1058F000A80705D4E8071BD100263DE0FF2695E068
:1059000040F6B408C1F2000898F803000026012808
:1059100032D14FF65000C1F20040876A16200021B4
:10592000B84719200021B84788F8036024E000BF79
:1059300040F6B407C1F20007387801281BD1F87887
:105940000026C8B9BE60FE60B8684FF6500144F644
:1059500008226FF39F20C1F20041C1F200021044FF
:105960008A698E6A20219047162001214FF0010894
:10597000B04700287AD0FF2668071ED54FF650089A
:10598000C1F20048D8F828201920002100279047AC
:1059900040F6B400C1F200008760C760C1780129F9
:1059A0000BD1806844F608216FF39F20D8F81820A7
:1059B000C1F20001084420219047A8061CD4E80643
:1059C00032D540F6B407C1F200073878012811D16A
:1059D000387948BB4FF65001C1F2004100208A6A75
:1059E000B87038617861B861152001214FF0010865
:1059F0009047B8B1FF2617E040F6B407C1F20007A0
:105A00003879012810D14FF65000C1F20040846A65
:105A1000182000214FF00008A04715200021A047C2
:105A200087F8028087F80480680607D44FF00110D9
:105A300089F8006001B0BDE8F08300BF4FF6500068
:105A4000C1F20040826A182000210024904740F6ED
:105A5000B400C1F2000084700461446184614FF0BD
:105A6000011089F8006001B0BDE8F08387F8038079
:105A700042E700BF2DE9F04140F22C01C1F20001E4
:105A80000978044602294FF000083BD140F6B407DC
:105A9000C1F200073878012838D14FF65005C1F21D
:105AA0000045B868F9686A6A461A90470644B6F530
:105AB000707F07D901207870B8684FF47076A0F530
:105AC0007070F860386979692A6A451A90477A785F
:105AD000BB78F978002B18BF2D1A002A1EBF0020B2
:105AE00078700231787900281EBF00207871043167
:105AF000B87900281EBF0020B8710831387960F3EA
:105B0000041106E000260025002102E00026002501
:105B10000021300AA070280AA071280C2170E071C1
:105B2000290E09206670A4F8038065712172BDE812
:105B3000F08100BF2DE9F04F81B040F22C02C1F29C
:105B4000000212788946022A3AD140F6B40AC1F21C
:105B5000000A80460588DAF80800DAF80C104FF6DB
:105B6000500BC1F2004B461ADBF82400B5F5FD7F5F
:105B700028BF4FF4FD7580473044B0F5707F0AD9D7
:105B800001208AF80100DAF80800A0F57070CAF860
:105B90000C004FF47070DAF80C1085426FF39F21FF
:105BA00088BF05464819B0F5806F09F105070BD885
:105BB00044F60820C1F20000014438462A4611E0AC
:105BC00000260025002099E044F60824C1F58066EF
:105BD000C1F2000421443846324604F0BAFDB81937
:105BE000AA1B214604F0B5FDDAF80C002844CAF8D7
:105BF0000C00B8F80270DBF82000DAF81060DAF870
:105C0000144008F10408B7F5FD7F88BF40F2FB1788
:105C100080479AF802B0A11B01F58066BBF1000F26
:105C200018BF0644DAF81000B7426FF39F2098BF00
:105C30003E463118B1F5806F08D844F60861C1F2CC
:105C400000010844414632460FE000BF44F60864B4
:105C5000C0F58067C1F20004204441463A4604F092
:105C600078FD08EB0701F21B204604F072FDDAF81C
:105C70001000BBF1000F3044CAF8100020D1DAF850
:105C80001000DAF81410411ADAF8140018D06FF383
:105C90009F204218B2F5806F4FF0010288BFC0F517
:105CA00080618AF802204FF65002C1F2004244F6A9
:105CB00008635269C1F200031844CAF818109047EB
:105CC0009AF801109AF8030000291EBF00218AF8F3
:105CD000011002309AF8051000291EBF00218AF831
:105CE000051004309AF8061000291EBF00218AF81A
:105CF000061008309AF8041061F3041089F80000C7
:105D0000300A89F80200290A301D6A1D89F80160ED
:105D100089F8035042EA004089F8041001B0BDE858
:105D2000F08F00BF10B50446C00725D040F6B40080
:105D3000C1F2000041698269114441610021817012
:105D400001694269891A426916D06FF39F2253187C
:105D5000B3F5806F4FF0010388BFC2F580618161A8
:105D600083704FF65000C1F20040436944F608606A
:105D7000C1F2000010449847A00713D4A00629D40C
:105D8000E00505D540F6B400C1F2000001214171E3
:105D9000A00558BF10BD40F6B400C1F200000121BB
:105DA000817110BD40F6B400C1F20000816820315D
:105DB00081604FF650018068C1F200418A6944F663
:105DC00008216FF39F20C1F2000108442021904771
:105DD000A006D5D540F6B400C1F200000121417003
:105DE000E005D5D5CEE70000FEE700BFFEE70000E6
:105DF0002DE9F04F81B08946096C04460968C1F36A
:105E0000046003F00BFE0203010D1046224600233E
:105E10004FF0000B04F06CFCD9F8602092F83020B1
:105E2000062A40F0C18099ED190A4FF6443EBDEEB6
:105E3000C00A009410EE101A4FF0FF38C1F2004E65
:105E400000244FF0000C4FF0000A04E01034B4F5C9
:105E5000907F00F085813EF80420B0FBF2F3B3FBA5
:105E6000F1F6BBEB164F21D1032E0EEB040303D248
:105E7000022E1BD103260DE006FB02F5B5FBF1F760
:105E80003D1A38BFC51B454503D293F802C0B24640
:105E9000A84601367243B2FBF1F52A1A38BF421BFD
:105EA000424503D293F802C0B24690460EEB04037B
:105EB0009A88B0FBF2F5B5FBF1F6BBEB164F1FD19C
:105EC000032E03D2022E1BD103260DE006FB02F5A2
:105ED000B5FBF1F73D1A38BFC51B454503D293F812
:105EE00006C0B246A84601367243B2FBF1F52A1A43
:105EF00038BF421B424503D293F806C0B2469046D3
:105F00001A89B0FBF2F5B5FBF1F6BBEB164F1FD1CA
:105F1000032E03D2022E1BD103260DE006FB02F551
:105F2000B5FBF1F73D1A38BFC51B454503D293F8C1
:105F30000AC0B246A84601367243B2FBF1F52A1AEE
:105F400038BF421B424503D293F80AC0B24690467E
:105F50009A89B0FBF2F5B5FBF1F6BBEB164F7FF477
:105F600075AF032E04D2022E7FF470AF03260DE02E
:105F700006FB02F5B5FBF1F73D1A38BFC51B4545D9
:105F800003D293F80EC0B246A84601367243B2FB64
:105F9000F1F52A1A38BF421B4245BFF457AF93F8B8
:105FA0000EC0B246904651E74FF6FF7220EA020259
:105FB000824209D1020C42EA014A002310214FF02B
:105FC000000C4FF00008CDE04FF6FF7BC0F20F0B46
:105FD000ABF54D21884240F2F7804FF6443E002653
:105FE0004FF0FF38C1F2004E4FF0000C00214FF08F
:105FF000000A009405E000BF1036B6F5907F00F06F
:10600000AF803EF80620B0FBF2F55D4524D82C09A0
:106010001201302D0EEB060302D21F2D0DD81BE00E
:1060200002FB04F52F1A38BF02FB1407474504D2C0
:1060300093F802C01021B846A246671C02FB07F481
:10604000241A38BF02FB1704444505D293F802C056
:106050001021BA46A04600BF0EEB06039A88B0FB9B
:10606000F2F55D4524D82C09302D4FEA021203D2F7
:10607000202D0ED21CE000BF02FB04F52F1A38BF02
:1060800002FB1407474504D293F806C01021B84616
:10609000A246671C02FB07F4241A38BF02FB170450
:1060A000444505D293F806C01021BA46A04600BF69
:1060B0001A89B0FBF2F55D4524D82C09302D4FEA42
:1060C000021203D2202D0ED21CE000BF02FB04F509
:1060D0002F1A38BF02FB1407474504D293F80AC0B1
:1060E0001021B846A246671C02FB07F4241A38BFE9
:1060F00002FB1704444505D293F80AC01021BA46A2
:10610000A04600BF9A89B0FBF2F55D453FF674AF3B
:106110002C09302D4FEA021204D2202DFFF46CAF6F
:106120000DE000BF02FB04F52F1A38BF02FB140775
:10613000474504D293F80EC01021B846A246671C0A
:1061400002FB07F4241A38BF02FB17044445BFF4CE
:1061500053AF93F80EC01021BA46A0464CE700BFDB
:106160000023009C642208FB02F2B2FBF0F003283B
:1061700004D94FF0FF3001B0BDE8F08FD9F804002A
:10618000C26842F08002C2601FFA8AF2120A4260BC
:10619000D9F804005FFA8AF20260D9E90102C768FF
:1061A00027F08007C7605FFA8CF7876222B989B24F
:1061B00043EA01111039C162D9F86000C4620020BD
:1061C00001B0BDE8F08F00BFD9F808100029D0D188
:1061D0004CF6CC41884205D9B0F5403F5ED90F213D
:1061E00097E000BF00944FF0FF3C4FF4504B4FF44A
:1061F0004A4E4FF0000A00270EF5C062ABEB0008D4
:10620000824238BFA0EB0B08E0453ABF4FF0010ACD
:106210001746E0460EF580620021B1EB923F35D083
:10622000ABF50075291A824238BF411B41454546EE
:10623000ABF58064A2F500733CBF17460D46261AE5
:10624000834238BF061BAE422B46ABF5C064A2F5B5
:10625000806B3CBF0EF500773346A4EB000C834502
:1062600038BFA0EB040C414538BF4FF0010AAE42E5
:1062700038BF4FF0010A9C453ABF4FF0010A7746FC
:106280009C46AEF5006EA2F5C06BB5E7BAB20E2320
:10629000110B03EA12234FF0000C62E7B0F5343F14
:1062A00002D90E2135E000BFB0F5283F02D90D21FB
:1062B0002FE000BFB0F5183F02D90C2129E000BF44
:1062C000B0F50C3F02D90B2123E000BFB0F5003F31
:1062D00002D90A211DE000BFB0F5E83F02D909212B
:1062E00017E000BFB0F5D03F02D9082111E000BF90
:1062F000B0F5B83F02D907210BE000BFB0F5983FD9
:1063000002D9062105E000BF0421B0F5803F88BF17
:106310000521B0FBF1F2130500F0A8804FF6443ED2
:10632000A34601EB410700264FF0FF38C1F2004EB3
:106330004FF0000C00244FF0000A04E02436B6F5BC
:10634000907F00F08F803EF8063007FB03F2121AB0
:1063500038BF07FB1302424507D20EEB060393F842
:1063600002C04FF0030A0C4690460EEB06039D88D0
:1063700007FB05F2121A38BF07FB1502424505D28A
:1063800093F806C04FF0030A0C4690461D8907FBA0
:1063900005F2121A38BF07FB1502424505D293F8E1
:1063A0000AC04FF0030A0C4690469D8907FB05F290
:1063B000121A38BF07FB1502424505D293F80EC0EA
:1063C0004FF0030A0C4690461D8A07FB05F2121A8D
:1063D00038BF07FB1502424505D293F812C04FF0B3
:1063E000030A0C4690469D8A07FB05F2121A38BF35
:1063F00007FB1502424505D293F816C04FF0030A79
:106400000C4690461D8B07FB05F2121A38BF07FB9E
:106410001502424505D293F81AC04FF0030A0C4604
:1064200090469D8B07FB05F2121A38BF07FB150239
:10643000424505D293F81EC04FF0030A0C46904621
:106440001D8C07FB05F2121A38BF07FB15024245E7
:10645000BFF474AF93F822C04FF0030A0C46904685
:106460006CE700BFA2B221465C4606E04FEA123A52
:106470004FF0000C0A464FF000080CF00F03CCF36D
:1064800003171FFA8AF63B4472435A43120392FBE6
:10649000F7F73A0502D0002364E600BF4FF6F0722A
:1064A00017425DD048F68902C8F68802A7FB02238E
:1064B000DB081A0558D042F293437A08C9F24923FF
:1064C000A2FB03239B081A0550D04EF64F42C4F698
:1064D000C462A7FB02239B081A0549D04AF6AB22E7
:1064E000CAF6AA22A7FB0232D3081E0542D048F6FC
:1064F000A333CBF62E23A7FB0336F3081E053BD0B0
:106500004CF6CD43CCF6CC43A7FB0336F3081D0570
:1065100034D048F63963C3F6E303A7FB03356B08B1
:106520001D052DD047F6F8731F422BD044F62513D6
:10653000C2F29243A7FB03357B1B05EB53039B0879
:106540001D0523D093081A0522D0B3081A0521D0BF
:1065500043F6FC7217429ED1BB0804211BE000BF2A
:106560003B09102117E000BF0F2114E00E2112E0BB
:106570000D2110E00C210EE00B210CE00A210AE0B5
:10658000092108E0FB08082105E000BF072102E01F
:10659000062100E005214FEA133A00234FF0000CDA
:1065A000E0E500BF4FF62C10C1F2004000E000BF54
:1065B00070B541688968CA076ED101F00E0CBCF154
:1065C000020F40F09B80026E6FF00F01136A0BE028
:1065D00092691A441278436804311A60026E136A91
:1065E00003F10103136265D016699E4265D092F8EB
:1065F000306006F0FE06022E06D192F82760022EC9
:1066000002D1243202E000BF92691A441278436832
:106610001A60026E136A166901339E4213624CD0EF
:1066200092F8306006F0FE06022E05D192F827603F
:10663000022E01D1243201E092691A441278436893
:106640001A60026E136A166901339E42136234D0D7
:1066500092F8306006F0FE06022E05D192F827600F
:10666000022E01D1243201E092691A441278436863
:106670001A60026E136A166901339E4213621CD0BF
:1066800092F8306006F0FE06022EA1D192F8276043
:10669000022E9DD124329DE70021002908BF70BD44
:1066A000006E026822B10846BDE87040104700BF86
:1066B00070BD00BF1169994220D141684A6822F03B
:1066C00002024A60016E91F8302002F0FE02022AB6
:1066D0004FF0000281F826207CD191F82720012A72
:1066E0000CD191F83110012222EA1111BCF1040FF2
:1066F00018BFBCF10C0F08D073E000BF0021BCF143
:10670000040F18BFBCF10C0F6BD1426D4FF0010E9E
:106710004FEAB212032A9ABF7EA353F82230002315
:106720004268002B546918BF14F0010400F0DA80AD
:106730005669B40718D40024750704D5056E04F50E
:10674000007485F808E0F50620D4056E360744BFCE
:1067500085F807E044F4807495F8306006F0FE0692
:10676000022E1ED024E000BF046E94F8305084F84E
:1067700005E0032D2AD194F82640002C4FF0300478
:1067800008BF20247507D9D4DDE700BF056E44F0AB
:10679000800485F806E095F8306006F0FE06022ECB
:1067A00006D195F82760012E02D1126805E000BFDE
:1067B00012686E69ED697255056EEA692143EC68ED
:1067C0000132013BA242EA61AAD13DE020247507D3
:1067D000B9D5B3E70121BCF1040F18BFBCF10C0F10
:1067E00093D0BCF1060F4CD1426853699A0701D48B
:1067F00000220EE0026E012592F830605571032EE2
:1068000006D192F826603022002E08BF202200E038
:1068100020225E0704D5066E012502F5007235724E
:10682000DE0609D41B0704D5036E012642F48072EC
:10683000DE71114331E700BF036E012642F0800292
:106840009E71114329E700BF42680026536823F078
:1068500001035360026E92F83030167103F0FE03AC
:10686000022B3DD192F8273082F82760032B4BD0C2
:10687000022B35D0012B08BF41F00101BCF10C0FF8
:1068800033D0BCF1000F7FF408AF8268002A3FF4D8
:1068900004AF926990F90130DE060E4648BF46F417
:1068A0008066D50708BF0E465906314648BF41F4F9
:1068B00000619507857858BF3146EE070E4618BF30
:1068C00046F40056550758BF0E461107314648BFDB
:1068D00041F48051B3F1FF3FC8BF3146DDE600BF50
:1068E00041F00201BCF10C0FCBD1026E92F83030B6
:1068F00003F0FE03022B3FF4D0AED368D2699A4274
:1069000018BF41F04001C8E641F00401BCF10C0F92
:10691000EBD0B6E701000000030000000700000014
:106920000D00000040F20420C0F20E20704700BFAE
:106930002920704780B54FF62C11C1F2004100F0BC
:106940008DF9002080BD00BF80B54FF62C10C1F23C
:10695000004000F0FFF9002080BD00BF4FF62C1171
:10696000C1F200416AE200BF4FF62C12C1F20042B0
:10697000D0E300BF4FF62C12C1F2004200F06EBC13
:10698000B0B5054600286FF0040018BF002901D1FA
:10699000B0BD00BF1446002AFAD042F69C10C1F2E6
:1069A000000090F8312052071CD590F8302002F0FA
:1069B000FE02022A16D1032280F827204FF62C125D
:1069C000C1F200420846214600F048FC002818BFEA
:1069D000B0BD4FF62C12C1F2004228462146BDE858
:1069E000B04097E34FF0FF30B0BD00BF42F69C10BF
:1069F000C1F20000006A704742F69C10C1F200002C
:106A0000C06970474FF62C12C1F2004200F090BCF2
:106A100080B541F2140042F69C11C4F20800C1F2A4
:106A2000000100680A794B79C0F3801C887902F074
:106A3000010291F807E04CEA420203F0010342EA46
:106A4000C30200F00100097A42EA00100EF00102D0
:106A500001F0010140EA421040EA811080F001009B
:106A600080BD00BF42F69C10C1F2000090F83100DA
:106A700040076FF0030058BF4FF0FF30704700BF72
:106A8000002070474FF6AC10C1F2004090E500BF07
:106A9000012821D142F6D011C1F2000191F8302035
:106AA000C86802F0FE02C8610020022A08710FD1F6
:106AB00091F8272081F82700013AD3B2022B88BF32
:106AC000704750B205A252F82000096821B108476A
:106AD000022009680029FAD1704700BF01000000B8
:106AE00002000000040000000120704780B54FF64E
:106AF000AC11C1F2004100F0B1F8002080BD00BF30
:106B000080B54FF6AC10C1F2004000F023F9002030
:106B100080BD00BF4FF6AC11C1F200418EE100BF55
:106B20004FF6AC12C1F20042F4E200BF4FF6AC12D5
:106B3000C1F2004292E300BFB0B5054600286FF0F5
:106B4000040018BF002901D1B0BD00BF1446002ABF
:106B5000FAD042F6D010C1F2000090F8312052076E
:106B60001CD590F8302002F0FE02022A16D1032232
:106B700080F827204FF6AC12C1F2004208462146A9
:106B800000F06CFB002818BFB0BD4FF6AC12C1F28C
:106B9000004228462146BDE8B040BBE24FF0FF303E
:106BA000B0BD00BF42F6D010C1F20000006A7047CD
:106BB000012002F057BA00BF4FF6AC12C1F20042FA
:106BC000B6E300BF80B542F2140042F6D011C4F221
:106BD0000800C1F2000100680A794B79C0F3801CFB
:106BE000887902F0010291F807E04CEA420203F0D2
:106BF000010342EAC30200F00100097A42EA0010F0
:106C00000EF0010201F0010140EA421040EA811059
:106C100080F0010080BD00BF42F6D011C1F200013A
:106C200091F8311049075CBF4FF0FF3070470021E9
:106C3000042838BF6FF003010846704742F6D010B1
:106C4000C1F2000090F83100400704D542F218006C
:106C5000C4F2080000680020704700BF10B50C4661
:106C6000096E91F83120D20718BF10BD002281F8BB
:106C7000262081F82420C1E900020A726078C1064A
:106C800016D4010720D441B2B1F1FF3F29DD4106FE
:106C900033D480063DD46088C00745D1A06D00285C
:106CA0004ED001F0D3FF206E012180F8311010BDCD
:106CB000A269182310785178526863F3DF0202F05A
:106CC0009FFA60780107DED5E1694A68087849785B
:106CD00002F0070202F094FA607841B2B1F1FF3F8E
:106CE000D5DC226A182310785178526863F3DF02EA
:106CF00002F086FA60784106CBD5626A18231078D4
:106D00005178526863F3DF0202F07AFA6078800605
:106D1000C1D5A16A4A680878497802F0070202F0F2
:106D20006FFA6088C007B9D0E26A182310785178EA
:106D3000526863F3DF0202F063FAA06D0028B0D15D
:106D4000E06D002818BF01F081FF206E012180F85E
:106D5000311010BD10B5C168044621B108784978DA
:106D6000002202F04DFA216921B108784978002209
:106D700002F046FA616921B108784978002202F0F0
:106D80003FFA6078C10617D401071ED441B2B1F1B1
:106D9000FF3F25DD41062CD4800633D46088C00730
:106DA00039D1A06D00283FD001F0D4FF206E002122
:106DB00080F8311010BD00BFA16900220878497821
:106DC00002F01EFA60780107E0D5E1690022087838
:106DD000497802F015FA607841B2B1F1FF3FD9DC91
:106DE000216A00220878497802F00AFA60784106A0
:106DF000D2D5616A00220878497802F001FA6078F9
:106E00008006CBD5A16A00220878497802F0F8F90B
:106E10006088C007C5D0E16A00220878497802F08E
:106E2000EFF9A06D0028BFD1E06D002818BF01F078
:106E300091FF206E002180F8311010BD70B502283E
:106E40000C4600F0A580012800F0D68000281CBF69
:106E50006FF0040070BD94F950004EF280260028B7
:106E6000CEF200060ED400F01F010122400902FA02
:106E700001F106EB80006FF0FF028150BFF34F8FEE
:106E8000BFF36F8FA06D30B1216E91F8261011B154
:106E9000007802F0A3F8E06D28B1216E097911B1F4
:106EA000007802F09BF8E16CD4E911020B6860EA0B
:106EB0000300106040F22800C1F200000368626C19
:106EC0009B090D682A4211D17BB10D682A420DD170
:106ED000012B0AD00D682A4208D1022B05D00D687B
:106EE0002A4203D1043B5D1CEBD100BFA16B0A68B1
:106EF00022F001020A60026892090B68DB0711D0D8
:106F00007AB10B68DB070DD0012A0AD00B68DB07CA
:106F100008D0022A05D00B68DB0703D0043A531CC3
:106F2000EBD100BF216B0A6822F001020A60006801
:106F300080090A68D20711D078B10A68D2070DD04B
:106F400001280AD00A68D20708D0022805D00A68AA
:106F5000D20703D00438421CEBD100BF94F9500093
:106F6000002807D400F01F01012202FA01F14009B4
:106F700046F82010216E002091F8312081F826007B
:106F800002F0FD024860087281F8312070BD00BF38
:106F9000206E90F83100C10704BF4FF0FF3070BD84
:106FA000800744BF002070BD206C40F60002216BBA
:106FB000C0F600120260086840F00300086040F26A
:106FC0002800C1F20000026892090B68DB0717D1A4
:106FD000002A4FD00B68DB0712D1012A4AD00B6878
:106FE000DB070DD1022A45D00B68DB0708D1043A34
:106FF000531CEAD13EE000BF6FF0030070BD00BF3C
:10700000A16B0A6842F003020A60026892090B68E9
:10701000DB0711D172B30B68DB070DD1012A29D030
:107020000B68DB0708D1022A24D00B68DB0703D1E9
:10703000043A531CEBD11DE0E16CD4E911230E6836
:1070400062EA06021A600268606C92090B681842D4
:1070500014D17AB10B68184210D1012A0AD00B68FA
:1070600018420BD1022A05D00B68184206D1043A07
:10707000531CEBD14FF0FF3000BF70BD6068C16D95
:1070800021F00101C165C16C41F00201C164002120
:107090004160E06D616D002801F0C00001D1A16D7B
:1070A000A1B340F0090061688860A06850B16178C0
:1070B00011F0D00F02D16188C90703D0416841F0B7
:1070C00008014160226E4FF440701086002050602D
:1070D000107294F9501082F82600002948BF70BD44
:1070E00001F01F00012202FA00F04EF2802249094D
:1070F000CEF2000202EB810342F821004FF68061DC
:10710000CFF6FF715850002070BD00BF40F0010065
:10711000C9E700BF2DE9F04184B0064600286FF0B2
:10712000040000F098800D46002900F09480106E55
:10713000144690F83110490704D44FF0FF3004B0E2
:10714000BDE8F08190F8261021B16FF0010004B085
:10715000BDE8F08190F83010012201F0FE01022913
:1071600080F826200FD190F8271002293CD051B981
:10717000012180F8271025302946224600F06EF8BC
:107180000028DAD1206E4FF00748A16D00228661F9
:1071900005610262B1B14878897801F001FEA16D04
:1071A00062684B7808784CF601044F6863F38A14E0
:1071B00031462B46CDE90084029701F00BFE0130E9
:1071C00048D1BAE761684969890611D490F8281056
:1071D0000F2910D90021A94221D06068416841F0EF
:1071E0000201416036E000BF4FF00348CDE700BF29
:1071F000002180F82810002182694B1C0362505C3A
:1072000061680860206E90F8281005694A1CD1B2A8
:107210000F29016A80F82820DDD8A942ECD190F826
:107220003010002201F0FE01022980F826200BD147
:1072300090F8271001290DD190F83110012201F0AA
:10724000100182EA111100E0012119B1016809B1B0
:1072500001208847002004B0BDE8F081F0B583B07C
:10726000064600286FF0040060D00D4600295DD06E
:10727000106E144690F83110490703D44FF0FF30D8
:1072800003B0F0BD0179012904D16FF0010003B012
:10729000F0BD00BF012190F8302001710021C0F83D
:1072A0000510C16102F0FE0102294FF00B47C560D5
:1072B000466105D190F82700012808BF4FF0034729
:1072C000E16DC9B14878897801F06AFDE26D4DF24F
:1072D000010392F801C061681078D2F804E06CF301
:1072E0004503CDE9007332462B46CDF808E001F0A6
:1072F00071FD013005D1C1E76068416841F00101CD
:107300004160206E90F8301001F0FE0102290CD18E
:1073100090F8271049B9022180F827102430294617
:107320002246FFF7F7FE0028A8D1002003B0F0BDE9
:107330002DE9F04F83B01446126E029192F831702D
:107340004FF0FF33B9074FF0FF3103D4084603B0C5
:10735000BDE8F08F53FA80F3192B6FF00301F5D8D5
:107360004FF0000E4FF0240A4FF0010C00254FF0B3
:1073700000094FF0000B4FF00008DFE813F0920116
:107380001D002900350041004D001B001B001B00A3
:107390001B001B001B001B001B001B005900610091
:1073A0006B0081008B009500B900E300F9001F011C
:1073B000430100BFCAE700BF21462178890700F1D9
:1073C00043816FF00601084603B0BDE8F08F00BFAF
:1073D00021462178490700F13F816FF006010846F8
:1073E00003B0BDE8F08F00BF4FF0000E4FF0010B6F
:1073F0004FF0240A4FF0040C00254FF000094EE135
:1074000021462178C90600F131816FF00601084656
:1074100003B0BDE8F08F00BF21462178890600F156
:1074200033816FF00601084603B0BDE8F08F00BF5E
:107430000298002182F82400084603B0BDE8F08FCE
:107440002078C00600F148814FF0FF31084603B0B4
:10745000BDE8F08F02984FF0FF31FF283FF676AF7E
:10746000207810F020003FF471AF6068816C21F447
:107470007F418164816C029A41EA02217FE100BF71
:107480002078810600F164814FF0FF31084603B097
:10749000BDE8F08F2078800600F168814FF0FF3161
:1074A000084603B0BDE8F08F0298002800F06E8116
:1074B00092F8300006280CD0E36853B15A68187867
:1074C0005978102363F3DF0201F09AFE226E92F8DE
:1074D000317047F00800616882F83100C86D40F0F3
:1074E0000100C8650021084603B0BDE8F08F00BF69
:1074F0000298002800F05A8192F8300040F0020013
:1075000006280CD0236953B15A6818785978182383
:1075100063F3DF0201F074FE226E92F8317047F0DF
:107520001000616882F83100C86C20F00200C86465
:10753000486840F0040048600021084603B0BDE8F8
:10754000F08F00BF0298002800F0528192F82600C8
:10755000002840F0AD806068C16841F04001C16022
:10756000012082F826000021084603B0BDE8F08F14
:107570006068416821F002014160E06D616D0028A2
:1075800001F0C00003D1A16D002900F0878140F017
:107590000900616840F004008860A06D30B1216E80
:1075A00091F8261011B1007801F018FD206E00212D
:1075B00080F82610084603B0BDE8F08F6068416887
:1075C00021F001014160E06D616D002801F0C00013
:1075D00003D1A16D002900F0658140F009006168C8
:1075E00040F002008860E06D28B1216E097911B188
:1075F000007801F0F3FC206E00210171084603B011
:10760000BDE8F08F6068416821F003014160A06D22
:1076100030B1216E91F8261011B1007801F0DEFC36
:10762000E06D002800F0F080216E0979002900F05B
:107630000581007801F0D2FCE06D616D002801F059
:10764000C00040F0FE80E2E000254FF0270A4FF036
:10765000020C4FF0010E06E04FF0000E4FF0250A2D
:107660004FF0030C01254FF0000916E04FF0010820
:107670004FF0000E4FF0240A4FF0050C00254FF09C
:1076800000094FF0000B0CE04FF001094FF0000E25
:107690004FF0240A4FF0060C00254FF0000B4FF07E
:1076A00000081179CDE900B811B992F8261029B176
:1076B0006FF00101084603B0BDE8F08FC0F302216E
:1076C000E122CA40D20740F0A7806FF008010846C7
:1076D00003B0BDE8F08F00BF2546029C002C00F0EF
:1076E000BF80286C0068C0F3046002F097F94CF684
:1076F00000226968C3F69A32B2FBF0F34A6AB4EB2F
:10770000430F22F0380040F2F981B4EB830F40F2CE
:10771000CD80B4EBC30F40F21B81B4EB031F40F2EA
:107720003D81B4EB431F40F2C381B4EB831F40F2B1
:10773000D581B4EBC31F40F2DB81B4EB032F40F2E1
:10774000DB814FF0FF31084603B0BDE8F08F00BF8A
:107750002346029C002C00F08880400600F18A80BD
:107760004FF0FF31084603B0BDE8F08F6068816CD0
:10777000029A002A0CBF41F0020121F0020181644B
:107780000021084603B0BDE8F08F00BF07F0F70006
:10779000616882F83100C86D20F00100C86592F878
:1077A0003000062861D0E168B9B95EE007F0EF006B
:1077B000616882F83100C86C40F00200C864486813
:1077C00020F004004860206E90F8300040F0020085
:1077D00006284AD02169002947D0087849788022B4
:1077E00001F00EFD0021084603B0BDE8F08F00BF98
:1077F0006068C16821F04001C160002182F8261054
:10780000084603B0BDE8F08F606D00F0C000A16DC8
:10781000B9B940F0010016E0BCA252F821806746D9
:107820004E4610F4405145D0B1F5005FF44643D0C8
:10783000B1F5805F62D148F018083FE0606D00F05C
:10784000C00040F00900616840F006008860206ECA
:107850000021017180F82610084603B0BDE8F08FC2
:107860006868416A21F0020141620021084603B0C4
:10787000BDE8F08F92ED0B0A93ED191AB8EE400AAD
:1078800021EE000ABCEEC00A10EE100A001B18BF61
:107890004FF0FF3003B0BDE8F08F00BF40F00100B3
:1078A00077E600BF40F0010099E600BF40F0080015
:1078B00024E100BFF44601E048F0080810F440411C
:1078C00004D0B1F5804F1FD148F00408A16809B376
:1078D0000969C0F3014221F0C009DFE802F01D038D
:1078E000495300BF94F90010B1F1FF3F40F3E48029
:1078F0006FF00B01084603B0BDE8F08F6FF009018F
:10790000084603B0BDE8F08F6FF00A01084603B0E7
:10791000BDE8F08F4FF000094CEA0501012909D1BB
:10792000410319D4000305D46FF00D01084603B0DC
:10793000BDE8F08F02982146FEF75AFA013011D0C7
:10794000206E354680F8307066B3E168009E33E003
:1079500040F01000D2E000BF6FF00C01084603B009
:10796000BDE8F08F6FF00701084603B0BDE8F08F67
:107970006178C90740F098806FF00B01084603B0AA
:10798000BDE8F08F94F90020B2F1FF3F40F39880FA
:107990006FF00B01084603B0BDE8F08F40F018000F
:1079A000ACE000BF90F83120E168009E120703D4DC
:1079B00069B1802204E000BF4A68102060F3DF0252
:1079C0000878497801F01CFC206E90F8307047F080
:1079D000020106295AD18022216919B10878497813
:1079E00001F00EFC616979B1206E90F830208020A2
:1079F000022A18BF062A6DD14A6802F00702024324
:107A00000878497801F0FCFB207810F0060F03D0CD
:107A10006068C0F858A02078019A01071ED4C106FA
:107A200021D4800628D4A06828B1016921F0C001C2
:107A300041EA090101616068216EC26802F0C0027A
:107A400042EA0802C26091F8310040F0040081F877
:107A500031000021084603B0BDE8F08F606806647D
:107A60002078C106DDD56068416A21F0010111442A
:107A7000416220788006D6D56068816C21F00101D2
:107A800029448164A0680028CFD1D4E790F8310060
:107A9000C006A0D520694268182060F3DF02216982
:107AA00000299BD19EE700BF49F0800934E700BF61
:107AB00040F0200022E000BF49F040092CE700BF61
:107AC0006278D2070ED16FF00B01084603B0BDE813
:107AD000F08F00BF032A09D1C0208DE740F02800B5
:107AE0000CE000BF41F0C00916E700BFC02287E7E5
:107AF00040F0300002E000BF42F0380040F00200E9
:107B000048620021084603B0BDE8F08F0300000082
:107B10000000000000000000000000000000000065
:107B200000000000010000000200000000F00CB89E
:107B300042F60420C1F200000078704742F60420AB
:107B4000C1F2000000787047F0B581B046F24015F0
:107B5000C4F200056F6E6868A968EC6F01EA000660
:107B600038036E60EC670BD4F8021AD4700629D47F
:107B7000F00537D470073ED4F00700F0418258E09A
:107B8000686E40F40020686640F6D000C1F2000044
:107B9000C168426841F00101C16001209047F802CC
:107BA000E4D5686E40F48010686640F6D000C1F2FB
:107BB0000000C168426821F00701C16002209047BF
:107BC0007006D5D500F062FA40F6D000C1F2000090
:107BD000C2680123416863F34202C26004208847FF
:107BE000F005C7D540F6D000C1F200004168102072
:107BF00088477007C0D540F6D007686CC1F200070F
:107C0000F96800F04060B0F1006F21F0060007D184
:107C100040F004007968F8600820884703E000BF5E
:107C200040F00200F860796820208847F00700F0F3
:107C3000E781E86EF8B145F6000140F6D000C1F2E8
:107C40000001C1F2000000BF2A6842F400522A601D
:107C5000D1E90A23C0E904232A682B681342F3D030
:107C6000296821F4005129600121E96601708268C8
:107C700000200121904714F47C1F00F0CB80E0032A
:107C80001ED545F60000C1F20000B0F87C10D0E926
:107C90001D3211448B4281670CD140F6D002C1F2F3
:107CA00000020021926880F87F1080200421904714
:107CB00006E000BF90F87F0010B1802000F044FB88
:107CC000A0031FD545F60000C1F20000B0F8FC107B
:107CD000D0E93D3211448B42C0F8F8100CD140F687
:107CE000D002C1F200020021926880F8FF108120CA
:107CF0000421904706E000BF90F8FF0010B18120FA
:107D000000F022FB60031FD545F60000C1F2000021
:107D1000B0F87C11D0E95D3211448B42C0F8781183
:107D20000CD140F6D002C1F200020021926880F826
:107D30007F1182200421904706E000BF90F87F0168
:107D400010B1822000F000FB20031FD545F6000093
:107D5000C1F20000B0F8FC11D0E97D3211448B4231
:107D6000C0F8F8110CD140F6D002C1F20002002197
:107D7000926880F8FF1183200421904706E000BF3D
:107D800090F8FF0110B1832000F0DEFAE0021FD569
:107D900045F60000C1F20000B0F87C12D0E99D3237
:107DA00011448B42C0F878120CD140F6D002C1F2D7
:107DB00000020021926880F87F12842004219047FD
:107DC00006E000BF90F87F0210B1842000F0BCFAFA
:107DD000A0021FD545F60000C1F20000B0F8FC1269
:107DE000D0E9BD3211448B42C0F8F8120CD140F6F4
:107DF000D002C1F200020021926880F8FF128520B3
:107E00000421904706E000BF90F8FF0210B18520E2
:107E100000F09AFAA50600F0F380E0072BD045F6B3
:107E20000000C1F20000C289838F41886FF3DF3206
:107E30009A1A93B26FF3DF21B3FBF1F7866B07FB5E
:107E40001133416B16FA82F282634BB9914207D02B
:107E500090F83F0078B1002000F076FA0BE000BF08
:107E600040F6D002C1F200020021926880F83F1073
:107E7000002002219047A00731D545F60000C1F24D
:107E80000000B0F88E20B0F8BC30B0F882106FF36C
:107E9000DF329A1A93B26FF3DF21B3FBF1F7D0F818
:107EA000B86007FB1133D0F8B41016FA82F2C0F8AC
:107EB000B8204BB9914207D090F8BF0078B10120AB
:107EC00000F042FA0BE000BF40F6D002C1F200021F
:107ED0000021926880F8BF100120022190476007BE
:107EE00031D545F60000C1F20000B0F80E21B0F81F
:107EF0003C31B0F802116FF3DF329A1A93B26FF38C
:107F0000DF21B3FBF1F7D0F8386107FB1133D0F86C
:107F1000341116FA82F2C0F838214BB9914207D0D9
:107F200090F83F0178B1022000F00EFA0BE000BF9C
:107F300040F6D002C1F200020021926880F83F11A1
:107F4000022002219047200731D545F60000C1F2FA
:107F50000000B0F88E21B0F8BC31B0F882116FF398
:107F6000DF329A1A93B26FF3DF21B3FBF1F7D0F847
:107F7000B86107FB1133D0F8B41116FA82F2C0F8D9
:107F8000B8214BB9914207D090F8BF0178B10320D6
:107F900000F0DAF90BE000BF40F6D002C1F20002B7
:107FA0000021926880F8BF11032002219047E0066B
:107FB00024D545F60000C1F20000B0F80E22B0F85A
:107FC0003C32B0F802126FF3DF329A1A93B26FF3B9
:107FD000DF21B3FBF1F7D0F8386207FB1133D0F89B
:107FE000341216FA82F2C0F838225BB9914209D0F5
:107FF00090F83F0210B1042000F0A6F9002D0ED435
:1080000001B0F0BD40F6D002C1F20002002192683A
:1080100080F83F12042002219047002DF0D545F64C
:108020000002C1F20002B2F88E12B2F8BC32B2F80D
:1080300082026FF3DF31591A8BB26FF3DF20B3FB8B
:10804000F0F7D2F8B86207FB1033D2F8B40216FA90
:1080500081F1C2F8B8125BB9884209D092F8BF0228
:108060000028CDD0052001B0BDE8F0406CE100BF94
:1080700040F6D000C1F200000027836805200221ED
:1080800082F8BF7201B0BDE8F04018472DE9F04119
:1080900045F6000440F6D007C1F2000446F2B415DC
:1080A000C1F20007002620464FF44071C4F20005DB
:1080B000C7E904663E7002F065FB45F60030C1F288
:1080C00000004FF4C07102F05DFB286920F08010C1
:1080D0002861686920F080106861A86920F080102C
:1080E000A861E86920F08010E861286A20F080101B
:1080F00028624FF0FF3045F83C0C45F8386C45F8E5
:10810000700C55F8080C40F2280645F8080CA868D1
:10811000C1F20006A8603068800955F8041C89B1D6
:1081200078B155F8041C69B101280AD055F8041C2F
:1081300041B1022805D055F8041C19B10438411C7E
:10814000EBD100BF4FF0FF3028603068800929680C
:1081500071B160B1296859B1012808D0296839B1D5
:10816000022804D0296819B10438411CEFD100BF9E
:1081700055F8740C20F47F0045F8740CF86842F64A
:108180000527C1F20007397894F83F2000F0060077
:10819000B2FA82F25209042802EA510066D168B3A9
:1081A0002046402102F0EEFA0020C2F2080000F55D
:1081B0006210206001200021C4E9020128603068BB
:1081C00080092968C90711D078B12968C9070DD07D
:1081D00001280AD02968C90708D0022805D02968D3
:1081E000C90703D00438411CEBD100BFE86820F078
:1081F000ED00E860E86840F0C000E860387880078B
:1082000040F1978094F87F00002840F0928004F1BC
:108210004000402102F0B6FA4FF0015020640120E6
:108220000021C4E912014FF48030286030688009D1
:108230002968C90311D578B12968C9030DD501286A
:108240000AD02968C90308D5022805D02968C903BE
:1082500003D50438411CEBD100BFE86820F46D0061
:10826000E860E86840F44000E86062E040F200083E
:10827000C2F2080850B32046402102F083FA08F504
:108280000040206001200021C4E90201286030681C
:1082900080092968C90711D078B12968C9070DD0AC
:1082A00001280AD02968C90708D0022805D0296802
:1082B000C90703D00438411CEBD100BFE86820F0A7
:1082C000ED00E860E86840F0C000E86038788007BA
:1082D0002FD594F87F0060BB04F14000402102F0EC
:1082E00051FA01200021C4E912014FF48030C4F892
:1082F00040802860306880092968C90311D578B1A9
:108300002968C9030DD501280AD02968C90308D5F1
:10831000022805D02968C90303D50438411CEBD1D4
:1083200000BFE86820F46D00E860E86840F44000B1
:10833000E86045F85C4C55F80C0C40F0080045F836
:108340000C0CBDE8F08100BF2DE9F04100F00F02F8
:108350005300C40943EAD01342EA0410012245F64F
:10836000000402FA00F045F60032C1F20004C1F246
:10837000000204EB831602EB4312B36BD6E90C4503
:1083800046F2B81104EB030EA5EB030C40F22803F0
:10839000C1F200031B68C4F200019C09BCF5804FC8
:1083A00028BF4FF4804C0B68034213D07CB10B689C
:1083B00003420FD0012C0AD00B6803420AD0022CD2
:1083C00005D00B68034205D0043C631CEBD100BF11
:1083D000BDE8F0810023C2E90033C2E90233C2E9FB
:1083E0000433C2E9063354680123136044EA0C43A2
:1083F00048F2800423430EF58054C2E9013E02F1A5
:108400000C030EF500550EF54057B0C3F3680EF59A
:10841000804823F0FF03C2F81880C6E90223A6F8BB
:108420003CC051F8082C104341F8080CBDE8F0811D
:1084300040F20320C0F20C20704700BF07207047B5
:1084400010B542F60524C1F200042278D2070FD1FC
:1084500040F6D002C1F20002C2E9010142F6042056
:10846000C1F2000002210170FFF762FB01202070C1
:10847000002010BD80B5FFF761FB42F60420C1F279
:1084800000000021017042F60521C1F200010878C8
:1084900000F0FE0200200A7080BD00BFB0B50228C7
:1084A00000F09280012800F0CD8000281CBF6FF002
:1084B0000400B0BD4EF20010CEF200004FF4807107
:1084C000C0F88010BFF34F8FBFF36F8FC0F88011DB
:1084D00042F60520C1F200000178002401F0FD0100
:1084E000017040F6D000C1F200000470C168602540
:1084F00021F00F01C16045F60000C1F200004FF409
:108500004071C4F2050502F03DF945F60030C1F2B4
:1085100000004FF4C07102F035F92868C00740F040
:10852000FA8043F20401C4F204010A6841F22C40CB
:1085300042F02002C4F205000A60D0F8D41321F002
:108540000101C0F8D41340F22801C1F200010A6809
:108550009209D0F8D833DB0714D092B1D0F8D833D1
:10856000DB070FD0012A0CD0D0F8D833DB0709D0B5
:10857000022A06D0D0F8D833DB0703D0043A531CC4
:10858000E7D100BF50F8042C22F0010240F8042C7F
:10859000096889090268D20711D079B10268D20747
:1085A0000DD001290AD00268D20708D0022905D0CF
:1085B0000268D20703D004394A1CEBD100BF012066
:1085C00028600020B0BD00BF42F60524C1F20004BF
:1085D0002078C00704BF4FF0FF30B0BD207880077F
:1085E00044BF0020B0BD602140F6000241F22C40A3
:1085F000C4F20501C0F20072C4F205000A6050F82E
:10860000041C41F0010140F8041C40F22801C1F2B1
:1086100000010A6892090368DB0717D1002A53D0CA
:108620000368DB0712D1012A4ED00368DB070DD1A6
:10863000022A49D00368DB0708D1043A531CEAD167
:1086400042E000BF6FF00300B0BD00BFD0F8D423FC
:1086500042F00102C0F8D4230A689209D0F8D83356
:10866000DB0715D182B3D0F8D833DB0710D1012A4C
:108670002AD0D0F8D833DB070AD1022A24D0D0F888
:10868000D833DB0704D1043A531CE7D11CE000BF08
:1086900046F24015C4F200050220286008688009EF
:1086A0002968890714D078B12968890710D0012872
:1086B0000AD0296889070BD0022805D029688907C4
:1086C00006D00438411CEBD14FF0FF3000BFB0BDE5
:1086D0000A20A86643F20400C4F20400016821F0F5
:1086E00020010160FFF7D2FC686C4FF4807120F02C
:1086F000807068640920C1F60000686640F2451089
:10870000A860207840F0020020704EF20010CEF2F7
:108710000000016000242046B0BD00BF42F60520E5
:10872000C1F20000007880075CBF4FF0FF30704757
:1087300046F24010C4F20000016841F001010160FE
:108740000020704742F60520C1F200000078800743
:108750005CBF4FF0FF30704746F24010C4F200009B
:10876000016821F0010101600020704742F60520F8
:10877000C1F20000007880075CBF0020704746F21D
:10878000841040F6D001C4F20000C1F2000100687C
:10879000C96800F0810221F00800012A08BF0830F2
:1087A000704700BF42F60520C1F200000078800744
:1087B0005CBF4FF0FF30704746F28410C4F20000F7
:1087C000016821F400010160016841F0400101608D
:1087D0000020704742F60521C1F20001097889079F
:1087E0005CBF4FF0FF30704746F254114006C4F2B0
:1087F00000010860086840F0807008600020704741
:1088000042F60521C1F200010978890712D540F628
:10881000D001C1F200010A7862B100220A70D1E9E8
:108820000423436002600878002818BF4FF0FF302F
:10883000704700BF4FF0FF30704700BF2DE9F04F89
:1088400081B000F00F04052C07D8054642F605203C
:10885000C1F200000078800704D44FF0FF3001B06F
:10886000BDE8F08F8846600045F6000140EAD5106B
:10887000C1F2000101EB801797F83F0020B16FF0C3
:10888000010001B0BDE8F08FE80946F2B41A4FEAE2
:108890000019384640211646C4F2000AC2F3C12B23
:1088A00001F070FF40F6D000C1F20000C06887F808
:1088B0003E80B8F1010F08BF0BF1010B00F006007C
:1088C0004FEA8B710228084608BF4FF08040BBF189
:1088D000010F98BF08460021C0F2FF7101EA06416E
:1088E0004FF00052002D04BF48F20002C2F2000215
:1088F00011440844386001200021C7E90201102119
:1089000001EAD5012144884040F22801CAF800005C
:10891000C1F2000109688909DAF80020024214D086
:1089200091B1DAF8002002420FD001290CD0DAF818
:108930000020024209D0022906D0DAF800200242C3
:1089400003D004394A1CE7D100BF0AF10C0141EA07
:108950008401ED200A6800FA09F022EA00000860AC
:10896000C02068F383000A6800FA09F01043086029
:10897000002001B0BDE8F08F2DE9F04100F00F02BA
:10898000052A07D8014642F60520C1F2000000780A
:10899000800703D44FF0FF30BDE8F081500040EA7B
:1089A000D11C45F60000C1F2000000EB8C1090F8DD
:1089B0003F30002B1CBF6FF00100BDE8F08146F294
:1089C000C014C909C4F200040901ED2354F822704F
:1089D0008B4027EA030344F82230402354F82270E6
:1089E00003FA01F145F600383943C1F2000844F8B2
:1089F0002210402108EB4C154FEA4C1601F0C2FE44
:108A0000002048F80600C5E90100C5E90300C5E9F2
:108A10000500E861BDE8F08170B500F00F02052A9D
:108A200006D842F60523C1F200031B789B0703D446
:108A30004FF0FF3070BD00BF530045F6000543EA1C
:108A4000D013C1F2000505EB831393F83F50002DBE
:108A50001CBF6FF0010070BDC50946F2B41E4FEA9D
:108A6000051C0124C4F2000E04FA0CF541B10EF10C
:108A70000C0040EA8200016829430160002070BDBB
:108A80000EF10C0141EA82010E6826EA05050D602F
:108A90000025DD60102303EAD000104404FA00F042
:108AA00040F22802CEF80000C1F2000212689209DA
:108AB000DEF80030034214D092B1DEF800300342F9
:108AC0000FD0012A0CD0DEF80030034209D0022A70
:108AD00006D0DEF80030034203D0043A531CE7D13D
:108AE00000BF40200A6800FA0CF010430860002024
:108AF00070BD00BF10B500F00F03052B06D842F67D
:108B00000524C1F200042478A40703D44FF0FF30F9
:108B100010BD00BF5B0045F6000443EAD013C1F26C
:108B2000000404EB831C634613F83F4F002C1CBF6A
:108B30006FF0010010BD01241C7000240CF1300303
:108B400016C3ACF83C40FFF7FFFB204610BD00BF4A
:108B500000F00F01052984BF00207047402202EA7F
:108B6000500040EAC11045F60001C1F2000108447E
:108B7000806B7047B0B500F00F01052906D842F6AA
:108B80000522C1F200021278920703D44FF0FF30A1
:108B9000B0BD00BF4A001025C40942EAD01C05EA56
:108BA000D00046F2B4134FEA041E41EA0412012435
:108BB0000844C4F2000304FA00F040F228051860EB
:108BC000C1F200052D6804FA02F2AC091D680542E5
:108BD00011D07CB11D6805420DD0012C0AD01D6852
:108BE000054208D0022C05D01D68054203D0043C84
:108BF000651CEBD100BF9A6003F10C0242EA8101CF
:108C000040200A6800FA0EF01043086045F60000A4
:108C1000C1F2000000EB8C11C86820F0FF00C860B2
:108C2000002081F83F00B0BD42F60520C1F20000EF
:108C3000007880075CBF0020704746F24C10C4F2F9
:108C400000000068C0F3CA007047000040F69410AE
:108C5000C1F20000016801310129016084BF0020D8
:108C6000704741F24440C4F2050050F8041C41F042
:108C7000010140F8041C40F22801C1F2000109681A
:108C800089090268D20715D179B10268D20711D1DA
:108C900001290AD00268D2070CD1022905D0026846
:108CA000D20707D104394A1CEBD14FF0FF3000BF87
:108CB000704700BF43F20010C4F20500016D4FF48D
:108CC000002262EA0101016042F2080140F6F4026A
:108CD000C4F200010020C1F20002C1F80801C2E99B
:108CE0000000C2E90200C1F82801C2E90500C2E99A
:108CF0000700C1F84801C2E90A00C2E90C00C1F846
:108D00006801C2E90F00C2E91100C1F88801C2E997
:108D10001400C2E91600C1F8A801C2E91900C2E9AD
:108D20001B00C1F8C801C2E91E00C2E92000C1F859
:108D3000E801C2E92300C2E92500FF220A608A6037
:108D40004EF20011CEF200010422C1F880210A6027
:108D5000704700BF40F69410C1F20000016800297E
:108D600004BF4FF0FF307047013901601CBF002085
:108D7000704741F24040C4F20500016821F0010152
:108D800001604EF28010CEF2000004210160BFF3BA
:108D90004F8FBFF36F8FC0F800110020704700BFE6
:108DA00002460F284FF0FF3098BF032900D97047C3
:108DB00043F21C1CC4F2040CDCF800305200032007
:108DC000904023EA000091400843CCF800000020C6
:108DD000704700BF2DE9F04F072884BF4FF0FF30E8
:108DE000BDE8F08FDDF82CA0DDE9099E012740F6F3
:108DF000F00C07FA00F4C1F2000C5CE8005F2542B9
:108E00005AD125434CE80056C6B15CE8005F2542C4
:108E100052D125434CE8005686B15CE8005F2542FC
:108E20004AD125434CE8005646B15CE8005F254234
:108E300042D125434CE80056002EDED142F23005E7
:108E400040F6F408C4F2000500EB800BC1F2000804
:108E500008EB8B0705EB40100026C7F810A0C0F800
:108E6000E060C0F8DC6045F8284C45F8204CC0F8BC
:108E7000D86001262E6040F22806C1F2000636684E
:108E800000F1D00AB6092868C0071BD17EB1286856
:108E9000C00717D1012E0AD02868C00712D1022EB0
:108EA00005D02868C0070DD1043E701CEBD14FF0EF
:108EB000FF3000BFBDE8F08F4FF0FF30BFF32F8FC2
:108EC000BDE8F08F40F6FF708342C9F38145BB6077
:108ED00028BF034629EA000003FA05F55FEA4916B0
:108EE00040EA0300CAF80010CAF8042048BF294429
:108EF000C9F341555FEA091603FA05F548BF2A444C
:108F000048F82B107A60FB60CAF80C005FEACE705C
:108F1000CAF810E01ED1E1435CE8000F08404CE8BD
:108F20000002BAB15CE8000F08404CE800028AB1C8
:108F30005CE8000F08404CE800025AB15CE8000F02
:108F400008404CE80002002A4FF0000008BFBDE8CE
:108F5000F08FE1E70020BDE8F08F00BF072884BF55
:108F60004FF0FF307047012140F6F00C8140C1F214
:108F7000000C5CE8003F0B422AD10B434CE8003266
:108F8000DAB15CE8003F0B4222D143EA01024CE82F
:108F9000002393B15CE8003F0B4219D143EA010280
:108FA0004CE800234BB15CE8003F0B4210D143EA90
:108FB00001024CE80023002BDBD142F210114001EA
:108FC000C4F200010A5842F001020A500020704722
:108FD0004FF0FF30BFF32F8F704700BF072884BFCB
:108FE0004FF0FF3070470121814040F6F0026FEAF8
:108FF000010CC1F2000200BF52E8003F03EA0C037B
:1090000042E80031A9B152E8001F01EA0C0142E830
:10901000001373B152E8001F01EA0C0142E800138B
:109020003BB152E8001F01EA0C0142E80013002B9B
:10903000E2D142F210114001C4F200010A5822F0BC
:1090400001020A5000207047072884BF00207047A3
:1090500040F6F001C1F20001096821FA00F000F0C9
:1090600001007047072884BF0020704740F6F402D3
:1090700000EB8001C1F2000202EB810142F20C120E
:109080004001C4F20002C96810586FF31F30081A7B
:10909000704700BF2DE9F04F81B042F2000840F662
:1090A000F00740F6F40AC4F200084FF0010BC1F2D9
:1090B0000007C1F2000A40F6FF7900240EE000BF6D
:1090C000D06820EA09000843D060106940F0010030
:1090D000106100BF0134082C00F08E80D8F8000029
:1090E0000BFA04F10842F5D0D8F8040008EB44125A
:1090F000084202F580722DD004EB84030AEB830C46
:10910000C8F80810604650F80C5F50F8046CAE4286
:109110004ED1C94357E8000F084047E8000292B11A
:1091200057E8000F084047E8000262B157E8000F17
:10913000084047E8000232B157E8000F084047E80E
:109140000002002AE6D1DCF810100029C2D001206C
:109150002CE000BFD8F80C000842BBD00020106102
:10916000D060C84357E8002F024047E8002393B17E
:1091700057E8002F024047E8002363B157E8002F6B
:10918000024047E8002333B157E8002F024047E888
:109190000023002BE6D104EB8400C8F810100AEB82
:1091A0008000016900293FF495AF0220884791E7CC
:1091B000711B494528BF49464E190660D0684001D9
:1091C0000AD55AF823001060D668C6F3814601FA22
:1091D00006F630444AF82300D06800017FF570AFEE
:1091E000DCF804005060D368C3F3415301FA03F381
:1091F0001844CCF8040063E701B0BDE8F08F00002C
:1092000003460F284FF0FF3098BF1F2900D9704741
:10921000D80100EB810046F20001C4F2080142507F
:109220000020704703288FBF4FF0FF3046F6004202
:10923000C4F2080242F8201098BF0020704700BF17
:1092400046F680420146C4F20802002011607047D1
:1092500050B140F60C41884206D040F608018842E1
:109260001CBF4FF0FF30704746F68441C4F208013E
:1092700008600020704700BF012884BF4FF0FF3016
:10928000704707294FF0FF3398BF012A02D91846CB
:10929000704700BF46F688434FF0010CC4F2080344
:1092A0000CFA01F132B153F82020114343F8201099
:1092B0000020704753F8202022EA010143F82010D3
:1092C00000231846704700BF012884BF4FF0FF30CD
:1092D000704746F69041C4F208010A68002822F05F
:1092E00001024FF0000018BF01320A60704700BF52
:1092F00010B541EA0003072B4FF0FF3398BF1F2A38
:1093000002D9184610BD00BF46F600630328C4F218
:10931000080311D8C4004FF0FF0CD3F800E00CFA9A
:1093200004F02EEA0000186042EA41101968A040DB
:1093300008431860002010BD0438C0B2C0004FF0D0
:10934000FF0CD3F804E00CFA00F42EEA04045C608D
:1093500042EA41115A6801FA00F0104358600023B4
:10936000184610BD0648804706480047FEE7FEE75E
:10937000FEE7FEE7FEE7FEE7FEE7FEE7FEE7FEE7C5
:109380005D9B001415010014B0B543F22012C4F225
:1093900004021368402043F470431360536840F69E
:1093A000000143F47043536045F20C2340F6000C77
:1093B000C4F200031F24C4F20500C0F60011C0F27D
:1093C000001C1C600023C0F82CC040F8283C01F1B0
:1093D0004073C0F808C00363436840F2000EC0F257
:1093E0000E6E43F001034360C0F804E00368DB073E
:1093F00001BF03685FEAC37303685FEAC37302D106
:109400000368DB07F2D00EF50863C162436000BF5A
:109410000368DB0701BF03685FEAC37303685FEAA1
:10942000C37302D10368DB07F2D0C1621368092459
:1094300064F30F331360536864F30F33536050F8D1
:10944000202C4FF4804342F0010240F8202C47F6D4
:10945000EC7200BFC3F34D0483EA5305234665F362
:109460008E339AB15D0884EA530464F38E356C0838
:1094700084EA530363F38E34630883EA55039B0342
:1094800043EA54036FF3DF33043AE3E70EF50022B7
:109490001A4340F81C2C42F20002C0F2300240F89D
:1094A000182C50F8182C42F0620240F8182C40F6A4
:1094B0001C02C0F2006240F8202C50F8242CD20785
:1094C0000CD150F8242CD20704BF50F8242C5FEAAA
:1094D000C27203D150F8242CD207EED001F1080259
:1094E000826040F60402C0F200328431C260C0F8EB
:1094F00010C0C0F814C08161B0BD00BF2DE9F04FAD
:1095000081B041F23440C4F20500072140F8041C48
:109510000168C90701BF01685FEAC17101685FEABC
:10952000C17102D10168C907F2D040F2280AC1F224
:10953000000ADAF800104BF2004246F60044C0F28E
:10954000C44247F27773C4F20804914238BF002343
:10955000C4F8003146F28003C4F20803F222F3217A
:10956000F1271A605A609A60D9601961596199614E
:10957000D961196259629962D96219635963996311
:10958000C3F88020C3F88420C3F88820C3F898204B
:10959000C3F89C10C3F8A010C3F8A410C3F8A81017
:1095A000C3F8AC10C3F8B010C3F8B410C3F800226D
:1095B000C3F80422C3F80822C3F80C22C3F810220F
:1095C000C3F81422C3F81822C3F81C22C3F884720B
:1095D000C3F88872C3F88C12C3F89012C3F89412BF
:1095E000C3F89872C3F89C72C3F8A072C3F8A412AF
:1095F000C3F8A812C3F8AC12C3F8B012C3F89014A1
:10960000C3F8002646F2846345F22005C4F208033D
:10961000C4F200051A605A609A60DA601A615A61F1
:109620009A61DA611A625A629A62DA621A635A635A
:109630009A63DA63D967C3F88010C3F88410C3F85B
:109640008810C3F88C10C3F89010C3F89410C3F8B6
:109650009810C3F89C10C3F8A010C3F8A410C3F866
:10966000A810C3F8AC10C3F8B010C3F8B410C3F816
:10967000B8100121002345F8201C45F8183CDAF801
:10968000001040F60162C0F2277291424FF00107CC
:1096900034D34FF0805211680426009146F603013E
:1096A000CFF24341116043F2803140F2DB73C1F2EB
:1096B0000006C6F2030146F20A02CDF2FC0396E868
:1096C000000BF768C6F64B0244F2707C86E80E1079
:1096D00000F1440143F22C100123C4F20400C1F252
:1096E00000032722BFF36F8F984700984FF08051F7
:1096F0000023086086E8000BF7600227F020206056
:109700006060A060E0608A20C5F8E0010220C5F832
:10971000E831C5F8F001DAF800004CF60024B0FB9F
:10972000F7F05A21C3F69A34A0FB01012246002328
:1097300000F0DEFF0130C5F8EC01D5F8E0014FF094
:10974000010940F40020C5F8E0014FF48A40C5F853
:10975000E00040F20330C5F8E400C5F80890DAF8FC
:10976000000043F68931B0FBF7F0C5F2E651A0FBEB
:109770000101080E2861DAF800002A21B0FBF7F099
:109780002246A0FB0101002300F0B2FF6861DAF875
:1097900000004FF03F08B0FBF7F02246A0FB0801A5
:1097A000002300F0A5FFA861DAF800004626B0FB10
:1097B000F7F02246A0FB0601002300F099FFE861C4
:1097C000DAF800002246B0FBF7F00023A0FB060108
:1097D00000F08EFF2862DAF800004FF01E0BB0FB9D
:1097E000F7F02246A0FB0B01002300F081FF686226
:1097F000DAF800002246B0FBF7F00023A0FB0801D6
:1098000000F076FFA862DAF800002246B0FBF7F01D
:109810000023A0FB080100F06BFFE862DAF800000B
:109820002246B0FBF7F00023A0FB080100F060FF28
:109830002863DAF800000E21B0FBF7F02246A0FB07
:109840000101002300F054FF6863DAF800002246AB
:10985000B0FBF7F00023A0FB0B0100F049FFA86369
:1098600040F2831040F20311286029602860DAF882
:1098700000004CF66B21B0FBF7F0C6F65F31A0FBA1
:10988000010109EB51606860DAF8000044F6D35139
:10989000B0FBF7F0C1F26201A0FB010109EB11403E
:1098A00068608320286042F20000C2F6030000686E
:1098B00002202860D5F8E00040F40020C5F8E00060
:1098C00001B0BDE8F08F00BF1421C4F205010A68A1
:1098D000000622F4000200F2FF100A6008600A6825
:1098E0004FF60060C0F27F0042F400020A6000BF41
:1098F0000B680A681B0227D50B6802406FF35F23D1
:109900001A4304BF002070470B680A681B021BD56E
:109910000B6802406FF35F231A4313D00B680A6889
:109920001B0211D50B6802406FF35F231A4309D065
:109930000B680A681B0207D50B6802406FF35F23B0
:109940001A43D5D100207047C2F34D2045F6BB31F4
:109950004843704710285DD8DFE800F00C0A0A0A77
:109960000A5C1822282E5C5C383E444A500000BF36
:10997000704700BF43F20400C4F20400006800F026
:109980000A00023818BF4FF0FF3070471820C4F2A9
:1099900005000068C0074FF0FF3008BF0620704781
:1099A0001820C4F2050081682CE000BF1820C4F222
:1099B0000500816926E000BF1820C4F20500816A15
:1099C000C90714BFC16A00211CE000BF1820C4F2FF
:1099D0000500016B16E000BF1820C4F20500416BC2
:1099E00010E000BF1820C4F20500816B0AE000BF40
:1099F0001820C4F20500C16B04E000BF1820C4F2B7
:109A00000500016CC8074FF0FF3008BFC1F30460C8
:109A1000704700BF4FF0FF30704700BF70B5442360
:109A2000C4F205034FF0010CA3F124024FF0010E24
:109A3000012110280DD9002070BD00BFA3F114042E
:109A40002468E0074FF0FF3008BFC4F3046010281B
:109A5000F1D81446DFE800F06A566060560E560CE6
:109A60000A100E0E1E24282C340000BFE6E700BFAB
:109A7000E6E700BFDFE700BF1868C0F30134C0F3BA
:109A80000125013486070CFA05F521D410F0C00F2A
:109A900022D11FE01C4654F8040FC0F381000CE0F3
:109AA0001C4654F8080F06E01C4654F80C0F02E060
:109AB0001C4654F8100FC0F3830001304143BFE748
:109AC0001C4654F8140F80085CFA80F04143B7E755
:109AD000060601D56C4364005CFAA0F040EA042459
:109AE000C0B200FB0EFE53F8040CC4F30724C007F9
:109AF00004FB01F104D1002010287FF6AAAF9AE7F9
:109B00001C469DE741F60030C0F2B70000FB0EF0A6
:109B1000B0FBF1F070BD00BF4FF28000C0F2FA2040
:109B200000FB0EF0B0FBF1F070BD00BF4FF4004041
:109B300000FB0EF0B0FBF1F070BD00BF80B56C20F3
:109B4000C4F205000068C0F30460FFF767FF40F24D
:109B50002801C1F20001086080BD00BF80B54EF64B
:109B60008850CEF2000001684FF0807241F470011D
:109B7000016043F20411C4F205010A604EF21001C3
:109B8000CEF200010A6822F003020A6040F20001EE
:109B9000C1F200416FF3130140F8801CFFF7F4FBA2
:109BA0006C20C4F205000068C0F30460FFF736FFC4
:109BB00040F22801C1F20001086080BDB0B58AB052
:109BC0000C46054601A8242100F0DCFD042D4FF0D1
:109BD000000000F28F80DFE805F003138D2D5B009D
:109BE000002C56D14DF671204FF67C62C1F2004038
:109BF000C1F20042002101F05BFD0AB0B0BD00BF20
:109C0000042C46D84FA050F8240046F64471019029
:109C100004EB0410C1F2000101EB8000039044202A
:109C2000022C049068D3032C68D0022C14BFC020EF
:109C3000402064E06CBB40F2CC10C1F2014050F80F
:109C4000340047F29801019004EB0410C1F20001C6
:109C500001EBC00003904420049048F22030C1F290
:109C6000000005904FF64020C1F2004000EB0411C7
:109C700022018058496801AACDE906014CF6A140AD
:109C8000C1F20040214601F013FD0AB0B0BD00BF93
:109C900014B100200AB0B0BD600040F2CC11013018
:109CA000C1F2014151F8201047F29802019100EBF6
:109CB0000011C1F2000202EB8101039144210491E1
:109CC00048F22031C1F2000101F5007105914FF613
:109CD0004021C1F2004101EBC00251F8300051684F
:109CE00001AACDE906014CF21170C1F200402146F3
:109CF00001F0DEFC0AB0B0BD002000E080204CF690
:109D0000CD41CCF6CC41A4FB011247F62031C1F283
:109D1000000101EBC000059040F25410C1F2014077
:109D200000EBC40150F834004968CDE906014DF656
:109D300045309108C1F2004001AA01F0B9FC0AB017
:109D4000B0BD00BF94FD0014E4FC001401FD00143C
:109D50001EFD00143BFD001400280CBF4FF0FF3027
:109D600001F0B8BC704700BFB0B540F6E805C1F2DD
:109D700000052968044689B900F09EFE44F6D351D7
:109D80008002C1F26201A0FB01014FF60040890987
:109D9000CFF6FF70B0FBF1F0C5E90010601C02289F
:109DA0000CD3B1F5806F09D06868A04231BF6FF065
:109DB000010401FB04F000F2FF30840A2046BDE8F4
:109DC000B04000F04FBE00BF00207047002804BF25
:109DD0004FF0FF30704770B540F6E806C1F200065C
:109DE000044630680D4688B900F066FE44F6D3514B
:109DF0008002C1F26201A0FB010188094FF6004117
:109E0000CFF6FF71B1FBF0F1C6E90001691C022930
:109E10000BD3B0F5806F08D07168A94231BF6FF0E5
:109E20000105684300F2FF30850A20462946BDE857
:109E3000704001F085BC00BF10B548B1044601F088
:109E40006DFC48B12046BDE8104001F08BBC00BF5E
:109E50004FF0FF3010BD00BF002010BD00280CBF28
:109E60004FF0FF3001F048BC704700BF00280CBF26
:109E7000002001F0DFBB7047B0B540F6E805C1F245
:109E800000052968044689B900F016FE44F6D3514E
:109E90008002C1F26201A0FB01014FF60040890976
:109EA000CFF6FF70B0FBF1F0C5E90010601C02288E
:109EB0000CD3B1F5806F09D06868A04231BF6FF054
:109EC000010401FB04F000F2FF30840A4FF6FF703A
:109ED0000021224601F0DAFBB0F1FF3FC8BFB0BD60
:109EE0006FF00101401A18BF0120C007B0BD00BFCC
:109EF00080B584B003460020012B0390CDE901001A
:109F0000009005D0BBB9C9B1002004B080BD00BF2E
:109F10004FF0000079B9092A0DD846F69450C1F2E5
:109F2000000000EB02100290102003906A4601200E
:109F3000012101F041FB04B080BD00BF46F6845012
:109F4000C1F200000290102003906A460120012116
:109F500001F032FB04B080BD002804BF4FF0FF3099
:109F6000704770B540F6E806C1F200060446306856
:109F70000D4688B900F0A0FD44F6D3518002C1F22D
:109F80006201A0FB010188094FF60041CFF6FF7185
:109F9000B1FBF0F1C6E90001691C02290BD3B0F551
:109FA000806F08D07168A94231BF6FF00105684326
:109FB00000F2FF30850A20462946BDE8704001F0D6
:109FC000BFBA00BF00280CBF4FF0FF3001F006BB46
:109FD000704700BF00280CBF4FF0FF3001F0DABA25
:109FE000704700BF0146002005F06ABB0A460146E3
:109FF000002005F06DBB00BF704700BF704700BF79
:10A00000704700BF704700BF704700BFFFF7F8BF41
:10A01000FFF7F8BFFFF7F8BF00207047704700BF99
:10A02000002070470020704710B540F6E804C1F2E8
:10A030000004206888B900F03FFD44F6D351800247
:10A04000C1F26201A0FB010188094FF60041CFF681
:10A05000FF71B1FBF0F1C4E900014FF6FF70002180
:10A060004FF0FF32BDE8104001F010BB10B540F6D4
:10A07000E804C1F20004206888B900F01DFD44F630
:10A08000D3518002C1F26201A0FB010188094FF6A1
:10A090000041CFF6FF71B1FBF0F1C4E900014FF6CA
:10A0A000FF7000214FF0FF32BDE8104001F0EEBA22
:10A0B00010B540F6E804C1F20004206888B900F049
:10A0C000FBFC44F6D3518002C1F26201A0FB010106
:10A0D00088094FF60041CFF6FF71B1FBF0F1C4E9FA
:10A0E00000014FF6FF7000214FF0FF32BDE8104035
:10A0F00001F0CCBA10B540F6E804C1F200042068C3
:10A1000088B900F0D9FC44F6D3518002C1F2620153
:10A11000A0FB010188094FF60041CFF6FF71B1FBAA
:10A12000F0F1C4E900014FF6FF7000214FF0FF325B
:10A13000BDE8104001F0AABA10B540F6E804C1F23B
:10A140000004206888B900F0B7FC44F6D3518002BF
:10A15000C1F26201A0FB010188094FF60041CFF670
:10A16000FF71B1FBF0F1C4E900014FF6FF7000216F
:10A170004FF0FF32BDE8104001F088BA10B540F64C
:10A18000E804C1F20004206888B900F095FC44F6A8
:10A19000D3518002C1F26201A0FB010188094FF690
:10A1A0000041CFF6FF71B1FBF0F1C4E900014FF6B9
:10A1B000FF7000214FF0FF32BDE8104001F066BA99
:10A1C00010B540F6E804C1F20004206888B900F038
:10A1D00073FC44F6D3518002C1F26201A0FB01017D
:10A1E00088094FF60041CFF6FF71B1FBF0F1C4E9E9
:10A1F00000014FF6FF7000214FF0FF32BDE8104024
:10A2000001F044BA10B540F6E804C1F20004206839
:10A2100088B900F051FC44F6D3518002C1F26201CA
:10A22000A0FB010188094FF60041CFF6FF71B1FB99
:10A23000F0F1C4E900014FF6FF7000214FF0FF324A
:10A24000BDE8104001F022BA10B540F6E804C1F2B2
:10A250000004206888B900F02FFC44F6D351800236
:10A26000C1F26201A0FB010188094FF60041CFF65F
:10A27000FF71B1FBF0F1C4E900014FF6FF7000215E
:10A280004FF0FF32BDE8104001F000BA10B540F6C3
:10A29000E804C1F20004206888B900F00DFC44F61F
:10A2A000D3518002C1F26201A0FB010188094FF67F
:10A2B0000041CFF6FF71B1FBF0F1C4E900014FF6A8
:10A2C000FF7000214FF0FF32BDE8104001F0DEB911
:10A2D00010B540F6E804C1F20004206888B900F027
:10A2E000EBFB44F6D3518002C1F26201A0FB0101F5
:10A2F00088094FF60041CFF6FF71B1FBF0F1C4E9D8
:10A3000000014FF6FF7000214FF0FF32BDE8104012
:10A3100001F0BCB910B540F6E804C1F200042068B1
:10A3200088B900F0C9FB44F6D3518002C1F2620142
:10A33000A0FB010188094FF60041CFF6FF71B1FB88
:10A34000F0F1C4E900014FF6FF7000214FF0FF3239
:10A35000BDE8104001F09AB910B540F6E804C1F22A
:10A360000004206888B900F0A7FB44F6D3518002AE
:10A37000C1F26201A0FB010188094FF60041CFF64E
:10A38000FF71B1FBF0F1C4E900014FF6FF7000214D
:10A390004FF0FF32BDE8104001F078B910B540F63B
:10A3A000E804C1F20004206888B900F085FB44F697
:10A3B000D3518002C1F26201A0FB010188094FF66E
:10A3C0000041CFF6FF71B1FBF0F1C4E900014FF697
:10A3D000FF7000214FF0FF32BDE8104001F056B988
:10A3E00010B540F6E804C1F20004206888B900F016
:10A3F00063FB44F6D3518002C1F26201A0FB01016C
:10A4000088094FF60041CFF6FF71B1FBF0F1C4E9C6
:10A4100000014FF6FF7000214FF0FF32BDE8104001
:10A4200001F034B9002070470020704700207047C9
:10A4300000207047704700BF704700BF704700BFE3
:10A4400000207047002070470020704700207047B0
:10A4500000207047704700BF704700BF704700BFC3
:10A46000704700BF704700BF704700BF704700BF14
:10A470000020704700207047002070470020704780
:10A480000020704700207047002070470020704770
:10A490000020704700207047002070470020704760
:10A4A0000020704700207047002070470020704750
:10A4B000704700BF704700BF002070470020704702
:10A4C00000207047704700BF00207047704700BFF2
:10A4D000704700BF704700BF704700BFFFF7FCBF69
:10A4E000704700BF704700BF704700BF704700BF94
:10A4F000704700BF704700BF00207047704700BF23
:10A50000002070470020704710B500281CBF0020B5
:10A5100010BD002003F062FB0446002002F088FB1F
:10A52000002818BF0446204610BD00BF10B5002803
:10A530001CBF002010BD002003F0A2FB0446002039
:10A5400002F0AAFD002818BF0446204610BD00BF37
:10A55000002818BF704780B5002003F07FFB002063
:10A56000BDE8804002F02EBD704700BF10B508B1B5
:10A5700010BD00BF0C4680290EDDA4F18100022829
:10A5800014D3832C1CD0842C18BF10BD0020842130
:10A59000BDE8104002F0FAB8012C07D0042CE7D136
:10A5A00000200421BDE8104002F0F0B80020214650
:10A5B00003F0ECFA832C03D0842CE7D0D8E700BF5B
:10A5C00000208321BDE8104002F0E0B810B508B1CA
:10A5D00010BD00BF0C4680290EDDA4F181000228C9
:10A5E00014D3832C1CD0842C18BF10BD00208421D0
:10A5F000BDE8104002F016B9012C07D0042CE7D1B9
:10A6000000200421BDE8104002F00CB900202146D2
:10A6100003F0D0FA832C03D0842CE7D0D8E700BF16
:10A6200000208321BDE8104002F0FCB81EF0040FAA
:10A630000CBFEFF30880EFF30980816911F8021C69
:10A6400091BB01B590E80F10E047BDE800508CE8E1
:10A650000300244B93E80600914208BF704741B9BC
:10A660001EF0100F10D12049086820F0010008608A
:10A670000AE02CE9F00F1EF0100F08BF2CED108A35
:10A68000C1F838C081F822E01A6092F82210906B6D
:10A6900061F0FF0E1EF0100F08BFB0EC108AB0E89A
:10A6A000F00F80F309887047104A13689942FAD86E
:10A6B00001B552F821C00FC8E047BDE80050CCF802
:10A6C0000000704701B500F067FCBDE80140EFF302
:10A6D000098CBEE701B500F0B3FEBDE80140EFF321
:10A6E000098CB6E74400001034EF00E064FC00146D
:10A6F0002DE9F05F0546002092469B4688460646B7
:10A70000814640241BE0284641464746224600F049
:10A7100053F853465A46C01A914110D31146184671
:10A72000224600F03AF82D1A67EB01084F46224600
:10A730000120002100F031F817EB00094E41201EE6
:10A74000A4F10104DFDC484631462A464346BDE811
:10A75000F09F40EA01039B0703D009E008C9121FDC
:10A7600008C0042AFAD203E011F8013B00F8013BCB
:10A77000521EF9D27047D2B201E000F8012B491EF7
:10A78000FBD270470022F6E710B513460A4604468E
:10A790001946FFF7F0FF204610BD202A04DB203ABF
:10A7A00000FA02F1002070479140C2F1200320FA24
:10A7B00003F3194390407047202A04DB203A21FA22
:10A7C00002F00021704721FA02F3D040C2F12002CA
:10A7D0009140084319467047064C074D06E0E06873
:10A7E00040F0010394E8070098471034AC42F6D3D8
:10A7F000F5F794FC340201145402011430B58C189E
:10A8000010F8012B12F00F0301D110F8013B1209CF
:10A8100006D110F8012B03E010F8015B01F8015B91
:10A820005B1EF9D101E001F8013B521EFBD1A142B0
:10A83000E6D3002030BD10B500F1280151E8002F0B
:10A8400012B9BFF32F8F04E0531E41E8003404B166
:10A85000F4E772B12C300121006850B1821CD2E8BB
:10A860004F3FC2E8441F04B1F9E71A0602D008308E
:10A87000F2E7002010BD70B5024652F8305F4DB1CE
:10A88000CC7800235DB12E46ED78A5420DD27568D7
:10A890003346F7E70023C1E90133C1620DE000242C
:10A8A000C1E9014300F12C0403E0C1E9016306F1B1
:10A8B00008042160002B18BF1A1D1160283050E8D1
:10A8C000001F4A1C40E8002303B1F8E770BDD1E93E
:10A8D0000123002A0EBFC36293608B68191D002BF1
:10A8E00008BF00F130010A60704700001A48006894
:10A8F000704700BF19480178012905D105494FF07B
:10A9000080620A60002101701348016841F0010172
:10A910000160704704ED00E04FF0FF307047000029
:10A9200040B10B490968B1FBF0F0411E0020B0EBCB
:10A93000116F02D04FF0FF307047064AFF231370AB
:10A94000054A0623136051600449087090607047FF
:10A950002800001023ED00E010E000E0980900104E
:10A96000B0B500F10C01C289D1E85F3F9A4202D82C
:10A97000BFF32F8F04E05C1CC1E8554F05B1F3E72E
:10A98000C28999B20020914238BF0120B0BD10B5F4
:10A99000930712D400F12803D0071ED153E8000F0B
:10A9A000084203D1BFF32F8F002005E020EA010207
:10A9B00043E8002404B1F1E710BD806A00EA010316
:10A9C0008B42014618BF002112F0010208BF014668
:10A9D00053EA020018BF084610BD53E8000F00EA12
:10A9E00001028A4203D0BFF32F8F002005E020EA46
:10A9F000010243E8002404B1EFE710BDB0B52D4AD1
:10AA00000023443215462C683CB12569A94209D37C
:10AA1000491B04F10C052346F5E70024C0E9023484
:10AA2000016106E0C0E902340161A0602569691A8C
:10AA30002161002B18BF03F10C021060B0BD00BFF4
:10AA4000C16829B1826803698A600A691A440A6187
:10AA50008068184A00F10C03002808BF02F1440383
:10AA600019607047EFF3058129B9EFF3108111B92F
:10AA7000EFF3118111B16FF005007047DFF804C0EA
:10AA800000DF704789B70014EFF3058048B9EFF392
:10AA9000108030B9EFF3118018B9EFF31480C007BC
:10AAA00002D10448007A7047DFF804C000DF704725
:10AAB0009DB7001430000010EFF3058028B9EFF3C4
:10AAC000108010B9EFF3118010B10348406870474F
:10AAD000DFF808C000DF70478CF70014A9B7001436
:10AAE00080B500F0DFF8EFF3058028B9EFF31080B0
:10AAF00010B9EFF3118010B16FF0050080BDDFF8E1
:10AB000008C000DF80BD00BFB5B70014EFF30580BB
:10AB100028B9EFF3108010B9EFF3118010B16FF086
:10AB200005007047DFF804C000DF7047FDB800146F
:10AB3000F8B514460E460546EFF3058028B9EFF345
:10AB4000108010B9EFF31180F0B16FF003000DB376
:10AB500003BBFEB12978FA291CD12846FFF76BFE0A
:10AB600078B16A6A074600F10C013046FFF7F1FD43
:10AB70000CB1F87820703846FD6000F051FA0020E2
:10AB8000F8BD6FF00200F8BD2846DFF80CC0314672
:10AB9000224600DFF8BD00BF81B90014EFF3058342
:10ABA0002BB9EFF3108313B9EFF311830BB100202E
:10ABB0007047DFF808C000DF704700BF5DBA0014BF
:10ABC0002DE9F04190460D460646EFF3058028B981
:10ABD000EFF3108010B9EFF3118018B36FF0030793
:10ABE000EEB1E3B9DDB13078FA2818D106F10C00E6
:10ABF00000F0D2F888B1726A04460C302946FFF79B
:10AC0000A8FD0027F920C4E9015684F80380A77045
:10AC10002070204600F004FA01E06FF00207384689
:10AC2000BDE8F0813046DFF80CC02946424600DF1F
:10AC3000BDE8F0818DBB0014EFF305822AB9EFF374
:10AC4000108212B9EFF3118212B16FF00500704754
:10AC5000DFF804C000DF704749BC0014EFF3058142
:10AC600029B9EFF3108111B9EFF3118109B1002077
:10AC70007047DFF808C000DF704700BFDDBC00147C
:10AC8000EFF3058129B9EFF3108111B9EFF31181C9
:10AC900011B16FF005007047DFF804C000DF7047A6
:10ACA00041BD00147047F0B5002390B389B3032A67
:10ACB0002FD8034653F8084F0F3121F007012546DE
:10ACC000E61A5C6824F00307F61B8E4205D22C6856
:10ACD0002B46002CF3D100231BE0D0E900650D4486
:10ACE0004560304450F8046CAE4202D208384560EA
:10ACF0005C6854B1186824F00304E05041EA020093
:10AD0000E118486019600B4602E041EA0200586011
:10AD100008331846F0BDB0B50022E8B1E1B100F14A
:10AD20000804A1F108020023944206D025462468B5
:10AD30002B46002CF8D100220EE051F8045C446848
:10AD400025F00305641B446013B11068186002E02D
:10AD5000002041F8040C01221046B0BD08B14207A2
:10AD600002D000221046704700221829FAD311F0B1
:10AD70000703F7D110B50A18A2F108038360002376
:10AD800042F8083C8268102454600122C0E9001493
:10AD9000C360BDE81040E5E710B5002817D00146B4
:10ADA00000F1140252E8000F10B9BFF32F8F04E036
:10ADB000036842E8003404B1F4E740B1043151E8DB
:10ADC000002F531C41E8003404B1F8E710BD002007
:10ADD00010BDB0B500281ED0C2688A421BD80269D7
:10ADE0008A4218D900F1140213680B60BFF35F8F19
:10ADF00052E8003F0C689C42F6D142E8001505B1CC
:10AE0000F2E7043050E8001F4A1E40E8002303B177
:10AE1000F8E70020B0BD6FF00300B0BDB0B5044648
:10AE20000020ACB1A1B19AB193B10020C4E90010E7
:10AE300004F1080002FB01352CC0481E636120B1FB
:10AE40009918196001380B46F9E7002018600120B5
:10AE5000B0BDF8B50446807868B3E5682146284659
:10AE6000FFF735FD002005F10C0620703046214625
:10AE7000FFF7AFFFA868E8B13046FFF78DFFC8B114
:10AE80000446284600F006FA002100220646002764
:10AE900000F0BCFA304600F05DFA81686A6A064646
:10AEA00004F10C00FFF755FCF920A7702070F06842
:10AEB000E07025E0F8BDA568A86808B3407883284D
:10AEC0001ED1284600F0E6F90021002206460027A0
:10AED00000F09CFA304600F03DFA064680686A6A47
:10AEE00004F10C01FFF735FCF06808B1E17801705E
:10AEF000277005F10C002146BDE8F840FFF769BF57
:10AF000028462146BDE8F840FFF7B5BC2DE9F041E1
:10AF1000044600274FF00108D4B12546E87864695B
:10AF20000007F9D52F76A8680028F5D0284600F04C
:10AF3000B1F900210022064600F068FAC5E903676E
:10AF4000F06A686100B1056185F81880F562E3E791
:10AF5000BDE8F081B0B5C278920715D5C068C36A64
:10AF600090F821209C688C4208BF8C682CB194F921
:10AF7000204055B2AC42C8BFE2B25B69002BF1D1B0
:10AF800090F82010914200D1B0BD80F82020BDE89B
:10AF9000B04000F0AEB9000070B5ED4C04F15605BC
:10AFA00004F15A06B4F85400D5E85F1F11B9BFF395
:10AFB0002F8F04E04A1EC5E8532F03B1F4E70904BC
:10AFC00029D0D6E85F1F4A1C904200D80022C6E86C
:10AFD000532F03B1F5E788B2E16D51F82000D0B1ED
:10AFE0000178F1390829DDD8DFE801F00605090507
:10AFF000050C0F051200D5E7216E8847D2E7616E78
:10B000008847CFE7A16E8847CCE7E16E8847C9E75C
:10B01000216F8847C6E70020BDE8704000F0E6B821
:10B0200070B50146EA4800F15603B0F85420D3E861
:10B030005F4FA24202D8BFF32F8F04E0651CC3E824
:10B04000565F06B1F3E7A3B2934214D200F158035E
:10B05000D3E85F4F651CAA4200D80025C3E8565FBD
:10B0600006B1F5E7C36DA2B243F82210417A39B1B7
:10B070000121817270BD0220BDE87040FAF7B6BEB2
:10B0800002484FF08051016070BD00BF04ED00E048
:10B0900010B58168B1B100F10C01D1E85F2F12B990
:10B0A000BFF32F8F04E0531EC1E8543F04B1F4E70F
:10B0B000110407D000F0EEF800210022BDE8104096
:10B0C00000F0A4B910BD000010B501214170CE49B7
:10B0D00090F920301C310A46896841B191F920402D
:10B0E0009C42F8DCC0E9021290600C3104E00021BF
:10B0F000C0E9021202F10801086010BDB0B54A1C97
:10B100000DD0EA4A00242C3215462B68DBB1DD69EC
:10B11000A9421AD3491B03F110051C46F5E7F14972
:10B12000002330310C461A46236803F11004002B2B
:10B13000F9D14FF0FF33C3610023C0E904329AB163
:10B1400002F1100110E0002500E00125002CC0E90B
:10B150000434C16118BF04F1100210602DB1DA6926
:10B16000511AD96103F114010860B0BDC2690169C7
:10B17000531C0AD021B143694B61CB691A44CA619F
:10B1800042693AB9ED48C162704709B142694A6102
:10B1900042691AB10023436111617047E7480163B6
:10B1A000704700BF70B5E54DEC6A1CB1E06901382D
:10B1B000E06100D070BD042660781338B6EB301F14
:10B1C00005D1204600F08FF82146FFF7C3FE204648
:10B1D00000F07FF8204600F0B3F8246924B1E0695C
:10B1E0000028E9D000206061EC6270BDB0B5054672
:10B1F000D2484469017A65B1022905D194F9200049
:10B2000095F92010814211DC2846BDE8B04000F0DD
:10B2100097B8022912D1456A85B194F9200095F9B1
:10B22000201081420ADD284600F053F82046FFF73F
:10B230004BFF2846BDE8B04000F0C4B8B0BD00BF29
:10B2400010B5044600202080A07881070DD5C006E7
:10B2500005D4BA48216B406FFFF75DFD05E0B748A4
:10B26000216BD0F88400FFF7B4FDA078C00708BFB9
:10B2700010BDB249D1F8880020B12146BDE8104088
:10B28000FFF7A7BDD1F880002146BDE81040FFF7C9
:10B2900042BD00BF0146806882688A6002B1D16009
:10B2A0000021C160704710B591F9203002468068D6
:10B2B00040B190F920409C42F8DAC1E90202916065
:10B2C0000C3004E00020C1E9020202F10800016034
:10B2D00010BDC16831B182688A60826802B1D160F4
:10B2E0000021C16070470178F12918BF7047C0681C
:10B2F000F9E7B0B50446054625B12878F12802D112
:10B30000ED68F9E7B0BD2046FFF7E3FF2846214688
:10B31000BDE8B040FFF7C7BF10B5044640783328FA
:10B320000DD194F82320616A2046FFF730FB30B13D
:10B33000014620460022BDE8104000F067B810BD6D
:10B340000146012048707D481C30FFF7ACBF00BFAC
:10B350003000001090F82210C9064FF0200158BFAD
:10B360006021806B084470477448416939B1086BAB
:10B370008A6B824204D90068034A904200D1704728
:10B380000120FAF733BD00BFA52E5AE270B5544C28
:10B390000A48A26D666E002100F070FE674DA8623B
:10B3A0004EB1E26D0648002100F068FEA864002856
:10B3B00018BF012070BD012070BD00BFE95D001401
:10B3C000B1B40014F749886102214170FFF7CCBF86
:10B3D0003000001010B5F34C0246237A0020022BF7
:10B3E00011D1636A7BB160694270FFF787FE606AC2
:10B3F0008168616211B104F11C02CA600021C16060
:10B40000FFF7E0FF012010BD30000010B0B504468A
:10B4100090F822001546C0064FF0200058BF60206B
:10B42000A26B81502046FFF7A1FE20461DB1BDE86A
:10B43000B040FFF7DBBEBDE8B040FFF781BF0000C2
:10B44000B0B5FFF753FAD74DE968286D0131E960CF
:10B4500000B18047FFF7A6FE0020FFF7C7FE296C6A
:10B4600011B3AA69A86B90421CBFC5E90E21B0BDFB
:10B47000E96B11B10139E96316D1297A022913D197
:10B480006C6A8CB190F8200094F8201081420BD1A6
:10B490002046FFF71EFFA86BFFF752FF2046FFF77D
:10B4A00091FF286CC5E90E40B0BD00BF3000001010
:10B4B00082B0BF480821D0E91820FFF76FFBB94DD3
:10B4C00009496C46C5E91301214600224FF0FF33BC
:10B4D000FFF72EFB10B9DDE900108847E86CF3E7B1
:10B4E0008CF7001430000010EDB4001470B5AD4DB1
:10B4F0006C6C14B32069012601382061ECB120691D
:10B50000D8B9E06808B1A16881606864E86C04F1AA
:10B51000180100220023FFF753FB18B10320214636
:10B52000FAF764FCE078012804D161692046FFF74E
:10B5300065FA00E066706C6CE0E770BD30000010EA
:10B54000EFF305822AB9EFF3108212B9EFF31182FB
:10B55000CAB16FF00302A0B199B90178F62910D1F0
:10B560000C30D0E85F1F11B9BFF32F8F04E04A1EE3
:10B57000C0E8532F03B1F4E70022080408BF6FF0BE
:10B58000020210467047DFF808C000DF704700BFB6
:10B59000F5BD0014EFF3058129B9EFF3108111B95E
:10B5A000EFF3118111B16FF005007047DFF804C0AF
:10B5B00000DF704749BE0014EFF305832BB9EFF3AA
:10B5C000108313B9EFF311830BB100207047DFF83C
:10B5D00008C000DF704700BFA9BE001410B50446C4
:10B5E000EFF3058028B9EFF3108010B9EFF3118065
:10B5F00090B15CB12078F62808D12046FFF7B0F969
:10B6000038B12046FFF70CFD002010BD6FF003009D
:10B6100010BD6FF0020010BD2046DFF808C000DF4B
:10B6200010BD00BF29BF0014DFF804C000DFFEE733
:10B6300061BF0014B0B5EFF305822AB9EFF31082B1
:10B6400012B9EFF31182DAB16FF00304B0B100293F
:10B6500014D40278F12A11D14278042A02D16FF071
:10B6600002040BE000F1280252E8003F43EA010423
:10B6700042E8004505B1F7E7FFF7D2FC2046B0BD30
:10B68000DFF804C000DFB0BDC9BF0014EFF30583CD
:10B690002BB9EFF3108313B9EFF3118313B16FF0EC
:10B6A00005007047DFF804C000DF704731C00014A8
:10B6B000EFF305832BB9EFF3108313B9EFF3118385
:10B6C0000BB100207047DFF808C000DF704700BFF3
:10B6D0007DC00014EFF3058129B9EFF3108111B992
:10B6E000EFF3118111B16FF005007047DFF804C06E
:10B6F00000DF70474DC20014EFF3058129B9EFF365
:10B70000108111B9EFF3118111B16FF0050070478D
:10B71000DFF804C000DF704709C30014EFF30581B0
:10B7200029B9EFF3108111B9EFF3118109B10020AC
:10B730007047DFF808C000DF704700BF55C3001432
:10B74000EFF305822AB9EFF3108212B9EFF31182F9
:10B7500012B16FF005007047DFF804C000DF7047DA
:10B760006DC30014EFF3058129B9EFF3108111B90E
:10B77000EFF3118111B16FF005007047DFF804C0DD
:10B7800000DF7047B9C3001430B180B50146132003
:10B79000FFF720FEBDE8804000207047F948007A9E
:10B7A000704700BF3000001073484068704700BF0A
:10B7B0008CF700142DE9F843F24F387A30B10128A4
:10B7C00000F096804FF0FF30BDE8F88307F10800E5
:10B7D0009C21FEF7D7FFDFF8648AB8F81000D8E99B
:10B7E0000B41A7F85400D8E90202FA6538642046F4
:10B7F000FFF7B4FA08B1C7F88040D8E90541DFF88F
:10B80000F890D8E907562046C847D7F88010002896
:10B8100018BF2146796728463146C847D7F88010B7
:10B82000002818BF2946B967D8E909412046C8470A
:10B83000D7F88010002818BF2146D8F83440F9679F
:10B840003CB12168D4E902232046FFF7E7FAC7F8A4
:10B850008440D8F838403CB12168D4E9022320461E
:10B86000FFF7DCFAC7F88840D8F83C403CB12168C3
:10B87000D4E902232046FFF7D1FAC7F88C40D8F864
:10B8800040403CB12168D4E902232046FFF7C6FAC4
:10B89000C7F89040D8F844403CB12168D4E902236D
:10B8A0002046FFF7BBFAC7F89440D8F848403CB1AF
:10B8B0002168D4E902232046FFF7B0FAC7F8984080
:10B8C000D8F84C403CB12168D4E902232046FFF768
:10B8D000A5FAC7F89C40D8F850403CB12168D4E99B
:10B8E00002232046FFF79AFAC7F8A04001203872D9
:10B8F0000020BDE8F88300BF5DAD0014B0B5F64C84
:10B90000207A01281CD1FFF741FDC8B11948FF2159
:10B910008175817D026881F0FF01B1FA81F1C1F189
:10B920002001C2F302228A4228BF511CFE2202FAE1
:10B9300001F1114DC17468681049FEF7F1FF10B1B3
:10B940004FF0FF30B0BDFEF7E7FF2061FEF7D2FFFA
:10B9500004F11C00FFF79EFCFFF734FD2878C007B8
:10B960000CBF0320022080F31488022020720020E4
:10B97000B0BD00BF0CED00E08CF70014D5A600149C
:10B980002DE9F84300284CD00F466FF0030500293D
:10B9900049D004460078FA2845D120469946904679
:10B9A000FEF749FF002841D0064620463146FEF703
:10B9B0008EFF626A06F10C013846FEF7CAFEB8F146
:10B9C000000F1CBFF07888F8000004F10C07002578
:10B9D000384631463570FFF7FCF9A06818B3384691
:10B9E000FFF7DAF90025F0B106462046FFF752FCD2
:10B9F000002101220746FFF709FD3846FFF7AAFCA0
:10BA00008168626A074606F10C00FEF7A2FEF92083
:10BA1000B5703070F8683146F0702046FEF72BFFA5
:10BA200001E06FF003052846BDE8F883B9F1000F87
:10BA300010D083204946FFF7CDFC40B1EC48416966
:10BA40002046FFF730FCEFF30980C0E902786FF081
:10BA50000105E8E76FF00205E5E700BF2DE9F84FC3
:10BA6000002770B10D4661B105F10F0121F0030609
:10BA70000446B0FA80F0B6FA86F10844202803D2D2
:10BA800000273846BDE8F88F06FB04F872B1D2F8FB
:10BA900008A01368D2E90490BAF1000F11D05FEA50
:10BAA0008A71EDD1D1683429EAD30DE000234FF03B
:10BAB0000009FC490093D1F8A00078B1FFF76CF9B8
:10BAC00012E0D1680029DBD1B9F1000F2FD0002797
:10BAD0004045D6D319F003002BD0D2E7D1F880002F
:10BAE00034210122FFF7DFF882464FF0010BB9F154
:10BAF000000F10D1BAF1000F0DD0EA4F4146F86F98
:10BB00000022FFF7D0F8814638B148464146FEF79B
:10BB100039FE57461AE057461AE0BBF1000F14D021
:10BB2000D7F8A00060B15146FFF753F90DE00028A7
:10BB3000A6D1BAF1000FBCD000934FF0000BD6E7AE
:10BB4000D7F880005146FFF7E6F800270BF1020B0B
:10BB5000002F3FF496AF0020C7E90950C7E90B005A
:10BB600000993246C7E90110FA2087F802B0387010
:10BB700007F10C0021464B46FFF750F9E84802490F
:10BB800001677EE73000001053AE00142DE9F84342
:10BB900038B30E466FF00307002951D005460078F0
:10BBA000FA284DD1A86899469046E8B14078832894
:10BBB0001AD12846FFF76EFB002101220446002718
:10BBC000FFF724FC2046FFF7C5FB044680686A6A3D
:10BBD0003146FEF7BEFDE06890B380F80080002794
:10BBE0002EE06FF003072BE005F10C00FFF7D4F80F
:10BBF00080B16A6A04460C303146FEF7AAFD002780
:10BC0000F92084F80380A770207028462146FEF7AB
:10BC100032FE15E0B9F1000F10D093204946FFF72E
:10BC2000D9FB40B1E74841692846FFF73CFBEFF3F9
:10BC30000980C0E902686FF0010701E06FF00207B8
:10BC40003846BDE8F88300BF70B50446DD48456955
:10BC50004DB32CB32078F52822D1207E30B30E4688
:10BC6000E178CA0702D0E268AA422BD066B38807FF
:10BC70000AD5E06895F9201090F920208A4203DA6D
:10BC800080F82010FFF735FB53203146FFF7A2FB69
:10BC900018B120462946FFF706FB6FF0010070BD82
:10BCA0006FF0030070BD4FF0FF3070BD0020C4E99D
:10BCB0000350E86A606100B1046101202076002031
:10BCC000EC6270BDFF2802D16FF0020070BD013040
:10BCD0002076002070BD00BF3000001070B550B15C
:10BCE0008468D0E900657CB1A10710D1C16800204B
:10BCF0001C2917D270BD00250026DF49D1F8940019
:10BD000038B1FFF749F80AE0C0680028F5D00020F4
:10BD100070BDD1F880001C210122FEF7C4FF04464B
:10BD200058B101206660E570A070F520207004F124
:10BD300008001121FEF726FD00E00024204670BD1A
:10BD400070B50446CC48406970B154B12178F529EA
:10BD500007D1217E11B1E268824209D06FF002045E
:10BD600004E06FF0030401E04FF0FF34204670BDA3
:10BD700001392176090601D00024F7E7616909B18C
:10BD800022690A6100F12C0223691546002B18BFB5
:10BD900003F114052960E17889070FD590F8211087
:10BDA00012684AB193682BB193F920304DB2AB427F
:10BDB000C8BF19461432F3E780F82010A06888B194
:10BDC0002046FFF767FA0021002205460026FFF70C
:10BDD0001DFBC4E90356E86A606100B104610120FB
:10BDE0002076EC6200200024FFF700FABEE700BFD7
:10BDF00030000010B0B508B304460078F6281DD115
:10BE000004F10C00D0E85F2F12B9BFF32F8F04E0CC
:10BE1000531EC0E8553F05B1F4E710041CBF0020D5
:10BE2000B0BD71B16320FFF7D5FA20B192484169E6
:10BE30002046FFF738FA6FF00100B0BD6FF0030045
:10BE4000B0BD6FF00200B0BD10B500B3044600787D
:10BE5000F6281CD1A06868B12046FFF71BFA6FF0E6
:10BE600002010022FFF7D2FAA0680028F4D10020D6
:10BE7000FFF7BCF900202070A178C90710D0EE4967
:10BE8000D1F8980030B12146FEF7A3FF07E06FF02C
:10BE9000030010BDD1F880002146FEF73CFF0020D2
:10BEA00010BD00BF3000001070B5054601384FF6D8
:10BEB000FE730C460021984298BFAC4201D9084657
:10BEC00070BD4AB19068166870B181070FD1D26811
:10BED0000021102AF3D314E00026D749D1F89800A6
:10BEE00038B1FEF759FF0AE0D0680028F5D00021EC
:10BEF000E5E7D1F8800010210122FEF7D4FE60B101
:10BF000001210022C5818481C0E901628170F6218E
:10BF10000170FC49034A8A6600E000200146CEE732
:10BF20003000001091B0001410B560B10178F6290E
:10BF300009D1816859B1FFF7ADF900210122002430
:10BF4000FFF764FA01E06FF00304204610BDFEF72E
:10BF500007FD0024002808BF6FF00204F5E7000089
:10BF600070B5FB4D287A02282AD1686A40B36C6903
:10BF7000E06AFEF7CBFFA06918B100210022FFF7AD
:10BF800045FAEFF30980A063686A8168696211B1BC
:10BF900005F11C02CA600026C660FFF713FA6E6145
:10BFA000E078C00704D12046BDE87040FFF748B9EB
:10BFB0000420E6606070686BA06000B1C4606C63D0
:10BFC00070BD00BF30000010B0B56FF0030460B367
:10BFD00000292AD405460078F12826D1687804285B
:10BFE00002D16FF0020420E005F1280050E8002F94
:10BFF00042EA010440E8004303B1F7E768783328D8
:10C0000013D195F82320696A2846FEF7C0FC60B179
:10C01000014695F823000C4680075CBF686A21EA58
:10C02000000428460122FFF7F1F92046B0BD0000C8
:10C03000F8B50546DF48476957B1002D0BD40E46C9
:10C040001446384629463246FEF7A1FC30B1F8BD09
:10C050004FF0FF30F8BD6FF00300F8BD4CB1332056
:10C06000214687F823607D62FFF7B4F96FF0010085
:10C07000F8BD6FF00200F8BD300000102DE9FE4F52
:10C0800018B380466AB102F1100A96689AE88006F1
:10C09000D2E90053BEB1B00717D1D068442814D3F9
:10C0A00017E001244FF0180A002300274FF0000981
:10C0B0000025C04A0293D2F88800CDE90015C0B12E
:10C0C000FEF76AFE1BE0D06818B100242046BDE8E8
:10C0D000FE8F37B10024B9F1000FF7D017F0070039
:10C0E000F4D1BAF1000F24D0AAF101003728ECD81E
:10C0F00021E0D2F8800044210122FEF7D4FD06465B
:10C100004FF0010B87B97EB184B1AA494B4AD1F8EF
:10C110008400D2F85490C8B1FEF73EFE07460028CE
:10C1200018BF0BF1100B17E0344635E0A148406F03
:10C130000DE04FF0180AB9F1000F1BD00024B9F13F
:10C14000480FC3D319F0070015D0BFE7486F494621
:10C150000022FEF7A8FD07460FB134461AE05FEA59
:10C16000CB7016D09349D1F8880068B13146FEF7FC
:10C1700030FE0EE00124002E3FF49BAFCDE9001508
:10C1800002934FF0000BBDE7D1F880003146FEF777
:10C19000C2FD00244BF0020B002C3FF497AF019836
:10C1A000182160600298E07040F2F11084F802B04B
:10C1B000208004F10800FEF7E5FA07EB09010020F2
:10C1C0004039FD22C4F82300C4F82700C4F82B002E
:10C1D00084F82F0084F8222084F821A084F820A07D
:10C1E000C4E90C79C4E90E181549009D396013495A
:10C1F000097849070AD56FF0100101EB99013A1D42
:10C200004FF0CC3311B108C20139FBE7A16B00221A
:10C210000D2A03D041F822000132F9E7094A4FF014
:10C220008070C1E90D28C8630D6262480649016645
:10C230002046FEF7DBFF49E7300000108CF70014C2
:10C24000A52E5AE229B6001419B3001470B5C0B176
:10C2500004460078F12814D1607800F00F0001281E
:10C2600012D0032814D002281CBF6FF0020070BD4A
:10C2700050496FF002000A7A022A01D1496A69B96D
:10C2800070BD6FF0030070BD2046FFF722F805E097
:10C290002046FFF71EF82046FEF768FFE06AFEF72B
:10C2A00035FEA06918B100210022FFF7AFF86078D1
:10C2B000022810D13F4DEFF30980A063686A8168BE
:10C2C000696211B105F11C02CA600026C660FFF761
:10C2D00079F86E6102E00020FEF788FFE078C00781
:10C2E00003D12046FEF7ACFF09E00020E060042007
:10C2F00060703048416BA16001B1CC6044630020A4
:10C3000070BD00BF3000001010B5B0B10446007819
:10C31000F22812D16078022802D12046FEF790FB65
:10C3200000202080A178C90710D02249D1F88C00C4
:10C3300030B12146FEF74DFD07E06FF0030010BD60
:10C34000D1F880002146FEF7E6FC002010BD00BFBA
:10C350003000001040B10178F22905D14078023850
:10C36000B0FA80F04009704700207047B0B570B156
:10C370000C4605466FF00300B9B12978F22914D1B3
:10C380006878022806D12846FEF75AFB08E06FF0CD
:10C390000300B0BD0748006D40B102206C616870B9
:10C3A00028462146FEF72AFB0020B0BD6FF00200B0
:10C3B000B0BD00BF3000001080B570B10178F22927
:10C3C0000BD1417802291CBF6FF0020080BD012112
:10C3D0004170FEF735FB002080BD6FF0030080BD8B
:10C3E00000207047002070472DE9F0411E46174697
:10C3F00088460546002400F0A5F940B9054850F8E4
:10C40000253023B1324639464046984704462046F7
:10C41000BDE8F08158FA001470B50546002400F01C
:10C4200091F9C0B90D480E4950F82500007E51F829
:10C43000200086680B4850F8251061B10A488847EB
:10C44000040008D00848093850F8091F3160818875
:10C45000B1808079B071204670BD0000C801011420
:10C460002C0201145CFA001419000010002070471F
:10C4700070B50E460546002400F064F970B908480E
:10C48000084950F8250051F825203AB1007E0649A8
:10C4900051F820003146806890470446204670BD20
:10C4A000C801011468FA00142C020114002070471E
:10C4B00070B50E460546002400F044F960B90748FF
:10C4C00050F8251041B130468847040004D0044894
:10C4D00050F8250040690685204670BD6CFA0014AE
:10C4E000C801011470B50546002400F02BF9B0B95D
:10C4F0000C480D4950F82500007E51F820000B49EA
:10C50000806851F8251051B1094A0368C2F8023019
:10C510008388D38080791072901C88470446204617
:10C5200070BD0000C80101142C02011470FA00143F
:10C53000100000102DE9F05F14468B46814600F094
:10C5400001F9B8B9384951F829603849307E756920
:10C5500051F82000C06890F8950006EB4000B0F854
:10C5600028A0707E28B1B07E38B1A878002857D1B5
:10C5700047E027204042BDE8F09F296AA869401A99
:10C5800029D0844200D90446E9697068738C0A1A7C
:10C59000A3EB0A00801A8046274644450CD3024686
:10C5A0005846FEF7D6F87068E861296AC34401EB83
:10C5B0000800A7EB0807286257B13A465846E969D0
:10C5C000FEF7C7F8E8693844E861286A3844286209
:10C5D000A87810B125E00024FAE7296AA869401A72
:10C5E000718C091AB1EB4A0F1BD30220A870F17F9E
:10C5F000000240EA01310E4850F82900FDF736FCF0
:10C600000FE0296AA869401A0AD0844200D904467A
:10C61000224658466969FEF79CF8A8692862E4E753
:10C6200000242046A7E70000C80101142C020114D1
:10C63000A09C00102DE9F05F14468946824600F068
:10C6400081F870B9304951F82A60707E756938B147
:10C65000B07E4FF0020B38B1287898B3002445E043
:10C6600027204042BDE8F09F2969A868401A318C14
:10C67000081A28D0844200D90446326868682746E0
:10C68000121A02EB0108414644450CD30A464946BA
:10C69000FEF75FF830686860A968C14401EB0800E4
:10C6A000A7EB0807A86057B13A4649466868FEF705
:10C6B00050F8686838446860A8683844A8602878EA
:10C6C00018B113E014E00024F9E72969A86888424A
:10C6D0000CD000BF85F800B0B17F4FF4806040EA15
:10C6E00001310A4850F82A00FDF7C0FB2046B9E79F
:10C6F000308CA04200D20446224649466868FEF7C4
:10C7000028F8AC60E6E70000C8010114A09C001006
:10C7100070B5C4B2204600F015F8002811D1451EAE
:10C720002846FDF7A9FB0101FAD4060AB00702D595
:10C73000204600F09FF97007F2D5204600F09AF8E5
:10C74000EEE770BD0D490978884212D20C4951F8C4
:10C75000200070B1416961B10A49007E09788842C0
:10C7600009D2094951F8200028B1C06818B1002049
:10C77000704727207047212070470000C401011432
:10C78000C8010114280201142C0201142DE9F04102
:10C790000D460646FFF7D6FF002838D11D481E4932
:10C7A00050F82640207E676951F82000617FC068FC
:10C7B00041F08001A9422AD0E17FA94227D0617EC1
:10C7C00001291AD01548656B50F8260000B1804742
:10C7D00094F82C0001281AD0608CA84217D30220AC
:10C7E000B870E07F4FF4007141EA00310C4850F816
:10C7F0002600BDE8F041FDF739BBA17E09B1658C8B
:10C80000EAE790F8950004EB4000058DE4E7BDE809
:10C81000F0810000C80101142C020114C8FA0014B0
:10C82000A09C00102DE9F0410E460746FFF78AFF55
:10C83000002818D10D484FF0000850F82740E07F3D
:10C840006569B04208D185F80280607E20B9084849
:10C8500050F8270000B18047A07F40F08000B04230
:10C8600001D185F80080BDE8F0810000C801011405
:10C87000CCFA00142DE9F84F8346FFF763FF002838
:10C880007DD1784951F82B507749287E6C6900900A
:10C8900051F82000C06890F8950005EB4000B0F812
:10C8A00028802078012809D000206A7E01210026F6
:10C8B000012A0AD02278012A6FD0A4E0A87F40F094
:10C8C0008001009801F05EFCEFE7AA7E002A227842
:10C8D00002D0012A56D05CE0012A18D1B0B1E2683A
:10C8E0000244E2602B8C2F681F44974201D8D21A71
:10C8F000E260226902442261A368934207D1B0FB3F
:10C90000F8F308FB130010B9617000E0667022694B
:10C91000A068871A4046474500D9074660784FF01F
:10C92000FF3977B100B166706268E068904209D360
:10C930002B8C2A681A44C3199A4203D2A2EB00092D
:10C9400000E0E8B12170D5F80CA0E168B84648468F
:10C950004F4507D302465046FDF7FBFE2968CA44FF
:10C96000A8EB0908B8F1000003D002465046FDF7D5
:10C97000F0FEA87F3B4640F08001EA6819E06EE0D7
:10C9800026701EE060B1B0FBF8F308FB1300A66050
:10C9900020B1607828B1002306E014E06170FAE766
:10C9A0006670A368002BEBD02170A87F626840F00E
:10C9B0008001009801F01AFB0028E1D120780028BE
:10C9C0004DD12A4843E0E8B195F82C20A2B995F85A
:10C9D0002D3022695B1E1A4004EB82029665E268E4
:10C9E0002B6B1344E3602F8C2A6817449F4200D8B6
:10C9F000E2602269521C2261A8F10102104202D1B8
:10CA0000617000E066706078002388B995F82C00AA
:10CA100018B92269A068904202D12078022810D16A
:10CA200095F82D202069521E104004EB8000836D84
:10CA30002170A87FE26840F08001009801F0D6FAEA
:10CA400008B1267002E02078002808D1084850F884
:10CA50002B00002803D001B0BDE8F04F0047BDE82F
:10CA6000F88F0000C80101142C02011454FA0014BC
:10CA70009CFA00142DE9F14F82B00298FFF762FE94
:10CA800000287CD16649029851F820506C69287EB4
:10CA90000090A078012809D00026687E4FF0000998
:10CAA000012809D0A078012876D08BE0E97F009892
:10CAB00001F068FB0646F0E7A87E28B1A0780128BF
:10CAC00045D002284BD055E05649009851F8200037
:10CAD000C06890F8950005EB4000008D0190A078AB
:10CAE000012824D11EB3676968686A8C391A0198D5
:10CAF000D5F810B0101AA0EB010AB04650465645C2
:10CB00000BD3024659463846FDF723FEA8EB0A0030
:10CB10006F68D3445FEA000805D04246594638465C
:10CB2000FDF717FE47446761A0693044A061216AA0
:10CB3000A069401A698C091A0198B1EB400F17D30C
:10CB40000120A070DDE90003E97F2A690DE0002ED5
:10CB500063D084F80290A0693044A0610CE0012009
:10CB6000A0706B8CE97F6269009801F03FFA08B110
:10CB700084F80290002E50D02B48029901E04CE03E
:10CB80000AE050F82110002947D0226AA06903B0BA
:10CB9000801ABDE8F04F0847A6B195F82E10A0699D
:10CBA000491E084004EB800006666069696B014419
:10CBB00061616A8C686802448A4200D86061A06939
:10CBC000401CA06195F82C00012801D038B116E076
:10CBD000A078022813D10120A070236D09E0216AFA
:10CBE000A069401A95F82E10884208D20120A07042
:10CBF0006B6BE97F6269009801F0F8F908B184F87D
:10CC00000290002E09D00948029950F8210000280E
:10CC100003D003B0BDE8F04F0047BDE8FE8F000031
:10CC2000C80101142C02011450FA0014A0FA0014D7
:10CC300070B50446FFF786FD050025D1134850F86E
:10CC40002400407E01280AD0114800BF50F824007B
:10CC500000B180470F4E56F8240010B108E00E488E
:10CC6000F4E721460320FCF7A9FF46F8240050B161
:10CC70000A4E56F8240038B921460420FCF79EFFDE
:10CC800046F8240000B91025284670BDC8010114DB
:10CC900098FA0014289D001060FA0014A09C00105F
:10CCA0002DE9F047C6B23046FFF74CFD00282FD1E2
:10CCB0004FF0FF3900274846FDF7DEF80101FAD4AE
:10CCC000000A4007F7D53046FFF73CFD0028F2D1B7
:10CCD000104951F826506C6995F81880E0780128C1
:10CCE00008D1687F40F08001404601F04BFAE178BE
:10CCF000012909D00120E070687F636A40F080015B
:10CD00004046AA6801F072F90028D4D0E770D2E753
:10CD1000BDE8F087C801011470B50E460546002431
:10CD2000FFF710FD30B9044850F8252012B1304605
:10CD300090470446204670BD78FA00142DE9F04172
:10CD400016460F4605460024FFF7FCFC38B9054897
:10CD500050F825201AB131463846904704462046FF
:10CD6000BDE8F0817CFA00142DE9F04116460F462B
:10CD700005460024FFF7E6FC38B9054850F82520A1
:10CD80001AB131463846904704462046BDE8F08146
:10CD900080FA001470B50E4605460024FFF7D2FC59
:10CDA00030B9044850F8252012B130469047044667
:10CDB000204670BD84FA001470B50E460546002466
:10CDC000FFF7C0FC30B9044850F8252012B13046B6
:10CDD00090470446204670BD88FA001470B50E4690
:10CDE00005460024FFF7AEFC30B9044850F8252072
:10CDF00012B1304690470446204670BD8CFA0014AC
:10CE000070B50E4605460024FFF79CFC30B9044877
:10CE100050F8252012B1304690470446204670BD98
:10CE200090FA001470B50E4605460024FFF78AFC00
:10CE300030B9044850F8252012B1304690470446D6
:10CE4000204670BD94FA001470B50D4606460024C5
:10CE5000FFF778FC68B9084850F8261049B1284611
:10CE60008847040005D0054850F82600406980F83E
:10CE70002B50204670BD0000A8FA0014C801011410
:10CE80002DE9F04116460F4605460024FFF75AFCEF
:10CE900038B9054850F825201AB131463846904730
:10CEA00004462046BDE8F081ACFA001470B50E4689
:10CEB00005460024FFF746FC30B9044850F8252009
:10CEC00012B1304690470446204670BDB0FA0014B7
:10CED0002DE9F0411E461746884605460024FFF717
:10CEE00031FC40B9054850F8253023B13246394667
:10CEF0004046984704462046BDE8F081B4FA001445
:10CF000070B50E4605460024FFF71CFC60B90748C3
:10CF100050F8251041B130468847040004D0044839
:10CF200050F8250040698685204670BDB8FA001487
:10CF3000C801011470B50E4605460024FFF702FC37
:10CF400030B9044850F8252012B1304690470446C5
:10CF5000204670BDBCFA001470B50D46064600248C
:10CF6000FFF7F0FB68B9084850F8261049B1284689
:10CF70008847040005D0054850F82600406980F82D
:10CF80002A50204670BD0000C0FA0014C8010114E8
:10CF900070B50E4605460024FFF7D4FB60B907487C
:10CFA00050F8251041B130468847040004D00448A9
:10CFB00050F8250040690663204670BDC4FA00148D
:10CFC000C80101142DE9F0410746FFF7BBFB00281B
:10CFD00056D12C480026842150F827506C692046F1
:10CFE000A6702670FDF7CEFB286860602868E060B8
:10CFF000686860616868E061687E012824D055F83F
:10D00000300F20632889A0851C2024F8680F15F8AC
:10D01000010C60802868606068892081A88960812F
:10D02000E889A081E68168682061288AA082688AF0
:10D03000E082A88A20831448668350F827000028DD
:10D040001ED0BDE8F0410047A87E40B90F482685B4
:10D050004FF41651016006714671082181710C4828
:10D0600050F8270000B18047A87E002808D1094861
:10D0700050F82710002903D0BDE8F04103480847C5
:10D08000BDE8F081C8010114A4FA001420000010CA
:10D0900064FA001470FA00142DE9F0410446FFF719
:10D0A00051FB050020D1134E002756F8240020B173
:10D0B000FCF752FE40B946F824700F4E56F8240093
:10D0C00030B1FCF749FE08B110250DE046F8247098
:10D0D0000A4850F82400407E012808D0084800BFC4
:10D0E00050F8240000B180472846BDE8F08105488B
:10D0F000F6E70000A09C0010289D0010C801011454
:10D10000D0FA001474FA001407490978884209D249
:10D11000064951F8200028B1C16819B1006808B16A
:10D120000020704721207047280201142C020114AE
:10D130002DE9F05F68490546002009788D4232D21A
:10D14000DFF8989159F8251000292CD0644951F83E
:10D150002510CC68002C26D094F8A010C1F3411201
:10D16000012A20D1DFF87CA15F4F11F01F0107D009
:10D1700001291AD002293FD0032914D10026A7E0A3
:10D1800000260DE05AF826100978A94206D159F870
:10D190002610D4F8AC008847002804D1761CF6B2DB
:10D1A00039788E42EED3BDE8F09F0026BB461EE0E4
:10D1B0005AF8268098F80010A94216D15FF00007AF
:10D1C00007EBC70208EB42010A7952B1B4F8A42078
:10D1D00049798A4205D159F82610D4F8AC0088471D
:10D1E00018B97F1CFFB2042FEAD3761CF6B29BF865
:10D1F00000108E42DCD3D6E70026BB4654E000BFC9
:10D200005AF8268098F80010A9424BD15FF0000729
:10D2100007EBC70208EB42010A79EAB38A7922B127
:10D22000B4F8A420CB799A4230D00A7A22B1B4F86B
:10D23000A4304A7A934229D08A7A22B1B4F8A42041
:10D24000CB7A9A4222D00A7B22B1B4F8A4204B7B3D
:10D250009A421BD08A7B22B1B4F8A420CB7B9A429D
:10D2600014D00A7C22B1B4F8A4204B7C9A420DD091
:10D270008A7C22B1B4F8A420CB7C9A4206D00A7DE5
:10D2800052B1B4F8A420497D8A4207D159F826103A
:10D29000D4F8AC00884700E000E018B97F1CFFB26A
:10D2A000042FB5D3761CF6B29BF800108E42A7D39C
:10D2B00079E700BF5AF826100978A94206D159F833
:10D2C0002610D4F8AC008847002894D1761CF6B21A
:10D2D00039788E42EED366E728020114D4FA00149E
:10D2E0002C02011424020114200201142DE9F05F24
:10D2F00068490546002009788D4232D2DFF89891BE
:10D3000059F8251000292CD0644951F82510CC6813
:10D31000002C26D094F8A010C1F34112012A20D18C
:10D32000DFF87CA15F4F11F01F0107D001291AD04F
:10D3300002293FD0032914D10026A7E000260DE0E2
:10D340005AF826100978A94206D159F82610D4F8BF
:10D35000AC008847002804D1761CF6B239788E429A
:10D36000EED3BDE8F09F0026BB461EE05AF82680AB
:10D3700098F80010A94216D15FF0000707EBC7022A
:10D3800008EB42010A7952B1B4F8A42049798A42E3
:10D3900005D159F82610D4F8AC00884718B97F1C7D
:10D3A000FFB2042FEAD3761CF6B29BF800108E422F
:10D3B000DCD3D6E70026BB4654E000BF5AF82680EF
:10D3C00098F80010A9424BD15FF0000707EBC702A5
:10D3D00008EB42010A79EAB38A7922B1B4F8A420B1
:10D3E000CB799A4230D00A7A22B1B4F8A4304A7A82
:10D3F000934229D08A7A22B1B4F8A420CB7A9A42F7
:10D4000022D00A7B22B1B4F8A4204B7B9A421BD0D5
:10D410008A7B22B1B4F8A420CB7B9A4214D00A7C38
:10D4200022B1B4F8A4204B7C9A420DD08A7C22B160
:10D43000B4F8A420CB7C9A4206D00A7D52B1B4F84D
:10D44000A420497D8A4207D159F82610D4F8AC00AF
:10D45000884700E000E018B97F1CFFB2042FB5D365
:10D46000761CF6B29BF800108E42A7D379E700BF76
:10D470005AF826100978A94206D159F82610D4F88E
:10D48000AC008847002894D1761CF6B239788E42D9
:10D49000EED366E728020114D8FA00142C02011416
:10D4A00024020114200201142DE9F84F05466748B3
:10D4B0000078854235D2DFF8989159F82500002888
:10D4C0002FD0644850F82500C468002C29D094F867
:10D4D000A000C0F34111012923D1DFF87CA1DFF8BE
:10D4E0007C8110F01F0009D001281CD0022843D0F5
:10D4F000032816D100265746A034A2E0002657463E
:10D50000A0340AE057F826000078A84203D159F861
:10D51000261020468847761CF6B298F8000086420E
:10D52000F0D3BDE8F88FCB4604F1A0000026C14639
:10D5300000901CE05AF8268098F80000A84214D108
:10D540005FF0000707EBC70108EB4100017941B12B
:10D55000B4F8A4104079814203D15BF826100098FA
:10D5600088477F1CFFB2042FECD3761CF6B299F8E3
:10D5700000008642DED3D4E70026C34651E000BF58
:10D580005AF8268098F80000A84248D15FF00007BA
:10D5900007EBC70108EB41000179E1B3817921B1C3
:10D5A000B4F8A410C279914230D0017A21B1B4F814
:10D5B000A410427A914229D0817A21B1B4F8A41002
:10D5C000C27A914222D0017B21B1B4F8A410427BEF
:10D5D00091421BD0817B21B1B4F8A410C27B91424F
:10D5E00014D0017C21B1B4F8A410427C91420DD03A
:10D5F000817C21B1B4F8A410C27C914206D0017D97
:10D6000049B1B4F8A410407D814204D159F82610E4
:10D6100004F1A00088477F1CFFB2042FB8D3761C0A
:10D62000F6B29BF800008642AAD37AE757F82600A4
:10D630000078A84203D159F8261020468847761C66
:10D64000F6B298F800008642F0D36AE72802011487
:10D65000DCFA00142C02011424020114200201142B
:10D660002DE9FE4F73490546002009788D423DD2D1
:10D67000DFF8C49159F82510002937D06F4951F8C7
:10D680002510CC68002C31D094F8A010C1F34112C1
:10D69000012A2BD1DFF8A8A16A4F11F01F010CD08D
:10D6A000012925D0022951D003291FD1002604F1D8
:10D6B000AC0B04F1A808A034B7E0002604F1AC0BD1
:10D6C00004F1A808A0340EE05AF826100978A942FF
:10D6D00007D159F826305A46414620469847002837
:10D6E00004D1761CF6B239788E42EDD3BDE8FE8FB8
:10D6F0000026BB4625E000BF5AF8268098F80010A7
:10D70000A9421CD104F1AC010291091F002701912B
:10D710000839009107EBC70208EB42010A7952B1C0
:10D72000B4F8A42049798A4205D19DE8070059F848
:10D730002630984718B97F1CFFB2042FEAD3761C15
:10D74000F6B29BF800108E42D6D3CFE70026BB4638
:10D7500057E000BF5AF8268098F80010A9424ED131
:10D760005FF0000707EBC70208EB42010A79EAB352
:10D770008A7922B1B4F8A430CA79934230D00A7AB7
:10D7800022B1B4F8A4204B7A9A4229D08A7A22B1E5
:10D79000B4F8A420CB7A9A4222D00A7B22B1B4F802
:10D7A000A4204B7B9A421BD08A7B22B1B4F8A420E0
:10D7B000CB7B9A4214D00A7C22B1B4F8A4204B7CD3
:10D7C0009A420DD08A7C22B1B4F8A420CB7C9A4234
:10D7D00006D00A7D52B1B4F8A420497D8A420AD10C
:10D7E00004F1AC0259F82630111F00E003E004F107
:10D7F000A000984718B97F1CFFB2042FB2D3761C43
:10D80000F6B29BF800108E42A4D36FE75AF82610A8
:10D810000978A94207D159F825305A464146204691
:10D820009847002891D1761CF6B239788E42EDD314
:10D830005CE7000028020114E0FA00142C02011435
:10D84000240201142002011470B505460024FFF7DC
:10D850005BFC30B9044850F82500C068007900B17D
:10D860000124204670BD00002C02011410B50446AE
:10D87000FFF74AFC002804D12046BDE8104000F024
:10D8800089BA10BD70B504462D4E0D46C80704D0A8
:10D8900056F8241009B101208847A80707D556F883
:10D8A000241009B100208847204601F0F5FE6807E2
:10D8B00021D5204601F0F0FE224850F824000668E9
:10D8C000F078B38800F00302B178204600F0CCFA7B
:10D8D00048B9F078B38800F00302B07840F08001D6
:10D8E000204600F0C1FA2046FCF732FE164850F8F8
:10D8F000240000B1804728070BD51449012051F8B6
:10D900002410C96881F89500114850F8240000B12E
:10D910008047E80604D50F4850F8240000B180473E
:10D92000A80604D50C4850F8240000B18047290A05
:10D93000480704D02046BDE8704000F06DBD70BDC2
:10D940002CFB0014140100101CFB00142C02011409
:10D9500014FB001424FB001420FB001410B5044633
:10D960000C480078844201D3002010BD0A4850F8CA
:10D970002400C0680028F8D00849D0F8AC0051F85D
:10D98000241088470028F0D12046BDE81040FFF75A
:10D99000CFBB0000280201142C02011404FB001468
:10D9A00010B504460C480078844201D3002010BD15
:10D9B0000A4850F82400C0680028F8D00849D0F878
:10D9C000AC0051F8241088470028F0D12046BDE86B
:10D9D0001040FFF78BBC0000280201142C02011438
:10D9E00008FB001410B504460A48007884420FD2A0
:10D9F000094850F82400C068002809D00749A03021
:10DA000051F8241088472046BDE81040FFF74CBD70
:10DA100010BD0000280201142C0201140CFB00149C
:10DA200010B504460F480078844201D3002010BD91
:10DA30000D4850F82400C0680028F8D00021C0F834
:10DA4000A810C0F8AC10094900F1AC0251F824301C
:10DA5000111FA03098470028E9D12046BDE81040AA
:10DA6000FFF7FEBD280201142C02011410FB001464
:10DA70002DE9F047C6B220480078864239D21F48C7
:10DA800000244FF0FF3750F82600D0F800901C48D3
:10DA900050F82600C10708D0810701D4012464276B
:10DAA000400702D444F0020464274FF00008E00766
:10DAB00001D0012119E03846FCF7DEF901460001EA
:10DAC00013D5D9F81C00804700F001054545F2D078
:10DAD000A846E00704D01DB101213046FFF7D2FE71
:10DAE000A007E8D5002DE6D102213046FFF7CAFE97
:10DAF000E1E7BDE8F0870000280201142C020114C0
:10DB0000848C00100B490978884201D32A20704781
:10DB1000094951F82000094900780978884207D25C
:10DB2000074951F8200018B1C06808B100207047BB
:10DB3000212070472002011424020114280201143C
:10DB40002C0201142DE9F041C4B22046FFF7DAFFA0
:10DB5000002815D10B4E0C4D471E3846FCF78CF9AA
:10DB60000101FAD43278C0F3033104FB0211C9B2C7
:10DB7000C0F3032055F821100029EED08847ECE7C8
:10DB8000BDE8F0813002011430FB001470B50D4681
:10DB90000446FFF7B7FF002808D1054850F82420B5
:10DBA000002A03D02846BDE87040104770BD000031
:10DBB000E4FA001470B50D460446FFF7A3FF0028F1
:10DBC00008D1054850F82420002A03D02846BDE893
:10DBD0007040104770BD0000E8FA00142DE9F041D4
:10DBE0000546FFF78FFF002829D1174850F8250078
:10DBF00000B1804715480124164E50F8250047888B
:10DC0000134800EB851816E0C0B205FB004012492E
:10DC100051F8201069B10121A140394209D058F8CA
:10DC2000241031B9C1B20120FBF7C8FF48F8240025
:10DC300038B1641CE4B230788442E5D30020BDE8FA
:10DC4000F0811020FBE70000ECFA0014240201141C
:10DC5000309D0010300201141801001010B5044668
:10DC6000FFF750FF002807D1044850F8240000288F
:10DC700002D0BDE81040004710BD0000F0FA0014CB
:10DC80002DE9F05F0546FFF73DFF00281FD118483A
:10DC90000124194E50F82500DFF86080A24647881D
:10DCA00014484FF0000B00EB851916E0C0B205FBDD
:10DCB000004158F8210070B10AFA04F038420AD045
:10DCC00059F8240038B1FCF747F810B11020BDE82E
:10DCD000F09F49F824B0641CE4B230788442E5D364
:10DCE000074850F8250000B180470020EFE700000A
:10DCF00024020114309D001030020114180100109C
:10DD0000F4FA001470B5174951F82010C9B1CC6865
:10DD1000BCB1D4F89C200025AAB1497D491E0A4215
:10DD200002D1012184F89610D4E92623802100F045
:10DD30005DF9002804D1F4E926121144C4E9001564
:10DD400070BD212070BD94F8961049B100231A4689
:10DD5000802100F04BF90028F4D184F8965070BD72
:10DD6000222070BD2C020114094910B551F8201071
:10DD7000CC680021D4E9262300F038F9002805D129
:10DD8000F4E92601084420600020606010BD000016
:10DD90002C0201142DE9F04105460324154E08E03C
:10DDA00056F825006421FCF7D7F828B10A20FBF7C4
:10DDB000DBFF641EE4B2F3D2BCB1DFF83C80022783
:10DDC00058F82500006840698047040005D00A2003
:10DDD000FBF7CAFF7F1EFFB2F2D256F82500FCF710
:10DDE000F1F824B12220BDE8F0812320FBE70020D8
:10DDF000F9E70000989D00102C0201142DE9F0476E
:10DE0000894605460324164E09E000BF56F8250052
:10DE10006421FCF7A1F828B10A20FBF7A5FF641ED6
:10DE2000E4B2F3D2C4B1DFF83C80022758F82500F1
:10DE30000068416A48468847040005D00A20FBF77D
:10DE400093FF7F1EFFB2F1D256F82500FCF7BAF817
:10DE500024B12220BDE8F0872320FBE70020F9E76A
:10DE6000989D00102C0201142DE9FF5F894601F0F6
:10DE70000F020546102101EAD9002C499B461044A7
:10DE80000B786B4302EB4302D4B2102802D309781B
:10DE90002144CCB2264F142202EB800057F8251003
:10DEA000C968085820B14946284600F011F9A0BBBE
:10DEB000DFF88080022600BF58F824006421FCF7B8
:10DEC0004BF828B10A20FBF74FFF761EF6B2F3D2CB
:10DED0004EB303264FEA070A5A465AF8250002991C
:10DEE0000068C36A484698470746801D06280CD23A
:10DEF000DFE800F00B0B0B030303761E16F0FF06A2
:10DF000003D00A20FBF730FFE6E758F82400FCF7BF
:10DF100059F817F1020F06D01FB1222004B0BDE856
:10DF2000F09F0020FAE72320F8E7000030020114F8
:10DF30002C020114709D00102DE9F05F9346894674
:10DF400001F00F020546102101EAD90024491044CE
:10DF50000B786B4302EB4302D4B2102802D309784A
:10DF60002144CCB2DFF87CA0142202EB80005AF8E6
:10DF70002510C968085820B14946284600F0A8F87D
:10DF800038BBDFF864800226642158F82400FBF7D0
:10DF9000E3FF28B10A20FBF7E7FE761EF6B2F3D2C4
:10DFA000E6B102275AF8250059460068426B4846F8
:10DFB0009047060005D00A20FBF7D6FE7F1EFFB271
:10DFC000F0D258F82400FBF7FDFF16F1020F05D040
:10DFD00016B12220BDE8F09F0020FBE72320F9E7DF
:10DFE000300201142C020114709D00102DE9FF5F16
:10DFF000884601F00F03334A0446102101EAD80095
:10E0000018440127157807FA00F1654303EB45032F
:10E01000DDB2102802D312782A44D5B22A4B53F825
:10E020002420D268D6680E424AD1142101EB80091F
:10E030009A4652F8090038B15FEA087040D141466B
:10E04000204600F045F8A8BBDFF880B0022600BFEC
:10E050005BF825006421FBF77FFF28B10A20FBF75E
:10E0600083FE761EF6B2F3D256B35AF82410CA686D
:10E0700042F809705FF002075AF82400DDE9021245
:10E080000068836B4046984706000BD00A20FBF7D8
:10E090006BFE7F1EFFB2EFD25AF824000021C26847
:10E0A00042F809105BF82500FBF78CFF16F1020F10
:10E0B00006D01EB1222004B0BDE8F09F0020FAE790
:10E0C0002320F8E7300201142C020114709D001087
:10E0D0002DE9F05F8A4601F00F020446102101EAA3
:10E0E000DA00254910440B78634302EB4302D5B2B2
:10E0F000102802D309782944CDB2DFF8808058F87F
:10E100002410CA68142101EB800B52F80B00002880
:10E1100020D0DFF86C900226642159F82500FBF727
:10E120001BFF28B10A20FBF71FFE761EF6B2F3D2C2
:10E130007EB1022758F824000068016C50468847D9
:10E14000060009D00A20FBF70FFE7F1EFFB2F1D2B6
:10E1500008E02320BDE8F09F58F824000021C268A1
:10E1600042F80B1059F82500FBF72CFF0EB12220C6
:10E17000F0E70020EEE70000300201142C02011449
:10E18000709D00102DE9F04180460E46102001F0F0
:10E190000F0200EAD600111815481029047808FB70
:10E1A00004F302EB4302D4B202D300782044C4B299
:10E1B000104F0225642157F82400FBF7CDFE28B14B
:10E1C0000A20FBF7D1FD6D1EEDB2F3D275B10A49FD
:10E1D00051F828000068C16B30468847054657F85B
:10E1E0002400FBF7EFFE2846BDE8F0810020FBE7A6
:10E1F00030020114709D00102C0201142DE9F0472B
:10E20000894601F00F020546102101EAD90025498F
:10E2100010440B786B4302EB4302D4B2102802D3B4
:10E2200009782144CCB2DFF880A0142202EB8000F0
:10E230005AF82510C968085820B149462846FFF702
:10E2400047FF38BBDFF86480022600BF58F824007F
:10E250006421FBF781FE28B10A20FBF785FD761EBD
:10E26000F6B2F3D2DEB102275AF825000068016B3E
:10E2700048468847060005D00A20FBF775FD7F1E3B
:10E28000FFB2F1D258F82400FBF79CFE16F1020F02
:10E2900005D016B12220BDE8F0870020FBE723203F
:10E2A000F9E70000300201142C020114709D0010E7
:10E2B000024951F820000068406800472C02011410
:10E2C000024951F820000068006800472C02011440
:10E2D0002DE9F04791468A4605460324164E08E08C
:10E2E00056F825006421FBF737FE28B10A20FBF71A
:10E2F0003BFD641EE4B2F3D2CCB1DFF840800227CC
:10E30000494658F825000068826850469047040046
:10E3100005D00A20FBF728FD7F1EFFB2F0D256F889
:10E320002500FBF74FFE24B12220BDE8F087232013
:10E33000FBE70020F9E70000989D00102C02011473
:10E340002DE9F047894605460324164E09E000BF33
:10E3500056F825006421FBF7FFFD28B10A20FBF7E2
:10E3600003FD641EE4B2F3D2C4B1DFF83C8002279F
:10E3700058F825000068016948468847040005D020
:10E380000A20FBF7F1FC7F1EFFB2F1D256F8250000
:10E39000FBF718FE24B12220BDE8F0872320FBE71D
:10E3A0000020F9E7989D00102C0201142DE9F04798
:10E3B000894605460324164E09E000BF56F825009D
:10E3C0006421FBF7C9FD28B10A20FBF7CDFC641ED0
:10E3D000E4B2F3D2C4B1DFF83C80022758F825003C
:10E3E0000068816A48468847040005D00A20FBF788
:10E3F000BBFC7F1EFFB2F1D256F82500FBF7E2FD11
:10E4000024B12220BDE8F0872320FBE70020F9E7B4
:10E41000989D00102C0201142DE9F0470546DC48B8
:10E4200088460078854278D2DFF8689359F82570DD
:10E43000002F72D0FC68002C6FD05FEA48704FF05C
:10E44000000632D594F8A000000621D5D4F89C002F
:10E4500010B994F8960020B12846FFF753FC20B37A
:10E460000AE094F8970000B384F897602846FFF715
:10E4700075FA48B1012807D0012200212846FFF78C
:10E480005BFDC4F89C6010E0284601F052F90CE0F6
:10E49000284601F046F940B96078010605D500F03C
:10E4A0007F0161702846FFF7A9FC5FEA887045D5B7
:10E4B00094F8A00001063ED4D4F89C1021B128465F
:10E4C000FFF752FC50B32EE094F8971059B184F83E
:10E4D00097602846FFF764FA08B1012823D128463F
:10E4E00001F01AF92AE0C0F34111E1B101291AD172
:10E4F00010F01F0017D0012802D0022813D10EE01F
:10E500002846FBF7DDFF48B92846FBF78DFF28B901
:10E51000284600F041F908B905E04AE00EE0284637
:10E52000FBF786FFF7E7012280212846FFF704FD6D
:10E53000C4F89C6002E0284601F000F95FEAC87068
:10E5400037D02846C84659F82010C968A031FFF7CF
:10E550002DFF00282DD12846FFF762FA0121B8B31C
:10E56000012863D1D4F8A80018B9D4F8AC20002A47
:10E570005CD1B4F8A620F2B1C4F89800D4F8AC008D
:10E58000C4F89C0084F8971094F8A0301B0603D4BC
:10E590002846FFF7E9FB0AE0904205D27A7D521E39
:10E5A000104201D184F896102846FFF7ABFB0028F3
:10E5B0003CD1BDE8F08794F8A0000006284603D4BB
:10E5C000BDE8F04701F0A8B8BDE8F04701F0B1B8E8
:10E5D000B868C4F89800B4F8A6007A8B904202D9C3
:10E5E000C4F89C2001E0C4F89C0094F8A000C0F39B
:10E5F000411222B1012A7DD0022A17D19BE094F862
:10E60000A1000C2812D2DFE800F00612AF14AF1AF6
:10E6100034AF3A505471284600F05EFD2CE0284695
:10E62000FFF7E0F92846FFF76DFBE0B39CE000211F
:10E6300000E00121284600F0A9FD98B994E058F8BF
:10E640002500C06880B3B0F8A41069BBB0F8A6106C
:10E6500051BB90F8A010C90626D190F8A21041F045
:10E66000800141702846FFF7BDF9284601F054F8B3
:10E6700068E0284600F00CFC0028D0D174E058F87F
:10E680002500C06880B1B0F8A2206AB9B0F8A42013
:10E6900052B9B0F8A620012A66D190F8A020D2067F
:10E6A00062D1021D1EE04AE040E0284600F0F4FD81
:10E6B000C3E758F82520CAB3D068B8B3B0F8A23081
:10E6C000A3BBB0F8A630012B4ED190F8A03003F0D8
:10E6D0001F03012B48D1B0F8A430578ABB4243D264
:10E6E00052681A44C0E9262199E703E0284600F061
:10E6F00007FFA2E710F01F0036D0012802D0022841
:10E7000032D114E02846FBF7D9FE58B92846FBF76A
:10E71000DBFE38B92846FBF785FE18B9284600F01D
:10E72000FFF818B12846FFF75DF90BE01CE028461A
:10E73000FBF77CFEF5E7284600F074FC9CE72846D2
:10E7400000F0F7FF94F8A00000063FF532AFB4F8F0
:10E75000A60000283FF42DAF2846FFF705FB002850
:10E76000F8D00122802109E094F8A0000006B4F856
:10E77000A60009D40028F4D0012200212846FFF782
:10E78000DBFBC4F89C6014E70028EAD1F4E7000042
:10E79000280201142C0201142DE9F04107463B48E0
:10E7A000007887426BD23A4850F82750002D66D047
:10E7B000EC688CB30026DFF8DC805CE0364850F86B
:10E7C000260040B3017EB94253D1B4F8A410C27EF2
:10E7D000914202D0007F81424BD194F8A1004128A0
:10E7E0002CD007DC68B1022817D020281BD0402885
:10E7F0003FD11CE082282AD086282DD0882838D105
:10E8000030E0B4F8A6103046FDF732FE2FE038466F
:10E8100000F082FFB0B32CE031E0B4F8A210304633
:10E82000FDF744FE23E03046FDF75CFE1FE0B4F840
:10E83000A2203046A968FEF723FB18E0B4F8A63002
:10E84000B4F8A2103046AA68FEF742FB0FE030464B
:10E85000A968FEF76FFB0AE0A86801683046FEF77A
:10E8600097FB04E0A86801883046FEF749FB0028C2
:10E87000CDD1761CF6B298F8000086429ED30020D7
:10E88000BDE8F081FFE70120FAE70000280201144B
:10E890002C020114C4010114C8010114F0B51B4A73
:10E8A000127890422FD21A4A52F82020D56855B3D8
:10E8B0000023DFF860C0184F22E000BF5CF823405F
:10E8C000227882421AD1002202EBC20604EB4606ED
:10E8D00096F804E0BEF1000F0CD095F8A2E076792E
:10E8E000B64507D10D4850F8230050F822000860C3
:10E8F0000120F0BD521CD2B2042AE5D35B1CDBB26E
:10E900003A789342DAD30020F0BD000028020114C7
:10E910002C020114240201142002011450010114DC
:10E920002DE9FC5FC74980460978884277D2C649FD
:10E9300051F82850002D72D0EC68002CFBD0002735
:10E940004FF0040B4FF00209DFF800A372E1C0485A
:10E9500050F82760002E6ED0307E40456BD1B4F861
:10E96000A400F17E884202D0317F8842F6D194F82B
:10E97000A100432876D01DDC212874D00DDC0328AB
:10E980005AD005DC80B3012832D00228E6D147E016
:10E9900004285DD02028E1D168E0402871D004DC53
:10E9A00022286FD02328D9D18DE041281CD04228BD
:10E9B000D4D1C2E0852874D00EDC822872D006DC67
:10E9C000442870D080286FD08128C7D1E6E0832802
:10E9D0006BD08428C2D1FBE0863805282BD2DFE833
:10E9E00000F09DF01FEFEE00A868C4F898009FE0CB
:10E9F00000200090ADF80400B4F8A61001AB6A4600
:10EA00003846FDF7F1FC002815D00099002906D002
:10EA1000BDF80400002802D0C4E9261012E07BE013
:10EA2000D4F89C00022877D3A868C4F898007FD94E
:10EA3000C4F89C907CE070E0B4F8A2103846FDF772
:10EA4000D1FC80E04046FFF75DF9002874D0EFE08C
:10EA5000B4F8A60000285FD1B4F8A2103846FDF73C
:10EA6000BFFC2BE07AE00EE0B0B3E1E0D4F89C000C
:10EA7000072851D3A868C4F8980059D94FF0070067
:10EA80003CE02AE012E03846FDF7C6FC002844D0FE
:10EA9000A868C4F89800D4F89C000728D2D90720A9
:10EAA00089E09FE02DE062E068E08CE0B4F8A60029
:10EAB00090BBB4F8A2103846FDF7FAFC68B34046A4
:10EAC00000F02AFED0E7B4F8A60028BBB4F8A210E4
:10EAD0003846FDF7CBFCF1E712E0B4F8A200D4F819
:10EAE0009C1000EB4002B1EB420F15D3A968C4F8AB
:10EAF00098101DD900EB40004FEA4000C4F89C007C
:10EB000016E0D4F89C00062806D3A868C4F898003C
:10EB10000ED94FF00600F1E754E04FE0D4F89C0026
:10EB200004284FD3A868C4F8980001D9C4F89CB051
:10EB30004FF00100BDE8FC9F6DE0B4F8A21038462C
:10EB4000AA68FEF7FBF8C8B3A868C4F89800D4F820
:10EB50009C000228A2D9C4F89C9073E7B4F8A600E0
:10EB600080BBB4F8A2103846FEF7A0F9A6E7B4F8C7
:10EB7000A2103846AA68FEF7F7F837E07169384600
:10EB80006831FEF74FF9C8B170696830C4F8980071
:10EB9000D4F89C001C28E0D91C200CE03846A96859
:10EBA000FEF70AF950B1A868C4F89800D4F89C00A0
:10EBB0000628D2D90620C4F89C0043E738E02EE0AE
:10EBC00024E01EE03BE03846A968FEF707F9BAE703
:10EBD000B4F8A60098BB706990F82A103846FEF782
:10EBE000BBF96BE73846A968FEF70AF900B3A868D5
:10EBF000C4F89800D4F89C000428AED9C4F89CB09E
:10EC000020E73846A968FEF7C5F89CE73846A968AA
:10EC1000FEF782F897E7404600F08BFD24E7B4F852
:10EC2000A60060B9B4F8A2103846FEF70DF945E722
:10EC30007F1CFFB29AF800008742FFF488AE0020E4
:10EC400078E70000280201142C020114C401011409
:10EC5000C801011470B50C460546FEF755FA0028A8
:10EC600005D121462846BDE87040FFF731BA70BD96
:10EC70002DE9F0411C4615460E460746FEF744FABC
:10EC8000002807D123462A4631463846BDE8F041E0
:10EC9000FFF7ACB9BDE8F08170B50C460546FEF74C
:10ECA00033FA08B1002070BD21462846BDE8704007
:10ECB000FFF768BA2DE9F0411D4616460C46074697
:10ECC000FEF722FA002808D144F080012B46324694
:10ECD0003846BDE8F041FFF789B9BDE8F081000092
:10ECE0002DE9F05F0446FEF70FFA050078D15C4885
:10ECF00050F82400C768387810B10020BDE8F09FB4
:10ED00002046FFF7DDFA574901EB840108602046F1
:10ED1000FFF7CEFA544941F82400B0213846FBF7FA
:10ED200031FDDFF84CA1DFF84491DFF848B19AF8E3
:10ED3000000059F8241004FB00F639B900222146DE
:10ED40001046FBF7D5F849F8240078B3002510E009
:10ED500005EB460000F0FF085BF8280038B92A46AA
:10ED600021460120FBF7C4F84BF82800F0B16D1CD8
:10ED7000EDB29AF80000B5EB400FE9D33E4850F8E9
:10ED80002400426A3AB1364850F82400C18A11B1D1
:10ED90001046FBF7F7FC394850F8240000B18047D3
:10EDA0002046FBF7B1FB050023D102E0FFE7122567
:10EDB0001FE0334D55F8240030B921460020FAF702
:10EDC000FDFE45F8240060B12E4850F824202E485E
:10EDD00050F824102046FFF77BFA050009D102E025
:10EDE0003BE010250EE002212046FFF7A9FA0500BE
:10EDF00012D0234F57F8240020B1FAF7ADFF0020BE
:10EE000047F824002046FBF791FB204850F82400E7
:10EE100000B18047002712E0012038701DE000BFDC
:10EE200007EB460000F0FF085BF8281029B1084600
:10EE3000FBF7D0F800204BF828007F1CFFB29AF8AF
:10EE40000000B7EB400FEBD359F824004E4620B139
:10EE5000FBF7C0F8002046F8240028464EE70000E3
:10EE60002C0201149C9D0010848C0010989D0010B1
:10EE700030020114709D00101401001018FB0014E2
:10EE80002C9D0010B8000114B400011428FB0014DC
:10EE90002DE9F0415F490978884273D25E4951F803
:10EEA0002060002E6ED0F568002D6BD0B5F8A6104E
:10EEB000002967D095F8A010584C11F01F0102D01E
:10EEC00001295FD186E0B5F8A2205549130A082B25
:10EED00058D2DFE803F090041D5890900E3F12F0D6
:10EEE000FF0F4FD151F820004068C5F8980012205C
:10EEF0006EE0727C002A7ED095F8952051F82000B3
:10EF000022B1C068C5F898000A2061E08068F9E77E
:10EF1000737C002B95F8953007D03BB151F8200059
:10EF2000406920600020D2B20BE05BBB51F82000AA
:10EF30000069F6E721680B7813B14B88194421600A
:10EF4000401C8242F6D120680178D9B1C5F89800FA
:10EF500040883DE0737CABB195F8953051F82000C6
:10EF600023B1C06920600020D2B208E08069F9E7CF
:10EF700021680B7813B14B8819442160401C8242F0
:10EF8000F6D1E0E737E0D2B2032A05D151F82030BC
:10EF90005B6A0BB11F782FB9EE2A05D151F82030EA
:10EFA0009B6A0BB123600DE051F82000006A2060DD
:10EFB000002005E02368197809B119442160401C3C
:10EFC0008242F7D120680178A9B1C5F8980000788D
:10EFD000606009E0114A121D111FFBF76DFA00284D
:10EFE0000AD02068C5F89800B5F8A6006168884284
:10EFF00004D3084603E00020BDE8F0816060C5F856
:10F000009C00717D491E014202D1012085F89600C5
:10F010000120F1E7280201142C0201140000001065
:10F020001401001070B528490978884220D2274978
:10F0300051F82060E6B1F468D4B194F8A110327EA2
:10F04000914215D1B4F8A210090A11D1B4F8A61052
:10F0500071B194F8A0101E4D11F01F0102D00129CA
:10F0600006D10EE0B4F8A410042903D005290CD071
:10F07000002070BD174951F82000C06A80B1A86017
:10F080000AE0B4F8A41005290AD111490831FFF7A4
:10F0900005FC0028EDD0A868C4F898000068E86076
:10F0A000B4F8A600E968884201D3084600E0E860A9
:10F0B000C4F89C00717D491E014202D1012084F8F0
:10F0C0009600012070BD0000280201142C020114DA
:10F0D0000000001014010010F0B52A490978884298
:10F0E0004ED2294951F82020F2B3D068002846D0EA
:10F0F000926800F19801BAB3B0F8A230A3BBB0F89F
:10F10000A630022B3CD190F8A0304FF0020613F04D
:10F110001F0305D00024012B09D0022B30D110E0B1
:10F12000B0F8A42002BB801CC1E9000626E00379E8
:10F13000D3B190F8A43090F89400834220D2147098
:10F1400019E090F8A430102703F08F0505F00F03A5
:10F1500007EAD5071F440123BB4007790FB92D07E4
:10F160000ED185681D4200E00AE009D0C068184051
:10F1700000D0012010705470C1E900260120F0BDBC
:10F180000020F0BD280201142C0201142DE9F041E9
:10F1900007463D480078874265D23C4850F8270032
:10F1A000C468002C5FD0B4F8A600E8BB94F8A000B7
:10F1B00010F01F0004D0012855D0022853D117E0C9
:10F1C000B4F8A20001284ED141B1314850F82700CF
:10F1D00000B18047608840F0020007E02D4850F8F9
:10F1E000270000B18047608820F00200608048E07E
:10F1F00094F8A400102200F08F0606F00F0002EA37
:10F20000D60210440125227985406AB1A2682A42BB
:10F2100029D0B4F8A220A2BB320724D0C1B104EB9C
:10F220008000406930B100E01DE031463846FEF70D
:10F230004FFFC0B9012231463846FEF77DFE90B936
:10F24000E06831462843E0603846FBF7BFF918E034
:10F25000D4E903010840284213D100223146384640
:10F26000FEF76AFE10B10020BDE8F081E06831468B
:10F27000A843E0603846FBF725F931463846FBF7EE
:10F2800075F90120F0E70000280201142C02011496
:10F2900000FB0014FCFA00142DE9FC5F9449804641
:10F2A000097888427ED2934951F82870002F79D08E
:10F2B000FC68002CFBD0B4F8A400002872D1B4F88C
:10F2C000A6000028FAD1009094F8A00010F01F0FBB
:10F2D000F4D194F8A2004FF0000A10F0FF0F4FF0A5
:10F2E000010B4FF4803977D0797C8348002994F85A
:10F2F000951004D029B150F8280045699DE00029F7
:10F30000DCD150F82800056997E06878022804D01D
:10F31000042868D0052863D168E0697994F8A200D0
:10F3200081425ED129797A8A91423BD8207128792D
:10F3300084F89400002003E07A6802F800A0401CE2
:10F34000798A8142F8D80126A1680BFA06F00142B9
:10F3500013D004EB8600406928B131464046FEF7E1
:10F36000B7FE00281ED131464046FEF747FF002871
:10F3700018D131464046FBF729F9A16809FA06F091
:10F38000014218D004EB8600406D30B146F0800198
:10F390004046FEF79DFE002804D146F0800140461D
:10F3A000019100E075E0FEF729FF002871D1404689
:10F3B0000199FBF70BF9761CF6B2102EC4D34FF06F
:10F3C0000110C4E9020AC4F810A0E8794006608878
:10F3D00003D540F0010002E034E020F0010060803D
:10F3E00029E0688828E0E878009024E0009810BBC5
:10F3F000A878102200F08F0101F00F0002EAD1027C
:10F4000010440BFA00F604EB8000406918B1404646
:10F41000FEF75EFEE8BBA0683043A060E878AB88EA
:10F4200000F00302A9784046FEF71EFD88BBA978CC
:10F430004046FBF79BF828780544287800287FF49D
:10F4400064AF41E0564684F804A001254FEA0B075B
:10F45000A16807FA05F0014211D004EB850040696C
:10F4600020B129464046FEF733FE90B92946404672
:10F47000FEF7C4FE68B929464046FBF7A7F8A16825
:10F4800009FA05F0014216D004EB8500406D38B151
:10F4900000E02BE045F080014046FEF719FE28BB56
:10F4A00045F080018A464046FEF7A8FEF0B9514675
:10F4B0004046FBF78BF86D1CEDB2102DC8D34FF012
:10F4C0000110C4E902062661207994F8A21088424E
:10F4D0000CD121794046FBF747F8084850F828102E
:10F4E00009B1207988470120BDE8FC9F0020FBE797
:10F4F000280201142C02011414010010F8FA00145F
:10F500002DE9FE4F07466148007887427ED2604869
:10F5100050F82760002E79D0F468002C76D0B4F82B
:10F52000A600002872D18346CDF808B094F8A00058
:10F53000D84600F01F00DA46D946012866D1207966
:10F54000002871D0717C5348002994F8951004D09C
:10F5500029B150F8270045698CE0002956D150F8B0
:10F560002700056986E06878022804D0042808D0BE
:10F5700005287DD11FE068792179884278D0688894
:10F5800077E0B4F8A400718A88426AD295F80280C4
:10F5900095F803A04FF0000B404569D1B4F8A210D4
:10F5A000514565D170684FF0010910F808100291BB
:10F5B00000F808A05CE0B4F8A410414558D1A87840
:10F5C000102200F08F0000F00F01009002EAD0003E
:10F5D0000844012181400191B4F8A220524524D170
:10F5E000A168019A04EB80001143A160E168019ACF
:10F5F0009143E160406920B138460099FEF768FD0B
:10F6000020B9E878AB8800F0030200E029E0A9788F
:10F610003846FEF729FC20BB38460099FAF7A6FFCA
:10F6200001994BEA010B23E01CE0029A92451FD19D
:10F63000019A1BEA020F1BD1A16804EB80009143E1
:10F64000A160E168019A9143E160406920B13846C8
:10F650000099FEF73DFD20B938460099FEF7CEFD32
:10F6600010B10020BDE8FE8F38460099FAF7AEFFD2
:10F6700028780544287800287FF475AFB9F1000F89
:10F6800001D084F805804846ECE700002802011408
:10F690002C0201141401001070B5084D0446AF216E
:10F6A00055F82400C068401CFBF76CF855F824009E
:10F6B000017CC068C1F38011418070BD2C0201142F
:10F6C000024A52F82000FAF7D1BB00002C9D00102E
:10F6D000F0B40E4D01F00F03102455F8205004EA49
:10F6E000D1011944ED68142606EB810100246C5009
:10F6F000190341EA0221064A127800FB0230054A4A
:10F7000052F820000068F0BCFAF7B0BB2C020114DC
:10F71000300201141801001000231A468021FEF760
:10F7200065BC10B58021FEF72DFD002800D02220F9
:10F7300010BD00231A461946FEF758BC10B5044602
:10F740000021FEF71FFD08B1222010BD064850F829
:10F750002400C068406D0028F7D02046BDE8104066
:10F760008021FEF7B5BC00002C02011402E008C89D
:10F77000121F08C1002AFAD170477047002001E02B
:10F7800001C1121F002AFBD17047000003000000D6
:10F79000E803000005000000805C0010200000006D
:10F7A0000000000000000000000000000000000059
:10F7B0000000000000000000005D001000100000CC
:10F7C0000000000000000000000000000000000039
:10F7D0000000000000000000000000000000000029
:10F7E0000004000068FC0014A4FC00148CFC00144D
:10F7F00004000000346E00102071001000000000B2
:10F8000000000000000000000000000000000000F8
:10F8100000000000846D0010346E00100000000035
:10F8200000000000006D0010346D001000000000AA
:10F8300000000000000000000000000000000000C8
:10F8400000000000180000000000000000000000A0
:10F8500025690014316900143569001449690014E0
:10F860005D690014696900147569001481690014E8
:10F87000ED690014F9690014056A0014116A001496
:10F88000656A0014816A001425690014E96A00148D
:10F89000ED6A0014016B0014156B0014216B001449
:10F8A0002D6B0014396B0014A56B0014B16B0014A0
:10F8B000B96B0014C56B0014196C00143D6C001476
:10F8C000318400143D8400144184001475840014B4
:10F8D0009D8400141D870014458700146D87001453
:10F8E000A5870014D5870014018800143D880014F2
:10F8F00079890014198A0014F58A0014518B0014B8
:10F90000758B0014298C001400000000000000001A
:10F9100000000000000000000000000000000000E7
:10F92000200000000000000000000000290000008E
:10F9300000100840000000009CF9001494F9001425
:10F9400000000000000000000000000000000000B7
:10F950000000000000000000000000000815054045
:10F960000C15054000250540042505409C00054078
:10F97000001000000431054054310540180000001B
:10F980000000000000000000000000009C290010A2
:10F990000000BA4302010000010000000200000064
:10F9A0000100000001040100916A00140100000040
:10F9B00000200840002008400000000014FA001455
:10F9C0000000000000000000000000000000000037
:10F9D00000000000000000000000000010150540BD
:10F9E000141505400024054004240540A0000540EE
:10F9F000002000000431054054310540190000008A
:10FA00000000000000000000A4F90014D02900103C
:10FA100000000000010E000001000000C8FC0014FE
:10FA200000000000346E001044000000207100103F
:10FA300000020000180000000000000000000000AC
:10FA40000002000020000000000200002000000072
:10FA50007906001459A4001445A4001439080014B0
:10FA600061050014B107001441A4001455080014E6
:10FA7000E107001429050014A9A4001479A40014B6
:10FA800081A40014A1A4001489A4001491A400145A
:10FA900099A4001485A400145DA40014B1A400145A
:10FAA000B5A4001465A40014ADA4001471A400143E
:10FAB0007DA4001475A40014A5A400148DA4001442
:10FAC00095A400149DA4001469A400146DA400144E
:10FAD00061A4001435020014310200142D02001438
:10FAE00029020014F501001425020014C9010014B4
:10FAF000F1010014ED010014EDA40014F5A40014AC
:10FB0000F1A4001405A5001401A50014FDA400141F
:10FB1000F9A40014E1A40014CDA40014DDA4001481
:10FB2000E9A40014E5A40014D1A40014D5A4001481
:10FB300000000000390200140D0300141903001422
:10FB40001D030014001000001111F1002411E10048
:10FB50003B11D1005511C1007411B1009911A100E0
:10FB6000C7119100001281002212F20049127100A7
:10FB70007612D200AA126100E812B20033135100CB
:10FB80006D13E3008E139200B113D30000144100F3
:10FB90004414F4005D14B30092147200CC14A3005A
:10FBA000EC14D40055153100B615E500D115B4009C
:10FBB000001683002716D50066165200AA16C50047
:10FBC000DB1673001C1794004517B5006217D600AA
:10FBD0007717F700001821008818F8009D18D70043
:10FBE000BA18B600E3189500241974005519C70017
:10FBF00099195300D819D800001A85002E1AB70099
:10FC0000491AE900AA1A3200131BD900331BA700B6
:10FC10006D1B7500A21BB800BB1BFB00001C430042
:10FC20004E1CDA00711C9700921CEB00CC1C540097
:10FC3000171DB900551D6500891DDB00B61D760036
:10FC4000DD1DFD00001E8700381E9800661EA900FD
:10FC50008B1EBA00AA1ECB00C41EDC00DB1EED000A
:10FC6000EE1EFE000000000000000000000000008A
:10FC7000786E0010440000002073001000020000A5
:10FC80000100000000000000000000000000000073
:10FC900000000000006D001034000000346D001002
:10FCA000500000000000000000000000BC6E0010CA
:10FCB0004400000020750010000200002800000031
:10FCC0000000000000000000434443305F41434D0A
:10FCD0005F554152545F746F5F5553425F54687271
:10FCE00065616400555342445F437573746F6D439F
:10FCF0006C617373305F4550315F54687265616445
:10FD000000555342445F437573746F6D436C617368
:10FD100073305F4550325F546872656164005553BB
:10FD200042445F437573746F6D436C617373305FEE
:10FD30004550335F54687265616400555342445FB7
:10FD4000437573746F6D436C617373305F455034EA
:10FD50005F5468726561640055534244305F436F7D
:10FD600072655F54687265616400555342445F4335
:10FD70004443305F42756C6B5F5468726561640028
:10FD8000555342445F434443305F496E745F546847
:10FD900072656164000000005254582056352E35BB
:10FDA0002E3200000902690003010080FA090400F4
:10FDB0000003FF0000040705010240000007058161
:10FDC0000240000007058202400000080B01020209
:10FDD00002010509040100010202000505240010CA
:10FDE000010524010301042402060524060102077B
:10FDF00005830310000209040200020A000006073E
:10FE000005040240000007058402400000000000D5
:10FE10000902690003010080FA0904000003FF00E1
:10FE2000000407050102000200070581020002002C
:10FE300007058202000200080B0102020201050907
:10FE4000040100010202000505240010010524013F
:10FE5000030104240206052406010207058303109A
:10FE6000000209040200020A00000607050402005D
:10FE700002000705840200020000000058FD001483
:10FE800000000000006F0010440000002077001008
:10FE9000000400002000000000000000000000003E
:10FEA000C0F80014208B0010E08B0010248B001091
:10FEB00080010300064010000100800012010002D2
:10FEC000EF02014051C20AF00001010203010000EB
:10FED0000A06000200000040010000000A060002BD
:10FEE0000000004001000000070500004000000085
:10FEF00028000000000104000100000000000000D4
:10FF0000000157494E555342000000000000000018
:10FF1000000000000000000012034D0053004600E6
:10FF20005400310030003000010000000907690072
:10FF300003010080FA0904000003FF000004070524
:10FF4000010200020007058102000200070582028B
:10FF5000000200080B010202020105090401000170
:10FF600002020005052400100105240103010424F8
:10FF70000206052406010207058303100002090496
:10FF80000200020A0000060705040200020007053D
:10FF900084020002000000000907690003010080DC
:10FFA000FA0904000003FF000004070501024000F5
:10FFB000000705810240000007058202400000089A
:10FFC0000B01020202010509040100010202000501
:10FFD0000524001001052401030104240206052460
:10FFE0000601020705830310000209040200020A49
:10FFF00000000607050402400000070584024000D7
:020000041401E5
:10000000000000000403090428034B0045004900D8
:100010004C0020002D00200054006F006F006C0089
:1000200073002000420079002000410052004D0082
:1000300014034C00500043002D004C0069006E007A
:100040006B0032001A0330003000300031004100F4
:100050003000300030003000300030003000280325
:100060004C00500043002D004C0069006E006B00F6
:100070003200200043004D005300490053002D0082
:1000800044004100500016035500530042005F0039
:1000900043004400430030005F0030001603550069
:1000A000530042005F0043004400430030005F0003
:1000B00031000000E59F0014ED9F00148E00000049
:1000C000000105000100840000000100000028007C
:1000D00044006500760069006300650049006E0019
:1000E00074006500720066006100630065004700EF
:1000F00055004900440000004E0000007B00430012
:1001000044004200330042003500410044002D000D
:1001100032003900330042002D0034003600360032
:1001200033002D0041004100330036002D00310026
:1001300041004100450034003600340036003300F1
:100140003700370036007D0000000000000000008E
:100150000401001000000000000000000002000088
:10016000200000000002000020000000000200004B
:10017000200000000002000020000000A0960010F7
:10018000948C0010888C0010A09A0010A09400108D
:10019000A49C0010000100010203040400040008F4
:1001A00010001000400000020000000000000000ED
:1001B000000000000000000000000000000000003F
:1001C00000000000010000007C01011480FD00140B
:1001D0006AFD001400000600010001010181018296
:1001E00000820003008300040084000100010081FC
:1001F000000200820003008300040084000200016A
:1002000000810002008200030083000400840003D8
:1002100000010081000200820003008300040084CA
:1002200001000000D401011401000000A0FE001430
:100230000500000000080114000000100008000084
:100240006CF700140010011400080010A0990000C1
:100250007CF70014F0D095030000000000000000BF
:10026000000000000000000000000000000000008E
:10027000000000000000000000000000000000007E
:10028000000000000000000000000000000000006E
:10029000000000000000000000000000000000005E
:1008200000000000000000000095BA0A010000006E
:1008300098FD0014D2B3FB0200000000000000008D
:1008400000000000000000000000000000000000A8
:100850000000000000000000000000000000000098
:100860000000000000000000000000000000000088
:100870000000000000000000000000000000000078
:100880000000000000000000000000000000000068
:100890000000000000000000000000000000000058
:1008A0000000000000000000000000000000000048
:1008B0000000000000000000000000000000000038
:1008C0000000000000000000000000000000000028
:1008D00000000000E8FE0014BCFE0014D0FE00146E
:1008E000DCFE0014A4FD001410FE00142CFF001404
:1008F00098FF001404000114608C001018FF00140D
:10090000F0FE0014BC0001144A0101144B01011453
:100910004C010114D40000102C9D0010349D0010D7
:10092000389D0010289D0010A09C001000000000C1
:1009300000000000000000000000000000000000B7
:1009400000000000000000000000000000000000A7
:100950000000000000000000000000000000000097
:100960000000000000000000000000000000000087
:0400000514000115CD
:00000001FF
